{
	"contracts/CreateTicket.sol": {
		"NewTicket": {
			"abi": [
				{
					"anonymous": false,
					"inputs": [
						{
							"indexed": false,
							"internalType": "uint256",
							"name": "ticketId",
							"type": "uint256"
						},
						{
							"indexed": false,
							"internalType": "uint256",
							"name": "refNo",
							"type": "uint256"
						},
						{
							"indexed": false,
							"internalType": "string",
							"name": "authority",
							"type": "string"
						},
						{
							"indexed": false,
							"internalType": "string",
							"name": "link",
							"type": "string"
						}
					],
					"name": "ticketCreated",
					"type": "event"
				},
				{
					"inputs": [
						{
							"internalType": "string",
							"name": "_authority",
							"type": "string"
						},
						{
							"internalType": "string",
							"name": "_link",
							"type": "string"
						}
					],
					"name": "createNewTicket",
					"outputs": [],
					"stateMutability": "nonpayable",
					"type": "function"
				},
				{
					"inputs": [
						{
							"internalType": "uint256",
							"name": "",
							"type": "uint256"
						}
					],
					"name": "ticketStatus",
					"outputs": [
						{
							"internalType": "string",
							"name": "",
							"type": "string"
						}
					],
					"stateMutability": "view",
					"type": "function"
				},
				{
					"inputs": [
						{
							"internalType": "uint256",
							"name": "",
							"type": "uint256"
						}
					],
					"name": "ticketToOwner",
					"outputs": [
						{
							"internalType": "address",
							"name": "",
							"type": "address"
						}
					],
					"stateMutability": "view",
					"type": "function"
				},
				{
					"inputs": [
						{
							"internalType": "uint256",
							"name": "",
							"type": "uint256"
						}
					],
					"name": "tickets",
					"outputs": [
						{
							"internalType": "uint256",
							"name": "refNo",
							"type": "uint256"
						},
						{
							"internalType": "string",
							"name": "authority",
							"type": "string"
						},
						{
							"internalType": "string",
							"name": "link",
							"type": "string"
						}
					],
					"stateMutability": "view",
					"type": "function"
				}
			],
			"devdoc": {
				"kind": "dev",
				"methods": {},
				"version": 1
			},
			"evm": {
				"assembly": "    /* \"contracts/CreateTicket.sol\":70:1044  contract NewTicket {\r... */\n  mstore(0x40, 0x80)\n  callvalue\n  dup1\n  iszero\n  tag_1\n  jumpi\n  0x00\n  dup1\n  revert\ntag_1:\n  pop\n  dataSize(sub_0)\n  dup1\n  dataOffset(sub_0)\n  0x00\n  codecopy\n  0x00\n  return\nstop\n\nsub_0: assembly {\n        /* \"contracts/CreateTicket.sol\":70:1044  contract NewTicket {\r... */\n      mstore(0x40, 0x80)\n      callvalue\n      dup1\n      iszero\n      tag_1\n      jumpi\n      0x00\n      dup1\n      revert\n    tag_1:\n      pop\n      jumpi(tag_2, lt(calldatasize, 0x04))\n      shr(0xe0, calldataload(0x00))\n      dup1\n      0x2b08e824\n      eq\n      tag_3\n      jumpi\n      dup1\n      0x50b44712\n      eq\n      tag_4\n      jumpi\n      dup1\n      0x8ce7e461\n      eq\n      tag_5\n      jumpi\n      dup1\n      0xe0a08f27\n      eq\n      tag_6\n      jumpi\n    tag_2:\n      0x00\n      dup1\n      revert\n        /* \"contracts/CreateTicket.sol\":316:361  mapping(uint => address) public ticketToOwner */\n    tag_3:\n      tag_7\n      0x04\n      dup1\n      calldatasize\n      sub\n      dup2\n      add\n      swap1\n      tag_8\n      swap2\n      swap1\n      tag_9\n      jump\t// in\n    tag_8:\n      tag_10\n      jump\t// in\n    tag_7:\n      mload(0x40)\n      tag_11\n      swap2\n      swap1\n      tag_12\n      jump\t// in\n    tag_11:\n      mload(0x40)\n      dup1\n      swap2\n      sub\n      swap1\n      return\n        /* \"contracts/CreateTicket.sol\":284:307  Ticket[] public tickets */\n    tag_4:\n      tag_13\n      0x04\n      dup1\n      calldatasize\n      sub\n      dup2\n      add\n      swap1\n      tag_14\n      swap2\n      swap1\n      tag_9\n      jump\t// in\n    tag_14:\n      tag_15\n      jump\t// in\n    tag_13:\n      mload(0x40)\n      tag_16\n      swap4\n      swap3\n      swap2\n      swap1\n      tag_17\n      jump\t// in\n    tag_16:\n      mload(0x40)\n      dup1\n      swap2\n      sub\n      swap1\n      return\n        /* \"contracts/CreateTicket.sol\":368:411  mapping(uint => string) public ticketStatus */\n    tag_5:\n      tag_18\n      0x04\n      dup1\n      calldatasize\n      sub\n      dup2\n      add\n      swap1\n      tag_19\n      swap2\n      swap1\n      tag_9\n      jump\t// in\n    tag_19:\n      tag_20\n      jump\t// in\n    tag_18:\n      mload(0x40)\n      tag_21\n      swap2\n      swap1\n      tag_22\n      jump\t// in\n    tag_21:\n      mload(0x40)\n      dup1\n      swap2\n      sub\n      swap1\n      return\n        /* \"contracts/CreateTicket.sol\":860:1041  function createNewTicket(string memory _authority, string memory _link) public {\r... */\n    tag_6:\n      tag_23\n      0x04\n      dup1\n      calldatasize\n      sub\n      dup2\n      add\n      swap1\n      tag_24\n      swap2\n      swap1\n      tag_25\n      jump\t// in\n    tag_24:\n      tag_26\n      jump\t// in\n    tag_23:\n      stop\n        /* \"contracts/CreateTicket.sol\":316:361  mapping(uint => address) public ticketToOwner */\n    tag_10:\n      mstore(0x20, 0x01)\n      dup1\n      0x00\n      mstore\n      keccak256(0x00, 0x40)\n      0x00\n      swap2\n      pop\n      sload\n      swap1\n      0x0100\n      exp\n      swap1\n      div\n      0xffffffffffffffffffffffffffffffffffffffff\n      and\n      dup2\n      jump\t// out\n        /* \"contracts/CreateTicket.sol\":284:307  Ticket[] public tickets */\n    tag_15:\n      0x00\n      dup2\n      dup2\n      sload\n      dup2\n      lt\n      tag_27\n      jumpi\n      0x00\n      dup1\n      revert\n    tag_27:\n      swap1\n      0x00\n      mstore\n      keccak256(0x00, 0x20)\n      swap1\n      0x03\n      mul\n      add\n      0x00\n      swap2\n      pop\n      swap1\n      pop\n      dup1\n      0x00\n      add\n      sload\n      swap1\n      dup1\n      0x01\n      add\n      dup1\n      sload\n      tag_29\n      swap1\n      tag_30\n      jump\t// in\n    tag_29:\n      dup1\n      0x1f\n      add\n      0x20\n      dup1\n      swap2\n      div\n      mul\n      0x20\n      add\n      mload(0x40)\n      swap1\n      dup2\n      add\n      0x40\n      mstore\n      dup1\n      swap3\n      swap2\n      swap1\n      dup2\n      dup2\n      mstore\n      0x20\n      add\n      dup3\n      dup1\n      sload\n      tag_31\n      swap1\n      tag_30\n      jump\t// in\n    tag_31:\n      dup1\n      iszero\n      tag_32\n      jumpi\n      dup1\n      0x1f\n      lt\n      tag_33\n      jumpi\n      0x0100\n      dup1\n      dup4\n      sload\n      div\n      mul\n      dup4\n      mstore\n      swap2\n      0x20\n      add\n      swap2\n      jump(tag_32)\n    tag_33:\n      dup3\n      add\n      swap2\n      swap1\n      0x00\n      mstore\n      keccak256(0x00, 0x20)\n      swap1\n    tag_34:\n      dup2\n      sload\n      dup2\n      mstore\n      swap1\n      0x01\n      add\n      swap1\n      0x20\n      add\n      dup1\n      dup4\n      gt\n      tag_34\n      jumpi\n      dup3\n      swap1\n      sub\n      0x1f\n      and\n      dup3\n      add\n      swap2\n    tag_32:\n      pop\n      pop\n      pop\n      pop\n      pop\n      swap1\n      dup1\n      0x02\n      add\n      dup1\n      sload\n      tag_35\n      swap1\n      tag_30\n      jump\t// in\n    tag_35:\n      dup1\n      0x1f\n      add\n      0x20\n      dup1\n      swap2\n      div\n      mul\n      0x20\n      add\n      mload(0x40)\n      swap1\n      dup2\n      add\n      0x40\n      mstore\n      dup1\n      swap3\n      swap2\n      swap1\n      dup2\n      dup2\n      mstore\n      0x20\n      add\n      dup3\n      dup1\n      sload\n      tag_36\n      swap1\n      tag_30\n      jump\t// in\n    tag_36:\n      dup1\n      iszero\n      tag_37\n      jumpi\n      dup1\n      0x1f\n      lt\n      tag_38\n      jumpi\n      0x0100\n      dup1\n      dup4\n      sload\n      div\n      mul\n      dup4\n      mstore\n      swap2\n      0x20\n      add\n      swap2\n      jump(tag_37)\n    tag_38:\n      dup3\n      add\n      swap2\n      swap1\n      0x00\n      mstore\n      keccak256(0x00, 0x20)\n      swap1\n    tag_39:\n      dup2\n      sload\n      dup2\n      mstore\n      swap1\n      0x01\n      add\n      swap1\n      0x20\n      add\n      dup1\n      dup4\n      gt\n      tag_39\n      jumpi\n      dup3\n      swap1\n      sub\n      0x1f\n      and\n      dup3\n      add\n      swap2\n    tag_37:\n      pop\n      pop\n      pop\n      pop\n      pop\n      swap1\n      pop\n      dup4\n      jump\t// out\n        /* \"contracts/CreateTicket.sol\":368:411  mapping(uint => string) public ticketStatus */\n    tag_20:\n      mstore(0x20, 0x02)\n      dup1\n      0x00\n      mstore\n      keccak256(0x00, 0x40)\n      0x00\n      swap2\n      pop\n      swap1\n      pop\n      dup1\n      sload\n      tag_40\n      swap1\n      tag_30\n      jump\t// in\n    tag_40:\n      dup1\n      0x1f\n      add\n      0x20\n      dup1\n      swap2\n      div\n      mul\n      0x20\n      add\n      mload(0x40)\n      swap1\n      dup2\n      add\n      0x40\n      mstore\n      dup1\n      swap3\n      swap2\n      swap1\n      dup2\n      dup2\n      mstore\n      0x20\n      add\n      dup3\n      dup1\n      sload\n      tag_41\n      swap1\n      tag_30\n      jump\t// in\n    tag_41:\n      dup1\n      iszero\n      tag_42\n      jumpi\n      dup1\n      0x1f\n      lt\n      tag_43\n      jumpi\n      0x0100\n      dup1\n      dup4\n      sload\n      div\n      mul\n      dup4\n      mstore\n      swap2\n      0x20\n      add\n      swap2\n      jump(tag_42)\n    tag_43:\n      dup3\n      add\n      swap2\n      swap1\n      0x00\n      mstore\n      keccak256(0x00, 0x20)\n      swap1\n    tag_44:\n      dup2\n      sload\n      dup2\n      mstore\n      swap1\n      0x01\n      add\n      swap1\n      0x20\n      add\n      dup1\n      dup4\n      gt\n      tag_44\n      jumpi\n      dup3\n      swap1\n      sub\n      0x1f\n      and\n      dup3\n      add\n      swap2\n    tag_42:\n      pop\n      pop\n      pop\n      pop\n      pop\n      dup2\n      jump\t// out\n        /* \"contracts/CreateTicket.sol\":860:1041  function createNewTicket(string memory _authority, string memory _link) public {\r... */\n    tag_26:\n        /* \"contracts/CreateTicket.sol\":950:960  uint RefNo */\n      0x00\n        /* \"contracts/CreateTicket.sol\":963:983  generateRefNo(_link) */\n      tag_46\n        /* \"contracts/CreateTicket.sol\":977:982  _link */\n      dup3\n        /* \"contracts/CreateTicket.sol\":963:976  generateRefNo */\n      tag_47\n        /* \"contracts/CreateTicket.sol\":963:983  generateRefNo(_link) */\n      jump\t// in\n    tag_46:\n        /* \"contracts/CreateTicket.sol\":950:983  uint RefNo = generateRefNo(_link) */\n      swap1\n      pop\n        /* \"contracts/CreateTicket.sol\":994:1033  _createTicket(RefNo, _authority, _link) */\n      tag_48\n        /* \"contracts/CreateTicket.sol\":1008:1013  RefNo */\n      dup2\n        /* \"contracts/CreateTicket.sol\":1015:1025  _authority */\n      dup5\n        /* \"contracts/CreateTicket.sol\":1027:1032  _link */\n      dup5\n        /* \"contracts/CreateTicket.sol\":994:1007  _createTicket */\n      tag_49\n        /* \"contracts/CreateTicket.sol\":994:1033  _createTicket(RefNo, _authority, _link) */\n      jump\t// in\n    tag_48:\n        /* \"contracts/CreateTicket.sol\":939:1041  {\r... */\n      pop\n        /* \"contracts/CreateTicket.sol\":860:1041  function createNewTicket(string memory _authority, string memory _link) public {\r... */\n      pop\n      pop\n      jump\t// out\n        /* \"contracts/CreateTicket.sol\":681:852  function generateRefNo(string memory _str) private view returns (uint) {\r... */\n    tag_47:\n        /* \"contracts/CreateTicket.sol\":746:750  uint */\n      0x00\n        /* \"contracts/CreateTicket.sol\":763:776  uint NewRefNo */\n      dup1\n        /* \"contracts/CreateTicket.sol\":811:815  _str */\n      dup3\n        /* \"contracts/CreateTicket.sol\":794:816  abi.encodePacked(_str) */\n      add(0x20, mload(0x40))\n      tag_51\n      swap2\n      swap1\n      tag_52\n      jump\t// in\n    tag_51:\n      mload(0x40)\n      0x20\n      dup2\n      dup4\n      sub\n      sub\n      dup2\n      mstore\n      swap1\n      0x40\n      mstore\n        /* \"contracts/CreateTicket.sol\":784:817  keccak256(abi.encodePacked(_str)) */\n      dup1\n      mload\n      swap1\n      0x20\n      add\n      keccak256\n        /* \"contracts/CreateTicket.sol\":779:818  uint(keccak256(abi.encodePacked(_str))) */\n      0x00\n      shr\n        /* \"contracts/CreateTicket.sol\":763:818  uint NewRefNo = uint(keccak256(abi.encodePacked(_str))) */\n      swap1\n      pop\n        /* \"contracts/CreateTicket.sol\":836:844  NewRefNo */\n      dup1\n        /* \"contracts/CreateTicket.sol\":829:844  return NewRefNo */\n      swap2\n      pop\n      pop\n        /* \"contracts/CreateTicket.sol\":681:852  function generateRefNo(string memory _str) private view returns (uint) {\r... */\n      swap2\n      swap1\n      pop\n      jump\t// out\n        /* \"contracts/CreateTicket.sol\":420:673  function _createTicket(uint _refNo, string memory _authority, string memory _link) private { \r... */\n    tag_49:\n        /* \"contracts/CreateTicket.sol\":523:530  tickets */\n      0x00\n        /* \"contracts/CreateTicket.sol\":536:569  Ticket(_refNo, _authority, _link) */\n      mload(0x40)\n      dup1\n      0x60\n      add\n      0x40\n      mstore\n      dup1\n        /* \"contracts/CreateTicket.sol\":543:549  _refNo */\n      dup6\n        /* \"contracts/CreateTicket.sol\":536:569  Ticket(_refNo, _authority, _link) */\n      dup2\n      mstore\n      0x20\n      add\n        /* \"contracts/CreateTicket.sol\":551:561  _authority */\n      dup5\n        /* \"contracts/CreateTicket.sol\":536:569  Ticket(_refNo, _authority, _link) */\n      dup2\n      mstore\n      0x20\n      add\n        /* \"contracts/CreateTicket.sol\":563:568  _link */\n      dup4\n        /* \"contracts/CreateTicket.sol\":536:569  Ticket(_refNo, _authority, _link) */\n      dup2\n      mstore\n      pop\n        /* \"contracts/CreateTicket.sol\":523:570  tickets.push(Ticket(_refNo, _authority, _link)) */\n      swap1\n      dup1\n      0x01\n      dup2\n      sload\n      add\n      dup1\n      dup3\n      sstore\n      dup1\n      swap2\n      pop\n      pop\n      0x01\n      swap1\n      sub\n      swap1\n      0x00\n      mstore\n      keccak256(0x00, 0x20)\n      swap1\n      0x03\n      mul\n      add\n      0x00\n      swap1\n      swap2\n      swap1\n      swap2\n      swap1\n      swap2\n      pop\n      0x00\n      dup3\n      add\n      mload\n      dup2\n      0x00\n      add\n      sstore\n      0x20\n      dup3\n      add\n      mload\n      dup2\n      0x01\n      add\n      swap1\n      dup1\n      mload\n      swap1\n      0x20\n      add\n      swap1\n      tag_55\n      swap3\n      swap2\n      swap1\n      tag_56\n      jump\t// in\n    tag_55:\n      pop\n      0x40\n      dup3\n      add\n      mload\n      dup2\n      0x02\n      add\n      swap1\n      dup1\n      mload\n      swap1\n      0x20\n      add\n      swap1\n      tag_57\n      swap3\n      swap2\n      swap1\n      tag_56\n      jump\t// in\n    tag_57:\n      pop\n      pop\n      pop\n        /* \"contracts/CreateTicket.sol\":581:588  uint Id */\n      0x00\n        /* \"contracts/CreateTicket.sol\":591:598  tickets */\n      dup1\n        /* \"contracts/CreateTicket.sol\":591:605  tickets.length */\n      dup1\n      sload\n      swap1\n      pop\n        /* \"contracts/CreateTicket.sol\":581:605  uint Id = tickets.length */\n      swap1\n      pop\n        /* \"contracts/CreateTicket.sol\":621:665  ticketCreated(Id, _refNo, _authority, _link) */\n      0xa421576df59f1a0508daa93ce319ec1008a3e4049fac768ebbc0765c18602d96\n        /* \"contracts/CreateTicket.sol\":635:637  Id */\n      dup2\n        /* \"contracts/CreateTicket.sol\":639:645  _refNo */\n      dup6\n        /* \"contracts/CreateTicket.sol\":647:657  _authority */\n      dup6\n        /* \"contracts/CreateTicket.sol\":659:664  _link */\n      dup6\n        /* \"contracts/CreateTicket.sol\":621:665  ticketCreated(Id, _refNo, _authority, _link) */\n      mload(0x40)\n      tag_58\n      swap5\n      swap4\n      swap3\n      swap2\n      swap1\n      tag_59\n      jump\t// in\n    tag_58:\n      mload(0x40)\n      dup1\n      swap2\n      sub\n      swap1\n      log1\n        /* \"contracts/CreateTicket.sol\":511:673  { \r... */\n      pop\n        /* \"contracts/CreateTicket.sol\":420:673  function _createTicket(uint _refNo, string memory _authority, string memory _link) private { \r... */\n      pop\n      pop\n      pop\n      jump\t// out\n    tag_56:\n      dup3\n      dup1\n      sload\n      tag_60\n      swap1\n      tag_30\n      jump\t// in\n    tag_60:\n      swap1\n      0x00\n      mstore\n      keccak256(0x00, 0x20)\n      swap1\n      0x1f\n      add\n      0x20\n      swap1\n      div\n      dup2\n      add\n      swap3\n      dup3\n      tag_62\n      jumpi\n      0x00\n      dup6\n      sstore\n      jump(tag_61)\n    tag_62:\n      dup3\n      0x1f\n      lt\n      tag_63\n      jumpi\n      dup1\n      mload\n      not(0xff)\n      and\n      dup4\n      dup1\n      add\n      or\n      dup6\n      sstore\n      jump(tag_61)\n    tag_63:\n      dup3\n      dup1\n      add\n      0x01\n      add\n      dup6\n      sstore\n      dup3\n      iszero\n      tag_61\n      jumpi\n      swap2\n      dup3\n      add\n    tag_64:\n      dup3\n      dup2\n      gt\n      iszero\n      tag_65\n      jumpi\n      dup3\n      mload\n      dup3\n      sstore\n      swap2\n      0x20\n      add\n      swap2\n      swap1\n      0x01\n      add\n      swap1\n      jump(tag_64)\n    tag_65:\n    tag_61:\n      pop\n      swap1\n      pop\n      tag_66\n      swap2\n      swap1\n      tag_67\n      jump\t// in\n    tag_66:\n      pop\n      swap1\n      jump\t// out\n    tag_67:\n    tag_68:\n      dup1\n      dup3\n      gt\n      iszero\n      tag_69\n      jumpi\n      0x00\n      dup2\n      0x00\n      swap1\n      sstore\n      pop\n      0x01\n      add\n      jump(tag_68)\n    tag_69:\n      pop\n      swap1\n      jump\t// out\n        /* \"#utility.yul\":7:419   */\n    tag_71:\n        /* \"#utility.yul\":85:90   */\n      0x00\n        /* \"#utility.yul\":110:176   */\n      tag_73\n        /* \"#utility.yul\":126:175   */\n      tag_74\n        /* \"#utility.yul\":168:174   */\n      dup5\n        /* \"#utility.yul\":126:175   */\n      tag_75\n      jump\t// in\n    tag_74:\n        /* \"#utility.yul\":110:176   */\n      tag_76\n      jump\t// in\n    tag_73:\n        /* \"#utility.yul\":101:176   */\n      swap1\n      pop\n        /* \"#utility.yul\":199:205   */\n      dup3\n        /* \"#utility.yul\":192:197   */\n      dup2\n        /* \"#utility.yul\":185:206   */\n      mstore\n        /* \"#utility.yul\":237:241   */\n      0x20\n        /* \"#utility.yul\":230:235   */\n      dup2\n        /* \"#utility.yul\":226:242   */\n      add\n        /* \"#utility.yul\":275:278   */\n      dup5\n        /* \"#utility.yul\":266:272   */\n      dup5\n        /* \"#utility.yul\":261:264   */\n      dup5\n        /* \"#utility.yul\":257:273   */\n      add\n        /* \"#utility.yul\":254:279   */\n      gt\n        /* \"#utility.yul\":251:363   */\n      iszero\n      tag_77\n      jumpi\n        /* \"#utility.yul\":282:361   */\n      tag_78\n      tag_79\n      jump\t// in\n    tag_78:\n        /* \"#utility.yul\":251:363   */\n    tag_77:\n        /* \"#utility.yul\":372:413   */\n      tag_80\n        /* \"#utility.yul\":406:412   */\n      dup5\n        /* \"#utility.yul\":401:404   */\n      dup3\n        /* \"#utility.yul\":396:399   */\n      dup6\n        /* \"#utility.yul\":372:413   */\n      tag_81\n      jump\t// in\n    tag_80:\n        /* \"#utility.yul\":91:419   */\n      pop\n        /* \"#utility.yul\":7:419   */\n      swap4\n      swap3\n      pop\n      pop\n      pop\n      jump\t// out\n        /* \"#utility.yul\":439:779   */\n    tag_82:\n        /* \"#utility.yul\":495:500   */\n      0x00\n        /* \"#utility.yul\":544:547   */\n      dup3\n        /* \"#utility.yul\":537:541   */\n      0x1f\n        /* \"#utility.yul\":529:535   */\n      dup4\n        /* \"#utility.yul\":525:542   */\n      add\n        /* \"#utility.yul\":521:548   */\n      slt\n        /* \"#utility.yul\":511:633   */\n      tag_84\n      jumpi\n        /* \"#utility.yul\":552:631   */\n      tag_85\n      tag_86\n      jump\t// in\n    tag_85:\n        /* \"#utility.yul\":511:633   */\n    tag_84:\n        /* \"#utility.yul\":669:675   */\n      dup2\n        /* \"#utility.yul\":656:676   */\n      calldataload\n        /* \"#utility.yul\":694:773   */\n      tag_87\n        /* \"#utility.yul\":769:772   */\n      dup5\n        /* \"#utility.yul\":761:767   */\n      dup3\n        /* \"#utility.yul\":754:758   */\n      0x20\n        /* \"#utility.yul\":746:752   */\n      dup7\n        /* \"#utility.yul\":742:759   */\n      add\n        /* \"#utility.yul\":694:773   */\n      tag_71\n      jump\t// in\n    tag_87:\n        /* \"#utility.yul\":685:773   */\n      swap2\n      pop\n        /* \"#utility.yul\":501:779   */\n      pop\n        /* \"#utility.yul\":439:779   */\n      swap3\n      swap2\n      pop\n      pop\n      jump\t// out\n        /* \"#utility.yul\":785:924   */\n    tag_88:\n        /* \"#utility.yul\":831:836   */\n      0x00\n        /* \"#utility.yul\":869:875   */\n      dup2\n        /* \"#utility.yul\":856:876   */\n      calldataload\n        /* \"#utility.yul\":847:876   */\n      swap1\n      pop\n        /* \"#utility.yul\":885:918   */\n      tag_90\n        /* \"#utility.yul\":912:917   */\n      dup2\n        /* \"#utility.yul\":885:918   */\n      tag_91\n      jump\t// in\n    tag_90:\n        /* \"#utility.yul\":785:924   */\n      swap3\n      swap2\n      pop\n      pop\n      jump\t// out\n        /* \"#utility.yul\":930:1764   */\n    tag_25:\n        /* \"#utility.yul\":1018:1024   */\n      0x00\n        /* \"#utility.yul\":1026:1032   */\n      dup1\n        /* \"#utility.yul\":1075:1077   */\n      0x40\n        /* \"#utility.yul\":1063:1072   */\n      dup4\n        /* \"#utility.yul\":1054:1061   */\n      dup6\n        /* \"#utility.yul\":1050:1073   */\n      sub\n        /* \"#utility.yul\":1046:1078   */\n      slt\n        /* \"#utility.yul\":1043:1162   */\n      iszero\n      tag_93\n      jumpi\n        /* \"#utility.yul\":1081:1160   */\n      tag_94\n      tag_95\n      jump\t// in\n    tag_94:\n        /* \"#utility.yul\":1043:1162   */\n    tag_93:\n        /* \"#utility.yul\":1229:1230   */\n      0x00\n        /* \"#utility.yul\":1218:1227   */\n      dup4\n        /* \"#utility.yul\":1214:1231   */\n      add\n        /* \"#utility.yul\":1201:1232   */\n      calldataload\n        /* \"#utility.yul\":1259:1277   */\n      0xffffffffffffffff\n        /* \"#utility.yul\":1251:1257   */\n      dup2\n        /* \"#utility.yul\":1248:1278   */\n      gt\n        /* \"#utility.yul\":1245:1362   */\n      iszero\n      tag_96\n      jumpi\n        /* \"#utility.yul\":1281:1360   */\n      tag_97\n      tag_98\n      jump\t// in\n    tag_97:\n        /* \"#utility.yul\":1245:1362   */\n    tag_96:\n        /* \"#utility.yul\":1386:1449   */\n      tag_99\n        /* \"#utility.yul\":1441:1448   */\n      dup6\n        /* \"#utility.yul\":1432:1438   */\n      dup3\n        /* \"#utility.yul\":1421:1430   */\n      dup7\n        /* \"#utility.yul\":1417:1439   */\n      add\n        /* \"#utility.yul\":1386:1449   */\n      tag_82\n      jump\t// in\n    tag_99:\n        /* \"#utility.yul\":1376:1449   */\n      swap3\n      pop\n        /* \"#utility.yul\":1172:1459   */\n      pop\n        /* \"#utility.yul\":1526:1528   */\n      0x20\n        /* \"#utility.yul\":1515:1524   */\n      dup4\n        /* \"#utility.yul\":1511:1529   */\n      add\n        /* \"#utility.yul\":1498:1530   */\n      calldataload\n        /* \"#utility.yul\":1557:1575   */\n      0xffffffffffffffff\n        /* \"#utility.yul\":1549:1555   */\n      dup2\n        /* \"#utility.yul\":1546:1576   */\n      gt\n        /* \"#utility.yul\":1543:1660   */\n      iszero\n      tag_100\n      jumpi\n        /* \"#utility.yul\":1579:1658   */\n      tag_101\n      tag_98\n      jump\t// in\n    tag_101:\n        /* \"#utility.yul\":1543:1660   */\n    tag_100:\n        /* \"#utility.yul\":1684:1747   */\n      tag_102\n        /* \"#utility.yul\":1739:1746   */\n      dup6\n        /* \"#utility.yul\":1730:1736   */\n      dup3\n        /* \"#utility.yul\":1719:1728   */\n      dup7\n        /* \"#utility.yul\":1715:1737   */\n      add\n        /* \"#utility.yul\":1684:1747   */\n      tag_82\n      jump\t// in\n    tag_102:\n        /* \"#utility.yul\":1674:1747   */\n      swap2\n      pop\n        /* \"#utility.yul\":1469:1757   */\n      pop\n        /* \"#utility.yul\":930:1764   */\n      swap3\n      pop\n      swap3\n      swap1\n      pop\n      jump\t// out\n        /* \"#utility.yul\":1770:2099   */\n    tag_9:\n        /* \"#utility.yul\":1829:1835   */\n      0x00\n        /* \"#utility.yul\":1878:1880   */\n      0x20\n        /* \"#utility.yul\":1866:1875   */\n      dup3\n        /* \"#utility.yul\":1857:1864   */\n      dup5\n        /* \"#utility.yul\":1853:1876   */\n      sub\n        /* \"#utility.yul\":1849:1881   */\n      slt\n        /* \"#utility.yul\":1846:1965   */\n      iszero\n      tag_104\n      jumpi\n        /* \"#utility.yul\":1884:1963   */\n      tag_105\n      tag_95\n      jump\t// in\n    tag_105:\n        /* \"#utility.yul\":1846:1965   */\n    tag_104:\n        /* \"#utility.yul\":2004:2005   */\n      0x00\n        /* \"#utility.yul\":2029:2082   */\n      tag_106\n        /* \"#utility.yul\":2074:2081   */\n      dup5\n        /* \"#utility.yul\":2065:2071   */\n      dup3\n        /* \"#utility.yul\":2054:2063   */\n      dup6\n        /* \"#utility.yul\":2050:2072   */\n      add\n        /* \"#utility.yul\":2029:2082   */\n      tag_88\n      jump\t// in\n    tag_106:\n        /* \"#utility.yul\":2019:2082   */\n      swap2\n      pop\n        /* \"#utility.yul\":1975:2092   */\n      pop\n        /* \"#utility.yul\":1770:2099   */\n      swap3\n      swap2\n      pop\n      pop\n      jump\t// out\n        /* \"#utility.yul\":2105:2223   */\n    tag_107:\n        /* \"#utility.yul\":2192:2216   */\n      tag_109\n        /* \"#utility.yul\":2210:2215   */\n      dup2\n        /* \"#utility.yul\":2192:2216   */\n      tag_110\n      jump\t// in\n    tag_109:\n        /* \"#utility.yul\":2187:2190   */\n      dup3\n        /* \"#utility.yul\":2180:2217   */\n      mstore\n        /* \"#utility.yul\":2105:2223   */\n      pop\n      pop\n      jump\t// out\n        /* \"#utility.yul\":2229:2593   */\n    tag_111:\n        /* \"#utility.yul\":2317:2320   */\n      0x00\n        /* \"#utility.yul\":2345:2384   */\n      tag_113\n        /* \"#utility.yul\":2378:2383   */\n      dup3\n        /* \"#utility.yul\":2345:2384   */\n      tag_114\n      jump\t// in\n    tag_113:\n        /* \"#utility.yul\":2400:2471   */\n      tag_115\n        /* \"#utility.yul\":2464:2470   */\n      dup2\n        /* \"#utility.yul\":2459:2462   */\n      dup6\n        /* \"#utility.yul\":2400:2471   */\n      tag_116\n      jump\t// in\n    tag_115:\n        /* \"#utility.yul\":2393:2471   */\n      swap4\n      pop\n        /* \"#utility.yul\":2480:2532   */\n      tag_117\n        /* \"#utility.yul\":2525:2531   */\n      dup2\n        /* \"#utility.yul\":2520:2523   */\n      dup6\n        /* \"#utility.yul\":2513:2517   */\n      0x20\n        /* \"#utility.yul\":2506:2511   */\n      dup7\n        /* \"#utility.yul\":2502:2518   */\n      add\n        /* \"#utility.yul\":2480:2532   */\n      tag_118\n      jump\t// in\n    tag_117:\n        /* \"#utility.yul\":2557:2586   */\n      tag_119\n        /* \"#utility.yul\":2579:2585   */\n      dup2\n        /* \"#utility.yul\":2557:2586   */\n      tag_120\n      jump\t// in\n    tag_119:\n        /* \"#utility.yul\":2552:2555   */\n      dup5\n        /* \"#utility.yul\":2548:2587   */\n      add\n        /* \"#utility.yul\":2541:2587   */\n      swap2\n      pop\n        /* \"#utility.yul\":2321:2593   */\n      pop\n        /* \"#utility.yul\":2229:2593   */\n      swap3\n      swap2\n      pop\n      pop\n      jump\t// out\n        /* \"#utility.yul\":2599:2976   */\n    tag_121:\n        /* \"#utility.yul\":2705:2708   */\n      0x00\n        /* \"#utility.yul\":2733:2772   */\n      tag_123\n        /* \"#utility.yul\":2766:2771   */\n      dup3\n        /* \"#utility.yul\":2733:2772   */\n      tag_114\n      jump\t// in\n    tag_123:\n        /* \"#utility.yul\":2788:2877   */\n      tag_124\n        /* \"#utility.yul\":2870:2876   */\n      dup2\n        /* \"#utility.yul\":2865:2868   */\n      dup6\n        /* \"#utility.yul\":2788:2877   */\n      tag_125\n      jump\t// in\n    tag_124:\n        /* \"#utility.yul\":2781:2877   */\n      swap4\n      pop\n        /* \"#utility.yul\":2886:2938   */\n      tag_126\n        /* \"#utility.yul\":2931:2937   */\n      dup2\n        /* \"#utility.yul\":2926:2929   */\n      dup6\n        /* \"#utility.yul\":2919:2923   */\n      0x20\n        /* \"#utility.yul\":2912:2917   */\n      dup7\n        /* \"#utility.yul\":2908:2924   */\n      add\n        /* \"#utility.yul\":2886:2938   */\n      tag_118\n      jump\t// in\n    tag_126:\n        /* \"#utility.yul\":2963:2969   */\n      dup1\n        /* \"#utility.yul\":2958:2961   */\n      dup5\n        /* \"#utility.yul\":2954:2970   */\n      add\n        /* \"#utility.yul\":2947:2970   */\n      swap2\n      pop\n        /* \"#utility.yul\":2709:2976   */\n      pop\n        /* \"#utility.yul\":2599:2976   */\n      swap3\n      swap2\n      pop\n      pop\n      jump\t// out\n        /* \"#utility.yul\":2982:3100   */\n    tag_127:\n        /* \"#utility.yul\":3069:3093   */\n      tag_129\n        /* \"#utility.yul\":3087:3092   */\n      dup2\n        /* \"#utility.yul\":3069:3093   */\n      tag_130\n      jump\t// in\n    tag_129:\n        /* \"#utility.yul\":3064:3067   */\n      dup3\n        /* \"#utility.yul\":3057:3094   */\n      mstore\n        /* \"#utility.yul\":2982:3100   */\n      pop\n      pop\n      jump\t// out\n        /* \"#utility.yul\":3106:3381   */\n    tag_52:\n        /* \"#utility.yul\":3238:3241   */\n      0x00\n        /* \"#utility.yul\":3260:3355   */\n      tag_132\n        /* \"#utility.yul\":3351:3354   */\n      dup3\n        /* \"#utility.yul\":3342:3348   */\n      dup5\n        /* \"#utility.yul\":3260:3355   */\n      tag_121\n      jump\t// in\n    tag_132:\n        /* \"#utility.yul\":3253:3355   */\n      swap2\n      pop\n        /* \"#utility.yul\":3372:3375   */\n      dup2\n        /* \"#utility.yul\":3365:3375   */\n      swap1\n      pop\n        /* \"#utility.yul\":3106:3381   */\n      swap3\n      swap2\n      pop\n      pop\n      jump\t// out\n        /* \"#utility.yul\":3387:3609   */\n    tag_12:\n        /* \"#utility.yul\":3480:3484   */\n      0x00\n        /* \"#utility.yul\":3518:3520   */\n      0x20\n        /* \"#utility.yul\":3507:3516   */\n      dup3\n        /* \"#utility.yul\":3503:3521   */\n      add\n        /* \"#utility.yul\":3495:3521   */\n      swap1\n      pop\n        /* \"#utility.yul\":3531:3602   */\n      tag_134\n        /* \"#utility.yul\":3599:3600   */\n      0x00\n        /* \"#utility.yul\":3588:3597   */\n      dup4\n        /* \"#utility.yul\":3584:3601   */\n      add\n        /* \"#utility.yul\":3575:3581   */\n      dup5\n        /* \"#utility.yul\":3531:3602   */\n      tag_107\n      jump\t// in\n    tag_134:\n        /* \"#utility.yul\":3387:3609   */\n      swap3\n      swap2\n      pop\n      pop\n      jump\t// out\n        /* \"#utility.yul\":3615:3928   */\n    tag_22:\n        /* \"#utility.yul\":3728:3732   */\n      0x00\n        /* \"#utility.yul\":3766:3768   */\n      0x20\n        /* \"#utility.yul\":3755:3764   */\n      dup3\n        /* \"#utility.yul\":3751:3769   */\n      add\n        /* \"#utility.yul\":3743:3769   */\n      swap1\n      pop\n        /* \"#utility.yul\":3815:3824   */\n      dup2\n        /* \"#utility.yul\":3809:3813   */\n      dup2\n        /* \"#utility.yul\":3805:3825   */\n      sub\n        /* \"#utility.yul\":3801:3802   */\n      0x00\n        /* \"#utility.yul\":3790:3799   */\n      dup4\n        /* \"#utility.yul\":3786:3803   */\n      add\n        /* \"#utility.yul\":3779:3826   */\n      mstore\n        /* \"#utility.yul\":3843:3921   */\n      tag_136\n        /* \"#utility.yul\":3916:3920   */\n      dup2\n        /* \"#utility.yul\":3907:3913   */\n      dup5\n        /* \"#utility.yul\":3843:3921   */\n      tag_111\n      jump\t// in\n    tag_136:\n        /* \"#utility.yul\":3835:3921   */\n      swap1\n      pop\n        /* \"#utility.yul\":3615:3928   */\n      swap3\n      swap2\n      pop\n      pop\n      jump\t// out\n        /* \"#utility.yul\":3934:4558   */\n    tag_17:\n        /* \"#utility.yul\":4123:4127   */\n      0x00\n        /* \"#utility.yul\":4161:4163   */\n      0x60\n        /* \"#utility.yul\":4150:4159   */\n      dup3\n        /* \"#utility.yul\":4146:4164   */\n      add\n        /* \"#utility.yul\":4138:4164   */\n      swap1\n      pop\n        /* \"#utility.yul\":4174:4245   */\n      tag_138\n        /* \"#utility.yul\":4242:4243   */\n      0x00\n        /* \"#utility.yul\":4231:4240   */\n      dup4\n        /* \"#utility.yul\":4227:4244   */\n      add\n        /* \"#utility.yul\":4218:4224   */\n      dup7\n        /* \"#utility.yul\":4174:4245   */\n      tag_127\n      jump\t// in\n    tag_138:\n        /* \"#utility.yul\":4292:4301   */\n      dup2\n        /* \"#utility.yul\":4286:4290   */\n      dup2\n        /* \"#utility.yul\":4282:4302   */\n      sub\n        /* \"#utility.yul\":4277:4279   */\n      0x20\n        /* \"#utility.yul\":4266:4275   */\n      dup4\n        /* \"#utility.yul\":4262:4280   */\n      add\n        /* \"#utility.yul\":4255:4303   */\n      mstore\n        /* \"#utility.yul\":4320:4398   */\n      tag_139\n        /* \"#utility.yul\":4393:4397   */\n      dup2\n        /* \"#utility.yul\":4384:4390   */\n      dup6\n        /* \"#utility.yul\":4320:4398   */\n      tag_111\n      jump\t// in\n    tag_139:\n        /* \"#utility.yul\":4312:4398   */\n      swap1\n      pop\n        /* \"#utility.yul\":4445:4454   */\n      dup2\n        /* \"#utility.yul\":4439:4443   */\n      dup2\n        /* \"#utility.yul\":4435:4455   */\n      sub\n        /* \"#utility.yul\":4430:4432   */\n      0x40\n        /* \"#utility.yul\":4419:4428   */\n      dup4\n        /* \"#utility.yul\":4415:4433   */\n      add\n        /* \"#utility.yul\":4408:4456   */\n      mstore\n        /* \"#utility.yul\":4473:4551   */\n      tag_140\n        /* \"#utility.yul\":4546:4550   */\n      dup2\n        /* \"#utility.yul\":4537:4543   */\n      dup5\n        /* \"#utility.yul\":4473:4551   */\n      tag_111\n      jump\t// in\n    tag_140:\n        /* \"#utility.yul\":4465:4551   */\n      swap1\n      pop\n        /* \"#utility.yul\":3934:4558   */\n      swap5\n      swap4\n      pop\n      pop\n      pop\n      pop\n      jump\t// out\n        /* \"#utility.yul\":4564:5299   */\n    tag_59:\n        /* \"#utility.yul\":4781:4785   */\n      0x00\n        /* \"#utility.yul\":4819:4822   */\n      0x80\n        /* \"#utility.yul\":4808:4817   */\n      dup3\n        /* \"#utility.yul\":4804:4823   */\n      add\n        /* \"#utility.yul\":4796:4823   */\n      swap1\n      pop\n        /* \"#utility.yul\":4833:4904   */\n      tag_142\n        /* \"#utility.yul\":4901:4902   */\n      0x00\n        /* \"#utility.yul\":4890:4899   */\n      dup4\n        /* \"#utility.yul\":4886:4903   */\n      add\n        /* \"#utility.yul\":4877:4883   */\n      dup8\n        /* \"#utility.yul\":4833:4904   */\n      tag_127\n      jump\t// in\n    tag_142:\n        /* \"#utility.yul\":4914:4986   */\n      tag_143\n        /* \"#utility.yul\":4982:4984   */\n      0x20\n        /* \"#utility.yul\":4971:4980   */\n      dup4\n        /* \"#utility.yul\":4967:4985   */\n      add\n        /* \"#utility.yul\":4958:4964   */\n      dup7\n        /* \"#utility.yul\":4914:4986   */\n      tag_127\n      jump\t// in\n    tag_143:\n        /* \"#utility.yul\":5033:5042   */\n      dup2\n        /* \"#utility.yul\":5027:5031   */\n      dup2\n        /* \"#utility.yul\":5023:5043   */\n      sub\n        /* \"#utility.yul\":5018:5020   */\n      0x40\n        /* \"#utility.yul\":5007:5016   */\n      dup4\n        /* \"#utility.yul\":5003:5021   */\n      add\n        /* \"#utility.yul\":4996:5044   */\n      mstore\n        /* \"#utility.yul\":5061:5139   */\n      tag_144\n        /* \"#utility.yul\":5134:5138   */\n      dup2\n        /* \"#utility.yul\":5125:5131   */\n      dup6\n        /* \"#utility.yul\":5061:5139   */\n      tag_111\n      jump\t// in\n    tag_144:\n        /* \"#utility.yul\":5053:5139   */\n      swap1\n      pop\n        /* \"#utility.yul\":5186:5195   */\n      dup2\n        /* \"#utility.yul\":5180:5184   */\n      dup2\n        /* \"#utility.yul\":5176:5196   */\n      sub\n        /* \"#utility.yul\":5171:5173   */\n      0x60\n        /* \"#utility.yul\":5160:5169   */\n      dup4\n        /* \"#utility.yul\":5156:5174   */\n      add\n        /* \"#utility.yul\":5149:5197   */\n      mstore\n        /* \"#utility.yul\":5214:5292   */\n      tag_145\n        /* \"#utility.yul\":5287:5291   */\n      dup2\n        /* \"#utility.yul\":5278:5284   */\n      dup5\n        /* \"#utility.yul\":5214:5292   */\n      tag_111\n      jump\t// in\n    tag_145:\n        /* \"#utility.yul\":5206:5292   */\n      swap1\n      pop\n        /* \"#utility.yul\":4564:5299   */\n      swap6\n      swap5\n      pop\n      pop\n      pop\n      pop\n      pop\n      jump\t// out\n        /* \"#utility.yul\":5305:5434   */\n    tag_76:\n        /* \"#utility.yul\":5339:5345   */\n      0x00\n        /* \"#utility.yul\":5366:5386   */\n      tag_147\n      tag_148\n      jump\t// in\n    tag_147:\n        /* \"#utility.yul\":5356:5386   */\n      swap1\n      pop\n        /* \"#utility.yul\":5395:5428   */\n      tag_149\n        /* \"#utility.yul\":5423:5427   */\n      dup3\n        /* \"#utility.yul\":5415:5421   */\n      dup3\n        /* \"#utility.yul\":5395:5428   */\n      tag_150\n      jump\t// in\n    tag_149:\n        /* \"#utility.yul\":5305:5434   */\n      swap2\n      swap1\n      pop\n      jump\t// out\n        /* \"#utility.yul\":5440:5515   */\n    tag_148:\n        /* \"#utility.yul\":5473:5479   */\n      0x00\n        /* \"#utility.yul\":5506:5508   */\n      0x40\n        /* \"#utility.yul\":5500:5509   */\n      mload\n        /* \"#utility.yul\":5490:5509   */\n      swap1\n      pop\n        /* \"#utility.yul\":5440:5515   */\n      swap1\n      jump\t// out\n        /* \"#utility.yul\":5521:5829   */\n    tag_75:\n        /* \"#utility.yul\":5583:5587   */\n      0x00\n        /* \"#utility.yul\":5673:5691   */\n      0xffffffffffffffff\n        /* \"#utility.yul\":5665:5671   */\n      dup3\n        /* \"#utility.yul\":5662:5692   */\n      gt\n        /* \"#utility.yul\":5659:5715   */\n      iszero\n      tag_153\n      jumpi\n        /* \"#utility.yul\":5695:5713   */\n      tag_154\n      tag_155\n      jump\t// in\n    tag_154:\n        /* \"#utility.yul\":5659:5715   */\n    tag_153:\n        /* \"#utility.yul\":5733:5762   */\n      tag_156\n        /* \"#utility.yul\":5755:5761   */\n      dup3\n        /* \"#utility.yul\":5733:5762   */\n      tag_120\n      jump\t// in\n    tag_156:\n        /* \"#utility.yul\":5725:5762   */\n      swap1\n      pop\n        /* \"#utility.yul\":5817:5821   */\n      0x20\n        /* \"#utility.yul\":5811:5815   */\n      dup2\n        /* \"#utility.yul\":5807:5822   */\n      add\n        /* \"#utility.yul\":5799:5822   */\n      swap1\n      pop\n        /* \"#utility.yul\":5521:5829   */\n      swap2\n      swap1\n      pop\n      jump\t// out\n        /* \"#utility.yul\":5835:5934   */\n    tag_114:\n        /* \"#utility.yul\":5887:5893   */\n      0x00\n        /* \"#utility.yul\":5921:5926   */\n      dup2\n        /* \"#utility.yul\":5915:5927   */\n      mload\n        /* \"#utility.yul\":5905:5927   */\n      swap1\n      pop\n        /* \"#utility.yul\":5835:5934   */\n      swap2\n      swap1\n      pop\n      jump\t// out\n        /* \"#utility.yul\":5940:6109   */\n    tag_116:\n        /* \"#utility.yul\":6024:6035   */\n      0x00\n        /* \"#utility.yul\":6058:6064   */\n      dup3\n        /* \"#utility.yul\":6053:6056   */\n      dup3\n        /* \"#utility.yul\":6046:6065   */\n      mstore\n        /* \"#utility.yul\":6098:6102   */\n      0x20\n        /* \"#utility.yul\":6093:6096   */\n      dup3\n        /* \"#utility.yul\":6089:6103   */\n      add\n        /* \"#utility.yul\":6074:6103   */\n      swap1\n      pop\n        /* \"#utility.yul\":5940:6109   */\n      swap3\n      swap2\n      pop\n      pop\n      jump\t// out\n        /* \"#utility.yul\":6115:6263   */\n    tag_125:\n        /* \"#utility.yul\":6217:6228   */\n      0x00\n        /* \"#utility.yul\":6254:6257   */\n      dup2\n        /* \"#utility.yul\":6239:6257   */\n      swap1\n      pop\n        /* \"#utility.yul\":6115:6263   */\n      swap3\n      swap2\n      pop\n      pop\n      jump\t// out\n        /* \"#utility.yul\":6269:6365   */\n    tag_110:\n        /* \"#utility.yul\":6306:6313   */\n      0x00\n        /* \"#utility.yul\":6335:6359   */\n      tag_161\n        /* \"#utility.yul\":6353:6358   */\n      dup3\n        /* \"#utility.yul\":6335:6359   */\n      tag_162\n      jump\t// in\n    tag_161:\n        /* \"#utility.yul\":6324:6359   */\n      swap1\n      pop\n        /* \"#utility.yul\":6269:6365   */\n      swap2\n      swap1\n      pop\n      jump\t// out\n        /* \"#utility.yul\":6371:6497   */\n    tag_162:\n        /* \"#utility.yul\":6408:6415   */\n      0x00\n        /* \"#utility.yul\":6448:6490   */\n      0xffffffffffffffffffffffffffffffffffffffff\n        /* \"#utility.yul\":6441:6446   */\n      dup3\n        /* \"#utility.yul\":6437:6491   */\n      and\n        /* \"#utility.yul\":6426:6491   */\n      swap1\n      pop\n        /* \"#utility.yul\":6371:6497   */\n      swap2\n      swap1\n      pop\n      jump\t// out\n        /* \"#utility.yul\":6503:6580   */\n    tag_130:\n        /* \"#utility.yul\":6540:6547   */\n      0x00\n        /* \"#utility.yul\":6569:6574   */\n      dup2\n        /* \"#utility.yul\":6558:6574   */\n      swap1\n      pop\n        /* \"#utility.yul\":6503:6580   */\n      swap2\n      swap1\n      pop\n      jump\t// out\n        /* \"#utility.yul\":6586:6740   */\n    tag_81:\n        /* \"#utility.yul\":6670:6676   */\n      dup3\n        /* \"#utility.yul\":6665:6668   */\n      dup2\n        /* \"#utility.yul\":6660:6663   */\n      dup4\n        /* \"#utility.yul\":6647:6677   */\n      calldatacopy\n        /* \"#utility.yul\":6732:6733   */\n      0x00\n        /* \"#utility.yul\":6723:6729   */\n      dup4\n        /* \"#utility.yul\":6718:6721   */\n      dup4\n        /* \"#utility.yul\":6714:6730   */\n      add\n        /* \"#utility.yul\":6707:6734   */\n      mstore\n        /* \"#utility.yul\":6586:6740   */\n      pop\n      pop\n      pop\n      jump\t// out\n        /* \"#utility.yul\":6746:7053   */\n    tag_118:\n        /* \"#utility.yul\":6814:6815   */\n      0x00\n        /* \"#utility.yul\":6824:6937   */\n    tag_167:\n        /* \"#utility.yul\":6838:6844   */\n      dup4\n        /* \"#utility.yul\":6835:6836   */\n      dup2\n        /* \"#utility.yul\":6832:6845   */\n      lt\n        /* \"#utility.yul\":6824:6937   */\n      iszero\n      tag_169\n      jumpi\n        /* \"#utility.yul\":6923:6924   */\n      dup1\n        /* \"#utility.yul\":6918:6921   */\n      dup3\n        /* \"#utility.yul\":6914:6925   */\n      add\n        /* \"#utility.yul\":6908:6926   */\n      mload\n        /* \"#utility.yul\":6904:6905   */\n      dup2\n        /* \"#utility.yul\":6899:6902   */\n      dup5\n        /* \"#utility.yul\":6895:6906   */\n      add\n        /* \"#utility.yul\":6888:6927   */\n      mstore\n        /* \"#utility.yul\":6860:6862   */\n      0x20\n        /* \"#utility.yul\":6857:6858   */\n      dup2\n        /* \"#utility.yul\":6853:6863   */\n      add\n        /* \"#utility.yul\":6848:6863   */\n      swap1\n      pop\n        /* \"#utility.yul\":6824:6937   */\n      jump(tag_167)\n    tag_169:\n        /* \"#utility.yul\":6955:6961   */\n      dup4\n        /* \"#utility.yul\":6952:6953   */\n      dup2\n        /* \"#utility.yul\":6949:6962   */\n      gt\n        /* \"#utility.yul\":6946:7047   */\n      iszero\n      tag_170\n      jumpi\n        /* \"#utility.yul\":7035:7036   */\n      0x00\n        /* \"#utility.yul\":7026:7032   */\n      dup5\n        /* \"#utility.yul\":7021:7024   */\n      dup5\n        /* \"#utility.yul\":7017:7033   */\n      add\n        /* \"#utility.yul\":7010:7037   */\n      mstore\n        /* \"#utility.yul\":6946:7047   */\n    tag_170:\n        /* \"#utility.yul\":6795:7053   */\n      pop\n        /* \"#utility.yul\":6746:7053   */\n      pop\n      pop\n      pop\n      jump\t// out\n        /* \"#utility.yul\":7059:7379   */\n    tag_30:\n        /* \"#utility.yul\":7103:7109   */\n      0x00\n        /* \"#utility.yul\":7140:7141   */\n      0x02\n        /* \"#utility.yul\":7134:7138   */\n      dup3\n        /* \"#utility.yul\":7130:7142   */\n      div\n        /* \"#utility.yul\":7120:7142   */\n      swap1\n      pop\n        /* \"#utility.yul\":7187:7188   */\n      0x01\n        /* \"#utility.yul\":7181:7185   */\n      dup3\n        /* \"#utility.yul\":7177:7189   */\n      and\n        /* \"#utility.yul\":7208:7226   */\n      dup1\n        /* \"#utility.yul\":7198:7279   */\n      tag_172\n      jumpi\n        /* \"#utility.yul\":7264:7268   */\n      0x7f\n        /* \"#utility.yul\":7256:7262   */\n      dup3\n        /* \"#utility.yul\":7252:7269   */\n      and\n        /* \"#utility.yul\":7242:7269   */\n      swap2\n      pop\n        /* \"#utility.yul\":7198:7279   */\n    tag_172:\n        /* \"#utility.yul\":7326:7328   */\n      0x20\n        /* \"#utility.yul\":7318:7324   */\n      dup3\n        /* \"#utility.yul\":7315:7329   */\n      lt\n        /* \"#utility.yul\":7295:7313   */\n      dup2\n        /* \"#utility.yul\":7292:7330   */\n      eq\n        /* \"#utility.yul\":7289:7373   */\n      iszero\n      tag_173\n      jumpi\n        /* \"#utility.yul\":7345:7363   */\n      tag_174\n      tag_175\n      jump\t// in\n    tag_174:\n        /* \"#utility.yul\":7289:7373   */\n    tag_173:\n        /* \"#utility.yul\":7110:7379   */\n      pop\n        /* \"#utility.yul\":7059:7379   */\n      swap2\n      swap1\n      pop\n      jump\t// out\n        /* \"#utility.yul\":7385:7666   */\n    tag_150:\n        /* \"#utility.yul\":7468:7495   */\n      tag_177\n        /* \"#utility.yul\":7490:7494   */\n      dup3\n        /* \"#utility.yul\":7468:7495   */\n      tag_120\n      jump\t// in\n    tag_177:\n        /* \"#utility.yul\":7460:7466   */\n      dup2\n        /* \"#utility.yul\":7456:7496   */\n      add\n        /* \"#utility.yul\":7598:7604   */\n      dup2\n        /* \"#utility.yul\":7586:7596   */\n      dup2\n        /* \"#utility.yul\":7583:7605   */\n      lt\n        /* \"#utility.yul\":7562:7580   */\n      0xffffffffffffffff\n        /* \"#utility.yul\":7550:7560   */\n      dup3\n        /* \"#utility.yul\":7547:7581   */\n      gt\n        /* \"#utility.yul\":7544:7606   */\n      or\n        /* \"#utility.yul\":7541:7629   */\n      iszero\n      tag_178\n      jumpi\n        /* \"#utility.yul\":7609:7627   */\n      tag_179\n      tag_155\n      jump\t// in\n    tag_179:\n        /* \"#utility.yul\":7541:7629   */\n    tag_178:\n        /* \"#utility.yul\":7649:7659   */\n      dup1\n        /* \"#utility.yul\":7645:7647   */\n      0x40\n        /* \"#utility.yul\":7638:7660   */\n      mstore\n        /* \"#utility.yul\":7428:7666   */\n      pop\n        /* \"#utility.yul\":7385:7666   */\n      pop\n      pop\n      jump\t// out\n        /* \"#utility.yul\":7672:7852   */\n    tag_175:\n        /* \"#utility.yul\":7720:7797   */\n      0x4e487b7100000000000000000000000000000000000000000000000000000000\n        /* \"#utility.yul\":7717:7718   */\n      0x00\n        /* \"#utility.yul\":7710:7798   */\n      mstore\n        /* \"#utility.yul\":7817:7821   */\n      0x22\n        /* \"#utility.yul\":7814:7815   */\n      0x04\n        /* \"#utility.yul\":7807:7822   */\n      mstore\n        /* \"#utility.yul\":7841:7845   */\n      0x24\n        /* \"#utility.yul\":7838:7839   */\n      0x00\n        /* \"#utility.yul\":7831:7846   */\n      revert\n        /* \"#utility.yul\":7858:8038   */\n    tag_155:\n        /* \"#utility.yul\":7906:7983   */\n      0x4e487b7100000000000000000000000000000000000000000000000000000000\n        /* \"#utility.yul\":7903:7904   */\n      0x00\n        /* \"#utility.yul\":7896:7984   */\n      mstore\n        /* \"#utility.yul\":8003:8007   */\n      0x41\n        /* \"#utility.yul\":8000:8001   */\n      0x04\n        /* \"#utility.yul\":7993:8008   */\n      mstore\n        /* \"#utility.yul\":8027:8031   */\n      0x24\n        /* \"#utility.yul\":8024:8025   */\n      0x00\n        /* \"#utility.yul\":8017:8032   */\n      revert\n        /* \"#utility.yul\":8044:8161   */\n    tag_86:\n        /* \"#utility.yul\":8153:8154   */\n      0x00\n        /* \"#utility.yul\":8150:8151   */\n      dup1\n        /* \"#utility.yul\":8143:8155   */\n      revert\n        /* \"#utility.yul\":8167:8284   */\n    tag_79:\n        /* \"#utility.yul\":8276:8277   */\n      0x00\n        /* \"#utility.yul\":8273:8274   */\n      dup1\n        /* \"#utility.yul\":8266:8278   */\n      revert\n        /* \"#utility.yul\":8290:8407   */\n    tag_98:\n        /* \"#utility.yul\":8399:8400   */\n      0x00\n        /* \"#utility.yul\":8396:8397   */\n      dup1\n        /* \"#utility.yul\":8389:8401   */\n      revert\n        /* \"#utility.yul\":8413:8530   */\n    tag_95:\n        /* \"#utility.yul\":8522:8523   */\n      0x00\n        /* \"#utility.yul\":8519:8520   */\n      dup1\n        /* \"#utility.yul\":8512:8524   */\n      revert\n        /* \"#utility.yul\":8536:8638   */\n    tag_120:\n        /* \"#utility.yul\":8577:8583   */\n      0x00\n        /* \"#utility.yul\":8628:8630   */\n      0x1f\n        /* \"#utility.yul\":8624:8631   */\n      not\n        /* \"#utility.yul\":8619:8621   */\n      0x1f\n        /* \"#utility.yul\":8612:8617   */\n      dup4\n        /* \"#utility.yul\":8608:8622   */\n      add\n        /* \"#utility.yul\":8604:8632   */\n      and\n        /* \"#utility.yul\":8594:8632   */\n      swap1\n      pop\n        /* \"#utility.yul\":8536:8638   */\n      swap2\n      swap1\n      pop\n      jump\t// out\n        /* \"#utility.yul\":8644:8766   */\n    tag_91:\n        /* \"#utility.yul\":8717:8741   */\n      tag_188\n        /* \"#utility.yul\":8735:8740   */\n      dup2\n        /* \"#utility.yul\":8717:8741   */\n      tag_130\n      jump\t// in\n    tag_188:\n        /* \"#utility.yul\":8710:8715   */\n      dup2\n        /* \"#utility.yul\":8707:8742   */\n      eq\n        /* \"#utility.yul\":8697:8760   */\n      tag_189\n      jumpi\n        /* \"#utility.yul\":8756:8757   */\n      0x00\n        /* \"#utility.yul\":8753:8754   */\n      dup1\n        /* \"#utility.yul\":8746:8758   */\n      revert\n        /* \"#utility.yul\":8697:8760   */\n    tag_189:\n        /* \"#utility.yul\":8644:8766   */\n      pop\n      jump\t// out\n\n    auxdata: 0xa2646970667358221220e522061868628cf696fb2678ed4160c88910af902a7d7d4806546dd93e6727c864736f6c63430008070033\n}\n",
				"bytecode": {
					"linkReferences": {},
					"object": "608060405234801561001057600080fd5b506109b8806100206000396000f3fe608060405234801561001057600080fd5b506004361061004c5760003560e01c80632b08e8241461005157806350b44712146100815780638ce7e461146100b3578063e0a08f27146100e3575b600080fd5b61006b600480360381019061006691906105e9565b6100ff565b60405161007891906106b5565b60405180910390f35b61009b600480360381019061009691906105e9565b610132565b6040516100aa939291906106f2565b60405180910390f35b6100cd60048036038101906100c891906105e9565b61027c565b6040516100da91906106d0565b60405180910390f35b6100fd60048036038101906100f89190610571565b61031c565b005b60016020528060005260406000206000915054906101000a900473ffffffffffffffffffffffffffffffffffffffff1681565b6000818154811061014257600080fd5b906000526020600020906003020160009150905080600001549080600101805461016b90610885565b80601f016020809104026020016040519081016040528092919081815260200182805461019790610885565b80156101e45780601f106101b9576101008083540402835291602001916101e4565b820191906000526020600020905b8154815290600101906020018083116101c757829003601f168201915b5050505050908060020180546101f990610885565b80601f016020809104026020016040519081016040528092919081815260200182805461022590610885565b80156102725780601f1061024757610100808354040283529160200191610272565b820191906000526020600020905b81548152906001019060200180831161025557829003601f168201915b5050505050905083565b6002602052806000526040600020600091509050805461029b90610885565b80601f01602080910402602001604051908101604052809291908181526020018280546102c790610885565b80156103145780601f106102e957610100808354040283529160200191610314565b820191906000526020600020905b8154815290600101906020018083116102f757829003601f168201915b505050505081565b600061032782610339565b9050610334818484610371565b505050565b6000808260405160200161034d919061069e565b6040516020818303038152906040528051906020012060001c905080915050919050565b600060405180606001604052808581526020018481526020018381525090806001815401808255809150506001900390600052602060002090600302016000909190919091506000820151816000015560208201518160010190805190602001906103dd929190610449565b5060408201518160020190805190602001906103fa929190610449565b5050506000808054905090507fa421576df59f1a0508daa93ce319ec1008a3e4049fac768ebbc0765c18602d968185858560405161043b9493929190610737565b60405180910390a150505050565b82805461045590610885565b90600052602060002090601f01602090048101928261047757600085556104be565b82601f1061049057805160ff19168380011785556104be565b828001600101855582156104be579182015b828111156104bd5782518255916020019190600101906104a2565b5b5090506104cb91906104cf565b5090565b5b808211156104e85760008160009055506001016104d0565b5090565b60006104ff6104fa846107af565b61078a565b90508281526020810184848401111561051b5761051a61094b565b5b610526848285610843565b509392505050565b600082601f83011261054357610542610946565b5b81356105538482602086016104ec565b91505092915050565b60008135905061056b8161096b565b92915050565b6000806040838503121561058857610587610955565b5b600083013567ffffffffffffffff8111156105a6576105a5610950565b5b6105b28582860161052e565b925050602083013567ffffffffffffffff8111156105d3576105d2610950565b5b6105df8582860161052e565b9150509250929050565b6000602082840312156105ff576105fe610955565b5b600061060d8482850161055c565b91505092915050565b61061f81610807565b82525050565b6000610630826107e0565b61063a81856107eb565b935061064a818560208601610852565b6106538161095a565b840191505092915050565b6000610669826107e0565b61067381856107fc565b9350610683818560208601610852565b80840191505092915050565b61069881610839565b82525050565b60006106aa828461065e565b915081905092915050565b60006020820190506106ca6000830184610616565b92915050565b600060208201905081810360008301526106ea8184610625565b905092915050565b6000606082019050610707600083018661068f565b81810360208301526107198185610625565b9050818103604083015261072d8184610625565b9050949350505050565b600060808201905061074c600083018761068f565b610759602083018661068f565b818103604083015261076b8185610625565b9050818103606083015261077f8184610625565b905095945050505050565b60006107946107a5565b90506107a082826108b7565b919050565b6000604051905090565b600067ffffffffffffffff8211156107ca576107c9610917565b5b6107d38261095a565b9050602081019050919050565b600081519050919050565b600082825260208201905092915050565b600081905092915050565b600061081282610819565b9050919050565b600073ffffffffffffffffffffffffffffffffffffffff82169050919050565b6000819050919050565b82818337600083830152505050565b60005b83811015610870578082015181840152602081019050610855565b8381111561087f576000848401525b50505050565b6000600282049050600182168061089d57607f821691505b602082108114156108b1576108b06108e8565b5b50919050565b6108c08261095a565b810181811067ffffffffffffffff821117156108df576108de610917565b5b80604052505050565b7f4e487b7100000000000000000000000000000000000000000000000000000000600052602260045260246000fd5b7f4e487b7100000000000000000000000000000000000000000000000000000000600052604160045260246000fd5b600080fd5b600080fd5b600080fd5b600080fd5b6000601f19601f8301169050919050565b61097481610839565b811461097f57600080fd5b5056fea2646970667358221220e522061868628cf696fb2678ed4160c88910af902a7d7d4806546dd93e6727c864736f6c63430008070033",
					"opcodes": "PUSH1 0x80 PUSH1 0x40 MSTORE CALLVALUE DUP1 ISZERO PUSH2 0x10 JUMPI PUSH1 0x0 DUP1 REVERT JUMPDEST POP PUSH2 0x9B8 DUP1 PUSH2 0x20 PUSH1 0x0 CODECOPY PUSH1 0x0 RETURN INVALID PUSH1 0x80 PUSH1 0x40 MSTORE CALLVALUE DUP1 ISZERO PUSH2 0x10 JUMPI PUSH1 0x0 DUP1 REVERT JUMPDEST POP PUSH1 0x4 CALLDATASIZE LT PUSH2 0x4C JUMPI PUSH1 0x0 CALLDATALOAD PUSH1 0xE0 SHR DUP1 PUSH4 0x2B08E824 EQ PUSH2 0x51 JUMPI DUP1 PUSH4 0x50B44712 EQ PUSH2 0x81 JUMPI DUP1 PUSH4 0x8CE7E461 EQ PUSH2 0xB3 JUMPI DUP1 PUSH4 0xE0A08F27 EQ PUSH2 0xE3 JUMPI JUMPDEST PUSH1 0x0 DUP1 REVERT JUMPDEST PUSH2 0x6B PUSH1 0x4 DUP1 CALLDATASIZE SUB DUP2 ADD SWAP1 PUSH2 0x66 SWAP2 SWAP1 PUSH2 0x5E9 JUMP JUMPDEST PUSH2 0xFF JUMP JUMPDEST PUSH1 0x40 MLOAD PUSH2 0x78 SWAP2 SWAP1 PUSH2 0x6B5 JUMP JUMPDEST PUSH1 0x40 MLOAD DUP1 SWAP2 SUB SWAP1 RETURN JUMPDEST PUSH2 0x9B PUSH1 0x4 DUP1 CALLDATASIZE SUB DUP2 ADD SWAP1 PUSH2 0x96 SWAP2 SWAP1 PUSH2 0x5E9 JUMP JUMPDEST PUSH2 0x132 JUMP JUMPDEST PUSH1 0x40 MLOAD PUSH2 0xAA SWAP4 SWAP3 SWAP2 SWAP1 PUSH2 0x6F2 JUMP JUMPDEST PUSH1 0x40 MLOAD DUP1 SWAP2 SUB SWAP1 RETURN JUMPDEST PUSH2 0xCD PUSH1 0x4 DUP1 CALLDATASIZE SUB DUP2 ADD SWAP1 PUSH2 0xC8 SWAP2 SWAP1 PUSH2 0x5E9 JUMP JUMPDEST PUSH2 0x27C JUMP JUMPDEST PUSH1 0x40 MLOAD PUSH2 0xDA SWAP2 SWAP1 PUSH2 0x6D0 JUMP JUMPDEST PUSH1 0x40 MLOAD DUP1 SWAP2 SUB SWAP1 RETURN JUMPDEST PUSH2 0xFD PUSH1 0x4 DUP1 CALLDATASIZE SUB DUP2 ADD SWAP1 PUSH2 0xF8 SWAP2 SWAP1 PUSH2 0x571 JUMP JUMPDEST PUSH2 0x31C JUMP JUMPDEST STOP JUMPDEST PUSH1 0x1 PUSH1 0x20 MSTORE DUP1 PUSH1 0x0 MSTORE PUSH1 0x40 PUSH1 0x0 KECCAK256 PUSH1 0x0 SWAP2 POP SLOAD SWAP1 PUSH2 0x100 EXP SWAP1 DIV PUSH20 0xFFFFFFFFFFFFFFFFFFFFFFFFFFFFFFFFFFFFFFFF AND DUP2 JUMP JUMPDEST PUSH1 0x0 DUP2 DUP2 SLOAD DUP2 LT PUSH2 0x142 JUMPI PUSH1 0x0 DUP1 REVERT JUMPDEST SWAP1 PUSH1 0x0 MSTORE PUSH1 0x20 PUSH1 0x0 KECCAK256 SWAP1 PUSH1 0x3 MUL ADD PUSH1 0x0 SWAP2 POP SWAP1 POP DUP1 PUSH1 0x0 ADD SLOAD SWAP1 DUP1 PUSH1 0x1 ADD DUP1 SLOAD PUSH2 0x16B SWAP1 PUSH2 0x885 JUMP JUMPDEST DUP1 PUSH1 0x1F ADD PUSH1 0x20 DUP1 SWAP2 DIV MUL PUSH1 0x20 ADD PUSH1 0x40 MLOAD SWAP1 DUP2 ADD PUSH1 0x40 MSTORE DUP1 SWAP3 SWAP2 SWAP1 DUP2 DUP2 MSTORE PUSH1 0x20 ADD DUP3 DUP1 SLOAD PUSH2 0x197 SWAP1 PUSH2 0x885 JUMP JUMPDEST DUP1 ISZERO PUSH2 0x1E4 JUMPI DUP1 PUSH1 0x1F LT PUSH2 0x1B9 JUMPI PUSH2 0x100 DUP1 DUP4 SLOAD DIV MUL DUP4 MSTORE SWAP2 PUSH1 0x20 ADD SWAP2 PUSH2 0x1E4 JUMP JUMPDEST DUP3 ADD SWAP2 SWAP1 PUSH1 0x0 MSTORE PUSH1 0x20 PUSH1 0x0 KECCAK256 SWAP1 JUMPDEST DUP2 SLOAD DUP2 MSTORE SWAP1 PUSH1 0x1 ADD SWAP1 PUSH1 0x20 ADD DUP1 DUP4 GT PUSH2 0x1C7 JUMPI DUP3 SWAP1 SUB PUSH1 0x1F AND DUP3 ADD SWAP2 JUMPDEST POP POP POP POP POP SWAP1 DUP1 PUSH1 0x2 ADD DUP1 SLOAD PUSH2 0x1F9 SWAP1 PUSH2 0x885 JUMP JUMPDEST DUP1 PUSH1 0x1F ADD PUSH1 0x20 DUP1 SWAP2 DIV MUL PUSH1 0x20 ADD PUSH1 0x40 MLOAD SWAP1 DUP2 ADD PUSH1 0x40 MSTORE DUP1 SWAP3 SWAP2 SWAP1 DUP2 DUP2 MSTORE PUSH1 0x20 ADD DUP3 DUP1 SLOAD PUSH2 0x225 SWAP1 PUSH2 0x885 JUMP JUMPDEST DUP1 ISZERO PUSH2 0x272 JUMPI DUP1 PUSH1 0x1F LT PUSH2 0x247 JUMPI PUSH2 0x100 DUP1 DUP4 SLOAD DIV MUL DUP4 MSTORE SWAP2 PUSH1 0x20 ADD SWAP2 PUSH2 0x272 JUMP JUMPDEST DUP3 ADD SWAP2 SWAP1 PUSH1 0x0 MSTORE PUSH1 0x20 PUSH1 0x0 KECCAK256 SWAP1 JUMPDEST DUP2 SLOAD DUP2 MSTORE SWAP1 PUSH1 0x1 ADD SWAP1 PUSH1 0x20 ADD DUP1 DUP4 GT PUSH2 0x255 JUMPI DUP3 SWAP1 SUB PUSH1 0x1F AND DUP3 ADD SWAP2 JUMPDEST POP POP POP POP POP SWAP1 POP DUP4 JUMP JUMPDEST PUSH1 0x2 PUSH1 0x20 MSTORE DUP1 PUSH1 0x0 MSTORE PUSH1 0x40 PUSH1 0x0 KECCAK256 PUSH1 0x0 SWAP2 POP SWAP1 POP DUP1 SLOAD PUSH2 0x29B SWAP1 PUSH2 0x885 JUMP JUMPDEST DUP1 PUSH1 0x1F ADD PUSH1 0x20 DUP1 SWAP2 DIV MUL PUSH1 0x20 ADD PUSH1 0x40 MLOAD SWAP1 DUP2 ADD PUSH1 0x40 MSTORE DUP1 SWAP3 SWAP2 SWAP1 DUP2 DUP2 MSTORE PUSH1 0x20 ADD DUP3 DUP1 SLOAD PUSH2 0x2C7 SWAP1 PUSH2 0x885 JUMP JUMPDEST DUP1 ISZERO PUSH2 0x314 JUMPI DUP1 PUSH1 0x1F LT PUSH2 0x2E9 JUMPI PUSH2 0x100 DUP1 DUP4 SLOAD DIV MUL DUP4 MSTORE SWAP2 PUSH1 0x20 ADD SWAP2 PUSH2 0x314 JUMP JUMPDEST DUP3 ADD SWAP2 SWAP1 PUSH1 0x0 MSTORE PUSH1 0x20 PUSH1 0x0 KECCAK256 SWAP1 JUMPDEST DUP2 SLOAD DUP2 MSTORE SWAP1 PUSH1 0x1 ADD SWAP1 PUSH1 0x20 ADD DUP1 DUP4 GT PUSH2 0x2F7 JUMPI DUP3 SWAP1 SUB PUSH1 0x1F AND DUP3 ADD SWAP2 JUMPDEST POP POP POP POP POP DUP2 JUMP JUMPDEST PUSH1 0x0 PUSH2 0x327 DUP3 PUSH2 0x339 JUMP JUMPDEST SWAP1 POP PUSH2 0x334 DUP2 DUP5 DUP5 PUSH2 0x371 JUMP JUMPDEST POP POP POP JUMP JUMPDEST PUSH1 0x0 DUP1 DUP3 PUSH1 0x40 MLOAD PUSH1 0x20 ADD PUSH2 0x34D SWAP2 SWAP1 PUSH2 0x69E JUMP JUMPDEST PUSH1 0x40 MLOAD PUSH1 0x20 DUP2 DUP4 SUB SUB DUP2 MSTORE SWAP1 PUSH1 0x40 MSTORE DUP1 MLOAD SWAP1 PUSH1 0x20 ADD KECCAK256 PUSH1 0x0 SHR SWAP1 POP DUP1 SWAP2 POP POP SWAP2 SWAP1 POP JUMP JUMPDEST PUSH1 0x0 PUSH1 0x40 MLOAD DUP1 PUSH1 0x60 ADD PUSH1 0x40 MSTORE DUP1 DUP6 DUP2 MSTORE PUSH1 0x20 ADD DUP5 DUP2 MSTORE PUSH1 0x20 ADD DUP4 DUP2 MSTORE POP SWAP1 DUP1 PUSH1 0x1 DUP2 SLOAD ADD DUP1 DUP3 SSTORE DUP1 SWAP2 POP POP PUSH1 0x1 SWAP1 SUB SWAP1 PUSH1 0x0 MSTORE PUSH1 0x20 PUSH1 0x0 KECCAK256 SWAP1 PUSH1 0x3 MUL ADD PUSH1 0x0 SWAP1 SWAP2 SWAP1 SWAP2 SWAP1 SWAP2 POP PUSH1 0x0 DUP3 ADD MLOAD DUP2 PUSH1 0x0 ADD SSTORE PUSH1 0x20 DUP3 ADD MLOAD DUP2 PUSH1 0x1 ADD SWAP1 DUP1 MLOAD SWAP1 PUSH1 0x20 ADD SWAP1 PUSH2 0x3DD SWAP3 SWAP2 SWAP1 PUSH2 0x449 JUMP JUMPDEST POP PUSH1 0x40 DUP3 ADD MLOAD DUP2 PUSH1 0x2 ADD SWAP1 DUP1 MLOAD SWAP1 PUSH1 0x20 ADD SWAP1 PUSH2 0x3FA SWAP3 SWAP2 SWAP1 PUSH2 0x449 JUMP JUMPDEST POP POP POP PUSH1 0x0 DUP1 DUP1 SLOAD SWAP1 POP SWAP1 POP PUSH32 0xA421576DF59F1A0508DAA93CE319EC1008A3E4049FAC768EBBC0765C18602D96 DUP2 DUP6 DUP6 DUP6 PUSH1 0x40 MLOAD PUSH2 0x43B SWAP5 SWAP4 SWAP3 SWAP2 SWAP1 PUSH2 0x737 JUMP JUMPDEST PUSH1 0x40 MLOAD DUP1 SWAP2 SUB SWAP1 LOG1 POP POP POP POP JUMP JUMPDEST DUP3 DUP1 SLOAD PUSH2 0x455 SWAP1 PUSH2 0x885 JUMP JUMPDEST SWAP1 PUSH1 0x0 MSTORE PUSH1 0x20 PUSH1 0x0 KECCAK256 SWAP1 PUSH1 0x1F ADD PUSH1 0x20 SWAP1 DIV DUP2 ADD SWAP3 DUP3 PUSH2 0x477 JUMPI PUSH1 0x0 DUP6 SSTORE PUSH2 0x4BE JUMP JUMPDEST DUP3 PUSH1 0x1F LT PUSH2 0x490 JUMPI DUP1 MLOAD PUSH1 0xFF NOT AND DUP4 DUP1 ADD OR DUP6 SSTORE PUSH2 0x4BE JUMP JUMPDEST DUP3 DUP1 ADD PUSH1 0x1 ADD DUP6 SSTORE DUP3 ISZERO PUSH2 0x4BE JUMPI SWAP2 DUP3 ADD JUMPDEST DUP3 DUP2 GT ISZERO PUSH2 0x4BD JUMPI DUP3 MLOAD DUP3 SSTORE SWAP2 PUSH1 0x20 ADD SWAP2 SWAP1 PUSH1 0x1 ADD SWAP1 PUSH2 0x4A2 JUMP JUMPDEST JUMPDEST POP SWAP1 POP PUSH2 0x4CB SWAP2 SWAP1 PUSH2 0x4CF JUMP JUMPDEST POP SWAP1 JUMP JUMPDEST JUMPDEST DUP1 DUP3 GT ISZERO PUSH2 0x4E8 JUMPI PUSH1 0x0 DUP2 PUSH1 0x0 SWAP1 SSTORE POP PUSH1 0x1 ADD PUSH2 0x4D0 JUMP JUMPDEST POP SWAP1 JUMP JUMPDEST PUSH1 0x0 PUSH2 0x4FF PUSH2 0x4FA DUP5 PUSH2 0x7AF JUMP JUMPDEST PUSH2 0x78A JUMP JUMPDEST SWAP1 POP DUP3 DUP2 MSTORE PUSH1 0x20 DUP2 ADD DUP5 DUP5 DUP5 ADD GT ISZERO PUSH2 0x51B JUMPI PUSH2 0x51A PUSH2 0x94B JUMP JUMPDEST JUMPDEST PUSH2 0x526 DUP5 DUP3 DUP6 PUSH2 0x843 JUMP JUMPDEST POP SWAP4 SWAP3 POP POP POP JUMP JUMPDEST PUSH1 0x0 DUP3 PUSH1 0x1F DUP4 ADD SLT PUSH2 0x543 JUMPI PUSH2 0x542 PUSH2 0x946 JUMP JUMPDEST JUMPDEST DUP2 CALLDATALOAD PUSH2 0x553 DUP5 DUP3 PUSH1 0x20 DUP7 ADD PUSH2 0x4EC JUMP JUMPDEST SWAP2 POP POP SWAP3 SWAP2 POP POP JUMP JUMPDEST PUSH1 0x0 DUP2 CALLDATALOAD SWAP1 POP PUSH2 0x56B DUP2 PUSH2 0x96B JUMP JUMPDEST SWAP3 SWAP2 POP POP JUMP JUMPDEST PUSH1 0x0 DUP1 PUSH1 0x40 DUP4 DUP6 SUB SLT ISZERO PUSH2 0x588 JUMPI PUSH2 0x587 PUSH2 0x955 JUMP JUMPDEST JUMPDEST PUSH1 0x0 DUP4 ADD CALLDATALOAD PUSH8 0xFFFFFFFFFFFFFFFF DUP2 GT ISZERO PUSH2 0x5A6 JUMPI PUSH2 0x5A5 PUSH2 0x950 JUMP JUMPDEST JUMPDEST PUSH2 0x5B2 DUP6 DUP3 DUP7 ADD PUSH2 0x52E JUMP JUMPDEST SWAP3 POP POP PUSH1 0x20 DUP4 ADD CALLDATALOAD PUSH8 0xFFFFFFFFFFFFFFFF DUP2 GT ISZERO PUSH2 0x5D3 JUMPI PUSH2 0x5D2 PUSH2 0x950 JUMP JUMPDEST JUMPDEST PUSH2 0x5DF DUP6 DUP3 DUP7 ADD PUSH2 0x52E JUMP JUMPDEST SWAP2 POP POP SWAP3 POP SWAP3 SWAP1 POP JUMP JUMPDEST PUSH1 0x0 PUSH1 0x20 DUP3 DUP5 SUB SLT ISZERO PUSH2 0x5FF JUMPI PUSH2 0x5FE PUSH2 0x955 JUMP JUMPDEST JUMPDEST PUSH1 0x0 PUSH2 0x60D DUP5 DUP3 DUP6 ADD PUSH2 0x55C JUMP JUMPDEST SWAP2 POP POP SWAP3 SWAP2 POP POP JUMP JUMPDEST PUSH2 0x61F DUP2 PUSH2 0x807 JUMP JUMPDEST DUP3 MSTORE POP POP JUMP JUMPDEST PUSH1 0x0 PUSH2 0x630 DUP3 PUSH2 0x7E0 JUMP JUMPDEST PUSH2 0x63A DUP2 DUP6 PUSH2 0x7EB JUMP JUMPDEST SWAP4 POP PUSH2 0x64A DUP2 DUP6 PUSH1 0x20 DUP7 ADD PUSH2 0x852 JUMP JUMPDEST PUSH2 0x653 DUP2 PUSH2 0x95A JUMP JUMPDEST DUP5 ADD SWAP2 POP POP SWAP3 SWAP2 POP POP JUMP JUMPDEST PUSH1 0x0 PUSH2 0x669 DUP3 PUSH2 0x7E0 JUMP JUMPDEST PUSH2 0x673 DUP2 DUP6 PUSH2 0x7FC JUMP JUMPDEST SWAP4 POP PUSH2 0x683 DUP2 DUP6 PUSH1 0x20 DUP7 ADD PUSH2 0x852 JUMP JUMPDEST DUP1 DUP5 ADD SWAP2 POP POP SWAP3 SWAP2 POP POP JUMP JUMPDEST PUSH2 0x698 DUP2 PUSH2 0x839 JUMP JUMPDEST DUP3 MSTORE POP POP JUMP JUMPDEST PUSH1 0x0 PUSH2 0x6AA DUP3 DUP5 PUSH2 0x65E JUMP JUMPDEST SWAP2 POP DUP2 SWAP1 POP SWAP3 SWAP2 POP POP JUMP JUMPDEST PUSH1 0x0 PUSH1 0x20 DUP3 ADD SWAP1 POP PUSH2 0x6CA PUSH1 0x0 DUP4 ADD DUP5 PUSH2 0x616 JUMP JUMPDEST SWAP3 SWAP2 POP POP JUMP JUMPDEST PUSH1 0x0 PUSH1 0x20 DUP3 ADD SWAP1 POP DUP2 DUP2 SUB PUSH1 0x0 DUP4 ADD MSTORE PUSH2 0x6EA DUP2 DUP5 PUSH2 0x625 JUMP JUMPDEST SWAP1 POP SWAP3 SWAP2 POP POP JUMP JUMPDEST PUSH1 0x0 PUSH1 0x60 DUP3 ADD SWAP1 POP PUSH2 0x707 PUSH1 0x0 DUP4 ADD DUP7 PUSH2 0x68F JUMP JUMPDEST DUP2 DUP2 SUB PUSH1 0x20 DUP4 ADD MSTORE PUSH2 0x719 DUP2 DUP6 PUSH2 0x625 JUMP JUMPDEST SWAP1 POP DUP2 DUP2 SUB PUSH1 0x40 DUP4 ADD MSTORE PUSH2 0x72D DUP2 DUP5 PUSH2 0x625 JUMP JUMPDEST SWAP1 POP SWAP5 SWAP4 POP POP POP POP JUMP JUMPDEST PUSH1 0x0 PUSH1 0x80 DUP3 ADD SWAP1 POP PUSH2 0x74C PUSH1 0x0 DUP4 ADD DUP8 PUSH2 0x68F JUMP JUMPDEST PUSH2 0x759 PUSH1 0x20 DUP4 ADD DUP7 PUSH2 0x68F JUMP JUMPDEST DUP2 DUP2 SUB PUSH1 0x40 DUP4 ADD MSTORE PUSH2 0x76B DUP2 DUP6 PUSH2 0x625 JUMP JUMPDEST SWAP1 POP DUP2 DUP2 SUB PUSH1 0x60 DUP4 ADD MSTORE PUSH2 0x77F DUP2 DUP5 PUSH2 0x625 JUMP JUMPDEST SWAP1 POP SWAP6 SWAP5 POP POP POP POP POP JUMP JUMPDEST PUSH1 0x0 PUSH2 0x794 PUSH2 0x7A5 JUMP JUMPDEST SWAP1 POP PUSH2 0x7A0 DUP3 DUP3 PUSH2 0x8B7 JUMP JUMPDEST SWAP2 SWAP1 POP JUMP JUMPDEST PUSH1 0x0 PUSH1 0x40 MLOAD SWAP1 POP SWAP1 JUMP JUMPDEST PUSH1 0x0 PUSH8 0xFFFFFFFFFFFFFFFF DUP3 GT ISZERO PUSH2 0x7CA JUMPI PUSH2 0x7C9 PUSH2 0x917 JUMP JUMPDEST JUMPDEST PUSH2 0x7D3 DUP3 PUSH2 0x95A JUMP JUMPDEST SWAP1 POP PUSH1 0x20 DUP2 ADD SWAP1 POP SWAP2 SWAP1 POP JUMP JUMPDEST PUSH1 0x0 DUP2 MLOAD SWAP1 POP SWAP2 SWAP1 POP JUMP JUMPDEST PUSH1 0x0 DUP3 DUP3 MSTORE PUSH1 0x20 DUP3 ADD SWAP1 POP SWAP3 SWAP2 POP POP JUMP JUMPDEST PUSH1 0x0 DUP2 SWAP1 POP SWAP3 SWAP2 POP POP JUMP JUMPDEST PUSH1 0x0 PUSH2 0x812 DUP3 PUSH2 0x819 JUMP JUMPDEST SWAP1 POP SWAP2 SWAP1 POP JUMP JUMPDEST PUSH1 0x0 PUSH20 0xFFFFFFFFFFFFFFFFFFFFFFFFFFFFFFFFFFFFFFFF DUP3 AND SWAP1 POP SWAP2 SWAP1 POP JUMP JUMPDEST PUSH1 0x0 DUP2 SWAP1 POP SWAP2 SWAP1 POP JUMP JUMPDEST DUP3 DUP2 DUP4 CALLDATACOPY PUSH1 0x0 DUP4 DUP4 ADD MSTORE POP POP POP JUMP JUMPDEST PUSH1 0x0 JUMPDEST DUP4 DUP2 LT ISZERO PUSH2 0x870 JUMPI DUP1 DUP3 ADD MLOAD DUP2 DUP5 ADD MSTORE PUSH1 0x20 DUP2 ADD SWAP1 POP PUSH2 0x855 JUMP JUMPDEST DUP4 DUP2 GT ISZERO PUSH2 0x87F JUMPI PUSH1 0x0 DUP5 DUP5 ADD MSTORE JUMPDEST POP POP POP POP JUMP JUMPDEST PUSH1 0x0 PUSH1 0x2 DUP3 DIV SWAP1 POP PUSH1 0x1 DUP3 AND DUP1 PUSH2 0x89D JUMPI PUSH1 0x7F DUP3 AND SWAP2 POP JUMPDEST PUSH1 0x20 DUP3 LT DUP2 EQ ISZERO PUSH2 0x8B1 JUMPI PUSH2 0x8B0 PUSH2 0x8E8 JUMP JUMPDEST JUMPDEST POP SWAP2 SWAP1 POP JUMP JUMPDEST PUSH2 0x8C0 DUP3 PUSH2 0x95A JUMP JUMPDEST DUP2 ADD DUP2 DUP2 LT PUSH8 0xFFFFFFFFFFFFFFFF DUP3 GT OR ISZERO PUSH2 0x8DF JUMPI PUSH2 0x8DE PUSH2 0x917 JUMP JUMPDEST JUMPDEST DUP1 PUSH1 0x40 MSTORE POP POP POP JUMP JUMPDEST PUSH32 0x4E487B7100000000000000000000000000000000000000000000000000000000 PUSH1 0x0 MSTORE PUSH1 0x22 PUSH1 0x4 MSTORE PUSH1 0x24 PUSH1 0x0 REVERT JUMPDEST PUSH32 0x4E487B7100000000000000000000000000000000000000000000000000000000 PUSH1 0x0 MSTORE PUSH1 0x41 PUSH1 0x4 MSTORE PUSH1 0x24 PUSH1 0x0 REVERT JUMPDEST PUSH1 0x0 DUP1 REVERT JUMPDEST PUSH1 0x0 DUP1 REVERT JUMPDEST PUSH1 0x0 DUP1 REVERT JUMPDEST PUSH1 0x0 DUP1 REVERT JUMPDEST PUSH1 0x0 PUSH1 0x1F NOT PUSH1 0x1F DUP4 ADD AND SWAP1 POP SWAP2 SWAP1 POP JUMP JUMPDEST PUSH2 0x974 DUP2 PUSH2 0x839 JUMP JUMPDEST DUP2 EQ PUSH2 0x97F JUMPI PUSH1 0x0 DUP1 REVERT JUMPDEST POP JUMP INVALID LOG2 PUSH5 0x6970667358 0x22 SLT KECCAK256 0xE5 0x22 MOD XOR PUSH9 0x628CF696FB2678ED41 PUSH1 0xC8 DUP10 LT 0xAF SWAP1 0x2A PUSH30 0x7D4806546DD93E6727C864736F6C63430008070033000000000000000000 "
				},
				"gasEstimates": {
					"creation": {
						"codeDepositCost": "497600",
						"executionCost": "530",
						"totalCost": "498130"
					},
					"external": {
						"createNewTicket(string,string)": "infinite",
						"ticketStatus(uint256)": "infinite",
						"ticketToOwner(uint256)": "2817",
						"tickets(uint256)": "infinite"
					},
					"internal": {
						"_createTicket(uint256,string memory,string memory)": "infinite",
						"generateRefNo(string memory)": "infinite"
					}
				},
				"methodIdentifiers": {
					"createNewTicket(string,string)": "e0a08f27",
					"ticketStatus(uint256)": "8ce7e461",
					"ticketToOwner(uint256)": "2b08e824",
					"tickets(uint256)": "50b44712"
				}
			},
			"storageLayout": {
				"storage": [
					{
						"astId": 22,
						"contract": "contracts/CreateTicket.sol:NewTicket",
						"label": "tickets",
						"offset": 0,
						"slot": "0",
						"type": "t_array(t_struct(Ticket)18_storage)dyn_storage"
					},
					{
						"astId": 26,
						"contract": "contracts/CreateTicket.sol:NewTicket",
						"label": "ticketToOwner",
						"offset": 0,
						"slot": "1",
						"type": "t_mapping(t_uint256,t_address)"
					},
					{
						"astId": 30,
						"contract": "contracts/CreateTicket.sol:NewTicket",
						"label": "ticketStatus",
						"offset": 0,
						"slot": "2",
						"type": "t_mapping(t_uint256,t_string_storage)"
					}
				],
				"types": {
					"t_address": {
						"encoding": "inplace",
						"label": "address",
						"numberOfBytes": "20"
					},
					"t_array(t_struct(Ticket)18_storage)dyn_storage": {
						"base": "t_struct(Ticket)18_storage",
						"encoding": "dynamic_array",
						"label": "struct NewTicket.Ticket[]",
						"numberOfBytes": "32"
					},
					"t_mapping(t_uint256,t_address)": {
						"encoding": "mapping",
						"key": "t_uint256",
						"label": "mapping(uint256 => address)",
						"numberOfBytes": "32",
						"value": "t_address"
					},
					"t_mapping(t_uint256,t_string_storage)": {
						"encoding": "mapping",
						"key": "t_uint256",
						"label": "mapping(uint256 => string)",
						"numberOfBytes": "32",
						"value": "t_string_storage"
					},
					"t_string_storage": {
						"encoding": "bytes",
						"label": "string",
						"numberOfBytes": "32"
					},
					"t_struct(Ticket)18_storage": {
						"encoding": "inplace",
						"label": "struct NewTicket.Ticket",
						"members": [
							{
								"astId": 13,
								"contract": "contracts/CreateTicket.sol:NewTicket",
								"label": "refNo",
								"offset": 0,
								"slot": "0",
								"type": "t_uint256"
							},
							{
								"astId": 15,
								"contract": "contracts/CreateTicket.sol:NewTicket",
								"label": "authority",
								"offset": 0,
								"slot": "1",
								"type": "t_string_storage"
							},
							{
								"astId": 17,
								"contract": "contracts/CreateTicket.sol:NewTicket",
								"label": "link",
								"offset": 0,
								"slot": "2",
								"type": "t_string_storage"
							}
						],
						"numberOfBytes": "96"
					},
					"t_uint256": {
						"encoding": "inplace",
						"label": "uint256",
						"numberOfBytes": "32"
					}
				}
			},
			"userdoc": {
				"kind": "user",
				"methods": {},
				"version": 1
			}
		}
	}
}