{
	"contracts/CreateTicket.sol": {
		"NewTicket": {
			"abi": [
				{
					"anonymous": false,
					"inputs": [
						{
							"indexed": false,
							"internalType": "uint256",
							"name": "ticketId",
							"type": "uint256"
						},
						{
							"indexed": false,
							"internalType": "uint256",
							"name": "refNo",
							"type": "uint256"
						},
						{
							"indexed": false,
							"internalType": "string",
							"name": "authority",
							"type": "string"
						},
						{
							"indexed": false,
							"internalType": "string",
							"name": "link",
							"type": "string"
						}
					],
					"name": "ticketCreated",
					"type": "event"
				},
				{
					"inputs": [
						{
							"internalType": "string",
							"name": "_authority",
							"type": "string"
						},
						{
							"internalType": "string",
							"name": "_link",
							"type": "string"
						}
					],
					"name": "createNewTicket",
					"outputs": [],
					"stateMutability": "nonpayable",
					"type": "function"
				},
				{
					"inputs": [
						{
							"internalType": "uint256",
							"name": "",
							"type": "uint256"
						}
					],
					"name": "ticketToOwner",
					"outputs": [
						{
							"internalType": "address",
							"name": "",
							"type": "address"
						}
					],
					"stateMutability": "view",
					"type": "function"
				},
				{
					"inputs": [
						{
							"internalType": "uint256",
							"name": "",
							"type": "uint256"
						}
					],
					"name": "tickets",
					"outputs": [
						{
							"internalType": "uint256",
							"name": "refNo",
							"type": "uint256"
						},
						{
							"internalType": "string",
							"name": "authority",
							"type": "string"
						},
						{
							"internalType": "string",
							"name": "link",
							"type": "string"
						}
					],
					"stateMutability": "view",
					"type": "function"
				}
			],
			"devdoc": {
				"kind": "dev",
				"methods": {},
				"version": 1
			},
			"evm": {
				"assembly": "    /* \"contracts/CreateTicket.sol\":70:994  contract NewTicket {\r... */\n  mstore(0x40, 0x80)\n  callvalue\n  dup1\n  iszero\n  tag_1\n  jumpi\n  0x00\n  dup1\n  revert\ntag_1:\n  pop\n  dataSize(sub_0)\n  dup1\n  dataOffset(sub_0)\n  0x00\n  codecopy\n  0x00\n  return\nstop\n\nsub_0: assembly {\n        /* \"contracts/CreateTicket.sol\":70:994  contract NewTicket {\r... */\n      mstore(0x40, 0x80)\n      callvalue\n      dup1\n      iszero\n      tag_1\n      jumpi\n      0x00\n      dup1\n      revert\n    tag_1:\n      pop\n      jumpi(tag_2, lt(calldatasize, 0x04))\n      shr(0xe0, calldataload(0x00))\n      dup1\n      0x2b08e824\n      eq\n      tag_3\n      jumpi\n      dup1\n      0x50b44712\n      eq\n      tag_4\n      jumpi\n      dup1\n      0xe0a08f27\n      eq\n      tag_5\n      jumpi\n    tag_2:\n      0x00\n      dup1\n      revert\n        /* \"contracts/CreateTicket.sol\":316:361  mapping(uint => address) public ticketToOwner */\n    tag_3:\n      tag_6\n      0x04\n      dup1\n      calldatasize\n      sub\n      dup2\n      add\n      swap1\n      tag_7\n      swap2\n      swap1\n      tag_8\n      jump\t// in\n    tag_7:\n      tag_9\n      jump\t// in\n    tag_6:\n      mload(0x40)\n      tag_10\n      swap2\n      swap1\n      tag_11\n      jump\t// in\n    tag_10:\n      mload(0x40)\n      dup1\n      swap2\n      sub\n      swap1\n      return\n        /* \"contracts/CreateTicket.sol\":284:307  Ticket[] public tickets */\n    tag_4:\n      tag_12\n      0x04\n      dup1\n      calldatasize\n      sub\n      dup2\n      add\n      swap1\n      tag_13\n      swap2\n      swap1\n      tag_8\n      jump\t// in\n    tag_13:\n      tag_14\n      jump\t// in\n    tag_12:\n      mload(0x40)\n      tag_15\n      swap4\n      swap3\n      swap2\n      swap1\n      tag_16\n      jump\t// in\n    tag_15:\n      mload(0x40)\n      dup1\n      swap2\n      sub\n      swap1\n      return\n        /* \"contracts/CreateTicket.sol\":810:991  function createNewTicket(string memory _authority, string memory _link) public {\r... */\n    tag_5:\n      tag_17\n      0x04\n      dup1\n      calldatasize\n      sub\n      dup2\n      add\n      swap1\n      tag_18\n      swap2\n      swap1\n      tag_19\n      jump\t// in\n    tag_18:\n      tag_20\n      jump\t// in\n    tag_17:\n      stop\n        /* \"contracts/CreateTicket.sol\":316:361  mapping(uint => address) public ticketToOwner */\n    tag_9:\n      mstore(0x20, 0x01)\n      dup1\n      0x00\n      mstore\n      keccak256(0x00, 0x40)\n      0x00\n      swap2\n      pop\n      sload\n      swap1\n      0x0100\n      exp\n      swap1\n      div\n      0xffffffffffffffffffffffffffffffffffffffff\n      and\n      dup2\n      jump\t// out\n        /* \"contracts/CreateTicket.sol\":284:307  Ticket[] public tickets */\n    tag_14:\n      0x00\n      dup2\n      dup2\n      sload\n      dup2\n      lt\n      tag_21\n      jumpi\n      0x00\n      dup1\n      revert\n    tag_21:\n      swap1\n      0x00\n      mstore\n      keccak256(0x00, 0x20)\n      swap1\n      0x03\n      mul\n      add\n      0x00\n      swap2\n      pop\n      swap1\n      pop\n      dup1\n      0x00\n      add\n      sload\n      swap1\n      dup1\n      0x01\n      add\n      dup1\n      sload\n      tag_23\n      swap1\n      tag_24\n      jump\t// in\n    tag_23:\n      dup1\n      0x1f\n      add\n      0x20\n      dup1\n      swap2\n      div\n      mul\n      0x20\n      add\n      mload(0x40)\n      swap1\n      dup2\n      add\n      0x40\n      mstore\n      dup1\n      swap3\n      swap2\n      swap1\n      dup2\n      dup2\n      mstore\n      0x20\n      add\n      dup3\n      dup1\n      sload\n      tag_25\n      swap1\n      tag_24\n      jump\t// in\n    tag_25:\n      dup1\n      iszero\n      tag_26\n      jumpi\n      dup1\n      0x1f\n      lt\n      tag_27\n      jumpi\n      0x0100\n      dup1\n      dup4\n      sload\n      div\n      mul\n      dup4\n      mstore\n      swap2\n      0x20\n      add\n      swap2\n      jump(tag_26)\n    tag_27:\n      dup3\n      add\n      swap2\n      swap1\n      0x00\n      mstore\n      keccak256(0x00, 0x20)\n      swap1\n    tag_28:\n      dup2\n      sload\n      dup2\n      mstore\n      swap1\n      0x01\n      add\n      swap1\n      0x20\n      add\n      dup1\n      dup4\n      gt\n      tag_28\n      jumpi\n      dup3\n      swap1\n      sub\n      0x1f\n      and\n      dup3\n      add\n      swap2\n    tag_26:\n      pop\n      pop\n      pop\n      pop\n      pop\n      swap1\n      dup1\n      0x02\n      add\n      dup1\n      sload\n      tag_29\n      swap1\n      tag_24\n      jump\t// in\n    tag_29:\n      dup1\n      0x1f\n      add\n      0x20\n      dup1\n      swap2\n      div\n      mul\n      0x20\n      add\n      mload(0x40)\n      swap1\n      dup2\n      add\n      0x40\n      mstore\n      dup1\n      swap3\n      swap2\n      swap1\n      dup2\n      dup2\n      mstore\n      0x20\n      add\n      dup3\n      dup1\n      sload\n      tag_30\n      swap1\n      tag_24\n      jump\t// in\n    tag_30:\n      dup1\n      iszero\n      tag_31\n      jumpi\n      dup1\n      0x1f\n      lt\n      tag_32\n      jumpi\n      0x0100\n      dup1\n      dup4\n      sload\n      div\n      mul\n      dup4\n      mstore\n      swap2\n      0x20\n      add\n      swap2\n      jump(tag_31)\n    tag_32:\n      dup3\n      add\n      swap2\n      swap1\n      0x00\n      mstore\n      keccak256(0x00, 0x20)\n      swap1\n    tag_33:\n      dup2\n      sload\n      dup2\n      mstore\n      swap1\n      0x01\n      add\n      swap1\n      0x20\n      add\n      dup1\n      dup4\n      gt\n      tag_33\n      jumpi\n      dup3\n      swap1\n      sub\n      0x1f\n      and\n      dup3\n      add\n      swap2\n    tag_31:\n      pop\n      pop\n      pop\n      pop\n      pop\n      swap1\n      pop\n      dup4\n      jump\t// out\n        /* \"contracts/CreateTicket.sol\":810:991  function createNewTicket(string memory _authority, string memory _link) public {\r... */\n    tag_20:\n        /* \"contracts/CreateTicket.sol\":900:910  uint RefNo */\n      0x00\n        /* \"contracts/CreateTicket.sol\":913:933  generateRefNo(_link) */\n      tag_35\n        /* \"contracts/CreateTicket.sol\":927:932  _link */\n      dup3\n        /* \"contracts/CreateTicket.sol\":913:926  generateRefNo */\n      tag_36\n        /* \"contracts/CreateTicket.sol\":913:933  generateRefNo(_link) */\n      jump\t// in\n    tag_35:\n        /* \"contracts/CreateTicket.sol\":900:933  uint RefNo = generateRefNo(_link) */\n      swap1\n      pop\n        /* \"contracts/CreateTicket.sol\":944:983  _createTicket(RefNo, _authority, _link) */\n      tag_37\n        /* \"contracts/CreateTicket.sol\":958:963  RefNo */\n      dup2\n        /* \"contracts/CreateTicket.sol\":965:975  _authority */\n      dup5\n        /* \"contracts/CreateTicket.sol\":977:982  _link */\n      dup5\n        /* \"contracts/CreateTicket.sol\":944:957  _createTicket */\n      tag_38\n        /* \"contracts/CreateTicket.sol\":944:983  _createTicket(RefNo, _authority, _link) */\n      jump\t// in\n    tag_37:\n        /* \"contracts/CreateTicket.sol\":889:991  {\r... */\n      pop\n        /* \"contracts/CreateTicket.sol\":810:991  function createNewTicket(string memory _authority, string memory _link) public {\r... */\n      pop\n      pop\n      jump\t// out\n        /* \"contracts/CreateTicket.sol\":631:802  function generateRefNo(string memory _str) private view returns (uint) {\r... */\n    tag_36:\n        /* \"contracts/CreateTicket.sol\":696:700  uint */\n      0x00\n        /* \"contracts/CreateTicket.sol\":713:726  uint NewRefNo */\n      dup1\n        /* \"contracts/CreateTicket.sol\":761:765  _str */\n      dup3\n        /* \"contracts/CreateTicket.sol\":744:766  abi.encodePacked(_str) */\n      add(0x20, mload(0x40))\n      tag_40\n      swap2\n      swap1\n      tag_41\n      jump\t// in\n    tag_40:\n      mload(0x40)\n      0x20\n      dup2\n      dup4\n      sub\n      sub\n      dup2\n      mstore\n      swap1\n      0x40\n      mstore\n        /* \"contracts/CreateTicket.sol\":734:767  keccak256(abi.encodePacked(_str)) */\n      dup1\n      mload\n      swap1\n      0x20\n      add\n      keccak256\n        /* \"contracts/CreateTicket.sol\":729:768  uint(keccak256(abi.encodePacked(_str))) */\n      0x00\n      shr\n        /* \"contracts/CreateTicket.sol\":713:768  uint NewRefNo = uint(keccak256(abi.encodePacked(_str))) */\n      swap1\n      pop\n        /* \"contracts/CreateTicket.sol\":786:794  NewRefNo */\n      dup1\n        /* \"contracts/CreateTicket.sol\":779:794  return NewRefNo */\n      swap2\n      pop\n      pop\n        /* \"contracts/CreateTicket.sol\":631:802  function generateRefNo(string memory _str) private view returns (uint) {\r... */\n      swap2\n      swap1\n      pop\n      jump\t// out\n        /* \"contracts/CreateTicket.sol\":370:623  function _createTicket(uint _refNo, string memory _authority, string memory _link) private { \r... */\n    tag_38:\n        /* \"contracts/CreateTicket.sol\":473:480  tickets */\n      0x00\n        /* \"contracts/CreateTicket.sol\":486:519  Ticket(_refNo, _authority, _link) */\n      mload(0x40)\n      dup1\n      0x60\n      add\n      0x40\n      mstore\n      dup1\n        /* \"contracts/CreateTicket.sol\":493:499  _refNo */\n      dup6\n        /* \"contracts/CreateTicket.sol\":486:519  Ticket(_refNo, _authority, _link) */\n      dup2\n      mstore\n      0x20\n      add\n        /* \"contracts/CreateTicket.sol\":501:511  _authority */\n      dup5\n        /* \"contracts/CreateTicket.sol\":486:519  Ticket(_refNo, _authority, _link) */\n      dup2\n      mstore\n      0x20\n      add\n        /* \"contracts/CreateTicket.sol\":513:518  _link */\n      dup4\n        /* \"contracts/CreateTicket.sol\":486:519  Ticket(_refNo, _authority, _link) */\n      dup2\n      mstore\n      pop\n        /* \"contracts/CreateTicket.sol\":473:520  tickets.push(Ticket(_refNo, _authority, _link)) */\n      swap1\n      dup1\n      0x01\n      dup2\n      sload\n      add\n      dup1\n      dup3\n      sstore\n      dup1\n      swap2\n      pop\n      pop\n      0x01\n      swap1\n      sub\n      swap1\n      0x00\n      mstore\n      keccak256(0x00, 0x20)\n      swap1\n      0x03\n      mul\n      add\n      0x00\n      swap1\n      swap2\n      swap1\n      swap2\n      swap1\n      swap2\n      pop\n      0x00\n      dup3\n      add\n      mload\n      dup2\n      0x00\n      add\n      sstore\n      0x20\n      dup3\n      add\n      mload\n      dup2\n      0x01\n      add\n      swap1\n      dup1\n      mload\n      swap1\n      0x20\n      add\n      swap1\n      tag_44\n      swap3\n      swap2\n      swap1\n      tag_45\n      jump\t// in\n    tag_44:\n      pop\n      0x40\n      dup3\n      add\n      mload\n      dup2\n      0x02\n      add\n      swap1\n      dup1\n      mload\n      swap1\n      0x20\n      add\n      swap1\n      tag_46\n      swap3\n      swap2\n      swap1\n      tag_45\n      jump\t// in\n    tag_46:\n      pop\n      pop\n      pop\n        /* \"contracts/CreateTicket.sol\":531:538  uint Id */\n      0x00\n        /* \"contracts/CreateTicket.sol\":541:548  tickets */\n      dup1\n        /* \"contracts/CreateTicket.sol\":541:555  tickets.length */\n      dup1\n      sload\n      swap1\n      pop\n        /* \"contracts/CreateTicket.sol\":531:555  uint Id = tickets.length */\n      swap1\n      pop\n        /* \"contracts/CreateTicket.sol\":571:615  ticketCreated(Id, _refNo, _authority, _link) */\n      0xa421576df59f1a0508daa93ce319ec1008a3e4049fac768ebbc0765c18602d96\n        /* \"contracts/CreateTicket.sol\":585:587  Id */\n      dup2\n        /* \"contracts/CreateTicket.sol\":589:595  _refNo */\n      dup6\n        /* \"contracts/CreateTicket.sol\":597:607  _authority */\n      dup6\n        /* \"contracts/CreateTicket.sol\":609:614  _link */\n      dup6\n        /* \"contracts/CreateTicket.sol\":571:615  ticketCreated(Id, _refNo, _authority, _link) */\n      mload(0x40)\n      tag_47\n      swap5\n      swap4\n      swap3\n      swap2\n      swap1\n      tag_48\n      jump\t// in\n    tag_47:\n      mload(0x40)\n      dup1\n      swap2\n      sub\n      swap1\n      log1\n        /* \"contracts/CreateTicket.sol\":461:623  { \r... */\n      pop\n        /* \"contracts/CreateTicket.sol\":370:623  function _createTicket(uint _refNo, string memory _authority, string memory _link) private { \r... */\n      pop\n      pop\n      pop\n      jump\t// out\n    tag_45:\n      dup3\n      dup1\n      sload\n      tag_49\n      swap1\n      tag_24\n      jump\t// in\n    tag_49:\n      swap1\n      0x00\n      mstore\n      keccak256(0x00, 0x20)\n      swap1\n      0x1f\n      add\n      0x20\n      swap1\n      div\n      dup2\n      add\n      swap3\n      dup3\n      tag_51\n      jumpi\n      0x00\n      dup6\n      sstore\n      jump(tag_50)\n    tag_51:\n      dup3\n      0x1f\n      lt\n      tag_52\n      jumpi\n      dup1\n      mload\n      not(0xff)\n      and\n      dup4\n      dup1\n      add\n      or\n      dup6\n      sstore\n      jump(tag_50)\n    tag_52:\n      dup3\n      dup1\n      add\n      0x01\n      add\n      dup6\n      sstore\n      dup3\n      iszero\n      tag_50\n      jumpi\n      swap2\n      dup3\n      add\n    tag_53:\n      dup3\n      dup2\n      gt\n      iszero\n      tag_54\n      jumpi\n      dup3\n      mload\n      dup3\n      sstore\n      swap2\n      0x20\n      add\n      swap2\n      swap1\n      0x01\n      add\n      swap1\n      jump(tag_53)\n    tag_54:\n    tag_50:\n      pop\n      swap1\n      pop\n      tag_55\n      swap2\n      swap1\n      tag_56\n      jump\t// in\n    tag_55:\n      pop\n      swap1\n      jump\t// out\n    tag_56:\n    tag_57:\n      dup1\n      dup3\n      gt\n      iszero\n      tag_58\n      jumpi\n      0x00\n      dup2\n      0x00\n      swap1\n      sstore\n      pop\n      0x01\n      add\n      jump(tag_57)\n    tag_58:\n      pop\n      swap1\n      jump\t// out\n        /* \"#utility.yul\":7:419   */\n    tag_60:\n        /* \"#utility.yul\":85:90   */\n      0x00\n        /* \"#utility.yul\":110:176   */\n      tag_62\n        /* \"#utility.yul\":126:175   */\n      tag_63\n        /* \"#utility.yul\":168:174   */\n      dup5\n        /* \"#utility.yul\":126:175   */\n      tag_64\n      jump\t// in\n    tag_63:\n        /* \"#utility.yul\":110:176   */\n      tag_65\n      jump\t// in\n    tag_62:\n        /* \"#utility.yul\":101:176   */\n      swap1\n      pop\n        /* \"#utility.yul\":199:205   */\n      dup3\n        /* \"#utility.yul\":192:197   */\n      dup2\n        /* \"#utility.yul\":185:206   */\n      mstore\n        /* \"#utility.yul\":237:241   */\n      0x20\n        /* \"#utility.yul\":230:235   */\n      dup2\n        /* \"#utility.yul\":226:242   */\n      add\n        /* \"#utility.yul\":275:278   */\n      dup5\n        /* \"#utility.yul\":266:272   */\n      dup5\n        /* \"#utility.yul\":261:264   */\n      dup5\n        /* \"#utility.yul\":257:273   */\n      add\n        /* \"#utility.yul\":254:279   */\n      gt\n        /* \"#utility.yul\":251:363   */\n      iszero\n      tag_66\n      jumpi\n        /* \"#utility.yul\":282:361   */\n      tag_67\n      tag_68\n      jump\t// in\n    tag_67:\n        /* \"#utility.yul\":251:363   */\n    tag_66:\n        /* \"#utility.yul\":372:413   */\n      tag_69\n        /* \"#utility.yul\":406:412   */\n      dup5\n        /* \"#utility.yul\":401:404   */\n      dup3\n        /* \"#utility.yul\":396:399   */\n      dup6\n        /* \"#utility.yul\":372:413   */\n      tag_70\n      jump\t// in\n    tag_69:\n        /* \"#utility.yul\":91:419   */\n      pop\n        /* \"#utility.yul\":7:419   */\n      swap4\n      swap3\n      pop\n      pop\n      pop\n      jump\t// out\n        /* \"#utility.yul\":439:779   */\n    tag_71:\n        /* \"#utility.yul\":495:500   */\n      0x00\n        /* \"#utility.yul\":544:547   */\n      dup3\n        /* \"#utility.yul\":537:541   */\n      0x1f\n        /* \"#utility.yul\":529:535   */\n      dup4\n        /* \"#utility.yul\":525:542   */\n      add\n        /* \"#utility.yul\":521:548   */\n      slt\n        /* \"#utility.yul\":511:633   */\n      tag_73\n      jumpi\n        /* \"#utility.yul\":552:631   */\n      tag_74\n      tag_75\n      jump\t// in\n    tag_74:\n        /* \"#utility.yul\":511:633   */\n    tag_73:\n        /* \"#utility.yul\":669:675   */\n      dup2\n        /* \"#utility.yul\":656:676   */\n      calldataload\n        /* \"#utility.yul\":694:773   */\n      tag_76\n        /* \"#utility.yul\":769:772   */\n      dup5\n        /* \"#utility.yul\":761:767   */\n      dup3\n        /* \"#utility.yul\":754:758   */\n      0x20\n        /* \"#utility.yul\":746:752   */\n      dup7\n        /* \"#utility.yul\":742:759   */\n      add\n        /* \"#utility.yul\":694:773   */\n      tag_60\n      jump\t// in\n    tag_76:\n        /* \"#utility.yul\":685:773   */\n      swap2\n      pop\n        /* \"#utility.yul\":501:779   */\n      pop\n        /* \"#utility.yul\":439:779   */\n      swap3\n      swap2\n      pop\n      pop\n      jump\t// out\n        /* \"#utility.yul\":785:924   */\n    tag_77:\n        /* \"#utility.yul\":831:836   */\n      0x00\n        /* \"#utility.yul\":869:875   */\n      dup2\n        /* \"#utility.yul\":856:876   */\n      calldataload\n        /* \"#utility.yul\":847:876   */\n      swap1\n      pop\n        /* \"#utility.yul\":885:918   */\n      tag_79\n        /* \"#utility.yul\":912:917   */\n      dup2\n        /* \"#utility.yul\":885:918   */\n      tag_80\n      jump\t// in\n    tag_79:\n        /* \"#utility.yul\":785:924   */\n      swap3\n      swap2\n      pop\n      pop\n      jump\t// out\n        /* \"#utility.yul\":930:1764   */\n    tag_19:\n        /* \"#utility.yul\":1018:1024   */\n      0x00\n        /* \"#utility.yul\":1026:1032   */\n      dup1\n        /* \"#utility.yul\":1075:1077   */\n      0x40\n        /* \"#utility.yul\":1063:1072   */\n      dup4\n        /* \"#utility.yul\":1054:1061   */\n      dup6\n        /* \"#utility.yul\":1050:1073   */\n      sub\n        /* \"#utility.yul\":1046:1078   */\n      slt\n        /* \"#utility.yul\":1043:1162   */\n      iszero\n      tag_82\n      jumpi\n        /* \"#utility.yul\":1081:1160   */\n      tag_83\n      tag_84\n      jump\t// in\n    tag_83:\n        /* \"#utility.yul\":1043:1162   */\n    tag_82:\n        /* \"#utility.yul\":1229:1230   */\n      0x00\n        /* \"#utility.yul\":1218:1227   */\n      dup4\n        /* \"#utility.yul\":1214:1231   */\n      add\n        /* \"#utility.yul\":1201:1232   */\n      calldataload\n        /* \"#utility.yul\":1259:1277   */\n      0xffffffffffffffff\n        /* \"#utility.yul\":1251:1257   */\n      dup2\n        /* \"#utility.yul\":1248:1278   */\n      gt\n        /* \"#utility.yul\":1245:1362   */\n      iszero\n      tag_85\n      jumpi\n        /* \"#utility.yul\":1281:1360   */\n      tag_86\n      tag_87\n      jump\t// in\n    tag_86:\n        /* \"#utility.yul\":1245:1362   */\n    tag_85:\n        /* \"#utility.yul\":1386:1449   */\n      tag_88\n        /* \"#utility.yul\":1441:1448   */\n      dup6\n        /* \"#utility.yul\":1432:1438   */\n      dup3\n        /* \"#utility.yul\":1421:1430   */\n      dup7\n        /* \"#utility.yul\":1417:1439   */\n      add\n        /* \"#utility.yul\":1386:1449   */\n      tag_71\n      jump\t// in\n    tag_88:\n        /* \"#utility.yul\":1376:1449   */\n      swap3\n      pop\n        /* \"#utility.yul\":1172:1459   */\n      pop\n        /* \"#utility.yul\":1526:1528   */\n      0x20\n        /* \"#utility.yul\":1515:1524   */\n      dup4\n        /* \"#utility.yul\":1511:1529   */\n      add\n        /* \"#utility.yul\":1498:1530   */\n      calldataload\n        /* \"#utility.yul\":1557:1575   */\n      0xffffffffffffffff\n        /* \"#utility.yul\":1549:1555   */\n      dup2\n        /* \"#utility.yul\":1546:1576   */\n      gt\n        /* \"#utility.yul\":1543:1660   */\n      iszero\n      tag_89\n      jumpi\n        /* \"#utility.yul\":1579:1658   */\n      tag_90\n      tag_87\n      jump\t// in\n    tag_90:\n        /* \"#utility.yul\":1543:1660   */\n    tag_89:\n        /* \"#utility.yul\":1684:1747   */\n      tag_91\n        /* \"#utility.yul\":1739:1746   */\n      dup6\n        /* \"#utility.yul\":1730:1736   */\n      dup3\n        /* \"#utility.yul\":1719:1728   */\n      dup7\n        /* \"#utility.yul\":1715:1737   */\n      add\n        /* \"#utility.yul\":1684:1747   */\n      tag_71\n      jump\t// in\n    tag_91:\n        /* \"#utility.yul\":1674:1747   */\n      swap2\n      pop\n        /* \"#utility.yul\":1469:1757   */\n      pop\n        /* \"#utility.yul\":930:1764   */\n      swap3\n      pop\n      swap3\n      swap1\n      pop\n      jump\t// out\n        /* \"#utility.yul\":1770:2099   */\n    tag_8:\n        /* \"#utility.yul\":1829:1835   */\n      0x00\n        /* \"#utility.yul\":1878:1880   */\n      0x20\n        /* \"#utility.yul\":1866:1875   */\n      dup3\n        /* \"#utility.yul\":1857:1864   */\n      dup5\n        /* \"#utility.yul\":1853:1876   */\n      sub\n        /* \"#utility.yul\":1849:1881   */\n      slt\n        /* \"#utility.yul\":1846:1965   */\n      iszero\n      tag_93\n      jumpi\n        /* \"#utility.yul\":1884:1963   */\n      tag_94\n      tag_84\n      jump\t// in\n    tag_94:\n        /* \"#utility.yul\":1846:1965   */\n    tag_93:\n        /* \"#utility.yul\":2004:2005   */\n      0x00\n        /* \"#utility.yul\":2029:2082   */\n      tag_95\n        /* \"#utility.yul\":2074:2081   */\n      dup5\n        /* \"#utility.yul\":2065:2071   */\n      dup3\n        /* \"#utility.yul\":2054:2063   */\n      dup6\n        /* \"#utility.yul\":2050:2072   */\n      add\n        /* \"#utility.yul\":2029:2082   */\n      tag_77\n      jump\t// in\n    tag_95:\n        /* \"#utility.yul\":2019:2082   */\n      swap2\n      pop\n        /* \"#utility.yul\":1975:2092   */\n      pop\n        /* \"#utility.yul\":1770:2099   */\n      swap3\n      swap2\n      pop\n      pop\n      jump\t// out\n        /* \"#utility.yul\":2105:2223   */\n    tag_96:\n        /* \"#utility.yul\":2192:2216   */\n      tag_98\n        /* \"#utility.yul\":2210:2215   */\n      dup2\n        /* \"#utility.yul\":2192:2216   */\n      tag_99\n      jump\t// in\n    tag_98:\n        /* \"#utility.yul\":2187:2190   */\n      dup3\n        /* \"#utility.yul\":2180:2217   */\n      mstore\n        /* \"#utility.yul\":2105:2223   */\n      pop\n      pop\n      jump\t// out\n        /* \"#utility.yul\":2229:2593   */\n    tag_100:\n        /* \"#utility.yul\":2317:2320   */\n      0x00\n        /* \"#utility.yul\":2345:2384   */\n      tag_102\n        /* \"#utility.yul\":2378:2383   */\n      dup3\n        /* \"#utility.yul\":2345:2384   */\n      tag_103\n      jump\t// in\n    tag_102:\n        /* \"#utility.yul\":2400:2471   */\n      tag_104\n        /* \"#utility.yul\":2464:2470   */\n      dup2\n        /* \"#utility.yul\":2459:2462   */\n      dup6\n        /* \"#utility.yul\":2400:2471   */\n      tag_105\n      jump\t// in\n    tag_104:\n        /* \"#utility.yul\":2393:2471   */\n      swap4\n      pop\n        /* \"#utility.yul\":2480:2532   */\n      tag_106\n        /* \"#utility.yul\":2525:2531   */\n      dup2\n        /* \"#utility.yul\":2520:2523   */\n      dup6\n        /* \"#utility.yul\":2513:2517   */\n      0x20\n        /* \"#utility.yul\":2506:2511   */\n      dup7\n        /* \"#utility.yul\":2502:2518   */\n      add\n        /* \"#utility.yul\":2480:2532   */\n      tag_107\n      jump\t// in\n    tag_106:\n        /* \"#utility.yul\":2557:2586   */\n      tag_108\n        /* \"#utility.yul\":2579:2585   */\n      dup2\n        /* \"#utility.yul\":2557:2586   */\n      tag_109\n      jump\t// in\n    tag_108:\n        /* \"#utility.yul\":2552:2555   */\n      dup5\n        /* \"#utility.yul\":2548:2587   */\n      add\n        /* \"#utility.yul\":2541:2587   */\n      swap2\n      pop\n        /* \"#utility.yul\":2321:2593   */\n      pop\n        /* \"#utility.yul\":2229:2593   */\n      swap3\n      swap2\n      pop\n      pop\n      jump\t// out\n        /* \"#utility.yul\":2599:2976   */\n    tag_110:\n        /* \"#utility.yul\":2705:2708   */\n      0x00\n        /* \"#utility.yul\":2733:2772   */\n      tag_112\n        /* \"#utility.yul\":2766:2771   */\n      dup3\n        /* \"#utility.yul\":2733:2772   */\n      tag_103\n      jump\t// in\n    tag_112:\n        /* \"#utility.yul\":2788:2877   */\n      tag_113\n        /* \"#utility.yul\":2870:2876   */\n      dup2\n        /* \"#utility.yul\":2865:2868   */\n      dup6\n        /* \"#utility.yul\":2788:2877   */\n      tag_114\n      jump\t// in\n    tag_113:\n        /* \"#utility.yul\":2781:2877   */\n      swap4\n      pop\n        /* \"#utility.yul\":2886:2938   */\n      tag_115\n        /* \"#utility.yul\":2931:2937   */\n      dup2\n        /* \"#utility.yul\":2926:2929   */\n      dup6\n        /* \"#utility.yul\":2919:2923   */\n      0x20\n        /* \"#utility.yul\":2912:2917   */\n      dup7\n        /* \"#utility.yul\":2908:2924   */\n      add\n        /* \"#utility.yul\":2886:2938   */\n      tag_107\n      jump\t// in\n    tag_115:\n        /* \"#utility.yul\":2963:2969   */\n      dup1\n        /* \"#utility.yul\":2958:2961   */\n      dup5\n        /* \"#utility.yul\":2954:2970   */\n      add\n        /* \"#utility.yul\":2947:2970   */\n      swap2\n      pop\n        /* \"#utility.yul\":2709:2976   */\n      pop\n        /* \"#utility.yul\":2599:2976   */\n      swap3\n      swap2\n      pop\n      pop\n      jump\t// out\n        /* \"#utility.yul\":2982:3100   */\n    tag_116:\n        /* \"#utility.yul\":3069:3093   */\n      tag_118\n        /* \"#utility.yul\":3087:3092   */\n      dup2\n        /* \"#utility.yul\":3069:3093   */\n      tag_119\n      jump\t// in\n    tag_118:\n        /* \"#utility.yul\":3064:3067   */\n      dup3\n        /* \"#utility.yul\":3057:3094   */\n      mstore\n        /* \"#utility.yul\":2982:3100   */\n      pop\n      pop\n      jump\t// out\n        /* \"#utility.yul\":3106:3381   */\n    tag_41:\n        /* \"#utility.yul\":3238:3241   */\n      0x00\n        /* \"#utility.yul\":3260:3355   */\n      tag_121\n        /* \"#utility.yul\":3351:3354   */\n      dup3\n        /* \"#utility.yul\":3342:3348   */\n      dup5\n        /* \"#utility.yul\":3260:3355   */\n      tag_110\n      jump\t// in\n    tag_121:\n        /* \"#utility.yul\":3253:3355   */\n      swap2\n      pop\n        /* \"#utility.yul\":3372:3375   */\n      dup2\n        /* \"#utility.yul\":3365:3375   */\n      swap1\n      pop\n        /* \"#utility.yul\":3106:3381   */\n      swap3\n      swap2\n      pop\n      pop\n      jump\t// out\n        /* \"#utility.yul\":3387:3609   */\n    tag_11:\n        /* \"#utility.yul\":3480:3484   */\n      0x00\n        /* \"#utility.yul\":3518:3520   */\n      0x20\n        /* \"#utility.yul\":3507:3516   */\n      dup3\n        /* \"#utility.yul\":3503:3521   */\n      add\n        /* \"#utility.yul\":3495:3521   */\n      swap1\n      pop\n        /* \"#utility.yul\":3531:3602   */\n      tag_123\n        /* \"#utility.yul\":3599:3600   */\n      0x00\n        /* \"#utility.yul\":3588:3597   */\n      dup4\n        /* \"#utility.yul\":3584:3601   */\n      add\n        /* \"#utility.yul\":3575:3581   */\n      dup5\n        /* \"#utility.yul\":3531:3602   */\n      tag_96\n      jump\t// in\n    tag_123:\n        /* \"#utility.yul\":3387:3609   */\n      swap3\n      swap2\n      pop\n      pop\n      jump\t// out\n        /* \"#utility.yul\":3615:4239   */\n    tag_16:\n        /* \"#utility.yul\":3804:3808   */\n      0x00\n        /* \"#utility.yul\":3842:3844   */\n      0x60\n        /* \"#utility.yul\":3831:3840   */\n      dup3\n        /* \"#utility.yul\":3827:3845   */\n      add\n        /* \"#utility.yul\":3819:3845   */\n      swap1\n      pop\n        /* \"#utility.yul\":3855:3926   */\n      tag_125\n        /* \"#utility.yul\":3923:3924   */\n      0x00\n        /* \"#utility.yul\":3912:3921   */\n      dup4\n        /* \"#utility.yul\":3908:3925   */\n      add\n        /* \"#utility.yul\":3899:3905   */\n      dup7\n        /* \"#utility.yul\":3855:3926   */\n      tag_116\n      jump\t// in\n    tag_125:\n        /* \"#utility.yul\":3973:3982   */\n      dup2\n        /* \"#utility.yul\":3967:3971   */\n      dup2\n        /* \"#utility.yul\":3963:3983   */\n      sub\n        /* \"#utility.yul\":3958:3960   */\n      0x20\n        /* \"#utility.yul\":3947:3956   */\n      dup4\n        /* \"#utility.yul\":3943:3961   */\n      add\n        /* \"#utility.yul\":3936:3984   */\n      mstore\n        /* \"#utility.yul\":4001:4079   */\n      tag_126\n        /* \"#utility.yul\":4074:4078   */\n      dup2\n        /* \"#utility.yul\":4065:4071   */\n      dup6\n        /* \"#utility.yul\":4001:4079   */\n      tag_100\n      jump\t// in\n    tag_126:\n        /* \"#utility.yul\":3993:4079   */\n      swap1\n      pop\n        /* \"#utility.yul\":4126:4135   */\n      dup2\n        /* \"#utility.yul\":4120:4124   */\n      dup2\n        /* \"#utility.yul\":4116:4136   */\n      sub\n        /* \"#utility.yul\":4111:4113   */\n      0x40\n        /* \"#utility.yul\":4100:4109   */\n      dup4\n        /* \"#utility.yul\":4096:4114   */\n      add\n        /* \"#utility.yul\":4089:4137   */\n      mstore\n        /* \"#utility.yul\":4154:4232   */\n      tag_127\n        /* \"#utility.yul\":4227:4231   */\n      dup2\n        /* \"#utility.yul\":4218:4224   */\n      dup5\n        /* \"#utility.yul\":4154:4232   */\n      tag_100\n      jump\t// in\n    tag_127:\n        /* \"#utility.yul\":4146:4232   */\n      swap1\n      pop\n        /* \"#utility.yul\":3615:4239   */\n      swap5\n      swap4\n      pop\n      pop\n      pop\n      pop\n      jump\t// out\n        /* \"#utility.yul\":4245:4980   */\n    tag_48:\n        /* \"#utility.yul\":4462:4466   */\n      0x00\n        /* \"#utility.yul\":4500:4503   */\n      0x80\n        /* \"#utility.yul\":4489:4498   */\n      dup3\n        /* \"#utility.yul\":4485:4504   */\n      add\n        /* \"#utility.yul\":4477:4504   */\n      swap1\n      pop\n        /* \"#utility.yul\":4514:4585   */\n      tag_129\n        /* \"#utility.yul\":4582:4583   */\n      0x00\n        /* \"#utility.yul\":4571:4580   */\n      dup4\n        /* \"#utility.yul\":4567:4584   */\n      add\n        /* \"#utility.yul\":4558:4564   */\n      dup8\n        /* \"#utility.yul\":4514:4585   */\n      tag_116\n      jump\t// in\n    tag_129:\n        /* \"#utility.yul\":4595:4667   */\n      tag_130\n        /* \"#utility.yul\":4663:4665   */\n      0x20\n        /* \"#utility.yul\":4652:4661   */\n      dup4\n        /* \"#utility.yul\":4648:4666   */\n      add\n        /* \"#utility.yul\":4639:4645   */\n      dup7\n        /* \"#utility.yul\":4595:4667   */\n      tag_116\n      jump\t// in\n    tag_130:\n        /* \"#utility.yul\":4714:4723   */\n      dup2\n        /* \"#utility.yul\":4708:4712   */\n      dup2\n        /* \"#utility.yul\":4704:4724   */\n      sub\n        /* \"#utility.yul\":4699:4701   */\n      0x40\n        /* \"#utility.yul\":4688:4697   */\n      dup4\n        /* \"#utility.yul\":4684:4702   */\n      add\n        /* \"#utility.yul\":4677:4725   */\n      mstore\n        /* \"#utility.yul\":4742:4820   */\n      tag_131\n        /* \"#utility.yul\":4815:4819   */\n      dup2\n        /* \"#utility.yul\":4806:4812   */\n      dup6\n        /* \"#utility.yul\":4742:4820   */\n      tag_100\n      jump\t// in\n    tag_131:\n        /* \"#utility.yul\":4734:4820   */\n      swap1\n      pop\n        /* \"#utility.yul\":4867:4876   */\n      dup2\n        /* \"#utility.yul\":4861:4865   */\n      dup2\n        /* \"#utility.yul\":4857:4877   */\n      sub\n        /* \"#utility.yul\":4852:4854   */\n      0x60\n        /* \"#utility.yul\":4841:4850   */\n      dup4\n        /* \"#utility.yul\":4837:4855   */\n      add\n        /* \"#utility.yul\":4830:4878   */\n      mstore\n        /* \"#utility.yul\":4895:4973   */\n      tag_132\n        /* \"#utility.yul\":4968:4972   */\n      dup2\n        /* \"#utility.yul\":4959:4965   */\n      dup5\n        /* \"#utility.yul\":4895:4973   */\n      tag_100\n      jump\t// in\n    tag_132:\n        /* \"#utility.yul\":4887:4973   */\n      swap1\n      pop\n        /* \"#utility.yul\":4245:4980   */\n      swap6\n      swap5\n      pop\n      pop\n      pop\n      pop\n      pop\n      jump\t// out\n        /* \"#utility.yul\":4986:5115   */\n    tag_65:\n        /* \"#utility.yul\":5020:5026   */\n      0x00\n        /* \"#utility.yul\":5047:5067   */\n      tag_134\n      tag_135\n      jump\t// in\n    tag_134:\n        /* \"#utility.yul\":5037:5067   */\n      swap1\n      pop\n        /* \"#utility.yul\":5076:5109   */\n      tag_136\n        /* \"#utility.yul\":5104:5108   */\n      dup3\n        /* \"#utility.yul\":5096:5102   */\n      dup3\n        /* \"#utility.yul\":5076:5109   */\n      tag_137\n      jump\t// in\n    tag_136:\n        /* \"#utility.yul\":4986:5115   */\n      swap2\n      swap1\n      pop\n      jump\t// out\n        /* \"#utility.yul\":5121:5196   */\n    tag_135:\n        /* \"#utility.yul\":5154:5160   */\n      0x00\n        /* \"#utility.yul\":5187:5189   */\n      0x40\n        /* \"#utility.yul\":5181:5190   */\n      mload\n        /* \"#utility.yul\":5171:5190   */\n      swap1\n      pop\n        /* \"#utility.yul\":5121:5196   */\n      swap1\n      jump\t// out\n        /* \"#utility.yul\":5202:5510   */\n    tag_64:\n        /* \"#utility.yul\":5264:5268   */\n      0x00\n        /* \"#utility.yul\":5354:5372   */\n      0xffffffffffffffff\n        /* \"#utility.yul\":5346:5352   */\n      dup3\n        /* \"#utility.yul\":5343:5373   */\n      gt\n        /* \"#utility.yul\":5340:5396   */\n      iszero\n      tag_140\n      jumpi\n        /* \"#utility.yul\":5376:5394   */\n      tag_141\n      tag_142\n      jump\t// in\n    tag_141:\n        /* \"#utility.yul\":5340:5396   */\n    tag_140:\n        /* \"#utility.yul\":5414:5443   */\n      tag_143\n        /* \"#utility.yul\":5436:5442   */\n      dup3\n        /* \"#utility.yul\":5414:5443   */\n      tag_109\n      jump\t// in\n    tag_143:\n        /* \"#utility.yul\":5406:5443   */\n      swap1\n      pop\n        /* \"#utility.yul\":5498:5502   */\n      0x20\n        /* \"#utility.yul\":5492:5496   */\n      dup2\n        /* \"#utility.yul\":5488:5503   */\n      add\n        /* \"#utility.yul\":5480:5503   */\n      swap1\n      pop\n        /* \"#utility.yul\":5202:5510   */\n      swap2\n      swap1\n      pop\n      jump\t// out\n        /* \"#utility.yul\":5516:5615   */\n    tag_103:\n        /* \"#utility.yul\":5568:5574   */\n      0x00\n        /* \"#utility.yul\":5602:5607   */\n      dup2\n        /* \"#utility.yul\":5596:5608   */\n      mload\n        /* \"#utility.yul\":5586:5608   */\n      swap1\n      pop\n        /* \"#utility.yul\":5516:5615   */\n      swap2\n      swap1\n      pop\n      jump\t// out\n        /* \"#utility.yul\":5621:5790   */\n    tag_105:\n        /* \"#utility.yul\":5705:5716   */\n      0x00\n        /* \"#utility.yul\":5739:5745   */\n      dup3\n        /* \"#utility.yul\":5734:5737   */\n      dup3\n        /* \"#utility.yul\":5727:5746   */\n      mstore\n        /* \"#utility.yul\":5779:5783   */\n      0x20\n        /* \"#utility.yul\":5774:5777   */\n      dup3\n        /* \"#utility.yul\":5770:5784   */\n      add\n        /* \"#utility.yul\":5755:5784   */\n      swap1\n      pop\n        /* \"#utility.yul\":5621:5790   */\n      swap3\n      swap2\n      pop\n      pop\n      jump\t// out\n        /* \"#utility.yul\":5796:5944   */\n    tag_114:\n        /* \"#utility.yul\":5898:5909   */\n      0x00\n        /* \"#utility.yul\":5935:5938   */\n      dup2\n        /* \"#utility.yul\":5920:5938   */\n      swap1\n      pop\n        /* \"#utility.yul\":5796:5944   */\n      swap3\n      swap2\n      pop\n      pop\n      jump\t// out\n        /* \"#utility.yul\":5950:6046   */\n    tag_99:\n        /* \"#utility.yul\":5987:5994   */\n      0x00\n        /* \"#utility.yul\":6016:6040   */\n      tag_148\n        /* \"#utility.yul\":6034:6039   */\n      dup3\n        /* \"#utility.yul\":6016:6040   */\n      tag_149\n      jump\t// in\n    tag_148:\n        /* \"#utility.yul\":6005:6040   */\n      swap1\n      pop\n        /* \"#utility.yul\":5950:6046   */\n      swap2\n      swap1\n      pop\n      jump\t// out\n        /* \"#utility.yul\":6052:6178   */\n    tag_149:\n        /* \"#utility.yul\":6089:6096   */\n      0x00\n        /* \"#utility.yul\":6129:6171   */\n      0xffffffffffffffffffffffffffffffffffffffff\n        /* \"#utility.yul\":6122:6127   */\n      dup3\n        /* \"#utility.yul\":6118:6172   */\n      and\n        /* \"#utility.yul\":6107:6172   */\n      swap1\n      pop\n        /* \"#utility.yul\":6052:6178   */\n      swap2\n      swap1\n      pop\n      jump\t// out\n        /* \"#utility.yul\":6184:6261   */\n    tag_119:\n        /* \"#utility.yul\":6221:6228   */\n      0x00\n        /* \"#utility.yul\":6250:6255   */\n      dup2\n        /* \"#utility.yul\":6239:6255   */\n      swap1\n      pop\n        /* \"#utility.yul\":6184:6261   */\n      swap2\n      swap1\n      pop\n      jump\t// out\n        /* \"#utility.yul\":6267:6421   */\n    tag_70:\n        /* \"#utility.yul\":6351:6357   */\n      dup3\n        /* \"#utility.yul\":6346:6349   */\n      dup2\n        /* \"#utility.yul\":6341:6344   */\n      dup4\n        /* \"#utility.yul\":6328:6358   */\n      calldatacopy\n        /* \"#utility.yul\":6413:6414   */\n      0x00\n        /* \"#utility.yul\":6404:6410   */\n      dup4\n        /* \"#utility.yul\":6399:6402   */\n      dup4\n        /* \"#utility.yul\":6395:6411   */\n      add\n        /* \"#utility.yul\":6388:6415   */\n      mstore\n        /* \"#utility.yul\":6267:6421   */\n      pop\n      pop\n      pop\n      jump\t// out\n        /* \"#utility.yul\":6427:6734   */\n    tag_107:\n        /* \"#utility.yul\":6495:6496   */\n      0x00\n        /* \"#utility.yul\":6505:6618   */\n    tag_154:\n        /* \"#utility.yul\":6519:6525   */\n      dup4\n        /* \"#utility.yul\":6516:6517   */\n      dup2\n        /* \"#utility.yul\":6513:6526   */\n      lt\n        /* \"#utility.yul\":6505:6618   */\n      iszero\n      tag_156\n      jumpi\n        /* \"#utility.yul\":6604:6605   */\n      dup1\n        /* \"#utility.yul\":6599:6602   */\n      dup3\n        /* \"#utility.yul\":6595:6606   */\n      add\n        /* \"#utility.yul\":6589:6607   */\n      mload\n        /* \"#utility.yul\":6585:6586   */\n      dup2\n        /* \"#utility.yul\":6580:6583   */\n      dup5\n        /* \"#utility.yul\":6576:6587   */\n      add\n        /* \"#utility.yul\":6569:6608   */\n      mstore\n        /* \"#utility.yul\":6541:6543   */\n      0x20\n        /* \"#utility.yul\":6538:6539   */\n      dup2\n        /* \"#utility.yul\":6534:6544   */\n      add\n        /* \"#utility.yul\":6529:6544   */\n      swap1\n      pop\n        /* \"#utility.yul\":6505:6618   */\n      jump(tag_154)\n    tag_156:\n        /* \"#utility.yul\":6636:6642   */\n      dup4\n        /* \"#utility.yul\":6633:6634   */\n      dup2\n        /* \"#utility.yul\":6630:6643   */\n      gt\n        /* \"#utility.yul\":6627:6728   */\n      iszero\n      tag_157\n      jumpi\n        /* \"#utility.yul\":6716:6717   */\n      0x00\n        /* \"#utility.yul\":6707:6713   */\n      dup5\n        /* \"#utility.yul\":6702:6705   */\n      dup5\n        /* \"#utility.yul\":6698:6714   */\n      add\n        /* \"#utility.yul\":6691:6718   */\n      mstore\n        /* \"#utility.yul\":6627:6728   */\n    tag_157:\n        /* \"#utility.yul\":6476:6734   */\n      pop\n        /* \"#utility.yul\":6427:6734   */\n      pop\n      pop\n      pop\n      jump\t// out\n        /* \"#utility.yul\":6740:7060   */\n    tag_24:\n        /* \"#utility.yul\":6784:6790   */\n      0x00\n        /* \"#utility.yul\":6821:6822   */\n      0x02\n        /* \"#utility.yul\":6815:6819   */\n      dup3\n        /* \"#utility.yul\":6811:6823   */\n      div\n        /* \"#utility.yul\":6801:6823   */\n      swap1\n      pop\n        /* \"#utility.yul\":6868:6869   */\n      0x01\n        /* \"#utility.yul\":6862:6866   */\n      dup3\n        /* \"#utility.yul\":6858:6870   */\n      and\n        /* \"#utility.yul\":6889:6907   */\n      dup1\n        /* \"#utility.yul\":6879:6960   */\n      tag_159\n      jumpi\n        /* \"#utility.yul\":6945:6949   */\n      0x7f\n        /* \"#utility.yul\":6937:6943   */\n      dup3\n        /* \"#utility.yul\":6933:6950   */\n      and\n        /* \"#utility.yul\":6923:6950   */\n      swap2\n      pop\n        /* \"#utility.yul\":6879:6960   */\n    tag_159:\n        /* \"#utility.yul\":7007:7009   */\n      0x20\n        /* \"#utility.yul\":6999:7005   */\n      dup3\n        /* \"#utility.yul\":6996:7010   */\n      lt\n        /* \"#utility.yul\":6976:6994   */\n      dup2\n        /* \"#utility.yul\":6973:7011   */\n      eq\n        /* \"#utility.yul\":6970:7054   */\n      iszero\n      tag_160\n      jumpi\n        /* \"#utility.yul\":7026:7044   */\n      tag_161\n      tag_162\n      jump\t// in\n    tag_161:\n        /* \"#utility.yul\":6970:7054   */\n    tag_160:\n        /* \"#utility.yul\":6791:7060   */\n      pop\n        /* \"#utility.yul\":6740:7060   */\n      swap2\n      swap1\n      pop\n      jump\t// out\n        /* \"#utility.yul\":7066:7347   */\n    tag_137:\n        /* \"#utility.yul\":7149:7176   */\n      tag_164\n        /* \"#utility.yul\":7171:7175   */\n      dup3\n        /* \"#utility.yul\":7149:7176   */\n      tag_109\n      jump\t// in\n    tag_164:\n        /* \"#utility.yul\":7141:7147   */\n      dup2\n        /* \"#utility.yul\":7137:7177   */\n      add\n        /* \"#utility.yul\":7279:7285   */\n      dup2\n        /* \"#utility.yul\":7267:7277   */\n      dup2\n        /* \"#utility.yul\":7264:7286   */\n      lt\n        /* \"#utility.yul\":7243:7261   */\n      0xffffffffffffffff\n        /* \"#utility.yul\":7231:7241   */\n      dup3\n        /* \"#utility.yul\":7228:7262   */\n      gt\n        /* \"#utility.yul\":7225:7287   */\n      or\n        /* \"#utility.yul\":7222:7310   */\n      iszero\n      tag_165\n      jumpi\n        /* \"#utility.yul\":7290:7308   */\n      tag_166\n      tag_142\n      jump\t// in\n    tag_166:\n        /* \"#utility.yul\":7222:7310   */\n    tag_165:\n        /* \"#utility.yul\":7330:7340   */\n      dup1\n        /* \"#utility.yul\":7326:7328   */\n      0x40\n        /* \"#utility.yul\":7319:7341   */\n      mstore\n        /* \"#utility.yul\":7109:7347   */\n      pop\n        /* \"#utility.yul\":7066:7347   */\n      pop\n      pop\n      jump\t// out\n        /* \"#utility.yul\":7353:7533   */\n    tag_162:\n        /* \"#utility.yul\":7401:7478   */\n      0x4e487b7100000000000000000000000000000000000000000000000000000000\n        /* \"#utility.yul\":7398:7399   */\n      0x00\n        /* \"#utility.yul\":7391:7479   */\n      mstore\n        /* \"#utility.yul\":7498:7502   */\n      0x22\n        /* \"#utility.yul\":7495:7496   */\n      0x04\n        /* \"#utility.yul\":7488:7503   */\n      mstore\n        /* \"#utility.yul\":7522:7526   */\n      0x24\n        /* \"#utility.yul\":7519:7520   */\n      0x00\n        /* \"#utility.yul\":7512:7527   */\n      revert\n        /* \"#utility.yul\":7539:7719   */\n    tag_142:\n        /* \"#utility.yul\":7587:7664   */\n      0x4e487b7100000000000000000000000000000000000000000000000000000000\n        /* \"#utility.yul\":7584:7585   */\n      0x00\n        /* \"#utility.yul\":7577:7665   */\n      mstore\n        /* \"#utility.yul\":7684:7688   */\n      0x41\n        /* \"#utility.yul\":7681:7682   */\n      0x04\n        /* \"#utility.yul\":7674:7689   */\n      mstore\n        /* \"#utility.yul\":7708:7712   */\n      0x24\n        /* \"#utility.yul\":7705:7706   */\n      0x00\n        /* \"#utility.yul\":7698:7713   */\n      revert\n        /* \"#utility.yul\":7725:7842   */\n    tag_75:\n        /* \"#utility.yul\":7834:7835   */\n      0x00\n        /* \"#utility.yul\":7831:7832   */\n      dup1\n        /* \"#utility.yul\":7824:7836   */\n      revert\n        /* \"#utility.yul\":7848:7965   */\n    tag_68:\n        /* \"#utility.yul\":7957:7958   */\n      0x00\n        /* \"#utility.yul\":7954:7955   */\n      dup1\n        /* \"#utility.yul\":7947:7959   */\n      revert\n        /* \"#utility.yul\":7971:8088   */\n    tag_87:\n        /* \"#utility.yul\":8080:8081   */\n      0x00\n        /* \"#utility.yul\":8077:8078   */\n      dup1\n        /* \"#utility.yul\":8070:8082   */\n      revert\n        /* \"#utility.yul\":8094:8211   */\n    tag_84:\n        /* \"#utility.yul\":8203:8204   */\n      0x00\n        /* \"#utility.yul\":8200:8201   */\n      dup1\n        /* \"#utility.yul\":8193:8205   */\n      revert\n        /* \"#utility.yul\":8217:8319   */\n    tag_109:\n        /* \"#utility.yul\":8258:8264   */\n      0x00\n        /* \"#utility.yul\":8309:8311   */\n      0x1f\n        /* \"#utility.yul\":8305:8312   */\n      not\n        /* \"#utility.yul\":8300:8302   */\n      0x1f\n        /* \"#utility.yul\":8293:8298   */\n      dup4\n        /* \"#utility.yul\":8289:8303   */\n      add\n        /* \"#utility.yul\":8285:8313   */\n      and\n        /* \"#utility.yul\":8275:8313   */\n      swap1\n      pop\n        /* \"#utility.yul\":8217:8319   */\n      swap2\n      swap1\n      pop\n      jump\t// out\n        /* \"#utility.yul\":8325:8447   */\n    tag_80:\n        /* \"#utility.yul\":8398:8422   */\n      tag_175\n        /* \"#utility.yul\":8416:8421   */\n      dup2\n        /* \"#utility.yul\":8398:8422   */\n      tag_119\n      jump\t// in\n    tag_175:\n        /* \"#utility.yul\":8391:8396   */\n      dup2\n        /* \"#utility.yul\":8388:8423   */\n      eq\n        /* \"#utility.yul\":8378:8441   */\n      tag_176\n      jumpi\n        /* \"#utility.yul\":8437:8438   */\n      0x00\n        /* \"#utility.yul\":8434:8435   */\n      dup1\n        /* \"#utility.yul\":8427:8439   */\n      revert\n        /* \"#utility.yul\":8378:8441   */\n    tag_176:\n        /* \"#utility.yul\":8325:8447   */\n      pop\n      jump\t// out\n\n    auxdata: 0xa264697066735822122027934407f866ed27d147a431f9f3fc13a019c81bbf3842d643032002ce0606c864736f6c63430008070033\n}\n",
				"bytecode": {
					"linkReferences": {},
					"object": "608060405234801561001057600080fd5b506108bb806100206000396000f3fe608060405234801561001057600080fd5b50600436106100415760003560e01c80632b08e8241461004657806350b4471214610076578063e0a08f27146100a8575b600080fd5b610060600480360381019061005b919061050e565b6100c4565b60405161006d91906105da565b60405180910390f35b610090600480360381019061008b919061050e565b6100f7565b60405161009f939291906105f5565b60405180910390f35b6100c260048036038101906100bd9190610496565b610241565b005b60016020528060005260406000206000915054906101000a900473ffffffffffffffffffffffffffffffffffffffff1681565b6000818154811061010757600080fd5b906000526020600020906003020160009150905080600001549080600101805461013090610788565b80601f016020809104026020016040519081016040528092919081815260200182805461015c90610788565b80156101a95780601f1061017e576101008083540402835291602001916101a9565b820191906000526020600020905b81548152906001019060200180831161018c57829003601f168201915b5050505050908060020180546101be90610788565b80601f01602080910402602001604051908101604052809291908181526020018280546101ea90610788565b80156102375780601f1061020c57610100808354040283529160200191610237565b820191906000526020600020905b81548152906001019060200180831161021a57829003601f168201915b5050505050905083565b600061024c8261025e565b9050610259818484610296565b505050565b6000808260405160200161027291906105c3565b6040516020818303038152906040528051906020012060001c905080915050919050565b6000604051806060016040528085815260200184815260200183815250908060018154018082558091505060019003906000526020600020906003020160009091909190915060008201518160000155602082015181600101908051906020019061030292919061036e565b50604082015181600201908051906020019061031f92919061036e565b5050506000808054905090507fa421576df59f1a0508daa93ce319ec1008a3e4049fac768ebbc0765c18602d9681858585604051610360949392919061063a565b60405180910390a150505050565b82805461037a90610788565b90600052602060002090601f01602090048101928261039c57600085556103e3565b82601f106103b557805160ff19168380011785556103e3565b828001600101855582156103e3579182015b828111156103e25782518255916020019190600101906103c7565b5b5090506103f091906103f4565b5090565b5b8082111561040d5760008160009055506001016103f5565b5090565b600061042461041f846106b2565b61068d565b9050828152602081018484840111156104405761043f61084e565b5b61044b848285610746565b509392505050565b600082601f83011261046857610467610849565b5b8135610478848260208601610411565b91505092915050565b6000813590506104908161086e565b92915050565b600080604083850312156104ad576104ac610858565b5b600083013567ffffffffffffffff8111156104cb576104ca610853565b5b6104d785828601610453565b925050602083013567ffffffffffffffff8111156104f8576104f7610853565b5b61050485828601610453565b9150509250929050565b60006020828403121561052457610523610858565b5b600061053284828501610481565b91505092915050565b6105448161070a565b82525050565b6000610555826106e3565b61055f81856106ee565b935061056f818560208601610755565b6105788161085d565b840191505092915050565b600061058e826106e3565b61059881856106ff565b93506105a8818560208601610755565b80840191505092915050565b6105bd8161073c565b82525050565b60006105cf8284610583565b915081905092915050565b60006020820190506105ef600083018461053b565b92915050565b600060608201905061060a60008301866105b4565b818103602083015261061c818561054a565b90508181036040830152610630818461054a565b9050949350505050565b600060808201905061064f60008301876105b4565b61065c60208301866105b4565b818103604083015261066e818561054a565b90508181036060830152610682818461054a565b905095945050505050565b60006106976106a8565b90506106a382826107ba565b919050565b6000604051905090565b600067ffffffffffffffff8211156106cd576106cc61081a565b5b6106d68261085d565b9050602081019050919050565b600081519050919050565b600082825260208201905092915050565b600081905092915050565b60006107158261071c565b9050919050565b600073ffffffffffffffffffffffffffffffffffffffff82169050919050565b6000819050919050565b82818337600083830152505050565b60005b83811015610773578082015181840152602081019050610758565b83811115610782576000848401525b50505050565b600060028204905060018216806107a057607f821691505b602082108114156107b4576107b36107eb565b5b50919050565b6107c38261085d565b810181811067ffffffffffffffff821117156107e2576107e161081a565b5b80604052505050565b7f4e487b7100000000000000000000000000000000000000000000000000000000600052602260045260246000fd5b7f4e487b7100000000000000000000000000000000000000000000000000000000600052604160045260246000fd5b600080fd5b600080fd5b600080fd5b600080fd5b6000601f19601f8301169050919050565b6108778161073c565b811461088257600080fd5b5056fea264697066735822122027934407f866ed27d147a431f9f3fc13a019c81bbf3842d643032002ce0606c864736f6c63430008070033",
					"opcodes": "PUSH1 0x80 PUSH1 0x40 MSTORE CALLVALUE DUP1 ISZERO PUSH2 0x10 JUMPI PUSH1 0x0 DUP1 REVERT JUMPDEST POP PUSH2 0x8BB DUP1 PUSH2 0x20 PUSH1 0x0 CODECOPY PUSH1 0x0 RETURN INVALID PUSH1 0x80 PUSH1 0x40 MSTORE CALLVALUE DUP1 ISZERO PUSH2 0x10 JUMPI PUSH1 0x0 DUP1 REVERT JUMPDEST POP PUSH1 0x4 CALLDATASIZE LT PUSH2 0x41 JUMPI PUSH1 0x0 CALLDATALOAD PUSH1 0xE0 SHR DUP1 PUSH4 0x2B08E824 EQ PUSH2 0x46 JUMPI DUP1 PUSH4 0x50B44712 EQ PUSH2 0x76 JUMPI DUP1 PUSH4 0xE0A08F27 EQ PUSH2 0xA8 JUMPI JUMPDEST PUSH1 0x0 DUP1 REVERT JUMPDEST PUSH2 0x60 PUSH1 0x4 DUP1 CALLDATASIZE SUB DUP2 ADD SWAP1 PUSH2 0x5B SWAP2 SWAP1 PUSH2 0x50E JUMP JUMPDEST PUSH2 0xC4 JUMP JUMPDEST PUSH1 0x40 MLOAD PUSH2 0x6D SWAP2 SWAP1 PUSH2 0x5DA JUMP JUMPDEST PUSH1 0x40 MLOAD DUP1 SWAP2 SUB SWAP1 RETURN JUMPDEST PUSH2 0x90 PUSH1 0x4 DUP1 CALLDATASIZE SUB DUP2 ADD SWAP1 PUSH2 0x8B SWAP2 SWAP1 PUSH2 0x50E JUMP JUMPDEST PUSH2 0xF7 JUMP JUMPDEST PUSH1 0x40 MLOAD PUSH2 0x9F SWAP4 SWAP3 SWAP2 SWAP1 PUSH2 0x5F5 JUMP JUMPDEST PUSH1 0x40 MLOAD DUP1 SWAP2 SUB SWAP1 RETURN JUMPDEST PUSH2 0xC2 PUSH1 0x4 DUP1 CALLDATASIZE SUB DUP2 ADD SWAP1 PUSH2 0xBD SWAP2 SWAP1 PUSH2 0x496 JUMP JUMPDEST PUSH2 0x241 JUMP JUMPDEST STOP JUMPDEST PUSH1 0x1 PUSH1 0x20 MSTORE DUP1 PUSH1 0x0 MSTORE PUSH1 0x40 PUSH1 0x0 KECCAK256 PUSH1 0x0 SWAP2 POP SLOAD SWAP1 PUSH2 0x100 EXP SWAP1 DIV PUSH20 0xFFFFFFFFFFFFFFFFFFFFFFFFFFFFFFFFFFFFFFFF AND DUP2 JUMP JUMPDEST PUSH1 0x0 DUP2 DUP2 SLOAD DUP2 LT PUSH2 0x107 JUMPI PUSH1 0x0 DUP1 REVERT JUMPDEST SWAP1 PUSH1 0x0 MSTORE PUSH1 0x20 PUSH1 0x0 KECCAK256 SWAP1 PUSH1 0x3 MUL ADD PUSH1 0x0 SWAP2 POP SWAP1 POP DUP1 PUSH1 0x0 ADD SLOAD SWAP1 DUP1 PUSH1 0x1 ADD DUP1 SLOAD PUSH2 0x130 SWAP1 PUSH2 0x788 JUMP JUMPDEST DUP1 PUSH1 0x1F ADD PUSH1 0x20 DUP1 SWAP2 DIV MUL PUSH1 0x20 ADD PUSH1 0x40 MLOAD SWAP1 DUP2 ADD PUSH1 0x40 MSTORE DUP1 SWAP3 SWAP2 SWAP1 DUP2 DUP2 MSTORE PUSH1 0x20 ADD DUP3 DUP1 SLOAD PUSH2 0x15C SWAP1 PUSH2 0x788 JUMP JUMPDEST DUP1 ISZERO PUSH2 0x1A9 JUMPI DUP1 PUSH1 0x1F LT PUSH2 0x17E JUMPI PUSH2 0x100 DUP1 DUP4 SLOAD DIV MUL DUP4 MSTORE SWAP2 PUSH1 0x20 ADD SWAP2 PUSH2 0x1A9 JUMP JUMPDEST DUP3 ADD SWAP2 SWAP1 PUSH1 0x0 MSTORE PUSH1 0x20 PUSH1 0x0 KECCAK256 SWAP1 JUMPDEST DUP2 SLOAD DUP2 MSTORE SWAP1 PUSH1 0x1 ADD SWAP1 PUSH1 0x20 ADD DUP1 DUP4 GT PUSH2 0x18C JUMPI DUP3 SWAP1 SUB PUSH1 0x1F AND DUP3 ADD SWAP2 JUMPDEST POP POP POP POP POP SWAP1 DUP1 PUSH1 0x2 ADD DUP1 SLOAD PUSH2 0x1BE SWAP1 PUSH2 0x788 JUMP JUMPDEST DUP1 PUSH1 0x1F ADD PUSH1 0x20 DUP1 SWAP2 DIV MUL PUSH1 0x20 ADD PUSH1 0x40 MLOAD SWAP1 DUP2 ADD PUSH1 0x40 MSTORE DUP1 SWAP3 SWAP2 SWAP1 DUP2 DUP2 MSTORE PUSH1 0x20 ADD DUP3 DUP1 SLOAD PUSH2 0x1EA SWAP1 PUSH2 0x788 JUMP JUMPDEST DUP1 ISZERO PUSH2 0x237 JUMPI DUP1 PUSH1 0x1F LT PUSH2 0x20C JUMPI PUSH2 0x100 DUP1 DUP4 SLOAD DIV MUL DUP4 MSTORE SWAP2 PUSH1 0x20 ADD SWAP2 PUSH2 0x237 JUMP JUMPDEST DUP3 ADD SWAP2 SWAP1 PUSH1 0x0 MSTORE PUSH1 0x20 PUSH1 0x0 KECCAK256 SWAP1 JUMPDEST DUP2 SLOAD DUP2 MSTORE SWAP1 PUSH1 0x1 ADD SWAP1 PUSH1 0x20 ADD DUP1 DUP4 GT PUSH2 0x21A JUMPI DUP3 SWAP1 SUB PUSH1 0x1F AND DUP3 ADD SWAP2 JUMPDEST POP POP POP POP POP SWAP1 POP DUP4 JUMP JUMPDEST PUSH1 0x0 PUSH2 0x24C DUP3 PUSH2 0x25E JUMP JUMPDEST SWAP1 POP PUSH2 0x259 DUP2 DUP5 DUP5 PUSH2 0x296 JUMP JUMPDEST POP POP POP JUMP JUMPDEST PUSH1 0x0 DUP1 DUP3 PUSH1 0x40 MLOAD PUSH1 0x20 ADD PUSH2 0x272 SWAP2 SWAP1 PUSH2 0x5C3 JUMP JUMPDEST PUSH1 0x40 MLOAD PUSH1 0x20 DUP2 DUP4 SUB SUB DUP2 MSTORE SWAP1 PUSH1 0x40 MSTORE DUP1 MLOAD SWAP1 PUSH1 0x20 ADD KECCAK256 PUSH1 0x0 SHR SWAP1 POP DUP1 SWAP2 POP POP SWAP2 SWAP1 POP JUMP JUMPDEST PUSH1 0x0 PUSH1 0x40 MLOAD DUP1 PUSH1 0x60 ADD PUSH1 0x40 MSTORE DUP1 DUP6 DUP2 MSTORE PUSH1 0x20 ADD DUP5 DUP2 MSTORE PUSH1 0x20 ADD DUP4 DUP2 MSTORE POP SWAP1 DUP1 PUSH1 0x1 DUP2 SLOAD ADD DUP1 DUP3 SSTORE DUP1 SWAP2 POP POP PUSH1 0x1 SWAP1 SUB SWAP1 PUSH1 0x0 MSTORE PUSH1 0x20 PUSH1 0x0 KECCAK256 SWAP1 PUSH1 0x3 MUL ADD PUSH1 0x0 SWAP1 SWAP2 SWAP1 SWAP2 SWAP1 SWAP2 POP PUSH1 0x0 DUP3 ADD MLOAD DUP2 PUSH1 0x0 ADD SSTORE PUSH1 0x20 DUP3 ADD MLOAD DUP2 PUSH1 0x1 ADD SWAP1 DUP1 MLOAD SWAP1 PUSH1 0x20 ADD SWAP1 PUSH2 0x302 SWAP3 SWAP2 SWAP1 PUSH2 0x36E JUMP JUMPDEST POP PUSH1 0x40 DUP3 ADD MLOAD DUP2 PUSH1 0x2 ADD SWAP1 DUP1 MLOAD SWAP1 PUSH1 0x20 ADD SWAP1 PUSH2 0x31F SWAP3 SWAP2 SWAP1 PUSH2 0x36E JUMP JUMPDEST POP POP POP PUSH1 0x0 DUP1 DUP1 SLOAD SWAP1 POP SWAP1 POP PUSH32 0xA421576DF59F1A0508DAA93CE319EC1008A3E4049FAC768EBBC0765C18602D96 DUP2 DUP6 DUP6 DUP6 PUSH1 0x40 MLOAD PUSH2 0x360 SWAP5 SWAP4 SWAP3 SWAP2 SWAP1 PUSH2 0x63A JUMP JUMPDEST PUSH1 0x40 MLOAD DUP1 SWAP2 SUB SWAP1 LOG1 POP POP POP POP JUMP JUMPDEST DUP3 DUP1 SLOAD PUSH2 0x37A SWAP1 PUSH2 0x788 JUMP JUMPDEST SWAP1 PUSH1 0x0 MSTORE PUSH1 0x20 PUSH1 0x0 KECCAK256 SWAP1 PUSH1 0x1F ADD PUSH1 0x20 SWAP1 DIV DUP2 ADD SWAP3 DUP3 PUSH2 0x39C JUMPI PUSH1 0x0 DUP6 SSTORE PUSH2 0x3E3 JUMP JUMPDEST DUP3 PUSH1 0x1F LT PUSH2 0x3B5 JUMPI DUP1 MLOAD PUSH1 0xFF NOT AND DUP4 DUP1 ADD OR DUP6 SSTORE PUSH2 0x3E3 JUMP JUMPDEST DUP3 DUP1 ADD PUSH1 0x1 ADD DUP6 SSTORE DUP3 ISZERO PUSH2 0x3E3 JUMPI SWAP2 DUP3 ADD JUMPDEST DUP3 DUP2 GT ISZERO PUSH2 0x3E2 JUMPI DUP3 MLOAD DUP3 SSTORE SWAP2 PUSH1 0x20 ADD SWAP2 SWAP1 PUSH1 0x1 ADD SWAP1 PUSH2 0x3C7 JUMP JUMPDEST JUMPDEST POP SWAP1 POP PUSH2 0x3F0 SWAP2 SWAP1 PUSH2 0x3F4 JUMP JUMPDEST POP SWAP1 JUMP JUMPDEST JUMPDEST DUP1 DUP3 GT ISZERO PUSH2 0x40D JUMPI PUSH1 0x0 DUP2 PUSH1 0x0 SWAP1 SSTORE POP PUSH1 0x1 ADD PUSH2 0x3F5 JUMP JUMPDEST POP SWAP1 JUMP JUMPDEST PUSH1 0x0 PUSH2 0x424 PUSH2 0x41F DUP5 PUSH2 0x6B2 JUMP JUMPDEST PUSH2 0x68D JUMP JUMPDEST SWAP1 POP DUP3 DUP2 MSTORE PUSH1 0x20 DUP2 ADD DUP5 DUP5 DUP5 ADD GT ISZERO PUSH2 0x440 JUMPI PUSH2 0x43F PUSH2 0x84E JUMP JUMPDEST JUMPDEST PUSH2 0x44B DUP5 DUP3 DUP6 PUSH2 0x746 JUMP JUMPDEST POP SWAP4 SWAP3 POP POP POP JUMP JUMPDEST PUSH1 0x0 DUP3 PUSH1 0x1F DUP4 ADD SLT PUSH2 0x468 JUMPI PUSH2 0x467 PUSH2 0x849 JUMP JUMPDEST JUMPDEST DUP2 CALLDATALOAD PUSH2 0x478 DUP5 DUP3 PUSH1 0x20 DUP7 ADD PUSH2 0x411 JUMP JUMPDEST SWAP2 POP POP SWAP3 SWAP2 POP POP JUMP JUMPDEST PUSH1 0x0 DUP2 CALLDATALOAD SWAP1 POP PUSH2 0x490 DUP2 PUSH2 0x86E JUMP JUMPDEST SWAP3 SWAP2 POP POP JUMP JUMPDEST PUSH1 0x0 DUP1 PUSH1 0x40 DUP4 DUP6 SUB SLT ISZERO PUSH2 0x4AD JUMPI PUSH2 0x4AC PUSH2 0x858 JUMP JUMPDEST JUMPDEST PUSH1 0x0 DUP4 ADD CALLDATALOAD PUSH8 0xFFFFFFFFFFFFFFFF DUP2 GT ISZERO PUSH2 0x4CB JUMPI PUSH2 0x4CA PUSH2 0x853 JUMP JUMPDEST JUMPDEST PUSH2 0x4D7 DUP6 DUP3 DUP7 ADD PUSH2 0x453 JUMP JUMPDEST SWAP3 POP POP PUSH1 0x20 DUP4 ADD CALLDATALOAD PUSH8 0xFFFFFFFFFFFFFFFF DUP2 GT ISZERO PUSH2 0x4F8 JUMPI PUSH2 0x4F7 PUSH2 0x853 JUMP JUMPDEST JUMPDEST PUSH2 0x504 DUP6 DUP3 DUP7 ADD PUSH2 0x453 JUMP JUMPDEST SWAP2 POP POP SWAP3 POP SWAP3 SWAP1 POP JUMP JUMPDEST PUSH1 0x0 PUSH1 0x20 DUP3 DUP5 SUB SLT ISZERO PUSH2 0x524 JUMPI PUSH2 0x523 PUSH2 0x858 JUMP JUMPDEST JUMPDEST PUSH1 0x0 PUSH2 0x532 DUP5 DUP3 DUP6 ADD PUSH2 0x481 JUMP JUMPDEST SWAP2 POP POP SWAP3 SWAP2 POP POP JUMP JUMPDEST PUSH2 0x544 DUP2 PUSH2 0x70A JUMP JUMPDEST DUP3 MSTORE POP POP JUMP JUMPDEST PUSH1 0x0 PUSH2 0x555 DUP3 PUSH2 0x6E3 JUMP JUMPDEST PUSH2 0x55F DUP2 DUP6 PUSH2 0x6EE JUMP JUMPDEST SWAP4 POP PUSH2 0x56F DUP2 DUP6 PUSH1 0x20 DUP7 ADD PUSH2 0x755 JUMP JUMPDEST PUSH2 0x578 DUP2 PUSH2 0x85D JUMP JUMPDEST DUP5 ADD SWAP2 POP POP SWAP3 SWAP2 POP POP JUMP JUMPDEST PUSH1 0x0 PUSH2 0x58E DUP3 PUSH2 0x6E3 JUMP JUMPDEST PUSH2 0x598 DUP2 DUP6 PUSH2 0x6FF JUMP JUMPDEST SWAP4 POP PUSH2 0x5A8 DUP2 DUP6 PUSH1 0x20 DUP7 ADD PUSH2 0x755 JUMP JUMPDEST DUP1 DUP5 ADD SWAP2 POP POP SWAP3 SWAP2 POP POP JUMP JUMPDEST PUSH2 0x5BD DUP2 PUSH2 0x73C JUMP JUMPDEST DUP3 MSTORE POP POP JUMP JUMPDEST PUSH1 0x0 PUSH2 0x5CF DUP3 DUP5 PUSH2 0x583 JUMP JUMPDEST SWAP2 POP DUP2 SWAP1 POP SWAP3 SWAP2 POP POP JUMP JUMPDEST PUSH1 0x0 PUSH1 0x20 DUP3 ADD SWAP1 POP PUSH2 0x5EF PUSH1 0x0 DUP4 ADD DUP5 PUSH2 0x53B JUMP JUMPDEST SWAP3 SWAP2 POP POP JUMP JUMPDEST PUSH1 0x0 PUSH1 0x60 DUP3 ADD SWAP1 POP PUSH2 0x60A PUSH1 0x0 DUP4 ADD DUP7 PUSH2 0x5B4 JUMP JUMPDEST DUP2 DUP2 SUB PUSH1 0x20 DUP4 ADD MSTORE PUSH2 0x61C DUP2 DUP6 PUSH2 0x54A JUMP JUMPDEST SWAP1 POP DUP2 DUP2 SUB PUSH1 0x40 DUP4 ADD MSTORE PUSH2 0x630 DUP2 DUP5 PUSH2 0x54A JUMP JUMPDEST SWAP1 POP SWAP5 SWAP4 POP POP POP POP JUMP JUMPDEST PUSH1 0x0 PUSH1 0x80 DUP3 ADD SWAP1 POP PUSH2 0x64F PUSH1 0x0 DUP4 ADD DUP8 PUSH2 0x5B4 JUMP JUMPDEST PUSH2 0x65C PUSH1 0x20 DUP4 ADD DUP7 PUSH2 0x5B4 JUMP JUMPDEST DUP2 DUP2 SUB PUSH1 0x40 DUP4 ADD MSTORE PUSH2 0x66E DUP2 DUP6 PUSH2 0x54A JUMP JUMPDEST SWAP1 POP DUP2 DUP2 SUB PUSH1 0x60 DUP4 ADD MSTORE PUSH2 0x682 DUP2 DUP5 PUSH2 0x54A JUMP JUMPDEST SWAP1 POP SWAP6 SWAP5 POP POP POP POP POP JUMP JUMPDEST PUSH1 0x0 PUSH2 0x697 PUSH2 0x6A8 JUMP JUMPDEST SWAP1 POP PUSH2 0x6A3 DUP3 DUP3 PUSH2 0x7BA JUMP JUMPDEST SWAP2 SWAP1 POP JUMP JUMPDEST PUSH1 0x0 PUSH1 0x40 MLOAD SWAP1 POP SWAP1 JUMP JUMPDEST PUSH1 0x0 PUSH8 0xFFFFFFFFFFFFFFFF DUP3 GT ISZERO PUSH2 0x6CD JUMPI PUSH2 0x6CC PUSH2 0x81A JUMP JUMPDEST JUMPDEST PUSH2 0x6D6 DUP3 PUSH2 0x85D JUMP JUMPDEST SWAP1 POP PUSH1 0x20 DUP2 ADD SWAP1 POP SWAP2 SWAP1 POP JUMP JUMPDEST PUSH1 0x0 DUP2 MLOAD SWAP1 POP SWAP2 SWAP1 POP JUMP JUMPDEST PUSH1 0x0 DUP3 DUP3 MSTORE PUSH1 0x20 DUP3 ADD SWAP1 POP SWAP3 SWAP2 POP POP JUMP JUMPDEST PUSH1 0x0 DUP2 SWAP1 POP SWAP3 SWAP2 POP POP JUMP JUMPDEST PUSH1 0x0 PUSH2 0x715 DUP3 PUSH2 0x71C JUMP JUMPDEST SWAP1 POP SWAP2 SWAP1 POP JUMP JUMPDEST PUSH1 0x0 PUSH20 0xFFFFFFFFFFFFFFFFFFFFFFFFFFFFFFFFFFFFFFFF DUP3 AND SWAP1 POP SWAP2 SWAP1 POP JUMP JUMPDEST PUSH1 0x0 DUP2 SWAP1 POP SWAP2 SWAP1 POP JUMP JUMPDEST DUP3 DUP2 DUP4 CALLDATACOPY PUSH1 0x0 DUP4 DUP4 ADD MSTORE POP POP POP JUMP JUMPDEST PUSH1 0x0 JUMPDEST DUP4 DUP2 LT ISZERO PUSH2 0x773 JUMPI DUP1 DUP3 ADD MLOAD DUP2 DUP5 ADD MSTORE PUSH1 0x20 DUP2 ADD SWAP1 POP PUSH2 0x758 JUMP JUMPDEST DUP4 DUP2 GT ISZERO PUSH2 0x782 JUMPI PUSH1 0x0 DUP5 DUP5 ADD MSTORE JUMPDEST POP POP POP POP JUMP JUMPDEST PUSH1 0x0 PUSH1 0x2 DUP3 DIV SWAP1 POP PUSH1 0x1 DUP3 AND DUP1 PUSH2 0x7A0 JUMPI PUSH1 0x7F DUP3 AND SWAP2 POP JUMPDEST PUSH1 0x20 DUP3 LT DUP2 EQ ISZERO PUSH2 0x7B4 JUMPI PUSH2 0x7B3 PUSH2 0x7EB JUMP JUMPDEST JUMPDEST POP SWAP2 SWAP1 POP JUMP JUMPDEST PUSH2 0x7C3 DUP3 PUSH2 0x85D JUMP JUMPDEST DUP2 ADD DUP2 DUP2 LT PUSH8 0xFFFFFFFFFFFFFFFF DUP3 GT OR ISZERO PUSH2 0x7E2 JUMPI PUSH2 0x7E1 PUSH2 0x81A JUMP JUMPDEST JUMPDEST DUP1 PUSH1 0x40 MSTORE POP POP POP JUMP JUMPDEST PUSH32 0x4E487B7100000000000000000000000000000000000000000000000000000000 PUSH1 0x0 MSTORE PUSH1 0x22 PUSH1 0x4 MSTORE PUSH1 0x24 PUSH1 0x0 REVERT JUMPDEST PUSH32 0x4E487B7100000000000000000000000000000000000000000000000000000000 PUSH1 0x0 MSTORE PUSH1 0x41 PUSH1 0x4 MSTORE PUSH1 0x24 PUSH1 0x0 REVERT JUMPDEST PUSH1 0x0 DUP1 REVERT JUMPDEST PUSH1 0x0 DUP1 REVERT JUMPDEST PUSH1 0x0 DUP1 REVERT JUMPDEST PUSH1 0x0 DUP1 REVERT JUMPDEST PUSH1 0x0 PUSH1 0x1F NOT PUSH1 0x1F DUP4 ADD AND SWAP1 POP SWAP2 SWAP1 POP JUMP JUMPDEST PUSH2 0x877 DUP2 PUSH2 0x73C JUMP JUMPDEST DUP2 EQ PUSH2 0x882 JUMPI PUSH1 0x0 DUP1 REVERT JUMPDEST POP JUMP INVALID LOG2 PUSH5 0x6970667358 0x22 SLT KECCAK256 0x27 SWAP4 DIFFICULTY SMOD 0xF8 PUSH7 0xED27D147A431F9 RETURN 0xFC SGT LOG0 NOT 0xC8 SHL 0xBF CODESIZE TIMESTAMP 0xD6 NUMBER SUB KECCAK256 MUL 0xCE MOD MOD 0xC8 PUSH5 0x736F6C6343 STOP ADDMOD SMOD STOP CALLER "
				},
				"gasEstimates": {
					"creation": {
						"codeDepositCost": "447000",
						"executionCost": "480",
						"totalCost": "447480"
					},
					"external": {
						"createNewTicket(string,string)": "infinite",
						"ticketToOwner(uint256)": "2817",
						"tickets(uint256)": "infinite"
					},
					"internal": {
						"_createTicket(uint256,string memory,string memory)": "infinite",
						"generateRefNo(string memory)": "infinite"
					}
				},
				"methodIdentifiers": {
					"createNewTicket(string,string)": "e0a08f27",
					"ticketToOwner(uint256)": "2b08e824",
					"tickets(uint256)": "50b44712"
				}
			},
			"storageLayout": {
				"storage": [
					{
						"astId": 22,
						"contract": "contracts/CreateTicket.sol:NewTicket",
						"label": "tickets",
						"offset": 0,
						"slot": "0",
						"type": "t_array(t_struct(Ticket)18_storage)dyn_storage"
					},
					{
						"astId": 26,
						"contract": "contracts/CreateTicket.sol:NewTicket",
						"label": "ticketToOwner",
						"offset": 0,
						"slot": "1",
						"type": "t_mapping(t_uint256,t_address)"
					}
				],
				"types": {
					"t_address": {
						"encoding": "inplace",
						"label": "address",
						"numberOfBytes": "20"
					},
					"t_array(t_struct(Ticket)18_storage)dyn_storage": {
						"base": "t_struct(Ticket)18_storage",
						"encoding": "dynamic_array",
						"label": "struct NewTicket.Ticket[]",
						"numberOfBytes": "32"
					},
					"t_mapping(t_uint256,t_address)": {
						"encoding": "mapping",
						"key": "t_uint256",
						"label": "mapping(uint256 => address)",
						"numberOfBytes": "32",
						"value": "t_address"
					},
					"t_string_storage": {
						"encoding": "bytes",
						"label": "string",
						"numberOfBytes": "32"
					},
					"t_struct(Ticket)18_storage": {
						"encoding": "inplace",
						"label": "struct NewTicket.Ticket",
						"members": [
							{
								"astId": 13,
								"contract": "contracts/CreateTicket.sol:NewTicket",
								"label": "refNo",
								"offset": 0,
								"slot": "0",
								"type": "t_uint256"
							},
							{
								"astId": 15,
								"contract": "contracts/CreateTicket.sol:NewTicket",
								"label": "authority",
								"offset": 0,
								"slot": "1",
								"type": "t_string_storage"
							},
							{
								"astId": 17,
								"contract": "contracts/CreateTicket.sol:NewTicket",
								"label": "link",
								"offset": 0,
								"slot": "2",
								"type": "t_string_storage"
							}
						],
						"numberOfBytes": "96"
					},
					"t_uint256": {
						"encoding": "inplace",
						"label": "uint256",
						"numberOfBytes": "32"
					}
				}
			},
			"userdoc": {
				"kind": "user",
				"methods": {},
				"version": 1
			}
		}
	}
}