{
	"contracts/CreateTicket.sol": {
		"NewTicket": {
			"abi": [
				{
					"inputs": [
						{
							"internalType": "uint256",
							"name": "_refNo",
							"type": "uint256"
						},
						{
							"internalType": "string",
							"name": "_authority",
							"type": "string"
						},
						{
							"internalType": "string",
							"name": "_link",
							"type": "string"
						}
					],
					"name": "createTicket",
					"outputs": [],
					"stateMutability": "nonpayable",
					"type": "function"
				},
				{
					"inputs": [
						{
							"internalType": "uint256",
							"name": "",
							"type": "uint256"
						}
					],
					"name": "tickets",
					"outputs": [
						{
							"internalType": "uint256",
							"name": "refNo",
							"type": "uint256"
						},
						{
							"internalType": "string",
							"name": "authority",
							"type": "string"
						},
						{
							"internalType": "string",
							"name": "link",
							"type": "string"
						}
					],
					"stateMutability": "view",
					"type": "function"
				}
			],
			"devdoc": {
				"kind": "dev",
				"methods": {},
				"version": 1
			},
			"evm": {
				"assembly": "    /* \"contracts/CreateTicket.sol\":70:340  contract NewTicket {\r... */\n  mstore(0x40, 0x80)\n  callvalue\n  dup1\n  iszero\n  tag_1\n  jumpi\n  0x00\n  dup1\n  revert\ntag_1:\n  pop\n  dataSize(sub_0)\n  dup1\n  dataOffset(sub_0)\n  0x00\n  codecopy\n  0x00\n  return\nstop\n\nsub_0: assembly {\n        /* \"contracts/CreateTicket.sol\":70:340  contract NewTicket {\r... */\n      mstore(0x40, 0x80)\n      callvalue\n      dup1\n      iszero\n      tag_1\n      jumpi\n      0x00\n      dup1\n      revert\n    tag_1:\n      pop\n      jumpi(tag_2, lt(calldatasize, 0x04))\n      shr(0xe0, calldataload(0x00))\n      dup1\n      0x50b44712\n      eq\n      tag_3\n      jumpi\n      dup1\n      0xcc8d34d0\n      eq\n      tag_4\n      jumpi\n    tag_2:\n      0x00\n      dup1\n      revert\n        /* \"contracts/CreateTicket.sol\":198:221  Ticket[] public tickets */\n    tag_3:\n      tag_5\n      0x04\n      dup1\n      calldatasize\n      sub\n      dup2\n      add\n      swap1\n      tag_6\n      swap2\n      swap1\n      tag_7\n      jump\t// in\n    tag_6:\n      tag_8\n      jump\t// in\n    tag_5:\n      mload(0x40)\n      tag_9\n      swap4\n      swap3\n      swap2\n      swap1\n      tag_10\n      jump\t// in\n    tag_9:\n      mload(0x40)\n      dup1\n      swap2\n      sub\n      swap1\n      return\n        /* \"contracts/CreateTicket.sol\":230:337  function createTicket(uint _refNo, string memory _authority, string memory _link) public {\r... */\n    tag_4:\n      tag_11\n      0x04\n      dup1\n      calldatasize\n      sub\n      dup2\n      add\n      swap1\n      tag_12\n      swap2\n      swap1\n      tag_13\n      jump\t// in\n    tag_12:\n      tag_14\n      jump\t// in\n    tag_11:\n      stop\n        /* \"contracts/CreateTicket.sol\":198:221  Ticket[] public tickets */\n    tag_8:\n      0x00\n      dup2\n      dup2\n      sload\n      dup2\n      lt\n      tag_15\n      jumpi\n      0x00\n      dup1\n      revert\n    tag_15:\n      swap1\n      0x00\n      mstore\n      keccak256(0x00, 0x20)\n      swap1\n      0x03\n      mul\n      add\n      0x00\n      swap2\n      pop\n      swap1\n      pop\n      dup1\n      0x00\n      add\n      sload\n      swap1\n      dup1\n      0x01\n      add\n      dup1\n      sload\n      tag_17\n      swap1\n      tag_18\n      jump\t// in\n    tag_17:\n      dup1\n      0x1f\n      add\n      0x20\n      dup1\n      swap2\n      div\n      mul\n      0x20\n      add\n      mload(0x40)\n      swap1\n      dup2\n      add\n      0x40\n      mstore\n      dup1\n      swap3\n      swap2\n      swap1\n      dup2\n      dup2\n      mstore\n      0x20\n      add\n      dup3\n      dup1\n      sload\n      tag_19\n      swap1\n      tag_18\n      jump\t// in\n    tag_19:\n      dup1\n      iszero\n      tag_20\n      jumpi\n      dup1\n      0x1f\n      lt\n      tag_21\n      jumpi\n      0x0100\n      dup1\n      dup4\n      sload\n      div\n      mul\n      dup4\n      mstore\n      swap2\n      0x20\n      add\n      swap2\n      jump(tag_20)\n    tag_21:\n      dup3\n      add\n      swap2\n      swap1\n      0x00\n      mstore\n      keccak256(0x00, 0x20)\n      swap1\n    tag_22:\n      dup2\n      sload\n      dup2\n      mstore\n      swap1\n      0x01\n      add\n      swap1\n      0x20\n      add\n      dup1\n      dup4\n      gt\n      tag_22\n      jumpi\n      dup3\n      swap1\n      sub\n      0x1f\n      and\n      dup3\n      add\n      swap2\n    tag_20:\n      pop\n      pop\n      pop\n      pop\n      pop\n      swap1\n      dup1\n      0x02\n      add\n      dup1\n      sload\n      tag_23\n      swap1\n      tag_18\n      jump\t// in\n    tag_23:\n      dup1\n      0x1f\n      add\n      0x20\n      dup1\n      swap2\n      div\n      mul\n      0x20\n      add\n      mload(0x40)\n      swap1\n      dup2\n      add\n      0x40\n      mstore\n      dup1\n      swap3\n      swap2\n      swap1\n      dup2\n      dup2\n      mstore\n      0x20\n      add\n      dup3\n      dup1\n      sload\n      tag_24\n      swap1\n      tag_18\n      jump\t// in\n    tag_24:\n      dup1\n      iszero\n      tag_25\n      jumpi\n      dup1\n      0x1f\n      lt\n      tag_26\n      jumpi\n      0x0100\n      dup1\n      dup4\n      sload\n      div\n      mul\n      dup4\n      mstore\n      swap2\n      0x20\n      add\n      swap2\n      jump(tag_25)\n    tag_26:\n      dup3\n      add\n      swap2\n      swap1\n      0x00\n      mstore\n      keccak256(0x00, 0x20)\n      swap1\n    tag_27:\n      dup2\n      sload\n      dup2\n      mstore\n      swap1\n      0x01\n      add\n      swap1\n      0x20\n      add\n      dup1\n      dup4\n      gt\n      tag_27\n      jumpi\n      dup3\n      swap1\n      sub\n      0x1f\n      and\n      dup3\n      add\n      swap2\n    tag_25:\n      pop\n      pop\n      pop\n      pop\n      pop\n      swap1\n      pop\n      dup4\n      jump\t// out\n        /* \"contracts/CreateTicket.sol\":230:337  function createTicket(uint _refNo, string memory _authority, string memory _link) public {\r... */\n    tag_14:\n      pop\n      pop\n      pop\n      jump\t// out\n        /* \"#utility.yul\":7:419   */\n    tag_30:\n        /* \"#utility.yul\":85:90   */\n      0x00\n        /* \"#utility.yul\":110:176   */\n      tag_32\n        /* \"#utility.yul\":126:175   */\n      tag_33\n        /* \"#utility.yul\":168:174   */\n      dup5\n        /* \"#utility.yul\":126:175   */\n      tag_34\n      jump\t// in\n    tag_33:\n        /* \"#utility.yul\":110:176   */\n      tag_35\n      jump\t// in\n    tag_32:\n        /* \"#utility.yul\":101:176   */\n      swap1\n      pop\n        /* \"#utility.yul\":199:205   */\n      dup3\n        /* \"#utility.yul\":192:197   */\n      dup2\n        /* \"#utility.yul\":185:206   */\n      mstore\n        /* \"#utility.yul\":237:241   */\n      0x20\n        /* \"#utility.yul\":230:235   */\n      dup2\n        /* \"#utility.yul\":226:242   */\n      add\n        /* \"#utility.yul\":275:278   */\n      dup5\n        /* \"#utility.yul\":266:272   */\n      dup5\n        /* \"#utility.yul\":261:264   */\n      dup5\n        /* \"#utility.yul\":257:273   */\n      add\n        /* \"#utility.yul\":254:279   */\n      gt\n        /* \"#utility.yul\":251:363   */\n      iszero\n      tag_36\n      jumpi\n        /* \"#utility.yul\":282:361   */\n      tag_37\n      tag_38\n      jump\t// in\n    tag_37:\n        /* \"#utility.yul\":251:363   */\n    tag_36:\n        /* \"#utility.yul\":372:413   */\n      tag_39\n        /* \"#utility.yul\":406:412   */\n      dup5\n        /* \"#utility.yul\":401:404   */\n      dup3\n        /* \"#utility.yul\":396:399   */\n      dup6\n        /* \"#utility.yul\":372:413   */\n      tag_40\n      jump\t// in\n    tag_39:\n        /* \"#utility.yul\":91:419   */\n      pop\n        /* \"#utility.yul\":7:419   */\n      swap4\n      swap3\n      pop\n      pop\n      pop\n      jump\t// out\n        /* \"#utility.yul\":439:779   */\n    tag_41:\n        /* \"#utility.yul\":495:500   */\n      0x00\n        /* \"#utility.yul\":544:547   */\n      dup3\n        /* \"#utility.yul\":537:541   */\n      0x1f\n        /* \"#utility.yul\":529:535   */\n      dup4\n        /* \"#utility.yul\":525:542   */\n      add\n        /* \"#utility.yul\":521:548   */\n      slt\n        /* \"#utility.yul\":511:633   */\n      tag_43\n      jumpi\n        /* \"#utility.yul\":552:631   */\n      tag_44\n      tag_45\n      jump\t// in\n    tag_44:\n        /* \"#utility.yul\":511:633   */\n    tag_43:\n        /* \"#utility.yul\":669:675   */\n      dup2\n        /* \"#utility.yul\":656:676   */\n      calldataload\n        /* \"#utility.yul\":694:773   */\n      tag_46\n        /* \"#utility.yul\":769:772   */\n      dup5\n        /* \"#utility.yul\":761:767   */\n      dup3\n        /* \"#utility.yul\":754:758   */\n      0x20\n        /* \"#utility.yul\":746:752   */\n      dup7\n        /* \"#utility.yul\":742:759   */\n      add\n        /* \"#utility.yul\":694:773   */\n      tag_30\n      jump\t// in\n    tag_46:\n        /* \"#utility.yul\":685:773   */\n      swap2\n      pop\n        /* \"#utility.yul\":501:779   */\n      pop\n        /* \"#utility.yul\":439:779   */\n      swap3\n      swap2\n      pop\n      pop\n      jump\t// out\n        /* \"#utility.yul\":785:924   */\n    tag_47:\n        /* \"#utility.yul\":831:836   */\n      0x00\n        /* \"#utility.yul\":869:875   */\n      dup2\n        /* \"#utility.yul\":856:876   */\n      calldataload\n        /* \"#utility.yul\":847:876   */\n      swap1\n      pop\n        /* \"#utility.yul\":885:918   */\n      tag_49\n        /* \"#utility.yul\":912:917   */\n      dup2\n        /* \"#utility.yul\":885:918   */\n      tag_50\n      jump\t// in\n    tag_49:\n        /* \"#utility.yul\":785:924   */\n      swap3\n      swap2\n      pop\n      pop\n      jump\t// out\n        /* \"#utility.yul\":930:1259   */\n    tag_7:\n        /* \"#utility.yul\":989:995   */\n      0x00\n        /* \"#utility.yul\":1038:1040   */\n      0x20\n        /* \"#utility.yul\":1026:1035   */\n      dup3\n        /* \"#utility.yul\":1017:1024   */\n      dup5\n        /* \"#utility.yul\":1013:1036   */\n      sub\n        /* \"#utility.yul\":1009:1041   */\n      slt\n        /* \"#utility.yul\":1006:1125   */\n      iszero\n      tag_52\n      jumpi\n        /* \"#utility.yul\":1044:1123   */\n      tag_53\n      tag_54\n      jump\t// in\n    tag_53:\n        /* \"#utility.yul\":1006:1125   */\n    tag_52:\n        /* \"#utility.yul\":1164:1165   */\n      0x00\n        /* \"#utility.yul\":1189:1242   */\n      tag_55\n        /* \"#utility.yul\":1234:1241   */\n      dup5\n        /* \"#utility.yul\":1225:1231   */\n      dup3\n        /* \"#utility.yul\":1214:1223   */\n      dup6\n        /* \"#utility.yul\":1210:1232   */\n      add\n        /* \"#utility.yul\":1189:1242   */\n      tag_47\n      jump\t// in\n    tag_55:\n        /* \"#utility.yul\":1179:1242   */\n      swap2\n      pop\n        /* \"#utility.yul\":1135:1252   */\n      pop\n        /* \"#utility.yul\":930:1259   */\n      swap3\n      swap2\n      pop\n      pop\n      jump\t// out\n        /* \"#utility.yul\":1265:2244   */\n    tag_13:\n        /* \"#utility.yul\":1362:1368   */\n      0x00\n        /* \"#utility.yul\":1370:1376   */\n      dup1\n        /* \"#utility.yul\":1378:1384   */\n      0x00\n        /* \"#utility.yul\":1427:1429   */\n      0x60\n        /* \"#utility.yul\":1415:1424   */\n      dup5\n        /* \"#utility.yul\":1406:1413   */\n      dup7\n        /* \"#utility.yul\":1402:1425   */\n      sub\n        /* \"#utility.yul\":1398:1430   */\n      slt\n        /* \"#utility.yul\":1395:1514   */\n      iszero\n      tag_57\n      jumpi\n        /* \"#utility.yul\":1433:1512   */\n      tag_58\n      tag_54\n      jump\t// in\n    tag_58:\n        /* \"#utility.yul\":1395:1514   */\n    tag_57:\n        /* \"#utility.yul\":1553:1554   */\n      0x00\n        /* \"#utility.yul\":1578:1631   */\n      tag_59\n        /* \"#utility.yul\":1623:1630   */\n      dup7\n        /* \"#utility.yul\":1614:1620   */\n      dup3\n        /* \"#utility.yul\":1603:1612   */\n      dup8\n        /* \"#utility.yul\":1599:1621   */\n      add\n        /* \"#utility.yul\":1578:1631   */\n      tag_47\n      jump\t// in\n    tag_59:\n        /* \"#utility.yul\":1568:1631   */\n      swap4\n      pop\n        /* \"#utility.yul\":1524:1641   */\n      pop\n        /* \"#utility.yul\":1708:1710   */\n      0x20\n        /* \"#utility.yul\":1697:1706   */\n      dup5\n        /* \"#utility.yul\":1693:1711   */\n      add\n        /* \"#utility.yul\":1680:1712   */\n      calldataload\n        /* \"#utility.yul\":1739:1757   */\n      0xffffffffffffffff\n        /* \"#utility.yul\":1731:1737   */\n      dup2\n        /* \"#utility.yul\":1728:1758   */\n      gt\n        /* \"#utility.yul\":1725:1842   */\n      iszero\n      tag_60\n      jumpi\n        /* \"#utility.yul\":1761:1840   */\n      tag_61\n      tag_62\n      jump\t// in\n    tag_61:\n        /* \"#utility.yul\":1725:1842   */\n    tag_60:\n        /* \"#utility.yul\":1866:1929   */\n      tag_63\n        /* \"#utility.yul\":1921:1928   */\n      dup7\n        /* \"#utility.yul\":1912:1918   */\n      dup3\n        /* \"#utility.yul\":1901:1910   */\n      dup8\n        /* \"#utility.yul\":1897:1919   */\n      add\n        /* \"#utility.yul\":1866:1929   */\n      tag_41\n      jump\t// in\n    tag_63:\n        /* \"#utility.yul\":1856:1929   */\n      swap3\n      pop\n        /* \"#utility.yul\":1651:1939   */\n      pop\n        /* \"#utility.yul\":2006:2008   */\n      0x40\n        /* \"#utility.yul\":1995:2004   */\n      dup5\n        /* \"#utility.yul\":1991:2009   */\n      add\n        /* \"#utility.yul\":1978:2010   */\n      calldataload\n        /* \"#utility.yul\":2037:2055   */\n      0xffffffffffffffff\n        /* \"#utility.yul\":2029:2035   */\n      dup2\n        /* \"#utility.yul\":2026:2056   */\n      gt\n        /* \"#utility.yul\":2023:2140   */\n      iszero\n      tag_64\n      jumpi\n        /* \"#utility.yul\":2059:2138   */\n      tag_65\n      tag_62\n      jump\t// in\n    tag_65:\n        /* \"#utility.yul\":2023:2140   */\n    tag_64:\n        /* \"#utility.yul\":2164:2227   */\n      tag_66\n        /* \"#utility.yul\":2219:2226   */\n      dup7\n        /* \"#utility.yul\":2210:2216   */\n      dup3\n        /* \"#utility.yul\":2199:2208   */\n      dup8\n        /* \"#utility.yul\":2195:2217   */\n      add\n        /* \"#utility.yul\":2164:2227   */\n      tag_41\n      jump\t// in\n    tag_66:\n        /* \"#utility.yul\":2154:2227   */\n      swap2\n      pop\n        /* \"#utility.yul\":1949:2237   */\n      pop\n        /* \"#utility.yul\":1265:2244   */\n      swap3\n      pop\n      swap3\n      pop\n      swap3\n      jump\t// out\n        /* \"#utility.yul\":2250:2614   */\n    tag_67:\n        /* \"#utility.yul\":2338:2341   */\n      0x00\n        /* \"#utility.yul\":2366:2405   */\n      tag_69\n        /* \"#utility.yul\":2399:2404   */\n      dup3\n        /* \"#utility.yul\":2366:2405   */\n      tag_70\n      jump\t// in\n    tag_69:\n        /* \"#utility.yul\":2421:2492   */\n      tag_71\n        /* \"#utility.yul\":2485:2491   */\n      dup2\n        /* \"#utility.yul\":2480:2483   */\n      dup6\n        /* \"#utility.yul\":2421:2492   */\n      tag_72\n      jump\t// in\n    tag_71:\n        /* \"#utility.yul\":2414:2492   */\n      swap4\n      pop\n        /* \"#utility.yul\":2501:2553   */\n      tag_73\n        /* \"#utility.yul\":2546:2552   */\n      dup2\n        /* \"#utility.yul\":2541:2544   */\n      dup6\n        /* \"#utility.yul\":2534:2538   */\n      0x20\n        /* \"#utility.yul\":2527:2532   */\n      dup7\n        /* \"#utility.yul\":2523:2539   */\n      add\n        /* \"#utility.yul\":2501:2553   */\n      tag_74\n      jump\t// in\n    tag_73:\n        /* \"#utility.yul\":2578:2607   */\n      tag_75\n        /* \"#utility.yul\":2600:2606   */\n      dup2\n        /* \"#utility.yul\":2578:2607   */\n      tag_76\n      jump\t// in\n    tag_75:\n        /* \"#utility.yul\":2573:2576   */\n      dup5\n        /* \"#utility.yul\":2569:2608   */\n      add\n        /* \"#utility.yul\":2562:2608   */\n      swap2\n      pop\n        /* \"#utility.yul\":2342:2614   */\n      pop\n        /* \"#utility.yul\":2250:2614   */\n      swap3\n      swap2\n      pop\n      pop\n      jump\t// out\n        /* \"#utility.yul\":2620:2738   */\n    tag_77:\n        /* \"#utility.yul\":2707:2731   */\n      tag_79\n        /* \"#utility.yul\":2725:2730   */\n      dup2\n        /* \"#utility.yul\":2707:2731   */\n      tag_80\n      jump\t// in\n    tag_79:\n        /* \"#utility.yul\":2702:2705   */\n      dup3\n        /* \"#utility.yul\":2695:2732   */\n      mstore\n        /* \"#utility.yul\":2620:2738   */\n      pop\n      pop\n      jump\t// out\n        /* \"#utility.yul\":2744:3368   */\n    tag_10:\n        /* \"#utility.yul\":2933:2937   */\n      0x00\n        /* \"#utility.yul\":2971:2973   */\n      0x60\n        /* \"#utility.yul\":2960:2969   */\n      dup3\n        /* \"#utility.yul\":2956:2974   */\n      add\n        /* \"#utility.yul\":2948:2974   */\n      swap1\n      pop\n        /* \"#utility.yul\":2984:3055   */\n      tag_82\n        /* \"#utility.yul\":3052:3053   */\n      0x00\n        /* \"#utility.yul\":3041:3050   */\n      dup4\n        /* \"#utility.yul\":3037:3054   */\n      add\n        /* \"#utility.yul\":3028:3034   */\n      dup7\n        /* \"#utility.yul\":2984:3055   */\n      tag_77\n      jump\t// in\n    tag_82:\n        /* \"#utility.yul\":3102:3111   */\n      dup2\n        /* \"#utility.yul\":3096:3100   */\n      dup2\n        /* \"#utility.yul\":3092:3112   */\n      sub\n        /* \"#utility.yul\":3087:3089   */\n      0x20\n        /* \"#utility.yul\":3076:3085   */\n      dup4\n        /* \"#utility.yul\":3072:3090   */\n      add\n        /* \"#utility.yul\":3065:3113   */\n      mstore\n        /* \"#utility.yul\":3130:3208   */\n      tag_83\n        /* \"#utility.yul\":3203:3207   */\n      dup2\n        /* \"#utility.yul\":3194:3200   */\n      dup6\n        /* \"#utility.yul\":3130:3208   */\n      tag_67\n      jump\t// in\n    tag_83:\n        /* \"#utility.yul\":3122:3208   */\n      swap1\n      pop\n        /* \"#utility.yul\":3255:3264   */\n      dup2\n        /* \"#utility.yul\":3249:3253   */\n      dup2\n        /* \"#utility.yul\":3245:3265   */\n      sub\n        /* \"#utility.yul\":3240:3242   */\n      0x40\n        /* \"#utility.yul\":3229:3238   */\n      dup4\n        /* \"#utility.yul\":3225:3243   */\n      add\n        /* \"#utility.yul\":3218:3266   */\n      mstore\n        /* \"#utility.yul\":3283:3361   */\n      tag_84\n        /* \"#utility.yul\":3356:3360   */\n      dup2\n        /* \"#utility.yul\":3347:3353   */\n      dup5\n        /* \"#utility.yul\":3283:3361   */\n      tag_67\n      jump\t// in\n    tag_84:\n        /* \"#utility.yul\":3275:3361   */\n      swap1\n      pop\n        /* \"#utility.yul\":2744:3368   */\n      swap5\n      swap4\n      pop\n      pop\n      pop\n      pop\n      jump\t// out\n        /* \"#utility.yul\":3374:3503   */\n    tag_35:\n        /* \"#utility.yul\":3408:3414   */\n      0x00\n        /* \"#utility.yul\":3435:3455   */\n      tag_86\n      tag_87\n      jump\t// in\n    tag_86:\n        /* \"#utility.yul\":3425:3455   */\n      swap1\n      pop\n        /* \"#utility.yul\":3464:3497   */\n      tag_88\n        /* \"#utility.yul\":3492:3496   */\n      dup3\n        /* \"#utility.yul\":3484:3490   */\n      dup3\n        /* \"#utility.yul\":3464:3497   */\n      tag_89\n      jump\t// in\n    tag_88:\n        /* \"#utility.yul\":3374:3503   */\n      swap2\n      swap1\n      pop\n      jump\t// out\n        /* \"#utility.yul\":3509:3584   */\n    tag_87:\n        /* \"#utility.yul\":3542:3548   */\n      0x00\n        /* \"#utility.yul\":3575:3577   */\n      0x40\n        /* \"#utility.yul\":3569:3578   */\n      mload\n        /* \"#utility.yul\":3559:3578   */\n      swap1\n      pop\n        /* \"#utility.yul\":3509:3584   */\n      swap1\n      jump\t// out\n        /* \"#utility.yul\":3590:3898   */\n    tag_34:\n        /* \"#utility.yul\":3652:3656   */\n      0x00\n        /* \"#utility.yul\":3742:3760   */\n      0xffffffffffffffff\n        /* \"#utility.yul\":3734:3740   */\n      dup3\n        /* \"#utility.yul\":3731:3761   */\n      gt\n        /* \"#utility.yul\":3728:3784   */\n      iszero\n      tag_92\n      jumpi\n        /* \"#utility.yul\":3764:3782   */\n      tag_93\n      tag_94\n      jump\t// in\n    tag_93:\n        /* \"#utility.yul\":3728:3784   */\n    tag_92:\n        /* \"#utility.yul\":3802:3831   */\n      tag_95\n        /* \"#utility.yul\":3824:3830   */\n      dup3\n        /* \"#utility.yul\":3802:3831   */\n      tag_76\n      jump\t// in\n    tag_95:\n        /* \"#utility.yul\":3794:3831   */\n      swap1\n      pop\n        /* \"#utility.yul\":3886:3890   */\n      0x20\n        /* \"#utility.yul\":3880:3884   */\n      dup2\n        /* \"#utility.yul\":3876:3891   */\n      add\n        /* \"#utility.yul\":3868:3891   */\n      swap1\n      pop\n        /* \"#utility.yul\":3590:3898   */\n      swap2\n      swap1\n      pop\n      jump\t// out\n        /* \"#utility.yul\":3904:4003   */\n    tag_70:\n        /* \"#utility.yul\":3956:3962   */\n      0x00\n        /* \"#utility.yul\":3990:3995   */\n      dup2\n        /* \"#utility.yul\":3984:3996   */\n      mload\n        /* \"#utility.yul\":3974:3996   */\n      swap1\n      pop\n        /* \"#utility.yul\":3904:4003   */\n      swap2\n      swap1\n      pop\n      jump\t// out\n        /* \"#utility.yul\":4009:4178   */\n    tag_72:\n        /* \"#utility.yul\":4093:4104   */\n      0x00\n        /* \"#utility.yul\":4127:4133   */\n      dup3\n        /* \"#utility.yul\":4122:4125   */\n      dup3\n        /* \"#utility.yul\":4115:4134   */\n      mstore\n        /* \"#utility.yul\":4167:4171   */\n      0x20\n        /* \"#utility.yul\":4162:4165   */\n      dup3\n        /* \"#utility.yul\":4158:4172   */\n      add\n        /* \"#utility.yul\":4143:4172   */\n      swap1\n      pop\n        /* \"#utility.yul\":4009:4178   */\n      swap3\n      swap2\n      pop\n      pop\n      jump\t// out\n        /* \"#utility.yul\":4184:4261   */\n    tag_80:\n        /* \"#utility.yul\":4221:4228   */\n      0x00\n        /* \"#utility.yul\":4250:4255   */\n      dup2\n        /* \"#utility.yul\":4239:4255   */\n      swap1\n      pop\n        /* \"#utility.yul\":4184:4261   */\n      swap2\n      swap1\n      pop\n      jump\t// out\n        /* \"#utility.yul\":4267:4421   */\n    tag_40:\n        /* \"#utility.yul\":4351:4357   */\n      dup3\n        /* \"#utility.yul\":4346:4349   */\n      dup2\n        /* \"#utility.yul\":4341:4344   */\n      dup4\n        /* \"#utility.yul\":4328:4358   */\n      calldatacopy\n        /* \"#utility.yul\":4413:4414   */\n      0x00\n        /* \"#utility.yul\":4404:4410   */\n      dup4\n        /* \"#utility.yul\":4399:4402   */\n      dup4\n        /* \"#utility.yul\":4395:4411   */\n      add\n        /* \"#utility.yul\":4388:4415   */\n      mstore\n        /* \"#utility.yul\":4267:4421   */\n      pop\n      pop\n      pop\n      jump\t// out\n        /* \"#utility.yul\":4427:4734   */\n    tag_74:\n        /* \"#utility.yul\":4495:4496   */\n      0x00\n        /* \"#utility.yul\":4505:4618   */\n    tag_101:\n        /* \"#utility.yul\":4519:4525   */\n      dup4\n        /* \"#utility.yul\":4516:4517   */\n      dup2\n        /* \"#utility.yul\":4513:4526   */\n      lt\n        /* \"#utility.yul\":4505:4618   */\n      iszero\n      tag_103\n      jumpi\n        /* \"#utility.yul\":4604:4605   */\n      dup1\n        /* \"#utility.yul\":4599:4602   */\n      dup3\n        /* \"#utility.yul\":4595:4606   */\n      add\n        /* \"#utility.yul\":4589:4607   */\n      mload\n        /* \"#utility.yul\":4585:4586   */\n      dup2\n        /* \"#utility.yul\":4580:4583   */\n      dup5\n        /* \"#utility.yul\":4576:4587   */\n      add\n        /* \"#utility.yul\":4569:4608   */\n      mstore\n        /* \"#utility.yul\":4541:4543   */\n      0x20\n        /* \"#utility.yul\":4538:4539   */\n      dup2\n        /* \"#utility.yul\":4534:4544   */\n      add\n        /* \"#utility.yul\":4529:4544   */\n      swap1\n      pop\n        /* \"#utility.yul\":4505:4618   */\n      jump(tag_101)\n    tag_103:\n        /* \"#utility.yul\":4636:4642   */\n      dup4\n        /* \"#utility.yul\":4633:4634   */\n      dup2\n        /* \"#utility.yul\":4630:4643   */\n      gt\n        /* \"#utility.yul\":4627:4728   */\n      iszero\n      tag_104\n      jumpi\n        /* \"#utility.yul\":4716:4717   */\n      0x00\n        /* \"#utility.yul\":4707:4713   */\n      dup5\n        /* \"#utility.yul\":4702:4705   */\n      dup5\n        /* \"#utility.yul\":4698:4714   */\n      add\n        /* \"#utility.yul\":4691:4718   */\n      mstore\n        /* \"#utility.yul\":4627:4728   */\n    tag_104:\n        /* \"#utility.yul\":4476:4734   */\n      pop\n        /* \"#utility.yul\":4427:4734   */\n      pop\n      pop\n      pop\n      jump\t// out\n        /* \"#utility.yul\":4740:5060   */\n    tag_18:\n        /* \"#utility.yul\":4784:4790   */\n      0x00\n        /* \"#utility.yul\":4821:4822   */\n      0x02\n        /* \"#utility.yul\":4815:4819   */\n      dup3\n        /* \"#utility.yul\":4811:4823   */\n      div\n        /* \"#utility.yul\":4801:4823   */\n      swap1\n      pop\n        /* \"#utility.yul\":4868:4869   */\n      0x01\n        /* \"#utility.yul\":4862:4866   */\n      dup3\n        /* \"#utility.yul\":4858:4870   */\n      and\n        /* \"#utility.yul\":4889:4907   */\n      dup1\n        /* \"#utility.yul\":4879:4960   */\n      tag_106\n      jumpi\n        /* \"#utility.yul\":4945:4949   */\n      0x7f\n        /* \"#utility.yul\":4937:4943   */\n      dup3\n        /* \"#utility.yul\":4933:4950   */\n      and\n        /* \"#utility.yul\":4923:4950   */\n      swap2\n      pop\n        /* \"#utility.yul\":4879:4960   */\n    tag_106:\n        /* \"#utility.yul\":5007:5009   */\n      0x20\n        /* \"#utility.yul\":4999:5005   */\n      dup3\n        /* \"#utility.yul\":4996:5010   */\n      lt\n        /* \"#utility.yul\":4976:4994   */\n      dup2\n        /* \"#utility.yul\":4973:5011   */\n      eq\n        /* \"#utility.yul\":4970:5054   */\n      iszero\n      tag_107\n      jumpi\n        /* \"#utility.yul\":5026:5044   */\n      tag_108\n      tag_109\n      jump\t// in\n    tag_108:\n        /* \"#utility.yul\":4970:5054   */\n    tag_107:\n        /* \"#utility.yul\":4791:5060   */\n      pop\n        /* \"#utility.yul\":4740:5060   */\n      swap2\n      swap1\n      pop\n      jump\t// out\n        /* \"#utility.yul\":5066:5347   */\n    tag_89:\n        /* \"#utility.yul\":5149:5176   */\n      tag_111\n        /* \"#utility.yul\":5171:5175   */\n      dup3\n        /* \"#utility.yul\":5149:5176   */\n      tag_76\n      jump\t// in\n    tag_111:\n        /* \"#utility.yul\":5141:5147   */\n      dup2\n        /* \"#utility.yul\":5137:5177   */\n      add\n        /* \"#utility.yul\":5279:5285   */\n      dup2\n        /* \"#utility.yul\":5267:5277   */\n      dup2\n        /* \"#utility.yul\":5264:5286   */\n      lt\n        /* \"#utility.yul\":5243:5261   */\n      0xffffffffffffffff\n        /* \"#utility.yul\":5231:5241   */\n      dup3\n        /* \"#utility.yul\":5228:5262   */\n      gt\n        /* \"#utility.yul\":5225:5287   */\n      or\n        /* \"#utility.yul\":5222:5310   */\n      iszero\n      tag_112\n      jumpi\n        /* \"#utility.yul\":5290:5308   */\n      tag_113\n      tag_94\n      jump\t// in\n    tag_113:\n        /* \"#utility.yul\":5222:5310   */\n    tag_112:\n        /* \"#utility.yul\":5330:5340   */\n      dup1\n        /* \"#utility.yul\":5326:5328   */\n      0x40\n        /* \"#utility.yul\":5319:5341   */\n      mstore\n        /* \"#utility.yul\":5109:5347   */\n      pop\n        /* \"#utility.yul\":5066:5347   */\n      pop\n      pop\n      jump\t// out\n        /* \"#utility.yul\":5353:5533   */\n    tag_109:\n        /* \"#utility.yul\":5401:5478   */\n      0x4e487b7100000000000000000000000000000000000000000000000000000000\n        /* \"#utility.yul\":5398:5399   */\n      0x00\n        /* \"#utility.yul\":5391:5479   */\n      mstore\n        /* \"#utility.yul\":5498:5502   */\n      0x22\n        /* \"#utility.yul\":5495:5496   */\n      0x04\n        /* \"#utility.yul\":5488:5503   */\n      mstore\n        /* \"#utility.yul\":5522:5526   */\n      0x24\n        /* \"#utility.yul\":5519:5520   */\n      0x00\n        /* \"#utility.yul\":5512:5527   */\n      revert\n        /* \"#utility.yul\":5539:5719   */\n    tag_94:\n        /* \"#utility.yul\":5587:5664   */\n      0x4e487b7100000000000000000000000000000000000000000000000000000000\n        /* \"#utility.yul\":5584:5585   */\n      0x00\n        /* \"#utility.yul\":5577:5665   */\n      mstore\n        /* \"#utility.yul\":5684:5688   */\n      0x41\n        /* \"#utility.yul\":5681:5682   */\n      0x04\n        /* \"#utility.yul\":5674:5689   */\n      mstore\n        /* \"#utility.yul\":5708:5712   */\n      0x24\n        /* \"#utility.yul\":5705:5706   */\n      0x00\n        /* \"#utility.yul\":5698:5713   */\n      revert\n        /* \"#utility.yul\":5725:5842   */\n    tag_45:\n        /* \"#utility.yul\":5834:5835   */\n      0x00\n        /* \"#utility.yul\":5831:5832   */\n      dup1\n        /* \"#utility.yul\":5824:5836   */\n      revert\n        /* \"#utility.yul\":5848:5965   */\n    tag_38:\n        /* \"#utility.yul\":5957:5958   */\n      0x00\n        /* \"#utility.yul\":5954:5955   */\n      dup1\n        /* \"#utility.yul\":5947:5959   */\n      revert\n        /* \"#utility.yul\":5971:6088   */\n    tag_62:\n        /* \"#utility.yul\":6080:6081   */\n      0x00\n        /* \"#utility.yul\":6077:6078   */\n      dup1\n        /* \"#utility.yul\":6070:6082   */\n      revert\n        /* \"#utility.yul\":6094:6211   */\n    tag_54:\n        /* \"#utility.yul\":6203:6204   */\n      0x00\n        /* \"#utility.yul\":6200:6201   */\n      dup1\n        /* \"#utility.yul\":6193:6205   */\n      revert\n        /* \"#utility.yul\":6217:6319   */\n    tag_76:\n        /* \"#utility.yul\":6258:6264   */\n      0x00\n        /* \"#utility.yul\":6309:6311   */\n      0x1f\n        /* \"#utility.yul\":6305:6312   */\n      not\n        /* \"#utility.yul\":6300:6302   */\n      0x1f\n        /* \"#utility.yul\":6293:6298   */\n      dup4\n        /* \"#utility.yul\":6289:6303   */\n      add\n        /* \"#utility.yul\":6285:6313   */\n      and\n        /* \"#utility.yul\":6275:6313   */\n      swap1\n      pop\n        /* \"#utility.yul\":6217:6319   */\n      swap2\n      swap1\n      pop\n      jump\t// out\n        /* \"#utility.yul\":6325:6447   */\n    tag_50:\n        /* \"#utility.yul\":6398:6422   */\n      tag_122\n        /* \"#utility.yul\":6416:6421   */\n      dup2\n        /* \"#utility.yul\":6398:6422   */\n      tag_80\n      jump\t// in\n    tag_122:\n        /* \"#utility.yul\":6391:6396   */\n      dup2\n        /* \"#utility.yul\":6388:6423   */\n      eq\n        /* \"#utility.yul\":6378:6441   */\n      tag_123\n      jumpi\n        /* \"#utility.yul\":6437:6438   */\n      0x00\n        /* \"#utility.yul\":6434:6435   */\n      dup1\n        /* \"#utility.yul\":6427:6439   */\n      revert\n        /* \"#utility.yul\":6378:6441   */\n    tag_123:\n        /* \"#utility.yul\":6325:6447   */\n      pop\n      jump\t// out\n\n    auxdata: 0xa2646970667358221220012ca3928ab6a32f9d89fea3cf29e1a6b22c5f3f04640350201681bf8376c92a64736f6c63430008070033\n}\n",
				"bytecode": {
					"linkReferences": {},
					"object": "608060405234801561001057600080fd5b50610593806100206000396000f3fe608060405234801561001057600080fd5b50600436106100365760003560e01c806350b447121461003b578063cc8d34d01461006d575b600080fd5b6100556004803603810190610050919061025d565b610089565b6040516100649392919061035d565b60405180910390f35b6100876004803603810190610082919061028a565b6101d3565b005b6000818154811061009957600080fd5b90600052602060002090600302016000915090508060000154908060010180546100c290610460565b80601f01602080910402602001604051908101604052809291908181526020018280546100ee90610460565b801561013b5780601f106101105761010080835404028352916020019161013b565b820191906000526020600020905b81548152906001019060200180831161011e57829003601f168201915b50505050509080600201805461015090610460565b80601f016020809104026020016040519081016040528092919081815260200182805461017c90610460565b80156101c95780601f1061019e576101008083540402835291602001916101c9565b820191906000526020600020905b8154815290600101906020018083116101ac57829003601f168201915b5050505050905083565b505050565b60006101eb6101e6846103c7565b6103a2565b90508281526020810184848401111561020757610206610526565b5b61021284828561041e565b509392505050565b600082601f83011261022f5761022e610521565b5b813561023f8482602086016101d8565b91505092915050565b60008135905061025781610546565b92915050565b60006020828403121561027357610272610530565b5b600061028184828501610248565b91505092915050565b6000806000606084860312156102a3576102a2610530565b5b60006102b186828701610248565b935050602084013567ffffffffffffffff8111156102d2576102d161052b565b5b6102de8682870161021a565b925050604084013567ffffffffffffffff8111156102ff576102fe61052b565b5b61030b8682870161021a565b9150509250925092565b6000610320826103f8565b61032a8185610403565b935061033a81856020860161042d565b61034381610535565b840191505092915050565b61035781610414565b82525050565b6000606082019050610372600083018661034e565b81810360208301526103848185610315565b905081810360408301526103988184610315565b9050949350505050565b60006103ac6103bd565b90506103b88282610492565b919050565b6000604051905090565b600067ffffffffffffffff8211156103e2576103e16104f2565b5b6103eb82610535565b9050602081019050919050565b600081519050919050565b600082825260208201905092915050565b6000819050919050565b82818337600083830152505050565b60005b8381101561044b578082015181840152602081019050610430565b8381111561045a576000848401525b50505050565b6000600282049050600182168061047857607f821691505b6020821081141561048c5761048b6104c3565b5b50919050565b61049b82610535565b810181811067ffffffffffffffff821117156104ba576104b96104f2565b5b80604052505050565b7f4e487b7100000000000000000000000000000000000000000000000000000000600052602260045260246000fd5b7f4e487b7100000000000000000000000000000000000000000000000000000000600052604160045260246000fd5b600080fd5b600080fd5b600080fd5b600080fd5b6000601f19601f8301169050919050565b61054f81610414565b811461055a57600080fd5b5056fea2646970667358221220012ca3928ab6a32f9d89fea3cf29e1a6b22c5f3f04640350201681bf8376c92a64736f6c63430008070033",
					"opcodes": "PUSH1 0x80 PUSH1 0x40 MSTORE CALLVALUE DUP1 ISZERO PUSH2 0x10 JUMPI PUSH1 0x0 DUP1 REVERT JUMPDEST POP PUSH2 0x593 DUP1 PUSH2 0x20 PUSH1 0x0 CODECOPY PUSH1 0x0 RETURN INVALID PUSH1 0x80 PUSH1 0x40 MSTORE CALLVALUE DUP1 ISZERO PUSH2 0x10 JUMPI PUSH1 0x0 DUP1 REVERT JUMPDEST POP PUSH1 0x4 CALLDATASIZE LT PUSH2 0x36 JUMPI PUSH1 0x0 CALLDATALOAD PUSH1 0xE0 SHR DUP1 PUSH4 0x50B44712 EQ PUSH2 0x3B JUMPI DUP1 PUSH4 0xCC8D34D0 EQ PUSH2 0x6D JUMPI JUMPDEST PUSH1 0x0 DUP1 REVERT JUMPDEST PUSH2 0x55 PUSH1 0x4 DUP1 CALLDATASIZE SUB DUP2 ADD SWAP1 PUSH2 0x50 SWAP2 SWAP1 PUSH2 0x25D JUMP JUMPDEST PUSH2 0x89 JUMP JUMPDEST PUSH1 0x40 MLOAD PUSH2 0x64 SWAP4 SWAP3 SWAP2 SWAP1 PUSH2 0x35D JUMP JUMPDEST PUSH1 0x40 MLOAD DUP1 SWAP2 SUB SWAP1 RETURN JUMPDEST PUSH2 0x87 PUSH1 0x4 DUP1 CALLDATASIZE SUB DUP2 ADD SWAP1 PUSH2 0x82 SWAP2 SWAP1 PUSH2 0x28A JUMP JUMPDEST PUSH2 0x1D3 JUMP JUMPDEST STOP JUMPDEST PUSH1 0x0 DUP2 DUP2 SLOAD DUP2 LT PUSH2 0x99 JUMPI PUSH1 0x0 DUP1 REVERT JUMPDEST SWAP1 PUSH1 0x0 MSTORE PUSH1 0x20 PUSH1 0x0 KECCAK256 SWAP1 PUSH1 0x3 MUL ADD PUSH1 0x0 SWAP2 POP SWAP1 POP DUP1 PUSH1 0x0 ADD SLOAD SWAP1 DUP1 PUSH1 0x1 ADD DUP1 SLOAD PUSH2 0xC2 SWAP1 PUSH2 0x460 JUMP JUMPDEST DUP1 PUSH1 0x1F ADD PUSH1 0x20 DUP1 SWAP2 DIV MUL PUSH1 0x20 ADD PUSH1 0x40 MLOAD SWAP1 DUP2 ADD PUSH1 0x40 MSTORE DUP1 SWAP3 SWAP2 SWAP1 DUP2 DUP2 MSTORE PUSH1 0x20 ADD DUP3 DUP1 SLOAD PUSH2 0xEE SWAP1 PUSH2 0x460 JUMP JUMPDEST DUP1 ISZERO PUSH2 0x13B JUMPI DUP1 PUSH1 0x1F LT PUSH2 0x110 JUMPI PUSH2 0x100 DUP1 DUP4 SLOAD DIV MUL DUP4 MSTORE SWAP2 PUSH1 0x20 ADD SWAP2 PUSH2 0x13B JUMP JUMPDEST DUP3 ADD SWAP2 SWAP1 PUSH1 0x0 MSTORE PUSH1 0x20 PUSH1 0x0 KECCAK256 SWAP1 JUMPDEST DUP2 SLOAD DUP2 MSTORE SWAP1 PUSH1 0x1 ADD SWAP1 PUSH1 0x20 ADD DUP1 DUP4 GT PUSH2 0x11E JUMPI DUP3 SWAP1 SUB PUSH1 0x1F AND DUP3 ADD SWAP2 JUMPDEST POP POP POP POP POP SWAP1 DUP1 PUSH1 0x2 ADD DUP1 SLOAD PUSH2 0x150 SWAP1 PUSH2 0x460 JUMP JUMPDEST DUP1 PUSH1 0x1F ADD PUSH1 0x20 DUP1 SWAP2 DIV MUL PUSH1 0x20 ADD PUSH1 0x40 MLOAD SWAP1 DUP2 ADD PUSH1 0x40 MSTORE DUP1 SWAP3 SWAP2 SWAP1 DUP2 DUP2 MSTORE PUSH1 0x20 ADD DUP3 DUP1 SLOAD PUSH2 0x17C SWAP1 PUSH2 0x460 JUMP JUMPDEST DUP1 ISZERO PUSH2 0x1C9 JUMPI DUP1 PUSH1 0x1F LT PUSH2 0x19E JUMPI PUSH2 0x100 DUP1 DUP4 SLOAD DIV MUL DUP4 MSTORE SWAP2 PUSH1 0x20 ADD SWAP2 PUSH2 0x1C9 JUMP JUMPDEST DUP3 ADD SWAP2 SWAP1 PUSH1 0x0 MSTORE PUSH1 0x20 PUSH1 0x0 KECCAK256 SWAP1 JUMPDEST DUP2 SLOAD DUP2 MSTORE SWAP1 PUSH1 0x1 ADD SWAP1 PUSH1 0x20 ADD DUP1 DUP4 GT PUSH2 0x1AC JUMPI DUP3 SWAP1 SUB PUSH1 0x1F AND DUP3 ADD SWAP2 JUMPDEST POP POP POP POP POP SWAP1 POP DUP4 JUMP JUMPDEST POP POP POP JUMP JUMPDEST PUSH1 0x0 PUSH2 0x1EB PUSH2 0x1E6 DUP5 PUSH2 0x3C7 JUMP JUMPDEST PUSH2 0x3A2 JUMP JUMPDEST SWAP1 POP DUP3 DUP2 MSTORE PUSH1 0x20 DUP2 ADD DUP5 DUP5 DUP5 ADD GT ISZERO PUSH2 0x207 JUMPI PUSH2 0x206 PUSH2 0x526 JUMP JUMPDEST JUMPDEST PUSH2 0x212 DUP5 DUP3 DUP6 PUSH2 0x41E JUMP JUMPDEST POP SWAP4 SWAP3 POP POP POP JUMP JUMPDEST PUSH1 0x0 DUP3 PUSH1 0x1F DUP4 ADD SLT PUSH2 0x22F JUMPI PUSH2 0x22E PUSH2 0x521 JUMP JUMPDEST JUMPDEST DUP2 CALLDATALOAD PUSH2 0x23F DUP5 DUP3 PUSH1 0x20 DUP7 ADD PUSH2 0x1D8 JUMP JUMPDEST SWAP2 POP POP SWAP3 SWAP2 POP POP JUMP JUMPDEST PUSH1 0x0 DUP2 CALLDATALOAD SWAP1 POP PUSH2 0x257 DUP2 PUSH2 0x546 JUMP JUMPDEST SWAP3 SWAP2 POP POP JUMP JUMPDEST PUSH1 0x0 PUSH1 0x20 DUP3 DUP5 SUB SLT ISZERO PUSH2 0x273 JUMPI PUSH2 0x272 PUSH2 0x530 JUMP JUMPDEST JUMPDEST PUSH1 0x0 PUSH2 0x281 DUP5 DUP3 DUP6 ADD PUSH2 0x248 JUMP JUMPDEST SWAP2 POP POP SWAP3 SWAP2 POP POP JUMP JUMPDEST PUSH1 0x0 DUP1 PUSH1 0x0 PUSH1 0x60 DUP5 DUP7 SUB SLT ISZERO PUSH2 0x2A3 JUMPI PUSH2 0x2A2 PUSH2 0x530 JUMP JUMPDEST JUMPDEST PUSH1 0x0 PUSH2 0x2B1 DUP7 DUP3 DUP8 ADD PUSH2 0x248 JUMP JUMPDEST SWAP4 POP POP PUSH1 0x20 DUP5 ADD CALLDATALOAD PUSH8 0xFFFFFFFFFFFFFFFF DUP2 GT ISZERO PUSH2 0x2D2 JUMPI PUSH2 0x2D1 PUSH2 0x52B JUMP JUMPDEST JUMPDEST PUSH2 0x2DE DUP7 DUP3 DUP8 ADD PUSH2 0x21A JUMP JUMPDEST SWAP3 POP POP PUSH1 0x40 DUP5 ADD CALLDATALOAD PUSH8 0xFFFFFFFFFFFFFFFF DUP2 GT ISZERO PUSH2 0x2FF JUMPI PUSH2 0x2FE PUSH2 0x52B JUMP JUMPDEST JUMPDEST PUSH2 0x30B DUP7 DUP3 DUP8 ADD PUSH2 0x21A JUMP JUMPDEST SWAP2 POP POP SWAP3 POP SWAP3 POP SWAP3 JUMP JUMPDEST PUSH1 0x0 PUSH2 0x320 DUP3 PUSH2 0x3F8 JUMP JUMPDEST PUSH2 0x32A DUP2 DUP6 PUSH2 0x403 JUMP JUMPDEST SWAP4 POP PUSH2 0x33A DUP2 DUP6 PUSH1 0x20 DUP7 ADD PUSH2 0x42D JUMP JUMPDEST PUSH2 0x343 DUP2 PUSH2 0x535 JUMP JUMPDEST DUP5 ADD SWAP2 POP POP SWAP3 SWAP2 POP POP JUMP JUMPDEST PUSH2 0x357 DUP2 PUSH2 0x414 JUMP JUMPDEST DUP3 MSTORE POP POP JUMP JUMPDEST PUSH1 0x0 PUSH1 0x60 DUP3 ADD SWAP1 POP PUSH2 0x372 PUSH1 0x0 DUP4 ADD DUP7 PUSH2 0x34E JUMP JUMPDEST DUP2 DUP2 SUB PUSH1 0x20 DUP4 ADD MSTORE PUSH2 0x384 DUP2 DUP6 PUSH2 0x315 JUMP JUMPDEST SWAP1 POP DUP2 DUP2 SUB PUSH1 0x40 DUP4 ADD MSTORE PUSH2 0x398 DUP2 DUP5 PUSH2 0x315 JUMP JUMPDEST SWAP1 POP SWAP5 SWAP4 POP POP POP POP JUMP JUMPDEST PUSH1 0x0 PUSH2 0x3AC PUSH2 0x3BD JUMP JUMPDEST SWAP1 POP PUSH2 0x3B8 DUP3 DUP3 PUSH2 0x492 JUMP JUMPDEST SWAP2 SWAP1 POP JUMP JUMPDEST PUSH1 0x0 PUSH1 0x40 MLOAD SWAP1 POP SWAP1 JUMP JUMPDEST PUSH1 0x0 PUSH8 0xFFFFFFFFFFFFFFFF DUP3 GT ISZERO PUSH2 0x3E2 JUMPI PUSH2 0x3E1 PUSH2 0x4F2 JUMP JUMPDEST JUMPDEST PUSH2 0x3EB DUP3 PUSH2 0x535 JUMP JUMPDEST SWAP1 POP PUSH1 0x20 DUP2 ADD SWAP1 POP SWAP2 SWAP1 POP JUMP JUMPDEST PUSH1 0x0 DUP2 MLOAD SWAP1 POP SWAP2 SWAP1 POP JUMP JUMPDEST PUSH1 0x0 DUP3 DUP3 MSTORE PUSH1 0x20 DUP3 ADD SWAP1 POP SWAP3 SWAP2 POP POP JUMP JUMPDEST PUSH1 0x0 DUP2 SWAP1 POP SWAP2 SWAP1 POP JUMP JUMPDEST DUP3 DUP2 DUP4 CALLDATACOPY PUSH1 0x0 DUP4 DUP4 ADD MSTORE POP POP POP JUMP JUMPDEST PUSH1 0x0 JUMPDEST DUP4 DUP2 LT ISZERO PUSH2 0x44B JUMPI DUP1 DUP3 ADD MLOAD DUP2 DUP5 ADD MSTORE PUSH1 0x20 DUP2 ADD SWAP1 POP PUSH2 0x430 JUMP JUMPDEST DUP4 DUP2 GT ISZERO PUSH2 0x45A JUMPI PUSH1 0x0 DUP5 DUP5 ADD MSTORE JUMPDEST POP POP POP POP JUMP JUMPDEST PUSH1 0x0 PUSH1 0x2 DUP3 DIV SWAP1 POP PUSH1 0x1 DUP3 AND DUP1 PUSH2 0x478 JUMPI PUSH1 0x7F DUP3 AND SWAP2 POP JUMPDEST PUSH1 0x20 DUP3 LT DUP2 EQ ISZERO PUSH2 0x48C JUMPI PUSH2 0x48B PUSH2 0x4C3 JUMP JUMPDEST JUMPDEST POP SWAP2 SWAP1 POP JUMP JUMPDEST PUSH2 0x49B DUP3 PUSH2 0x535 JUMP JUMPDEST DUP2 ADD DUP2 DUP2 LT PUSH8 0xFFFFFFFFFFFFFFFF DUP3 GT OR ISZERO PUSH2 0x4BA JUMPI PUSH2 0x4B9 PUSH2 0x4F2 JUMP JUMPDEST JUMPDEST DUP1 PUSH1 0x40 MSTORE POP POP POP JUMP JUMPDEST PUSH32 0x4E487B7100000000000000000000000000000000000000000000000000000000 PUSH1 0x0 MSTORE PUSH1 0x22 PUSH1 0x4 MSTORE PUSH1 0x24 PUSH1 0x0 REVERT JUMPDEST PUSH32 0x4E487B7100000000000000000000000000000000000000000000000000000000 PUSH1 0x0 MSTORE PUSH1 0x41 PUSH1 0x4 MSTORE PUSH1 0x24 PUSH1 0x0 REVERT JUMPDEST PUSH1 0x0 DUP1 REVERT JUMPDEST PUSH1 0x0 DUP1 REVERT JUMPDEST PUSH1 0x0 DUP1 REVERT JUMPDEST PUSH1 0x0 DUP1 REVERT JUMPDEST PUSH1 0x0 PUSH1 0x1F NOT PUSH1 0x1F DUP4 ADD AND SWAP1 POP SWAP2 SWAP1 POP JUMP JUMPDEST PUSH2 0x54F DUP2 PUSH2 0x414 JUMP JUMPDEST DUP2 EQ PUSH2 0x55A JUMPI PUSH1 0x0 DUP1 REVERT JUMPDEST POP JUMP INVALID LOG2 PUSH5 0x6970667358 0x22 SLT KECCAK256 ADD 0x2C LOG3 SWAP3 DUP11 0xB6 LOG3 0x2F SWAP14 DUP10 INVALID LOG3 0xCF 0x29 0xE1 0xA6 0xB2 0x2C 0x5F EXTCODEHASH DIV PUSH5 0x350201681 0xBF DUP4 PUSH23 0xC92A64736F6C6343000807003300000000000000000000 "
				},
				"gasEstimates": {
					"creation": {
						"codeDepositCost": "285400",
						"executionCost": "324",
						"totalCost": "285724"
					},
					"external": {
						"createTicket(uint256,string,string)": "infinite",
						"tickets(uint256)": "infinite"
					}
				},
				"methodIdentifiers": {
					"createTicket(uint256,string,string)": "cc8d34d0",
					"tickets(uint256)": "50b44712"
				}
			},
			"storageLayout": {
				"storage": [
					{
						"astId": 12,
						"contract": "contracts/CreateTicket.sol:NewTicket",
						"label": "tickets",
						"offset": 0,
						"slot": "0",
						"type": "t_array(t_struct(Ticket)8_storage)dyn_storage"
					}
				],
				"types": {
					"t_array(t_struct(Ticket)8_storage)dyn_storage": {
						"base": "t_struct(Ticket)8_storage",
						"encoding": "dynamic_array",
						"label": "struct NewTicket.Ticket[]",
						"numberOfBytes": "32"
					},
					"t_string_storage": {
						"encoding": "bytes",
						"label": "string",
						"numberOfBytes": "32"
					},
					"t_struct(Ticket)8_storage": {
						"encoding": "inplace",
						"label": "struct NewTicket.Ticket",
						"members": [
							{
								"astId": 3,
								"contract": "contracts/CreateTicket.sol:NewTicket",
								"label": "refNo",
								"offset": 0,
								"slot": "0",
								"type": "t_uint256"
							},
							{
								"astId": 5,
								"contract": "contracts/CreateTicket.sol:NewTicket",
								"label": "authority",
								"offset": 0,
								"slot": "1",
								"type": "t_string_storage"
							},
							{
								"astId": 7,
								"contract": "contracts/CreateTicket.sol:NewTicket",
								"label": "link",
								"offset": 0,
								"slot": "2",
								"type": "t_string_storage"
							}
						],
						"numberOfBytes": "96"
					},
					"t_uint256": {
						"encoding": "inplace",
						"label": "uint256",
						"numberOfBytes": "32"
					}
				}
			},
			"userdoc": {
				"kind": "user",
				"methods": {},
				"version": 1
			}
		}
	}
}