{
	"contracts/CreateTicket.sol": {
		"NewTicket": {
			"abi": [
				{
					"anonymous": false,
					"inputs": [
						{
							"indexed": false,
							"internalType": "uint256",
							"name": "ticketId",
							"type": "uint256"
						},
						{
							"indexed": false,
							"internalType": "uint256",
							"name": "refNo",
							"type": "uint256"
						},
						{
							"indexed": false,
							"internalType": "address",
							"name": "authority",
							"type": "address"
						},
						{
							"indexed": false,
							"internalType": "string",
							"name": "link",
							"type": "string"
						}
					],
					"name": "ticketCreated",
					"type": "event"
				},
				{
					"inputs": [
						{
							"internalType": "address",
							"name": "_authority",
							"type": "address"
						},
						{
							"internalType": "string",
							"name": "_link",
							"type": "string"
						}
					],
					"name": "createNewTicket",
					"outputs": [],
					"stateMutability": "nonpayable",
					"type": "function"
				},
				{
					"inputs": [
						{
							"internalType": "address",
							"name": "",
							"type": "address"
						}
					],
					"name": "tickerUnderAuthority",
					"outputs": [
						{
							"internalType": "uint256",
							"name": "",
							"type": "uint256"
						}
					],
					"stateMutability": "view",
					"type": "function"
				},
				{
					"inputs": [
						{
							"internalType": "uint256",
							"name": "",
							"type": "uint256"
						}
					],
					"name": "ticketStatus",
					"outputs": [
						{
							"internalType": "bool",
							"name": "",
							"type": "bool"
						}
					],
					"stateMutability": "view",
					"type": "function"
				},
				{
					"inputs": [
						{
							"internalType": "uint256",
							"name": "",
							"type": "uint256"
						}
					],
					"name": "ticketToOwner",
					"outputs": [
						{
							"internalType": "address",
							"name": "",
							"type": "address"
						}
					],
					"stateMutability": "view",
					"type": "function"
				},
				{
					"inputs": [
						{
							"internalType": "uint256",
							"name": "",
							"type": "uint256"
						}
					],
					"name": "tickets",
					"outputs": [
						{
							"internalType": "uint256",
							"name": "refNo",
							"type": "uint256"
						},
						{
							"internalType": "address",
							"name": "authority",
							"type": "address"
						},
						{
							"internalType": "string",
							"name": "link",
							"type": "string"
						}
					],
					"stateMutability": "view",
					"type": "function"
				}
			],
			"devdoc": {
				"kind": "dev",
				"methods": {},
				"version": 1
			},
			"evm": {
				"assembly": "    /* \"contracts/CreateTicket.sol\":70:1178  contract NewTicket {\r... */\n  mstore(0x40, 0x80)\n  callvalue\n  dup1\n  iszero\n  tag_1\n  jumpi\n  0x00\n  dup1\n  revert\ntag_1:\n  pop\n  dataSize(sub_0)\n  dup1\n  dataOffset(sub_0)\n  0x00\n  codecopy\n  0x00\n  return\nstop\n\nsub_0: assembly {\n        /* \"contracts/CreateTicket.sol\":70:1178  contract NewTicket {\r... */\n      mstore(0x40, 0x80)\n      callvalue\n      dup1\n      iszero\n      tag_1\n      jumpi\n      0x00\n      dup1\n      revert\n    tag_1:\n      pop\n      jumpi(tag_2, lt(calldatasize, 0x04))\n      shr(0xe0, calldataload(0x00))\n      dup1\n      0x0607be1b\n      eq\n      tag_3\n      jumpi\n      dup1\n      0x2b08e824\n      eq\n      tag_4\n      jumpi\n      dup1\n      0x3c518dd3\n      eq\n      tag_5\n      jumpi\n      dup1\n      0x50b44712\n      eq\n      tag_6\n      jumpi\n      dup1\n      0x8ce7e461\n      eq\n      tag_7\n      jumpi\n    tag_2:\n      0x00\n      dup1\n      revert\n        /* \"contracts/CreateTicket.sol\":370:422  mapping(address => uint) public tickerUnderAuthority */\n    tag_3:\n      tag_8\n      0x04\n      dup1\n      calldatasize\n      sub\n      dup2\n      add\n      swap1\n      tag_9\n      swap2\n      swap1\n      tag_10\n      jump\t// in\n    tag_9:\n      tag_11\n      jump\t// in\n    tag_8:\n      mload(0x40)\n      tag_12\n      swap2\n      swap1\n      tag_13\n      jump\t// in\n    tag_12:\n      mload(0x40)\n      dup1\n      swap2\n      sub\n      swap1\n      return\n        /* \"contracts/CreateTicket.sol\":318:363  mapping(uint => address) public ticketToOwner */\n    tag_4:\n      tag_14\n      0x04\n      dup1\n      calldatasize\n      sub\n      dup2\n      add\n      swap1\n      tag_15\n      swap2\n      swap1\n      tag_16\n      jump\t// in\n    tag_15:\n      tag_17\n      jump\t// in\n    tag_14:\n      mload(0x40)\n      tag_18\n      swap2\n      swap1\n      tag_19\n      jump\t// in\n    tag_18:\n      mload(0x40)\n      dup1\n      swap2\n      sub\n      swap1\n      return\n        /* \"contracts/CreateTicket.sol\":1000:1175  function createNewTicket(address _authority, string memory _link) public {\r... */\n    tag_5:\n      tag_20\n      0x04\n      dup1\n      calldatasize\n      sub\n      dup2\n      add\n      swap1\n      tag_21\n      swap2\n      swap1\n      tag_22\n      jump\t// in\n    tag_21:\n      tag_23\n      jump\t// in\n    tag_20:\n      stop\n        /* \"contracts/CreateTicket.sol\":286:309  Ticket[] public tickets */\n    tag_6:\n      tag_24\n      0x04\n      dup1\n      calldatasize\n      sub\n      dup2\n      add\n      swap1\n      tag_25\n      swap2\n      swap1\n      tag_16\n      jump\t// in\n    tag_25:\n      tag_26\n      jump\t// in\n    tag_24:\n      mload(0x40)\n      tag_27\n      swap4\n      swap3\n      swap2\n      swap1\n      tag_28\n      jump\t// in\n    tag_27:\n      mload(0x40)\n      dup1\n      swap2\n      sub\n      swap1\n      return\n        /* \"contracts/CreateTicket.sol\":429:470  mapping(uint => bool) public ticketStatus */\n    tag_7:\n      tag_29\n      0x04\n      dup1\n      calldatasize\n      sub\n      dup2\n      add\n      swap1\n      tag_30\n      swap2\n      swap1\n      tag_16\n      jump\t// in\n    tag_30:\n      tag_31\n      jump\t// in\n    tag_29:\n      mload(0x40)\n      tag_32\n      swap2\n      swap1\n      tag_33\n      jump\t// in\n    tag_32:\n      mload(0x40)\n      dup1\n      swap2\n      sub\n      swap1\n      return\n        /* \"contracts/CreateTicket.sol\":370:422  mapping(address => uint) public tickerUnderAuthority */\n    tag_11:\n      mstore(0x20, 0x02)\n      dup1\n      0x00\n      mstore\n      keccak256(0x00, 0x40)\n      0x00\n      swap2\n      pop\n      swap1\n      pop\n      sload\n      dup2\n      jump\t// out\n        /* \"contracts/CreateTicket.sol\":318:363  mapping(uint => address) public ticketToOwner */\n    tag_17:\n      mstore(0x20, 0x01)\n      dup1\n      0x00\n      mstore\n      keccak256(0x00, 0x40)\n      0x00\n      swap2\n      pop\n      sload\n      swap1\n      0x0100\n      exp\n      swap1\n      div\n      0xffffffffffffffffffffffffffffffffffffffff\n      and\n      dup2\n      jump\t// out\n        /* \"contracts/CreateTicket.sol\":1000:1175  function createNewTicket(address _authority, string memory _link) public {\r... */\n    tag_23:\n        /* \"contracts/CreateTicket.sol\":1084:1094  uint RefNo */\n      0x00\n        /* \"contracts/CreateTicket.sol\":1097:1117  generateRefNo(_link) */\n      tag_35\n        /* \"contracts/CreateTicket.sol\":1111:1116  _link */\n      dup3\n        /* \"contracts/CreateTicket.sol\":1097:1110  generateRefNo */\n      tag_36\n        /* \"contracts/CreateTicket.sol\":1097:1117  generateRefNo(_link) */\n      jump\t// in\n    tag_35:\n        /* \"contracts/CreateTicket.sol\":1084:1117  uint RefNo = generateRefNo(_link) */\n      swap1\n      pop\n        /* \"contracts/CreateTicket.sol\":1128:1167  _createTicket(RefNo, _authority, _link) */\n      tag_37\n        /* \"contracts/CreateTicket.sol\":1142:1147  RefNo */\n      dup2\n        /* \"contracts/CreateTicket.sol\":1149:1159  _authority */\n      dup5\n        /* \"contracts/CreateTicket.sol\":1161:1166  _link */\n      dup5\n        /* \"contracts/CreateTicket.sol\":1128:1141  _createTicket */\n      tag_38\n        /* \"contracts/CreateTicket.sol\":1128:1167  _createTicket(RefNo, _authority, _link) */\n      jump\t// in\n    tag_37:\n        /* \"contracts/CreateTicket.sol\":1073:1175  {\r... */\n      pop\n        /* \"contracts/CreateTicket.sol\":1000:1175  function createNewTicket(address _authority, string memory _link) public {\r... */\n      pop\n      pop\n      jump\t// out\n        /* \"contracts/CreateTicket.sol\":286:309  Ticket[] public tickets */\n    tag_26:\n      0x00\n      dup2\n      dup2\n      sload\n      dup2\n      lt\n      tag_39\n      jumpi\n      0x00\n      dup1\n      revert\n    tag_39:\n      swap1\n      0x00\n      mstore\n      keccak256(0x00, 0x20)\n      swap1\n      0x03\n      mul\n      add\n      0x00\n      swap2\n      pop\n      swap1\n      pop\n      dup1\n      0x00\n      add\n      sload\n      swap1\n      dup1\n      0x01\n      add\n      0x00\n      swap1\n      sload\n      swap1\n      0x0100\n      exp\n      swap1\n      div\n      0xffffffffffffffffffffffffffffffffffffffff\n      and\n      swap1\n      dup1\n      0x02\n      add\n      dup1\n      sload\n      tag_41\n      swap1\n      tag_42\n      jump\t// in\n    tag_41:\n      dup1\n      0x1f\n      add\n      0x20\n      dup1\n      swap2\n      div\n      mul\n      0x20\n      add\n      mload(0x40)\n      swap1\n      dup2\n      add\n      0x40\n      mstore\n      dup1\n      swap3\n      swap2\n      swap1\n      dup2\n      dup2\n      mstore\n      0x20\n      add\n      dup3\n      dup1\n      sload\n      tag_43\n      swap1\n      tag_42\n      jump\t// in\n    tag_43:\n      dup1\n      iszero\n      tag_44\n      jumpi\n      dup1\n      0x1f\n      lt\n      tag_45\n      jumpi\n      0x0100\n      dup1\n      dup4\n      sload\n      div\n      mul\n      dup4\n      mstore\n      swap2\n      0x20\n      add\n      swap2\n      jump(tag_44)\n    tag_45:\n      dup3\n      add\n      swap2\n      swap1\n      0x00\n      mstore\n      keccak256(0x00, 0x20)\n      swap1\n    tag_46:\n      dup2\n      sload\n      dup2\n      mstore\n      swap1\n      0x01\n      add\n      swap1\n      0x20\n      add\n      dup1\n      dup4\n      gt\n      tag_46\n      jumpi\n      dup3\n      swap1\n      sub\n      0x1f\n      and\n      dup3\n      add\n      swap2\n    tag_44:\n      pop\n      pop\n      pop\n      pop\n      pop\n      swap1\n      pop\n      dup4\n      jump\t// out\n        /* \"contracts/CreateTicket.sol\":429:470  mapping(uint => bool) public ticketStatus */\n    tag_31:\n      mstore(0x20, 0x03)\n      dup1\n      0x00\n      mstore\n      keccak256(0x00, 0x40)\n      0x00\n      swap2\n      pop\n      sload\n      swap1\n      0x0100\n      exp\n      swap1\n      div\n      0xff\n      and\n      dup2\n      jump\t// out\n        /* \"contracts/CreateTicket.sol\":821:992  function generateRefNo(string memory _str) private view returns (uint) {\r... */\n    tag_36:\n        /* \"contracts/CreateTicket.sol\":886:890  uint */\n      0x00\n        /* \"contracts/CreateTicket.sol\":903:916  uint NewRefNo */\n      dup1\n        /* \"contracts/CreateTicket.sol\":951:955  _str */\n      dup3\n        /* \"contracts/CreateTicket.sol\":934:956  abi.encodePacked(_str) */\n      add(0x20, mload(0x40))\n      tag_48\n      swap2\n      swap1\n      tag_49\n      jump\t// in\n    tag_48:\n      mload(0x40)\n      0x20\n      dup2\n      dup4\n      sub\n      sub\n      dup2\n      mstore\n      swap1\n      0x40\n      mstore\n        /* \"contracts/CreateTicket.sol\":924:957  keccak256(abi.encodePacked(_str)) */\n      dup1\n      mload\n      swap1\n      0x20\n      add\n      keccak256\n        /* \"contracts/CreateTicket.sol\":919:958  uint(keccak256(abi.encodePacked(_str))) */\n      0x00\n      shr\n        /* \"contracts/CreateTicket.sol\":903:958  uint NewRefNo = uint(keccak256(abi.encodePacked(_str))) */\n      swap1\n      pop\n        /* \"contracts/CreateTicket.sol\":976:984  NewRefNo */\n      dup1\n        /* \"contracts/CreateTicket.sol\":969:984  return NewRefNo */\n      swap2\n      pop\n      pop\n        /* \"contracts/CreateTicket.sol\":821:992  function generateRefNo(string memory _str) private view returns (uint) {\r... */\n      swap2\n      swap1\n      pop\n      jump\t// out\n        /* \"contracts/CreateTicket.sol\":521:813  function _createTicket(uint _refNo, address _authority, string memory _link) private { \r... */\n    tag_38:\n        /* \"contracts/CreateTicket.sol\":618:625  tickets */\n      0x00\n        /* \"contracts/CreateTicket.sol\":631:664  Ticket(_refNo, _authority, _link) */\n      mload(0x40)\n      dup1\n      0x60\n      add\n      0x40\n      mstore\n      dup1\n        /* \"contracts/CreateTicket.sol\":638:644  _refNo */\n      dup6\n        /* \"contracts/CreateTicket.sol\":631:664  Ticket(_refNo, _authority, _link) */\n      dup2\n      mstore\n      0x20\n      add\n        /* \"contracts/CreateTicket.sol\":646:656  _authority */\n      dup5\n        /* \"contracts/CreateTicket.sol\":631:664  Ticket(_refNo, _authority, _link) */\n      0xffffffffffffffffffffffffffffffffffffffff\n      and\n      dup2\n      mstore\n      0x20\n      add\n        /* \"contracts/CreateTicket.sol\":658:663  _link */\n      dup4\n        /* \"contracts/CreateTicket.sol\":631:664  Ticket(_refNo, _authority, _link) */\n      dup2\n      mstore\n      pop\n        /* \"contracts/CreateTicket.sol\":618:665  tickets.push(Ticket(_refNo, _authority, _link)) */\n      swap1\n      dup1\n      0x01\n      dup2\n      sload\n      add\n      dup1\n      dup3\n      sstore\n      dup1\n      swap2\n      pop\n      pop\n      0x01\n      swap1\n      sub\n      swap1\n      0x00\n      mstore\n      keccak256(0x00, 0x20)\n      swap1\n      0x03\n      mul\n      add\n      0x00\n      swap1\n      swap2\n      swap1\n      swap2\n      swap1\n      swap2\n      pop\n      0x00\n      dup3\n      add\n      mload\n      dup2\n      0x00\n      add\n      sstore\n      0x20\n      dup3\n      add\n      mload\n      dup2\n      0x01\n      add\n      exp(0x0100, 0x00)\n      dup2\n      sload\n      dup2\n      0xffffffffffffffffffffffffffffffffffffffff\n      mul\n      not\n      and\n      swap1\n      dup4\n      0xffffffffffffffffffffffffffffffffffffffff\n      and\n      mul\n      or\n      swap1\n      sstore\n      pop\n      0x40\n      dup3\n      add\n      mload\n      dup2\n      0x02\n      add\n      swap1\n      dup1\n      mload\n      swap1\n      0x20\n      add\n      swap1\n      tag_52\n      swap3\n      swap2\n      swap1\n      tag_53\n      jump\t// in\n    tag_52:\n      pop\n      pop\n      pop\n        /* \"contracts/CreateTicket.sol\":676:683  uint Id */\n      0x00\n        /* \"contracts/CreateTicket.sol\":686:693  tickets */\n      dup1\n        /* \"contracts/CreateTicket.sol\":686:700  tickets.length */\n      dup1\n      sload\n      swap1\n      pop\n        /* \"contracts/CreateTicket.sol\":676:700  uint Id = tickets.length */\n      swap1\n      pop\n        /* \"contracts/CreateTicket.sol\":735:745  msg.sender */\n      caller\n        /* \"contracts/CreateTicket.sol\":711:724  ticketToOwner */\n      0x01\n        /* \"contracts/CreateTicket.sol\":711:732  ticketToOwner[_refNo] */\n      0x00\n        /* \"contracts/CreateTicket.sol\":725:731  _refNo */\n      dup7\n        /* \"contracts/CreateTicket.sol\":711:732  ticketToOwner[_refNo] */\n      dup2\n      mstore\n      0x20\n      add\n      swap1\n      dup2\n      mstore\n      0x20\n      add\n      0x00\n      keccak256\n      0x00\n        /* \"contracts/CreateTicket.sol\":711:745  ticketToOwner[_refNo] = msg.sender */\n      0x0100\n      exp\n      dup2\n      sload\n      dup2\n      0xffffffffffffffffffffffffffffffffffffffff\n      mul\n      not\n      and\n      swap1\n      dup4\n      0xffffffffffffffffffffffffffffffffffffffff\n      and\n      mul\n      or\n      swap1\n      sstore\n      pop\n        /* \"contracts/CreateTicket.sol\":761:805  ticketCreated(Id, _refNo, _authority, _link) */\n      0x5c6cbfb13057ca1c92859b5ecb3c56b42131a7a5ac1a570d12f8cf875fcff98b\n        /* \"contracts/CreateTicket.sol\":775:777  Id */\n      dup2\n        /* \"contracts/CreateTicket.sol\":779:785  _refNo */\n      dup6\n        /* \"contracts/CreateTicket.sol\":787:797  _authority */\n      dup6\n        /* \"contracts/CreateTicket.sol\":799:804  _link */\n      dup6\n        /* \"contracts/CreateTicket.sol\":761:805  ticketCreated(Id, _refNo, _authority, _link) */\n      mload(0x40)\n      tag_54\n      swap5\n      swap4\n      swap3\n      swap2\n      swap1\n      tag_55\n      jump\t// in\n    tag_54:\n      mload(0x40)\n      dup1\n      swap2\n      sub\n      swap1\n      log1\n        /* \"contracts/CreateTicket.sol\":606:813  { \r... */\n      pop\n        /* \"contracts/CreateTicket.sol\":521:813  function _createTicket(uint _refNo, address _authority, string memory _link) private { \r... */\n      pop\n      pop\n      pop\n      jump\t// out\n    tag_53:\n      dup3\n      dup1\n      sload\n      tag_56\n      swap1\n      tag_42\n      jump\t// in\n    tag_56:\n      swap1\n      0x00\n      mstore\n      keccak256(0x00, 0x20)\n      swap1\n      0x1f\n      add\n      0x20\n      swap1\n      div\n      dup2\n      add\n      swap3\n      dup3\n      tag_58\n      jumpi\n      0x00\n      dup6\n      sstore\n      jump(tag_57)\n    tag_58:\n      dup3\n      0x1f\n      lt\n      tag_59\n      jumpi\n      dup1\n      mload\n      not(0xff)\n      and\n      dup4\n      dup1\n      add\n      or\n      dup6\n      sstore\n      jump(tag_57)\n    tag_59:\n      dup3\n      dup1\n      add\n      0x01\n      add\n      dup6\n      sstore\n      dup3\n      iszero\n      tag_57\n      jumpi\n      swap2\n      dup3\n      add\n    tag_60:\n      dup3\n      dup2\n      gt\n      iszero\n      tag_61\n      jumpi\n      dup3\n      mload\n      dup3\n      sstore\n      swap2\n      0x20\n      add\n      swap2\n      swap1\n      0x01\n      add\n      swap1\n      jump(tag_60)\n    tag_61:\n    tag_57:\n      pop\n      swap1\n      pop\n      tag_62\n      swap2\n      swap1\n      tag_63\n      jump\t// in\n    tag_62:\n      pop\n      swap1\n      jump\t// out\n    tag_63:\n    tag_64:\n      dup1\n      dup3\n      gt\n      iszero\n      tag_65\n      jumpi\n      0x00\n      dup2\n      0x00\n      swap1\n      sstore\n      pop\n      0x01\n      add\n      jump(tag_64)\n    tag_65:\n      pop\n      swap1\n      jump\t// out\n        /* \"#utility.yul\":7:419   */\n    tag_67:\n        /* \"#utility.yul\":85:90   */\n      0x00\n        /* \"#utility.yul\":110:176   */\n      tag_69\n        /* \"#utility.yul\":126:175   */\n      tag_70\n        /* \"#utility.yul\":168:174   */\n      dup5\n        /* \"#utility.yul\":126:175   */\n      tag_71\n      jump\t// in\n    tag_70:\n        /* \"#utility.yul\":110:176   */\n      tag_72\n      jump\t// in\n    tag_69:\n        /* \"#utility.yul\":101:176   */\n      swap1\n      pop\n        /* \"#utility.yul\":199:205   */\n      dup3\n        /* \"#utility.yul\":192:197   */\n      dup2\n        /* \"#utility.yul\":185:206   */\n      mstore\n        /* \"#utility.yul\":237:241   */\n      0x20\n        /* \"#utility.yul\":230:235   */\n      dup2\n        /* \"#utility.yul\":226:242   */\n      add\n        /* \"#utility.yul\":275:278   */\n      dup5\n        /* \"#utility.yul\":266:272   */\n      dup5\n        /* \"#utility.yul\":261:264   */\n      dup5\n        /* \"#utility.yul\":257:273   */\n      add\n        /* \"#utility.yul\":254:279   */\n      gt\n        /* \"#utility.yul\":251:363   */\n      iszero\n      tag_73\n      jumpi\n        /* \"#utility.yul\":282:361   */\n      tag_74\n      tag_75\n      jump\t// in\n    tag_74:\n        /* \"#utility.yul\":251:363   */\n    tag_73:\n        /* \"#utility.yul\":372:413   */\n      tag_76\n        /* \"#utility.yul\":406:412   */\n      dup5\n        /* \"#utility.yul\":401:404   */\n      dup3\n        /* \"#utility.yul\":396:399   */\n      dup6\n        /* \"#utility.yul\":372:413   */\n      tag_77\n      jump\t// in\n    tag_76:\n        /* \"#utility.yul\":91:419   */\n      pop\n        /* \"#utility.yul\":7:419   */\n      swap4\n      swap3\n      pop\n      pop\n      pop\n      jump\t// out\n        /* \"#utility.yul\":425:564   */\n    tag_78:\n        /* \"#utility.yul\":471:476   */\n      0x00\n        /* \"#utility.yul\":509:515   */\n      dup2\n        /* \"#utility.yul\":496:516   */\n      calldataload\n        /* \"#utility.yul\":487:516   */\n      swap1\n      pop\n        /* \"#utility.yul\":525:558   */\n      tag_80\n        /* \"#utility.yul\":552:557   */\n      dup2\n        /* \"#utility.yul\":525:558   */\n      tag_81\n      jump\t// in\n    tag_80:\n        /* \"#utility.yul\":425:564   */\n      swap3\n      swap2\n      pop\n      pop\n      jump\t// out\n        /* \"#utility.yul\":584:924   */\n    tag_82:\n        /* \"#utility.yul\":640:645   */\n      0x00\n        /* \"#utility.yul\":689:692   */\n      dup3\n        /* \"#utility.yul\":682:686   */\n      0x1f\n        /* \"#utility.yul\":674:680   */\n      dup4\n        /* \"#utility.yul\":670:687   */\n      add\n        /* \"#utility.yul\":666:693   */\n      slt\n        /* \"#utility.yul\":656:778   */\n      tag_84\n      jumpi\n        /* \"#utility.yul\":697:776   */\n      tag_85\n      tag_86\n      jump\t// in\n    tag_85:\n        /* \"#utility.yul\":656:778   */\n    tag_84:\n        /* \"#utility.yul\":814:820   */\n      dup2\n        /* \"#utility.yul\":801:821   */\n      calldataload\n        /* \"#utility.yul\":839:918   */\n      tag_87\n        /* \"#utility.yul\":914:917   */\n      dup5\n        /* \"#utility.yul\":906:912   */\n      dup3\n        /* \"#utility.yul\":899:903   */\n      0x20\n        /* \"#utility.yul\":891:897   */\n      dup7\n        /* \"#utility.yul\":887:904   */\n      add\n        /* \"#utility.yul\":839:918   */\n      tag_67\n      jump\t// in\n    tag_87:\n        /* \"#utility.yul\":830:918   */\n      swap2\n      pop\n        /* \"#utility.yul\":646:924   */\n      pop\n        /* \"#utility.yul\":584:924   */\n      swap3\n      swap2\n      pop\n      pop\n      jump\t// out\n        /* \"#utility.yul\":930:1069   */\n    tag_88:\n        /* \"#utility.yul\":976:981   */\n      0x00\n        /* \"#utility.yul\":1014:1020   */\n      dup2\n        /* \"#utility.yul\":1001:1021   */\n      calldataload\n        /* \"#utility.yul\":992:1021   */\n      swap1\n      pop\n        /* \"#utility.yul\":1030:1063   */\n      tag_90\n        /* \"#utility.yul\":1057:1062   */\n      dup2\n        /* \"#utility.yul\":1030:1063   */\n      tag_91\n      jump\t// in\n    tag_90:\n        /* \"#utility.yul\":930:1069   */\n      swap3\n      swap2\n      pop\n      pop\n      jump\t// out\n        /* \"#utility.yul\":1075:1404   */\n    tag_10:\n        /* \"#utility.yul\":1134:1140   */\n      0x00\n        /* \"#utility.yul\":1183:1185   */\n      0x20\n        /* \"#utility.yul\":1171:1180   */\n      dup3\n        /* \"#utility.yul\":1162:1169   */\n      dup5\n        /* \"#utility.yul\":1158:1181   */\n      sub\n        /* \"#utility.yul\":1154:1186   */\n      slt\n        /* \"#utility.yul\":1151:1270   */\n      iszero\n      tag_93\n      jumpi\n        /* \"#utility.yul\":1189:1268   */\n      tag_94\n      tag_95\n      jump\t// in\n    tag_94:\n        /* \"#utility.yul\":1151:1270   */\n    tag_93:\n        /* \"#utility.yul\":1309:1310   */\n      0x00\n        /* \"#utility.yul\":1334:1387   */\n      tag_96\n        /* \"#utility.yul\":1379:1386   */\n      dup5\n        /* \"#utility.yul\":1370:1376   */\n      dup3\n        /* \"#utility.yul\":1359:1368   */\n      dup6\n        /* \"#utility.yul\":1355:1377   */\n      add\n        /* \"#utility.yul\":1334:1387   */\n      tag_78\n      jump\t// in\n    tag_96:\n        /* \"#utility.yul\":1324:1387   */\n      swap2\n      pop\n        /* \"#utility.yul\":1280:1397   */\n      pop\n        /* \"#utility.yul\":1075:1404   */\n      swap3\n      swap2\n      pop\n      pop\n      jump\t// out\n        /* \"#utility.yul\":1410:2064   */\n    tag_22:\n        /* \"#utility.yul\":1488:1494   */\n      0x00\n        /* \"#utility.yul\":1496:1502   */\n      dup1\n        /* \"#utility.yul\":1545:1547   */\n      0x40\n        /* \"#utility.yul\":1533:1542   */\n      dup4\n        /* \"#utility.yul\":1524:1531   */\n      dup6\n        /* \"#utility.yul\":1520:1543   */\n      sub\n        /* \"#utility.yul\":1516:1548   */\n      slt\n        /* \"#utility.yul\":1513:1632   */\n      iszero\n      tag_98\n      jumpi\n        /* \"#utility.yul\":1551:1630   */\n      tag_99\n      tag_95\n      jump\t// in\n    tag_99:\n        /* \"#utility.yul\":1513:1632   */\n    tag_98:\n        /* \"#utility.yul\":1671:1672   */\n      0x00\n        /* \"#utility.yul\":1696:1749   */\n      tag_100\n        /* \"#utility.yul\":1741:1748   */\n      dup6\n        /* \"#utility.yul\":1732:1738   */\n      dup3\n        /* \"#utility.yul\":1721:1730   */\n      dup7\n        /* \"#utility.yul\":1717:1739   */\n      add\n        /* \"#utility.yul\":1696:1749   */\n      tag_78\n      jump\t// in\n    tag_100:\n        /* \"#utility.yul\":1686:1749   */\n      swap3\n      pop\n        /* \"#utility.yul\":1642:1759   */\n      pop\n        /* \"#utility.yul\":1826:1828   */\n      0x20\n        /* \"#utility.yul\":1815:1824   */\n      dup4\n        /* \"#utility.yul\":1811:1829   */\n      add\n        /* \"#utility.yul\":1798:1830   */\n      calldataload\n        /* \"#utility.yul\":1857:1875   */\n      0xffffffffffffffff\n        /* \"#utility.yul\":1849:1855   */\n      dup2\n        /* \"#utility.yul\":1846:1876   */\n      gt\n        /* \"#utility.yul\":1843:1960   */\n      iszero\n      tag_101\n      jumpi\n        /* \"#utility.yul\":1879:1958   */\n      tag_102\n      tag_103\n      jump\t// in\n    tag_102:\n        /* \"#utility.yul\":1843:1960   */\n    tag_101:\n        /* \"#utility.yul\":1984:2047   */\n      tag_104\n        /* \"#utility.yul\":2039:2046   */\n      dup6\n        /* \"#utility.yul\":2030:2036   */\n      dup3\n        /* \"#utility.yul\":2019:2028   */\n      dup7\n        /* \"#utility.yul\":2015:2037   */\n      add\n        /* \"#utility.yul\":1984:2047   */\n      tag_82\n      jump\t// in\n    tag_104:\n        /* \"#utility.yul\":1974:2047   */\n      swap2\n      pop\n        /* \"#utility.yul\":1769:2057   */\n      pop\n        /* \"#utility.yul\":1410:2064   */\n      swap3\n      pop\n      swap3\n      swap1\n      pop\n      jump\t// out\n        /* \"#utility.yul\":2070:2399   */\n    tag_16:\n        /* \"#utility.yul\":2129:2135   */\n      0x00\n        /* \"#utility.yul\":2178:2180   */\n      0x20\n        /* \"#utility.yul\":2166:2175   */\n      dup3\n        /* \"#utility.yul\":2157:2164   */\n      dup5\n        /* \"#utility.yul\":2153:2176   */\n      sub\n        /* \"#utility.yul\":2149:2181   */\n      slt\n        /* \"#utility.yul\":2146:2265   */\n      iszero\n      tag_106\n      jumpi\n        /* \"#utility.yul\":2184:2263   */\n      tag_107\n      tag_95\n      jump\t// in\n    tag_107:\n        /* \"#utility.yul\":2146:2265   */\n    tag_106:\n        /* \"#utility.yul\":2304:2305   */\n      0x00\n        /* \"#utility.yul\":2329:2382   */\n      tag_108\n        /* \"#utility.yul\":2374:2381   */\n      dup5\n        /* \"#utility.yul\":2365:2371   */\n      dup3\n        /* \"#utility.yul\":2354:2363   */\n      dup6\n        /* \"#utility.yul\":2350:2372   */\n      add\n        /* \"#utility.yul\":2329:2382   */\n      tag_88\n      jump\t// in\n    tag_108:\n        /* \"#utility.yul\":2319:2382   */\n      swap2\n      pop\n        /* \"#utility.yul\":2275:2392   */\n      pop\n        /* \"#utility.yul\":2070:2399   */\n      swap3\n      swap2\n      pop\n      pop\n      jump\t// out\n        /* \"#utility.yul\":2405:2523   */\n    tag_109:\n        /* \"#utility.yul\":2492:2516   */\n      tag_111\n        /* \"#utility.yul\":2510:2515   */\n      dup2\n        /* \"#utility.yul\":2492:2516   */\n      tag_112\n      jump\t// in\n    tag_111:\n        /* \"#utility.yul\":2487:2490   */\n      dup3\n        /* \"#utility.yul\":2480:2517   */\n      mstore\n        /* \"#utility.yul\":2405:2523   */\n      pop\n      pop\n      jump\t// out\n        /* \"#utility.yul\":2529:2638   */\n    tag_113:\n        /* \"#utility.yul\":2610:2631   */\n      tag_115\n        /* \"#utility.yul\":2625:2630   */\n      dup2\n        /* \"#utility.yul\":2610:2631   */\n      tag_116\n      jump\t// in\n    tag_115:\n        /* \"#utility.yul\":2605:2608   */\n      dup3\n        /* \"#utility.yul\":2598:2632   */\n      mstore\n        /* \"#utility.yul\":2529:2638   */\n      pop\n      pop\n      jump\t// out\n        /* \"#utility.yul\":2644:3008   */\n    tag_117:\n        /* \"#utility.yul\":2732:2735   */\n      0x00\n        /* \"#utility.yul\":2760:2799   */\n      tag_119\n        /* \"#utility.yul\":2793:2798   */\n      dup3\n        /* \"#utility.yul\":2760:2799   */\n      tag_120\n      jump\t// in\n    tag_119:\n        /* \"#utility.yul\":2815:2886   */\n      tag_121\n        /* \"#utility.yul\":2879:2885   */\n      dup2\n        /* \"#utility.yul\":2874:2877   */\n      dup6\n        /* \"#utility.yul\":2815:2886   */\n      tag_122\n      jump\t// in\n    tag_121:\n        /* \"#utility.yul\":2808:2886   */\n      swap4\n      pop\n        /* \"#utility.yul\":2895:2947   */\n      tag_123\n        /* \"#utility.yul\":2940:2946   */\n      dup2\n        /* \"#utility.yul\":2935:2938   */\n      dup6\n        /* \"#utility.yul\":2928:2932   */\n      0x20\n        /* \"#utility.yul\":2921:2926   */\n      dup7\n        /* \"#utility.yul\":2917:2933   */\n      add\n        /* \"#utility.yul\":2895:2947   */\n      tag_124\n      jump\t// in\n    tag_123:\n        /* \"#utility.yul\":2972:3001   */\n      tag_125\n        /* \"#utility.yul\":2994:3000   */\n      dup2\n        /* \"#utility.yul\":2972:3001   */\n      tag_126\n      jump\t// in\n    tag_125:\n        /* \"#utility.yul\":2967:2970   */\n      dup5\n        /* \"#utility.yul\":2963:3002   */\n      add\n        /* \"#utility.yul\":2956:3002   */\n      swap2\n      pop\n        /* \"#utility.yul\":2736:3008   */\n      pop\n        /* \"#utility.yul\":2644:3008   */\n      swap3\n      swap2\n      pop\n      pop\n      jump\t// out\n        /* \"#utility.yul\":3014:3391   */\n    tag_127:\n        /* \"#utility.yul\":3120:3123   */\n      0x00\n        /* \"#utility.yul\":3148:3187   */\n      tag_129\n        /* \"#utility.yul\":3181:3186   */\n      dup3\n        /* \"#utility.yul\":3148:3187   */\n      tag_120\n      jump\t// in\n    tag_129:\n        /* \"#utility.yul\":3203:3292   */\n      tag_130\n        /* \"#utility.yul\":3285:3291   */\n      dup2\n        /* \"#utility.yul\":3280:3283   */\n      dup6\n        /* \"#utility.yul\":3203:3292   */\n      tag_131\n      jump\t// in\n    tag_130:\n        /* \"#utility.yul\":3196:3292   */\n      swap4\n      pop\n        /* \"#utility.yul\":3301:3353   */\n      tag_132\n        /* \"#utility.yul\":3346:3352   */\n      dup2\n        /* \"#utility.yul\":3341:3344   */\n      dup6\n        /* \"#utility.yul\":3334:3338   */\n      0x20\n        /* \"#utility.yul\":3327:3332   */\n      dup7\n        /* \"#utility.yul\":3323:3339   */\n      add\n        /* \"#utility.yul\":3301:3353   */\n      tag_124\n      jump\t// in\n    tag_132:\n        /* \"#utility.yul\":3378:3384   */\n      dup1\n        /* \"#utility.yul\":3373:3376   */\n      dup5\n        /* \"#utility.yul\":3369:3385   */\n      add\n        /* \"#utility.yul\":3362:3385   */\n      swap2\n      pop\n        /* \"#utility.yul\":3124:3391   */\n      pop\n        /* \"#utility.yul\":3014:3391   */\n      swap3\n      swap2\n      pop\n      pop\n      jump\t// out\n        /* \"#utility.yul\":3397:3515   */\n    tag_133:\n        /* \"#utility.yul\":3484:3508   */\n      tag_135\n        /* \"#utility.yul\":3502:3507   */\n      dup2\n        /* \"#utility.yul\":3484:3508   */\n      tag_136\n      jump\t// in\n    tag_135:\n        /* \"#utility.yul\":3479:3482   */\n      dup3\n        /* \"#utility.yul\":3472:3509   */\n      mstore\n        /* \"#utility.yul\":3397:3515   */\n      pop\n      pop\n      jump\t// out\n        /* \"#utility.yul\":3521:3796   */\n    tag_49:\n        /* \"#utility.yul\":3653:3656   */\n      0x00\n        /* \"#utility.yul\":3675:3770   */\n      tag_138\n        /* \"#utility.yul\":3766:3769   */\n      dup3\n        /* \"#utility.yul\":3757:3763   */\n      dup5\n        /* \"#utility.yul\":3675:3770   */\n      tag_127\n      jump\t// in\n    tag_138:\n        /* \"#utility.yul\":3668:3770   */\n      swap2\n      pop\n        /* \"#utility.yul\":3787:3790   */\n      dup2\n        /* \"#utility.yul\":3780:3790   */\n      swap1\n      pop\n        /* \"#utility.yul\":3521:3796   */\n      swap3\n      swap2\n      pop\n      pop\n      jump\t// out\n        /* \"#utility.yul\":3802:4024   */\n    tag_19:\n        /* \"#utility.yul\":3895:3899   */\n      0x00\n        /* \"#utility.yul\":3933:3935   */\n      0x20\n        /* \"#utility.yul\":3922:3931   */\n      dup3\n        /* \"#utility.yul\":3918:3936   */\n      add\n        /* \"#utility.yul\":3910:3936   */\n      swap1\n      pop\n        /* \"#utility.yul\":3946:4017   */\n      tag_140\n        /* \"#utility.yul\":4014:4015   */\n      0x00\n        /* \"#utility.yul\":4003:4012   */\n      dup4\n        /* \"#utility.yul\":3999:4016   */\n      add\n        /* \"#utility.yul\":3990:3996   */\n      dup5\n        /* \"#utility.yul\":3946:4017   */\n      tag_109\n      jump\t// in\n    tag_140:\n        /* \"#utility.yul\":3802:4024   */\n      swap3\n      swap2\n      pop\n      pop\n      jump\t// out\n        /* \"#utility.yul\":4030:4240   */\n    tag_33:\n        /* \"#utility.yul\":4117:4121   */\n      0x00\n        /* \"#utility.yul\":4155:4157   */\n      0x20\n        /* \"#utility.yul\":4144:4153   */\n      dup3\n        /* \"#utility.yul\":4140:4158   */\n      add\n        /* \"#utility.yul\":4132:4158   */\n      swap1\n      pop\n        /* \"#utility.yul\":4168:4233   */\n      tag_142\n        /* \"#utility.yul\":4230:4231   */\n      0x00\n        /* \"#utility.yul\":4219:4228   */\n      dup4\n        /* \"#utility.yul\":4215:4232   */\n      add\n        /* \"#utility.yul\":4206:4212   */\n      dup5\n        /* \"#utility.yul\":4168:4233   */\n      tag_113\n      jump\t// in\n    tag_142:\n        /* \"#utility.yul\":4030:4240   */\n      swap3\n      swap2\n      pop\n      pop\n      jump\t// out\n        /* \"#utility.yul\":4246:4468   */\n    tag_13:\n        /* \"#utility.yul\":4339:4343   */\n      0x00\n        /* \"#utility.yul\":4377:4379   */\n      0x20\n        /* \"#utility.yul\":4366:4375   */\n      dup3\n        /* \"#utility.yul\":4362:4380   */\n      add\n        /* \"#utility.yul\":4354:4380   */\n      swap1\n      pop\n        /* \"#utility.yul\":4390:4461   */\n      tag_144\n        /* \"#utility.yul\":4458:4459   */\n      0x00\n        /* \"#utility.yul\":4447:4456   */\n      dup4\n        /* \"#utility.yul\":4443:4460   */\n      add\n        /* \"#utility.yul\":4434:4440   */\n      dup5\n        /* \"#utility.yul\":4390:4461   */\n      tag_133\n      jump\t// in\n    tag_144:\n        /* \"#utility.yul\":4246:4468   */\n      swap3\n      swap2\n      pop\n      pop\n      jump\t// out\n        /* \"#utility.yul\":4474:5007   */\n    tag_28:\n        /* \"#utility.yul\":4643:4647   */\n      0x00\n        /* \"#utility.yul\":4681:4683   */\n      0x60\n        /* \"#utility.yul\":4670:4679   */\n      dup3\n        /* \"#utility.yul\":4666:4684   */\n      add\n        /* \"#utility.yul\":4658:4684   */\n      swap1\n      pop\n        /* \"#utility.yul\":4694:4765   */\n      tag_146\n        /* \"#utility.yul\":4762:4763   */\n      0x00\n        /* \"#utility.yul\":4751:4760   */\n      dup4\n        /* \"#utility.yul\":4747:4764   */\n      add\n        /* \"#utility.yul\":4738:4744   */\n      dup7\n        /* \"#utility.yul\":4694:4765   */\n      tag_133\n      jump\t// in\n    tag_146:\n        /* \"#utility.yul\":4775:4847   */\n      tag_147\n        /* \"#utility.yul\":4843:4845   */\n      0x20\n        /* \"#utility.yul\":4832:4841   */\n      dup4\n        /* \"#utility.yul\":4828:4846   */\n      add\n        /* \"#utility.yul\":4819:4825   */\n      dup6\n        /* \"#utility.yul\":4775:4847   */\n      tag_109\n      jump\t// in\n    tag_147:\n        /* \"#utility.yul\":4894:4903   */\n      dup2\n        /* \"#utility.yul\":4888:4892   */\n      dup2\n        /* \"#utility.yul\":4884:4904   */\n      sub\n        /* \"#utility.yul\":4879:4881   */\n      0x40\n        /* \"#utility.yul\":4868:4877   */\n      dup4\n        /* \"#utility.yul\":4864:4882   */\n      add\n        /* \"#utility.yul\":4857:4905   */\n      mstore\n        /* \"#utility.yul\":4922:5000   */\n      tag_148\n        /* \"#utility.yul\":4995:4999   */\n      dup2\n        /* \"#utility.yul\":4986:4992   */\n      dup5\n        /* \"#utility.yul\":4922:5000   */\n      tag_117\n      jump\t// in\n    tag_148:\n        /* \"#utility.yul\":4914:5000   */\n      swap1\n      pop\n        /* \"#utility.yul\":4474:5007   */\n      swap5\n      swap4\n      pop\n      pop\n      pop\n      pop\n      jump\t// out\n        /* \"#utility.yul\":5013:5657   */\n    tag_55:\n        /* \"#utility.yul\":5210:5214   */\n      0x00\n        /* \"#utility.yul\":5248:5251   */\n      0x80\n        /* \"#utility.yul\":5237:5246   */\n      dup3\n        /* \"#utility.yul\":5233:5252   */\n      add\n        /* \"#utility.yul\":5225:5252   */\n      swap1\n      pop\n        /* \"#utility.yul\":5262:5333   */\n      tag_150\n        /* \"#utility.yul\":5330:5331   */\n      0x00\n        /* \"#utility.yul\":5319:5328   */\n      dup4\n        /* \"#utility.yul\":5315:5332   */\n      add\n        /* \"#utility.yul\":5306:5312   */\n      dup8\n        /* \"#utility.yul\":5262:5333   */\n      tag_133\n      jump\t// in\n    tag_150:\n        /* \"#utility.yul\":5343:5415   */\n      tag_151\n        /* \"#utility.yul\":5411:5413   */\n      0x20\n        /* \"#utility.yul\":5400:5409   */\n      dup4\n        /* \"#utility.yul\":5396:5414   */\n      add\n        /* \"#utility.yul\":5387:5393   */\n      dup7\n        /* \"#utility.yul\":5343:5415   */\n      tag_133\n      jump\t// in\n    tag_151:\n        /* \"#utility.yul\":5425:5497   */\n      tag_152\n        /* \"#utility.yul\":5493:5495   */\n      0x40\n        /* \"#utility.yul\":5482:5491   */\n      dup4\n        /* \"#utility.yul\":5478:5496   */\n      add\n        /* \"#utility.yul\":5469:5475   */\n      dup6\n        /* \"#utility.yul\":5425:5497   */\n      tag_109\n      jump\t// in\n    tag_152:\n        /* \"#utility.yul\":5544:5553   */\n      dup2\n        /* \"#utility.yul\":5538:5542   */\n      dup2\n        /* \"#utility.yul\":5534:5554   */\n      sub\n        /* \"#utility.yul\":5529:5531   */\n      0x60\n        /* \"#utility.yul\":5518:5527   */\n      dup4\n        /* \"#utility.yul\":5514:5532   */\n      add\n        /* \"#utility.yul\":5507:5555   */\n      mstore\n        /* \"#utility.yul\":5572:5650   */\n      tag_153\n        /* \"#utility.yul\":5645:5649   */\n      dup2\n        /* \"#utility.yul\":5636:5642   */\n      dup5\n        /* \"#utility.yul\":5572:5650   */\n      tag_117\n      jump\t// in\n    tag_153:\n        /* \"#utility.yul\":5564:5650   */\n      swap1\n      pop\n        /* \"#utility.yul\":5013:5657   */\n      swap6\n      swap5\n      pop\n      pop\n      pop\n      pop\n      pop\n      jump\t// out\n        /* \"#utility.yul\":5663:5792   */\n    tag_72:\n        /* \"#utility.yul\":5697:5703   */\n      0x00\n        /* \"#utility.yul\":5724:5744   */\n      tag_155\n      tag_156\n      jump\t// in\n    tag_155:\n        /* \"#utility.yul\":5714:5744   */\n      swap1\n      pop\n        /* \"#utility.yul\":5753:5786   */\n      tag_157\n        /* \"#utility.yul\":5781:5785   */\n      dup3\n        /* \"#utility.yul\":5773:5779   */\n      dup3\n        /* \"#utility.yul\":5753:5786   */\n      tag_158\n      jump\t// in\n    tag_157:\n        /* \"#utility.yul\":5663:5792   */\n      swap2\n      swap1\n      pop\n      jump\t// out\n        /* \"#utility.yul\":5798:5873   */\n    tag_156:\n        /* \"#utility.yul\":5831:5837   */\n      0x00\n        /* \"#utility.yul\":5864:5866   */\n      0x40\n        /* \"#utility.yul\":5858:5867   */\n      mload\n        /* \"#utility.yul\":5848:5867   */\n      swap1\n      pop\n        /* \"#utility.yul\":5798:5873   */\n      swap1\n      jump\t// out\n        /* \"#utility.yul\":5879:6187   */\n    tag_71:\n        /* \"#utility.yul\":5941:5945   */\n      0x00\n        /* \"#utility.yul\":6031:6049   */\n      0xffffffffffffffff\n        /* \"#utility.yul\":6023:6029   */\n      dup3\n        /* \"#utility.yul\":6020:6050   */\n      gt\n        /* \"#utility.yul\":6017:6073   */\n      iszero\n      tag_161\n      jumpi\n        /* \"#utility.yul\":6053:6071   */\n      tag_162\n      tag_163\n      jump\t// in\n    tag_162:\n        /* \"#utility.yul\":6017:6073   */\n    tag_161:\n        /* \"#utility.yul\":6091:6120   */\n      tag_164\n        /* \"#utility.yul\":6113:6119   */\n      dup3\n        /* \"#utility.yul\":6091:6120   */\n      tag_126\n      jump\t// in\n    tag_164:\n        /* \"#utility.yul\":6083:6120   */\n      swap1\n      pop\n        /* \"#utility.yul\":6175:6179   */\n      0x20\n        /* \"#utility.yul\":6169:6173   */\n      dup2\n        /* \"#utility.yul\":6165:6180   */\n      add\n        /* \"#utility.yul\":6157:6180   */\n      swap1\n      pop\n        /* \"#utility.yul\":5879:6187   */\n      swap2\n      swap1\n      pop\n      jump\t// out\n        /* \"#utility.yul\":6193:6292   */\n    tag_120:\n        /* \"#utility.yul\":6245:6251   */\n      0x00\n        /* \"#utility.yul\":6279:6284   */\n      dup2\n        /* \"#utility.yul\":6273:6285   */\n      mload\n        /* \"#utility.yul\":6263:6285   */\n      swap1\n      pop\n        /* \"#utility.yul\":6193:6292   */\n      swap2\n      swap1\n      pop\n      jump\t// out\n        /* \"#utility.yul\":6298:6467   */\n    tag_122:\n        /* \"#utility.yul\":6382:6393   */\n      0x00\n        /* \"#utility.yul\":6416:6422   */\n      dup3\n        /* \"#utility.yul\":6411:6414   */\n      dup3\n        /* \"#utility.yul\":6404:6423   */\n      mstore\n        /* \"#utility.yul\":6456:6460   */\n      0x20\n        /* \"#utility.yul\":6451:6454   */\n      dup3\n        /* \"#utility.yul\":6447:6461   */\n      add\n        /* \"#utility.yul\":6432:6461   */\n      swap1\n      pop\n        /* \"#utility.yul\":6298:6467   */\n      swap3\n      swap2\n      pop\n      pop\n      jump\t// out\n        /* \"#utility.yul\":6473:6621   */\n    tag_131:\n        /* \"#utility.yul\":6575:6586   */\n      0x00\n        /* \"#utility.yul\":6612:6615   */\n      dup2\n        /* \"#utility.yul\":6597:6615   */\n      swap1\n      pop\n        /* \"#utility.yul\":6473:6621   */\n      swap3\n      swap2\n      pop\n      pop\n      jump\t// out\n        /* \"#utility.yul\":6627:6723   */\n    tag_112:\n        /* \"#utility.yul\":6664:6671   */\n      0x00\n        /* \"#utility.yul\":6693:6717   */\n      tag_169\n        /* \"#utility.yul\":6711:6716   */\n      dup3\n        /* \"#utility.yul\":6693:6717   */\n      tag_170\n      jump\t// in\n    tag_169:\n        /* \"#utility.yul\":6682:6717   */\n      swap1\n      pop\n        /* \"#utility.yul\":6627:6723   */\n      swap2\n      swap1\n      pop\n      jump\t// out\n        /* \"#utility.yul\":6729:6819   */\n    tag_116:\n        /* \"#utility.yul\":6763:6770   */\n      0x00\n        /* \"#utility.yul\":6806:6811   */\n      dup2\n        /* \"#utility.yul\":6799:6812   */\n      iszero\n        /* \"#utility.yul\":6792:6813   */\n      iszero\n        /* \"#utility.yul\":6781:6813   */\n      swap1\n      pop\n        /* \"#utility.yul\":6729:6819   */\n      swap2\n      swap1\n      pop\n      jump\t// out\n        /* \"#utility.yul\":6825:6951   */\n    tag_170:\n        /* \"#utility.yul\":6862:6869   */\n      0x00\n        /* \"#utility.yul\":6902:6944   */\n      0xffffffffffffffffffffffffffffffffffffffff\n        /* \"#utility.yul\":6895:6900   */\n      dup3\n        /* \"#utility.yul\":6891:6945   */\n      and\n        /* \"#utility.yul\":6880:6945   */\n      swap1\n      pop\n        /* \"#utility.yul\":6825:6951   */\n      swap2\n      swap1\n      pop\n      jump\t// out\n        /* \"#utility.yul\":6957:7034   */\n    tag_136:\n        /* \"#utility.yul\":6994:7001   */\n      0x00\n        /* \"#utility.yul\":7023:7028   */\n      dup2\n        /* \"#utility.yul\":7012:7028   */\n      swap1\n      pop\n        /* \"#utility.yul\":6957:7034   */\n      swap2\n      swap1\n      pop\n      jump\t// out\n        /* \"#utility.yul\":7040:7194   */\n    tag_77:\n        /* \"#utility.yul\":7124:7130   */\n      dup3\n        /* \"#utility.yul\":7119:7122   */\n      dup2\n        /* \"#utility.yul\":7114:7117   */\n      dup4\n        /* \"#utility.yul\":7101:7131   */\n      calldatacopy\n        /* \"#utility.yul\":7186:7187   */\n      0x00\n        /* \"#utility.yul\":7177:7183   */\n      dup4\n        /* \"#utility.yul\":7172:7175   */\n      dup4\n        /* \"#utility.yul\":7168:7184   */\n      add\n        /* \"#utility.yul\":7161:7188   */\n      mstore\n        /* \"#utility.yul\":7040:7194   */\n      pop\n      pop\n      pop\n      jump\t// out\n        /* \"#utility.yul\":7200:7507   */\n    tag_124:\n        /* \"#utility.yul\":7268:7269   */\n      0x00\n        /* \"#utility.yul\":7278:7391   */\n    tag_176:\n        /* \"#utility.yul\":7292:7298   */\n      dup4\n        /* \"#utility.yul\":7289:7290   */\n      dup2\n        /* \"#utility.yul\":7286:7299   */\n      lt\n        /* \"#utility.yul\":7278:7391   */\n      iszero\n      tag_178\n      jumpi\n        /* \"#utility.yul\":7377:7378   */\n      dup1\n        /* \"#utility.yul\":7372:7375   */\n      dup3\n        /* \"#utility.yul\":7368:7379   */\n      add\n        /* \"#utility.yul\":7362:7380   */\n      mload\n        /* \"#utility.yul\":7358:7359   */\n      dup2\n        /* \"#utility.yul\":7353:7356   */\n      dup5\n        /* \"#utility.yul\":7349:7360   */\n      add\n        /* \"#utility.yul\":7342:7381   */\n      mstore\n        /* \"#utility.yul\":7314:7316   */\n      0x20\n        /* \"#utility.yul\":7311:7312   */\n      dup2\n        /* \"#utility.yul\":7307:7317   */\n      add\n        /* \"#utility.yul\":7302:7317   */\n      swap1\n      pop\n        /* \"#utility.yul\":7278:7391   */\n      jump(tag_176)\n    tag_178:\n        /* \"#utility.yul\":7409:7415   */\n      dup4\n        /* \"#utility.yul\":7406:7407   */\n      dup2\n        /* \"#utility.yul\":7403:7416   */\n      gt\n        /* \"#utility.yul\":7400:7501   */\n      iszero\n      tag_179\n      jumpi\n        /* \"#utility.yul\":7489:7490   */\n      0x00\n        /* \"#utility.yul\":7480:7486   */\n      dup5\n        /* \"#utility.yul\":7475:7478   */\n      dup5\n        /* \"#utility.yul\":7471:7487   */\n      add\n        /* \"#utility.yul\":7464:7491   */\n      mstore\n        /* \"#utility.yul\":7400:7501   */\n    tag_179:\n        /* \"#utility.yul\":7249:7507   */\n      pop\n        /* \"#utility.yul\":7200:7507   */\n      pop\n      pop\n      pop\n      jump\t// out\n        /* \"#utility.yul\":7513:7833   */\n    tag_42:\n        /* \"#utility.yul\":7557:7563   */\n      0x00\n        /* \"#utility.yul\":7594:7595   */\n      0x02\n        /* \"#utility.yul\":7588:7592   */\n      dup3\n        /* \"#utility.yul\":7584:7596   */\n      div\n        /* \"#utility.yul\":7574:7596   */\n      swap1\n      pop\n        /* \"#utility.yul\":7641:7642   */\n      0x01\n        /* \"#utility.yul\":7635:7639   */\n      dup3\n        /* \"#utility.yul\":7631:7643   */\n      and\n        /* \"#utility.yul\":7662:7680   */\n      dup1\n        /* \"#utility.yul\":7652:7733   */\n      tag_181\n      jumpi\n        /* \"#utility.yul\":7718:7722   */\n      0x7f\n        /* \"#utility.yul\":7710:7716   */\n      dup3\n        /* \"#utility.yul\":7706:7723   */\n      and\n        /* \"#utility.yul\":7696:7723   */\n      swap2\n      pop\n        /* \"#utility.yul\":7652:7733   */\n    tag_181:\n        /* \"#utility.yul\":7780:7782   */\n      0x20\n        /* \"#utility.yul\":7772:7778   */\n      dup3\n        /* \"#utility.yul\":7769:7783   */\n      lt\n        /* \"#utility.yul\":7749:7767   */\n      dup2\n        /* \"#utility.yul\":7746:7784   */\n      eq\n        /* \"#utility.yul\":7743:7827   */\n      iszero\n      tag_182\n      jumpi\n        /* \"#utility.yul\":7799:7817   */\n      tag_183\n      tag_184\n      jump\t// in\n    tag_183:\n        /* \"#utility.yul\":7743:7827   */\n    tag_182:\n        /* \"#utility.yul\":7564:7833   */\n      pop\n        /* \"#utility.yul\":7513:7833   */\n      swap2\n      swap1\n      pop\n      jump\t// out\n        /* \"#utility.yul\":7839:8120   */\n    tag_158:\n        /* \"#utility.yul\":7922:7949   */\n      tag_186\n        /* \"#utility.yul\":7944:7948   */\n      dup3\n        /* \"#utility.yul\":7922:7949   */\n      tag_126\n      jump\t// in\n    tag_186:\n        /* \"#utility.yul\":7914:7920   */\n      dup2\n        /* \"#utility.yul\":7910:7950   */\n      add\n        /* \"#utility.yul\":8052:8058   */\n      dup2\n        /* \"#utility.yul\":8040:8050   */\n      dup2\n        /* \"#utility.yul\":8037:8059   */\n      lt\n        /* \"#utility.yul\":8016:8034   */\n      0xffffffffffffffff\n        /* \"#utility.yul\":8004:8014   */\n      dup3\n        /* \"#utility.yul\":8001:8035   */\n      gt\n        /* \"#utility.yul\":7998:8060   */\n      or\n        /* \"#utility.yul\":7995:8083   */\n      iszero\n      tag_187\n      jumpi\n        /* \"#utility.yul\":8063:8081   */\n      tag_188\n      tag_163\n      jump\t// in\n    tag_188:\n        /* \"#utility.yul\":7995:8083   */\n    tag_187:\n        /* \"#utility.yul\":8103:8113   */\n      dup1\n        /* \"#utility.yul\":8099:8101   */\n      0x40\n        /* \"#utility.yul\":8092:8114   */\n      mstore\n        /* \"#utility.yul\":7882:8120   */\n      pop\n        /* \"#utility.yul\":7839:8120   */\n      pop\n      pop\n      jump\t// out\n        /* \"#utility.yul\":8126:8306   */\n    tag_184:\n        /* \"#utility.yul\":8174:8251   */\n      0x4e487b7100000000000000000000000000000000000000000000000000000000\n        /* \"#utility.yul\":8171:8172   */\n      0x00\n        /* \"#utility.yul\":8164:8252   */\n      mstore\n        /* \"#utility.yul\":8271:8275   */\n      0x22\n        /* \"#utility.yul\":8268:8269   */\n      0x04\n        /* \"#utility.yul\":8261:8276   */\n      mstore\n        /* \"#utility.yul\":8295:8299   */\n      0x24\n        /* \"#utility.yul\":8292:8293   */\n      0x00\n        /* \"#utility.yul\":8285:8300   */\n      revert\n        /* \"#utility.yul\":8312:8492   */\n    tag_163:\n        /* \"#utility.yul\":8360:8437   */\n      0x4e487b7100000000000000000000000000000000000000000000000000000000\n        /* \"#utility.yul\":8357:8358   */\n      0x00\n        /* \"#utility.yul\":8350:8438   */\n      mstore\n        /* \"#utility.yul\":8457:8461   */\n      0x41\n        /* \"#utility.yul\":8454:8455   */\n      0x04\n        /* \"#utility.yul\":8447:8462   */\n      mstore\n        /* \"#utility.yul\":8481:8485   */\n      0x24\n        /* \"#utility.yul\":8478:8479   */\n      0x00\n        /* \"#utility.yul\":8471:8486   */\n      revert\n        /* \"#utility.yul\":8498:8615   */\n    tag_86:\n        /* \"#utility.yul\":8607:8608   */\n      0x00\n        /* \"#utility.yul\":8604:8605   */\n      dup1\n        /* \"#utility.yul\":8597:8609   */\n      revert\n        /* \"#utility.yul\":8621:8738   */\n    tag_75:\n        /* \"#utility.yul\":8730:8731   */\n      0x00\n        /* \"#utility.yul\":8727:8728   */\n      dup1\n        /* \"#utility.yul\":8720:8732   */\n      revert\n        /* \"#utility.yul\":8744:8861   */\n    tag_103:\n        /* \"#utility.yul\":8853:8854   */\n      0x00\n        /* \"#utility.yul\":8850:8851   */\n      dup1\n        /* \"#utility.yul\":8843:8855   */\n      revert\n        /* \"#utility.yul\":8867:8984   */\n    tag_95:\n        /* \"#utility.yul\":8976:8977   */\n      0x00\n        /* \"#utility.yul\":8973:8974   */\n      dup1\n        /* \"#utility.yul\":8966:8978   */\n      revert\n        /* \"#utility.yul\":8990:9092   */\n    tag_126:\n        /* \"#utility.yul\":9031:9037   */\n      0x00\n        /* \"#utility.yul\":9082:9084   */\n      0x1f\n        /* \"#utility.yul\":9078:9085   */\n      not\n        /* \"#utility.yul\":9073:9075   */\n      0x1f\n        /* \"#utility.yul\":9066:9071   */\n      dup4\n        /* \"#utility.yul\":9062:9076   */\n      add\n        /* \"#utility.yul\":9058:9086   */\n      and\n        /* \"#utility.yul\":9048:9086   */\n      swap1\n      pop\n        /* \"#utility.yul\":8990:9092   */\n      swap2\n      swap1\n      pop\n      jump\t// out\n        /* \"#utility.yul\":9098:9220   */\n    tag_81:\n        /* \"#utility.yul\":9171:9195   */\n      tag_197\n        /* \"#utility.yul\":9189:9194   */\n      dup2\n        /* \"#utility.yul\":9171:9195   */\n      tag_112\n      jump\t// in\n    tag_197:\n        /* \"#utility.yul\":9164:9169   */\n      dup2\n        /* \"#utility.yul\":9161:9196   */\n      eq\n        /* \"#utility.yul\":9151:9214   */\n      tag_198\n      jumpi\n        /* \"#utility.yul\":9210:9211   */\n      0x00\n        /* \"#utility.yul\":9207:9208   */\n      dup1\n        /* \"#utility.yul\":9200:9212   */\n      revert\n        /* \"#utility.yul\":9151:9214   */\n    tag_198:\n        /* \"#utility.yul\":9098:9220   */\n      pop\n      jump\t// out\n        /* \"#utility.yul\":9226:9348   */\n    tag_91:\n        /* \"#utility.yul\":9299:9323   */\n      tag_200\n        /* \"#utility.yul\":9317:9322   */\n      dup2\n        /* \"#utility.yul\":9299:9323   */\n      tag_136\n      jump\t// in\n    tag_200:\n        /* \"#utility.yul\":9292:9297   */\n      dup2\n        /* \"#utility.yul\":9289:9324   */\n      eq\n        /* \"#utility.yul\":9279:9342   */\n      tag_201\n      jumpi\n        /* \"#utility.yul\":9338:9339   */\n      0x00\n        /* \"#utility.yul\":9335:9336   */\n      dup1\n        /* \"#utility.yul\":9328:9340   */\n      revert\n        /* \"#utility.yul\":9279:9342   */\n    tag_201:\n        /* \"#utility.yul\":9226:9348   */\n      pop\n      jump\t// out\n\n    auxdata: 0xa26469706673582212209182f52e6bae6c8822054ebad9bb7b1e2608cee7122592949e7f7b2bf0877b0b64736f6c63430008070033\n}\n",
				"bytecode": {
					"linkReferences": {},
					"object": "608060405234801561001057600080fd5b50610a13806100206000396000f3fe608060405234801561001057600080fd5b50600436106100575760003560e01c80630607be1b1461005c5780632b08e8241461008c5780633c518dd3146100bc57806350b44712146100d85780638ce7e4611461010a575b600080fd5b61007660048036038101906100719190610583565b61013a565b604051610083919061071d565b60405180910390f35b6100a660048036038101906100a1919061060c565b610152565b6040516100b391906106e7565b60405180910390f35b6100d660048036038101906100d191906105b0565b610185565b005b6100f260048036038101906100ed919061060c565b6101a2565b60405161010193929190610738565b60405180910390f35b610124600480360381019061011f919061060c565b610284565b6040516101319190610702565b60405180910390f35b60026020528060005260406000206000915090505481565b60016020528060005260406000206000915054906101000a900473ffffffffffffffffffffffffffffffffffffffff1681565b6000610190826102a4565b905061019d8184846102dc565b505050565b600081815481106101b257600080fd5b90600052602060002090600302016000915090508060000154908060010160009054906101000a900473ffffffffffffffffffffffffffffffffffffffff1690806002018054610201906108c9565b80601f016020809104026020016040519081016040528092919081815260200182805461022d906108c9565b801561027a5780601f1061024f5761010080835404028352916020019161027a565b820191906000526020600020905b81548152906001019060200180831161025d57829003601f168201915b5050505050905083565b60036020528060005260406000206000915054906101000a900460ff1681565b600080826040516020016102b891906106d0565b6040516020818303038152906040528051906020012060001c905080915050919050565b600060405180606001604052808581526020018473ffffffffffffffffffffffffffffffffffffffff1681526020018381525090806001815401808255809150506001900390600052602060002090600302016000909190919091506000820151816000015560208201518160010160006101000a81548173ffffffffffffffffffffffffffffffffffffffff021916908373ffffffffffffffffffffffffffffffffffffffff16021790555060408201518160020190805190602001906103a5929190610446565b505050600080805490509050336001600086815260200190815260200160002060006101000a81548173ffffffffffffffffffffffffffffffffffffffff021916908373ffffffffffffffffffffffffffffffffffffffff1602179055507f5c6cbfb13057ca1c92859b5ecb3c56b42131a7a5ac1a570d12f8cf875fcff98b818585856040516104389493929190610776565b60405180910390a150505050565b828054610452906108c9565b90600052602060002090601f01602090048101928261047457600085556104bb565b82601f1061048d57805160ff19168380011785556104bb565b828001600101855582156104bb579182015b828111156104ba57825182559160200191906001019061049f565b5b5090506104c891906104cc565b5090565b5b808211156104e55760008160009055506001016104cd565b5090565b60006104fc6104f7846107e7565b6107c2565b9050828152602081018484840111156105185761051761098f565b5b610523848285610887565b509392505050565b60008135905061053a816109af565b92915050565b600082601f8301126105555761055461098a565b5b81356105658482602086016104e9565b91505092915050565b60008135905061057d816109c6565b92915050565b60006020828403121561059957610598610999565b5b60006105a78482850161052b565b91505092915050565b600080604083850312156105c7576105c6610999565b5b60006105d58582860161052b565b925050602083013567ffffffffffffffff8111156105f6576105f5610994565b5b61060285828601610540565b9150509250929050565b60006020828403121561062257610621610999565b5b60006106308482850161056e565b91505092915050565b6106428161083f565b82525050565b61065181610851565b82525050565b600061066282610818565b61066c8185610823565b935061067c818560208601610896565b6106858161099e565b840191505092915050565b600061069b82610818565b6106a58185610834565b93506106b5818560208601610896565b80840191505092915050565b6106ca8161087d565b82525050565b60006106dc8284610690565b915081905092915050565b60006020820190506106fc6000830184610639565b92915050565b60006020820190506107176000830184610648565b92915050565b600060208201905061073260008301846106c1565b92915050565b600060608201905061074d60008301866106c1565b61075a6020830185610639565b818103604083015261076c8184610657565b9050949350505050565b600060808201905061078b60008301876106c1565b61079860208301866106c1565b6107a56040830185610639565b81810360608301526107b78184610657565b905095945050505050565b60006107cc6107dd565b90506107d882826108fb565b919050565b6000604051905090565b600067ffffffffffffffff8211156108025761080161095b565b5b61080b8261099e565b9050602081019050919050565b600081519050919050565b600082825260208201905092915050565b600081905092915050565b600061084a8261085d565b9050919050565b60008115159050919050565b600073ffffffffffffffffffffffffffffffffffffffff82169050919050565b6000819050919050565b82818337600083830152505050565b60005b838110156108b4578082015181840152602081019050610899565b838111156108c3576000848401525b50505050565b600060028204905060018216806108e157607f821691505b602082108114156108f5576108f461092c565b5b50919050565b6109048261099e565b810181811067ffffffffffffffff821117156109235761092261095b565b5b80604052505050565b7f4e487b7100000000000000000000000000000000000000000000000000000000600052602260045260246000fd5b7f4e487b7100000000000000000000000000000000000000000000000000000000600052604160045260246000fd5b600080fd5b600080fd5b600080fd5b600080fd5b6000601f19601f8301169050919050565b6109b88161083f565b81146109c357600080fd5b50565b6109cf8161087d565b81146109da57600080fd5b5056fea26469706673582212209182f52e6bae6c8822054ebad9bb7b1e2608cee7122592949e7f7b2bf0877b0b64736f6c63430008070033",
					"opcodes": "PUSH1 0x80 PUSH1 0x40 MSTORE CALLVALUE DUP1 ISZERO PUSH2 0x10 JUMPI PUSH1 0x0 DUP1 REVERT JUMPDEST POP PUSH2 0xA13 DUP1 PUSH2 0x20 PUSH1 0x0 CODECOPY PUSH1 0x0 RETURN INVALID PUSH1 0x80 PUSH1 0x40 MSTORE CALLVALUE DUP1 ISZERO PUSH2 0x10 JUMPI PUSH1 0x0 DUP1 REVERT JUMPDEST POP PUSH1 0x4 CALLDATASIZE LT PUSH2 0x57 JUMPI PUSH1 0x0 CALLDATALOAD PUSH1 0xE0 SHR DUP1 PUSH4 0x607BE1B EQ PUSH2 0x5C JUMPI DUP1 PUSH4 0x2B08E824 EQ PUSH2 0x8C JUMPI DUP1 PUSH4 0x3C518DD3 EQ PUSH2 0xBC JUMPI DUP1 PUSH4 0x50B44712 EQ PUSH2 0xD8 JUMPI DUP1 PUSH4 0x8CE7E461 EQ PUSH2 0x10A JUMPI JUMPDEST PUSH1 0x0 DUP1 REVERT JUMPDEST PUSH2 0x76 PUSH1 0x4 DUP1 CALLDATASIZE SUB DUP2 ADD SWAP1 PUSH2 0x71 SWAP2 SWAP1 PUSH2 0x583 JUMP JUMPDEST PUSH2 0x13A JUMP JUMPDEST PUSH1 0x40 MLOAD PUSH2 0x83 SWAP2 SWAP1 PUSH2 0x71D JUMP JUMPDEST PUSH1 0x40 MLOAD DUP1 SWAP2 SUB SWAP1 RETURN JUMPDEST PUSH2 0xA6 PUSH1 0x4 DUP1 CALLDATASIZE SUB DUP2 ADD SWAP1 PUSH2 0xA1 SWAP2 SWAP1 PUSH2 0x60C JUMP JUMPDEST PUSH2 0x152 JUMP JUMPDEST PUSH1 0x40 MLOAD PUSH2 0xB3 SWAP2 SWAP1 PUSH2 0x6E7 JUMP JUMPDEST PUSH1 0x40 MLOAD DUP1 SWAP2 SUB SWAP1 RETURN JUMPDEST PUSH2 0xD6 PUSH1 0x4 DUP1 CALLDATASIZE SUB DUP2 ADD SWAP1 PUSH2 0xD1 SWAP2 SWAP1 PUSH2 0x5B0 JUMP JUMPDEST PUSH2 0x185 JUMP JUMPDEST STOP JUMPDEST PUSH2 0xF2 PUSH1 0x4 DUP1 CALLDATASIZE SUB DUP2 ADD SWAP1 PUSH2 0xED SWAP2 SWAP1 PUSH2 0x60C JUMP JUMPDEST PUSH2 0x1A2 JUMP JUMPDEST PUSH1 0x40 MLOAD PUSH2 0x101 SWAP4 SWAP3 SWAP2 SWAP1 PUSH2 0x738 JUMP JUMPDEST PUSH1 0x40 MLOAD DUP1 SWAP2 SUB SWAP1 RETURN JUMPDEST PUSH2 0x124 PUSH1 0x4 DUP1 CALLDATASIZE SUB DUP2 ADD SWAP1 PUSH2 0x11F SWAP2 SWAP1 PUSH2 0x60C JUMP JUMPDEST PUSH2 0x284 JUMP JUMPDEST PUSH1 0x40 MLOAD PUSH2 0x131 SWAP2 SWAP1 PUSH2 0x702 JUMP JUMPDEST PUSH1 0x40 MLOAD DUP1 SWAP2 SUB SWAP1 RETURN JUMPDEST PUSH1 0x2 PUSH1 0x20 MSTORE DUP1 PUSH1 0x0 MSTORE PUSH1 0x40 PUSH1 0x0 KECCAK256 PUSH1 0x0 SWAP2 POP SWAP1 POP SLOAD DUP2 JUMP JUMPDEST PUSH1 0x1 PUSH1 0x20 MSTORE DUP1 PUSH1 0x0 MSTORE PUSH1 0x40 PUSH1 0x0 KECCAK256 PUSH1 0x0 SWAP2 POP SLOAD SWAP1 PUSH2 0x100 EXP SWAP1 DIV PUSH20 0xFFFFFFFFFFFFFFFFFFFFFFFFFFFFFFFFFFFFFFFF AND DUP2 JUMP JUMPDEST PUSH1 0x0 PUSH2 0x190 DUP3 PUSH2 0x2A4 JUMP JUMPDEST SWAP1 POP PUSH2 0x19D DUP2 DUP5 DUP5 PUSH2 0x2DC JUMP JUMPDEST POP POP POP JUMP JUMPDEST PUSH1 0x0 DUP2 DUP2 SLOAD DUP2 LT PUSH2 0x1B2 JUMPI PUSH1 0x0 DUP1 REVERT JUMPDEST SWAP1 PUSH1 0x0 MSTORE PUSH1 0x20 PUSH1 0x0 KECCAK256 SWAP1 PUSH1 0x3 MUL ADD PUSH1 0x0 SWAP2 POP SWAP1 POP DUP1 PUSH1 0x0 ADD SLOAD SWAP1 DUP1 PUSH1 0x1 ADD PUSH1 0x0 SWAP1 SLOAD SWAP1 PUSH2 0x100 EXP SWAP1 DIV PUSH20 0xFFFFFFFFFFFFFFFFFFFFFFFFFFFFFFFFFFFFFFFF AND SWAP1 DUP1 PUSH1 0x2 ADD DUP1 SLOAD PUSH2 0x201 SWAP1 PUSH2 0x8C9 JUMP JUMPDEST DUP1 PUSH1 0x1F ADD PUSH1 0x20 DUP1 SWAP2 DIV MUL PUSH1 0x20 ADD PUSH1 0x40 MLOAD SWAP1 DUP2 ADD PUSH1 0x40 MSTORE DUP1 SWAP3 SWAP2 SWAP1 DUP2 DUP2 MSTORE PUSH1 0x20 ADD DUP3 DUP1 SLOAD PUSH2 0x22D SWAP1 PUSH2 0x8C9 JUMP JUMPDEST DUP1 ISZERO PUSH2 0x27A JUMPI DUP1 PUSH1 0x1F LT PUSH2 0x24F JUMPI PUSH2 0x100 DUP1 DUP4 SLOAD DIV MUL DUP4 MSTORE SWAP2 PUSH1 0x20 ADD SWAP2 PUSH2 0x27A JUMP JUMPDEST DUP3 ADD SWAP2 SWAP1 PUSH1 0x0 MSTORE PUSH1 0x20 PUSH1 0x0 KECCAK256 SWAP1 JUMPDEST DUP2 SLOAD DUP2 MSTORE SWAP1 PUSH1 0x1 ADD SWAP1 PUSH1 0x20 ADD DUP1 DUP4 GT PUSH2 0x25D JUMPI DUP3 SWAP1 SUB PUSH1 0x1F AND DUP3 ADD SWAP2 JUMPDEST POP POP POP POP POP SWAP1 POP DUP4 JUMP JUMPDEST PUSH1 0x3 PUSH1 0x20 MSTORE DUP1 PUSH1 0x0 MSTORE PUSH1 0x40 PUSH1 0x0 KECCAK256 PUSH1 0x0 SWAP2 POP SLOAD SWAP1 PUSH2 0x100 EXP SWAP1 DIV PUSH1 0xFF AND DUP2 JUMP JUMPDEST PUSH1 0x0 DUP1 DUP3 PUSH1 0x40 MLOAD PUSH1 0x20 ADD PUSH2 0x2B8 SWAP2 SWAP1 PUSH2 0x6D0 JUMP JUMPDEST PUSH1 0x40 MLOAD PUSH1 0x20 DUP2 DUP4 SUB SUB DUP2 MSTORE SWAP1 PUSH1 0x40 MSTORE DUP1 MLOAD SWAP1 PUSH1 0x20 ADD KECCAK256 PUSH1 0x0 SHR SWAP1 POP DUP1 SWAP2 POP POP SWAP2 SWAP1 POP JUMP JUMPDEST PUSH1 0x0 PUSH1 0x40 MLOAD DUP1 PUSH1 0x60 ADD PUSH1 0x40 MSTORE DUP1 DUP6 DUP2 MSTORE PUSH1 0x20 ADD DUP5 PUSH20 0xFFFFFFFFFFFFFFFFFFFFFFFFFFFFFFFFFFFFFFFF AND DUP2 MSTORE PUSH1 0x20 ADD DUP4 DUP2 MSTORE POP SWAP1 DUP1 PUSH1 0x1 DUP2 SLOAD ADD DUP1 DUP3 SSTORE DUP1 SWAP2 POP POP PUSH1 0x1 SWAP1 SUB SWAP1 PUSH1 0x0 MSTORE PUSH1 0x20 PUSH1 0x0 KECCAK256 SWAP1 PUSH1 0x3 MUL ADD PUSH1 0x0 SWAP1 SWAP2 SWAP1 SWAP2 SWAP1 SWAP2 POP PUSH1 0x0 DUP3 ADD MLOAD DUP2 PUSH1 0x0 ADD SSTORE PUSH1 0x20 DUP3 ADD MLOAD DUP2 PUSH1 0x1 ADD PUSH1 0x0 PUSH2 0x100 EXP DUP2 SLOAD DUP2 PUSH20 0xFFFFFFFFFFFFFFFFFFFFFFFFFFFFFFFFFFFFFFFF MUL NOT AND SWAP1 DUP4 PUSH20 0xFFFFFFFFFFFFFFFFFFFFFFFFFFFFFFFFFFFFFFFF AND MUL OR SWAP1 SSTORE POP PUSH1 0x40 DUP3 ADD MLOAD DUP2 PUSH1 0x2 ADD SWAP1 DUP1 MLOAD SWAP1 PUSH1 0x20 ADD SWAP1 PUSH2 0x3A5 SWAP3 SWAP2 SWAP1 PUSH2 0x446 JUMP JUMPDEST POP POP POP PUSH1 0x0 DUP1 DUP1 SLOAD SWAP1 POP SWAP1 POP CALLER PUSH1 0x1 PUSH1 0x0 DUP7 DUP2 MSTORE PUSH1 0x20 ADD SWAP1 DUP2 MSTORE PUSH1 0x20 ADD PUSH1 0x0 KECCAK256 PUSH1 0x0 PUSH2 0x100 EXP DUP2 SLOAD DUP2 PUSH20 0xFFFFFFFFFFFFFFFFFFFFFFFFFFFFFFFFFFFFFFFF MUL NOT AND SWAP1 DUP4 PUSH20 0xFFFFFFFFFFFFFFFFFFFFFFFFFFFFFFFFFFFFFFFF AND MUL OR SWAP1 SSTORE POP PUSH32 0x5C6CBFB13057CA1C92859B5ECB3C56B42131A7A5AC1A570D12F8CF875FCFF98B DUP2 DUP6 DUP6 DUP6 PUSH1 0x40 MLOAD PUSH2 0x438 SWAP5 SWAP4 SWAP3 SWAP2 SWAP1 PUSH2 0x776 JUMP JUMPDEST PUSH1 0x40 MLOAD DUP1 SWAP2 SUB SWAP1 LOG1 POP POP POP POP JUMP JUMPDEST DUP3 DUP1 SLOAD PUSH2 0x452 SWAP1 PUSH2 0x8C9 JUMP JUMPDEST SWAP1 PUSH1 0x0 MSTORE PUSH1 0x20 PUSH1 0x0 KECCAK256 SWAP1 PUSH1 0x1F ADD PUSH1 0x20 SWAP1 DIV DUP2 ADD SWAP3 DUP3 PUSH2 0x474 JUMPI PUSH1 0x0 DUP6 SSTORE PUSH2 0x4BB JUMP JUMPDEST DUP3 PUSH1 0x1F LT PUSH2 0x48D JUMPI DUP1 MLOAD PUSH1 0xFF NOT AND DUP4 DUP1 ADD OR DUP6 SSTORE PUSH2 0x4BB JUMP JUMPDEST DUP3 DUP1 ADD PUSH1 0x1 ADD DUP6 SSTORE DUP3 ISZERO PUSH2 0x4BB JUMPI SWAP2 DUP3 ADD JUMPDEST DUP3 DUP2 GT ISZERO PUSH2 0x4BA JUMPI DUP3 MLOAD DUP3 SSTORE SWAP2 PUSH1 0x20 ADD SWAP2 SWAP1 PUSH1 0x1 ADD SWAP1 PUSH2 0x49F JUMP JUMPDEST JUMPDEST POP SWAP1 POP PUSH2 0x4C8 SWAP2 SWAP1 PUSH2 0x4CC JUMP JUMPDEST POP SWAP1 JUMP JUMPDEST JUMPDEST DUP1 DUP3 GT ISZERO PUSH2 0x4E5 JUMPI PUSH1 0x0 DUP2 PUSH1 0x0 SWAP1 SSTORE POP PUSH1 0x1 ADD PUSH2 0x4CD JUMP JUMPDEST POP SWAP1 JUMP JUMPDEST PUSH1 0x0 PUSH2 0x4FC PUSH2 0x4F7 DUP5 PUSH2 0x7E7 JUMP JUMPDEST PUSH2 0x7C2 JUMP JUMPDEST SWAP1 POP DUP3 DUP2 MSTORE PUSH1 0x20 DUP2 ADD DUP5 DUP5 DUP5 ADD GT ISZERO PUSH2 0x518 JUMPI PUSH2 0x517 PUSH2 0x98F JUMP JUMPDEST JUMPDEST PUSH2 0x523 DUP5 DUP3 DUP6 PUSH2 0x887 JUMP JUMPDEST POP SWAP4 SWAP3 POP POP POP JUMP JUMPDEST PUSH1 0x0 DUP2 CALLDATALOAD SWAP1 POP PUSH2 0x53A DUP2 PUSH2 0x9AF JUMP JUMPDEST SWAP3 SWAP2 POP POP JUMP JUMPDEST PUSH1 0x0 DUP3 PUSH1 0x1F DUP4 ADD SLT PUSH2 0x555 JUMPI PUSH2 0x554 PUSH2 0x98A JUMP JUMPDEST JUMPDEST DUP2 CALLDATALOAD PUSH2 0x565 DUP5 DUP3 PUSH1 0x20 DUP7 ADD PUSH2 0x4E9 JUMP JUMPDEST SWAP2 POP POP SWAP3 SWAP2 POP POP JUMP JUMPDEST PUSH1 0x0 DUP2 CALLDATALOAD SWAP1 POP PUSH2 0x57D DUP2 PUSH2 0x9C6 JUMP JUMPDEST SWAP3 SWAP2 POP POP JUMP JUMPDEST PUSH1 0x0 PUSH1 0x20 DUP3 DUP5 SUB SLT ISZERO PUSH2 0x599 JUMPI PUSH2 0x598 PUSH2 0x999 JUMP JUMPDEST JUMPDEST PUSH1 0x0 PUSH2 0x5A7 DUP5 DUP3 DUP6 ADD PUSH2 0x52B JUMP JUMPDEST SWAP2 POP POP SWAP3 SWAP2 POP POP JUMP JUMPDEST PUSH1 0x0 DUP1 PUSH1 0x40 DUP4 DUP6 SUB SLT ISZERO PUSH2 0x5C7 JUMPI PUSH2 0x5C6 PUSH2 0x999 JUMP JUMPDEST JUMPDEST PUSH1 0x0 PUSH2 0x5D5 DUP6 DUP3 DUP7 ADD PUSH2 0x52B JUMP JUMPDEST SWAP3 POP POP PUSH1 0x20 DUP4 ADD CALLDATALOAD PUSH8 0xFFFFFFFFFFFFFFFF DUP2 GT ISZERO PUSH2 0x5F6 JUMPI PUSH2 0x5F5 PUSH2 0x994 JUMP JUMPDEST JUMPDEST PUSH2 0x602 DUP6 DUP3 DUP7 ADD PUSH2 0x540 JUMP JUMPDEST SWAP2 POP POP SWAP3 POP SWAP3 SWAP1 POP JUMP JUMPDEST PUSH1 0x0 PUSH1 0x20 DUP3 DUP5 SUB SLT ISZERO PUSH2 0x622 JUMPI PUSH2 0x621 PUSH2 0x999 JUMP JUMPDEST JUMPDEST PUSH1 0x0 PUSH2 0x630 DUP5 DUP3 DUP6 ADD PUSH2 0x56E JUMP JUMPDEST SWAP2 POP POP SWAP3 SWAP2 POP POP JUMP JUMPDEST PUSH2 0x642 DUP2 PUSH2 0x83F JUMP JUMPDEST DUP3 MSTORE POP POP JUMP JUMPDEST PUSH2 0x651 DUP2 PUSH2 0x851 JUMP JUMPDEST DUP3 MSTORE POP POP JUMP JUMPDEST PUSH1 0x0 PUSH2 0x662 DUP3 PUSH2 0x818 JUMP JUMPDEST PUSH2 0x66C DUP2 DUP6 PUSH2 0x823 JUMP JUMPDEST SWAP4 POP PUSH2 0x67C DUP2 DUP6 PUSH1 0x20 DUP7 ADD PUSH2 0x896 JUMP JUMPDEST PUSH2 0x685 DUP2 PUSH2 0x99E JUMP JUMPDEST DUP5 ADD SWAP2 POP POP SWAP3 SWAP2 POP POP JUMP JUMPDEST PUSH1 0x0 PUSH2 0x69B DUP3 PUSH2 0x818 JUMP JUMPDEST PUSH2 0x6A5 DUP2 DUP6 PUSH2 0x834 JUMP JUMPDEST SWAP4 POP PUSH2 0x6B5 DUP2 DUP6 PUSH1 0x20 DUP7 ADD PUSH2 0x896 JUMP JUMPDEST DUP1 DUP5 ADD SWAP2 POP POP SWAP3 SWAP2 POP POP JUMP JUMPDEST PUSH2 0x6CA DUP2 PUSH2 0x87D JUMP JUMPDEST DUP3 MSTORE POP POP JUMP JUMPDEST PUSH1 0x0 PUSH2 0x6DC DUP3 DUP5 PUSH2 0x690 JUMP JUMPDEST SWAP2 POP DUP2 SWAP1 POP SWAP3 SWAP2 POP POP JUMP JUMPDEST PUSH1 0x0 PUSH1 0x20 DUP3 ADD SWAP1 POP PUSH2 0x6FC PUSH1 0x0 DUP4 ADD DUP5 PUSH2 0x639 JUMP JUMPDEST SWAP3 SWAP2 POP POP JUMP JUMPDEST PUSH1 0x0 PUSH1 0x20 DUP3 ADD SWAP1 POP PUSH2 0x717 PUSH1 0x0 DUP4 ADD DUP5 PUSH2 0x648 JUMP JUMPDEST SWAP3 SWAP2 POP POP JUMP JUMPDEST PUSH1 0x0 PUSH1 0x20 DUP3 ADD SWAP1 POP PUSH2 0x732 PUSH1 0x0 DUP4 ADD DUP5 PUSH2 0x6C1 JUMP JUMPDEST SWAP3 SWAP2 POP POP JUMP JUMPDEST PUSH1 0x0 PUSH1 0x60 DUP3 ADD SWAP1 POP PUSH2 0x74D PUSH1 0x0 DUP4 ADD DUP7 PUSH2 0x6C1 JUMP JUMPDEST PUSH2 0x75A PUSH1 0x20 DUP4 ADD DUP6 PUSH2 0x639 JUMP JUMPDEST DUP2 DUP2 SUB PUSH1 0x40 DUP4 ADD MSTORE PUSH2 0x76C DUP2 DUP5 PUSH2 0x657 JUMP JUMPDEST SWAP1 POP SWAP5 SWAP4 POP POP POP POP JUMP JUMPDEST PUSH1 0x0 PUSH1 0x80 DUP3 ADD SWAP1 POP PUSH2 0x78B PUSH1 0x0 DUP4 ADD DUP8 PUSH2 0x6C1 JUMP JUMPDEST PUSH2 0x798 PUSH1 0x20 DUP4 ADD DUP7 PUSH2 0x6C1 JUMP JUMPDEST PUSH2 0x7A5 PUSH1 0x40 DUP4 ADD DUP6 PUSH2 0x639 JUMP JUMPDEST DUP2 DUP2 SUB PUSH1 0x60 DUP4 ADD MSTORE PUSH2 0x7B7 DUP2 DUP5 PUSH2 0x657 JUMP JUMPDEST SWAP1 POP SWAP6 SWAP5 POP POP POP POP POP JUMP JUMPDEST PUSH1 0x0 PUSH2 0x7CC PUSH2 0x7DD JUMP JUMPDEST SWAP1 POP PUSH2 0x7D8 DUP3 DUP3 PUSH2 0x8FB JUMP JUMPDEST SWAP2 SWAP1 POP JUMP JUMPDEST PUSH1 0x0 PUSH1 0x40 MLOAD SWAP1 POP SWAP1 JUMP JUMPDEST PUSH1 0x0 PUSH8 0xFFFFFFFFFFFFFFFF DUP3 GT ISZERO PUSH2 0x802 JUMPI PUSH2 0x801 PUSH2 0x95B JUMP JUMPDEST JUMPDEST PUSH2 0x80B DUP3 PUSH2 0x99E JUMP JUMPDEST SWAP1 POP PUSH1 0x20 DUP2 ADD SWAP1 POP SWAP2 SWAP1 POP JUMP JUMPDEST PUSH1 0x0 DUP2 MLOAD SWAP1 POP SWAP2 SWAP1 POP JUMP JUMPDEST PUSH1 0x0 DUP3 DUP3 MSTORE PUSH1 0x20 DUP3 ADD SWAP1 POP SWAP3 SWAP2 POP POP JUMP JUMPDEST PUSH1 0x0 DUP2 SWAP1 POP SWAP3 SWAP2 POP POP JUMP JUMPDEST PUSH1 0x0 PUSH2 0x84A DUP3 PUSH2 0x85D JUMP JUMPDEST SWAP1 POP SWAP2 SWAP1 POP JUMP JUMPDEST PUSH1 0x0 DUP2 ISZERO ISZERO SWAP1 POP SWAP2 SWAP1 POP JUMP JUMPDEST PUSH1 0x0 PUSH20 0xFFFFFFFFFFFFFFFFFFFFFFFFFFFFFFFFFFFFFFFF DUP3 AND SWAP1 POP SWAP2 SWAP1 POP JUMP JUMPDEST PUSH1 0x0 DUP2 SWAP1 POP SWAP2 SWAP1 POP JUMP JUMPDEST DUP3 DUP2 DUP4 CALLDATACOPY PUSH1 0x0 DUP4 DUP4 ADD MSTORE POP POP POP JUMP JUMPDEST PUSH1 0x0 JUMPDEST DUP4 DUP2 LT ISZERO PUSH2 0x8B4 JUMPI DUP1 DUP3 ADD MLOAD DUP2 DUP5 ADD MSTORE PUSH1 0x20 DUP2 ADD SWAP1 POP PUSH2 0x899 JUMP JUMPDEST DUP4 DUP2 GT ISZERO PUSH2 0x8C3 JUMPI PUSH1 0x0 DUP5 DUP5 ADD MSTORE JUMPDEST POP POP POP POP JUMP JUMPDEST PUSH1 0x0 PUSH1 0x2 DUP3 DIV SWAP1 POP PUSH1 0x1 DUP3 AND DUP1 PUSH2 0x8E1 JUMPI PUSH1 0x7F DUP3 AND SWAP2 POP JUMPDEST PUSH1 0x20 DUP3 LT DUP2 EQ ISZERO PUSH2 0x8F5 JUMPI PUSH2 0x8F4 PUSH2 0x92C JUMP JUMPDEST JUMPDEST POP SWAP2 SWAP1 POP JUMP JUMPDEST PUSH2 0x904 DUP3 PUSH2 0x99E JUMP JUMPDEST DUP2 ADD DUP2 DUP2 LT PUSH8 0xFFFFFFFFFFFFFFFF DUP3 GT OR ISZERO PUSH2 0x923 JUMPI PUSH2 0x922 PUSH2 0x95B JUMP JUMPDEST JUMPDEST DUP1 PUSH1 0x40 MSTORE POP POP POP JUMP JUMPDEST PUSH32 0x4E487B7100000000000000000000000000000000000000000000000000000000 PUSH1 0x0 MSTORE PUSH1 0x22 PUSH1 0x4 MSTORE PUSH1 0x24 PUSH1 0x0 REVERT JUMPDEST PUSH32 0x4E487B7100000000000000000000000000000000000000000000000000000000 PUSH1 0x0 MSTORE PUSH1 0x41 PUSH1 0x4 MSTORE PUSH1 0x24 PUSH1 0x0 REVERT JUMPDEST PUSH1 0x0 DUP1 REVERT JUMPDEST PUSH1 0x0 DUP1 REVERT JUMPDEST PUSH1 0x0 DUP1 REVERT JUMPDEST PUSH1 0x0 DUP1 REVERT JUMPDEST PUSH1 0x0 PUSH1 0x1F NOT PUSH1 0x1F DUP4 ADD AND SWAP1 POP SWAP2 SWAP1 POP JUMP JUMPDEST PUSH2 0x9B8 DUP2 PUSH2 0x83F JUMP JUMPDEST DUP2 EQ PUSH2 0x9C3 JUMPI PUSH1 0x0 DUP1 REVERT JUMPDEST POP JUMP JUMPDEST PUSH2 0x9CF DUP2 PUSH2 0x87D JUMP JUMPDEST DUP2 EQ PUSH2 0x9DA JUMPI PUSH1 0x0 DUP1 REVERT JUMPDEST POP JUMP INVALID LOG2 PUSH5 0x6970667358 0x22 SLT KECCAK256 SWAP2 DUP3 CREATE2 0x2E PUSH12 0xAE6C8822054EBAD9BB7B1E26 ADDMOD 0xCE 0xE7 SLT 0x25 SWAP3 SWAP5 SWAP15 PUSH32 0x7B2BF0877B0B64736F6C63430008070033000000000000000000000000000000 "
				},
				"gasEstimates": {
					"creation": {
						"codeDepositCost": "515800",
						"executionCost": "549",
						"totalCost": "516349"
					},
					"external": {
						"createNewTicket(address,string)": "infinite",
						"tickerUnderAuthority(address)": "2792",
						"ticketStatus(uint256)": "2862",
						"ticketToOwner(uint256)": "2839",
						"tickets(uint256)": "infinite"
					},
					"internal": {
						"_createTicket(uint256,address,string memory)": "infinite",
						"generateRefNo(string memory)": "infinite"
					}
				},
				"methodIdentifiers": {
					"createNewTicket(address,string)": "3c518dd3",
					"tickerUnderAuthority(address)": "0607be1b",
					"ticketStatus(uint256)": "8ce7e461",
					"ticketToOwner(uint256)": "2b08e824",
					"tickets(uint256)": "50b44712"
				}
			},
			"storageLayout": {
				"storage": [
					{
						"astId": 22,
						"contract": "contracts/CreateTicket.sol:NewTicket",
						"label": "tickets",
						"offset": 0,
						"slot": "0",
						"type": "t_array(t_struct(Ticket)18_storage)dyn_storage"
					},
					{
						"astId": 26,
						"contract": "contracts/CreateTicket.sol:NewTicket",
						"label": "ticketToOwner",
						"offset": 0,
						"slot": "1",
						"type": "t_mapping(t_uint256,t_address)"
					},
					{
						"astId": 30,
						"contract": "contracts/CreateTicket.sol:NewTicket",
						"label": "tickerUnderAuthority",
						"offset": 0,
						"slot": "2",
						"type": "t_mapping(t_address,t_uint256)"
					},
					{
						"astId": 34,
						"contract": "contracts/CreateTicket.sol:NewTicket",
						"label": "ticketStatus",
						"offset": 0,
						"slot": "3",
						"type": "t_mapping(t_uint256,t_bool)"
					}
				],
				"types": {
					"t_address": {
						"encoding": "inplace",
						"label": "address",
						"numberOfBytes": "20"
					},
					"t_array(t_struct(Ticket)18_storage)dyn_storage": {
						"base": "t_struct(Ticket)18_storage",
						"encoding": "dynamic_array",
						"label": "struct NewTicket.Ticket[]",
						"numberOfBytes": "32"
					},
					"t_bool": {
						"encoding": "inplace",
						"label": "bool",
						"numberOfBytes": "1"
					},
					"t_mapping(t_address,t_uint256)": {
						"encoding": "mapping",
						"key": "t_address",
						"label": "mapping(address => uint256)",
						"numberOfBytes": "32",
						"value": "t_uint256"
					},
					"t_mapping(t_uint256,t_address)": {
						"encoding": "mapping",
						"key": "t_uint256",
						"label": "mapping(uint256 => address)",
						"numberOfBytes": "32",
						"value": "t_address"
					},
					"t_mapping(t_uint256,t_bool)": {
						"encoding": "mapping",
						"key": "t_uint256",
						"label": "mapping(uint256 => bool)",
						"numberOfBytes": "32",
						"value": "t_bool"
					},
					"t_string_storage": {
						"encoding": "bytes",
						"label": "string",
						"numberOfBytes": "32"
					},
					"t_struct(Ticket)18_storage": {
						"encoding": "inplace",
						"label": "struct NewTicket.Ticket",
						"members": [
							{
								"astId": 13,
								"contract": "contracts/CreateTicket.sol:NewTicket",
								"label": "refNo",
								"offset": 0,
								"slot": "0",
								"type": "t_uint256"
							},
							{
								"astId": 15,
								"contract": "contracts/CreateTicket.sol:NewTicket",
								"label": "authority",
								"offset": 0,
								"slot": "1",
								"type": "t_address"
							},
							{
								"astId": 17,
								"contract": "contracts/CreateTicket.sol:NewTicket",
								"label": "link",
								"offset": 0,
								"slot": "2",
								"type": "t_string_storage"
							}
						],
						"numberOfBytes": "96"
					},
					"t_uint256": {
						"encoding": "inplace",
						"label": "uint256",
						"numberOfBytes": "32"
					}
				}
			},
			"userdoc": {
				"kind": "user",
				"methods": {},
				"version": 1
			}
		}
	}
}