{
	"contracts/CreateTicket.sol": {
		"NewTicket": {
			"abi": [
				{
					"anonymous": false,
					"inputs": [
						{
							"indexed": false,
							"internalType": "uint256",
							"name": "ticketId",
							"type": "uint256"
						},
						{
							"indexed": false,
							"internalType": "uint256",
							"name": "refNo",
							"type": "uint256"
						},
						{
							"indexed": false,
							"internalType": "string",
							"name": "authority",
							"type": "string"
						},
						{
							"indexed": false,
							"internalType": "string",
							"name": "link",
							"type": "string"
						}
					],
					"name": "ticketCreated",
					"type": "event"
				},
				{
					"inputs": [
						{
							"internalType": "string",
							"name": "_authority",
							"type": "string"
						},
						{
							"internalType": "string",
							"name": "_link",
							"type": "string"
						}
					],
					"name": "createNewTicket",
					"outputs": [],
					"stateMutability": "nonpayable",
					"type": "function"
				},
				{
					"inputs": [
						{
							"internalType": "uint256",
							"name": "",
							"type": "uint256"
						}
					],
					"name": "ticketStatus",
					"outputs": [
						{
							"internalType": "bool",
							"name": "",
							"type": "bool"
						}
					],
					"stateMutability": "view",
					"type": "function"
				},
				{
					"inputs": [
						{
							"internalType": "uint256",
							"name": "",
							"type": "uint256"
						}
					],
					"name": "ticketToOwner",
					"outputs": [
						{
							"internalType": "address",
							"name": "",
							"type": "address"
						}
					],
					"stateMutability": "view",
					"type": "function"
				},
				{
					"inputs": [
						{
							"internalType": "uint256",
							"name": "",
							"type": "uint256"
						}
					],
					"name": "tickets",
					"outputs": [
						{
							"internalType": "uint256",
							"name": "refNo",
							"type": "uint256"
						},
						{
							"internalType": "string",
							"name": "authority",
							"type": "string"
						},
						{
							"internalType": "string",
							"name": "link",
							"type": "string"
						}
					],
					"stateMutability": "view",
					"type": "function"
				}
			],
			"devdoc": {
				"kind": "dev",
				"methods": {},
				"version": 1
			},
			"evm": {
				"assembly": "    /* \"contracts/CreateTicket.sol\":70:1042  contract NewTicket {\r... */\n  mstore(0x40, 0x80)\n  callvalue\n  dup1\n  iszero\n  tag_1\n  jumpi\n  0x00\n  dup1\n  revert\ntag_1:\n  pop\n  dataSize(sub_0)\n  dup1\n  dataOffset(sub_0)\n  0x00\n  codecopy\n  0x00\n  return\nstop\n\nsub_0: assembly {\n        /* \"contracts/CreateTicket.sol\":70:1042  contract NewTicket {\r... */\n      mstore(0x40, 0x80)\n      callvalue\n      dup1\n      iszero\n      tag_1\n      jumpi\n      0x00\n      dup1\n      revert\n    tag_1:\n      pop\n      jumpi(tag_2, lt(calldatasize, 0x04))\n      shr(0xe0, calldataload(0x00))\n      dup1\n      0x2b08e824\n      eq\n      tag_3\n      jumpi\n      dup1\n      0x50b44712\n      eq\n      tag_4\n      jumpi\n      dup1\n      0x8ce7e461\n      eq\n      tag_5\n      jumpi\n      dup1\n      0xe0a08f27\n      eq\n      tag_6\n      jumpi\n    tag_2:\n      0x00\n      dup1\n      revert\n        /* \"contracts/CreateTicket.sol\":316:361  mapping(uint => address) public ticketToOwner */\n    tag_3:\n      tag_7\n      0x04\n      dup1\n      calldatasize\n      sub\n      dup2\n      add\n      swap1\n      tag_8\n      swap2\n      swap1\n      tag_9\n      jump\t// in\n    tag_8:\n      tag_10\n      jump\t// in\n    tag_7:\n      mload(0x40)\n      tag_11\n      swap2\n      swap1\n      tag_12\n      jump\t// in\n    tag_11:\n      mload(0x40)\n      dup1\n      swap2\n      sub\n      swap1\n      return\n        /* \"contracts/CreateTicket.sol\":284:307  Ticket[] public tickets */\n    tag_4:\n      tag_13\n      0x04\n      dup1\n      calldatasize\n      sub\n      dup2\n      add\n      swap1\n      tag_14\n      swap2\n      swap1\n      tag_9\n      jump\t// in\n    tag_14:\n      tag_15\n      jump\t// in\n    tag_13:\n      mload(0x40)\n      tag_16\n      swap4\n      swap3\n      swap2\n      swap1\n      tag_17\n      jump\t// in\n    tag_16:\n      mload(0x40)\n      dup1\n      swap2\n      sub\n      swap1\n      return\n        /* \"contracts/CreateTicket.sol\":368:409  mapping(uint => bool) public ticketStatus */\n    tag_5:\n      tag_18\n      0x04\n      dup1\n      calldatasize\n      sub\n      dup2\n      add\n      swap1\n      tag_19\n      swap2\n      swap1\n      tag_9\n      jump\t// in\n    tag_19:\n      tag_20\n      jump\t// in\n    tag_18:\n      mload(0x40)\n      tag_21\n      swap2\n      swap1\n      tag_22\n      jump\t// in\n    tag_21:\n      mload(0x40)\n      dup1\n      swap2\n      sub\n      swap1\n      return\n        /* \"contracts/CreateTicket.sol\":858:1039  function createNewTicket(string memory _authority, string memory _link) public {\r... */\n    tag_6:\n      tag_23\n      0x04\n      dup1\n      calldatasize\n      sub\n      dup2\n      add\n      swap1\n      tag_24\n      swap2\n      swap1\n      tag_25\n      jump\t// in\n    tag_24:\n      tag_26\n      jump\t// in\n    tag_23:\n      stop\n        /* \"contracts/CreateTicket.sol\":316:361  mapping(uint => address) public ticketToOwner */\n    tag_10:\n      mstore(0x20, 0x01)\n      dup1\n      0x00\n      mstore\n      keccak256(0x00, 0x40)\n      0x00\n      swap2\n      pop\n      sload\n      swap1\n      0x0100\n      exp\n      swap1\n      div\n      0xffffffffffffffffffffffffffffffffffffffff\n      and\n      dup2\n      jump\t// out\n        /* \"contracts/CreateTicket.sol\":284:307  Ticket[] public tickets */\n    tag_15:\n      0x00\n      dup2\n      dup2\n      sload\n      dup2\n      lt\n      tag_27\n      jumpi\n      0x00\n      dup1\n      revert\n    tag_27:\n      swap1\n      0x00\n      mstore\n      keccak256(0x00, 0x20)\n      swap1\n      0x03\n      mul\n      add\n      0x00\n      swap2\n      pop\n      swap1\n      pop\n      dup1\n      0x00\n      add\n      sload\n      swap1\n      dup1\n      0x01\n      add\n      dup1\n      sload\n      tag_29\n      swap1\n      tag_30\n      jump\t// in\n    tag_29:\n      dup1\n      0x1f\n      add\n      0x20\n      dup1\n      swap2\n      div\n      mul\n      0x20\n      add\n      mload(0x40)\n      swap1\n      dup2\n      add\n      0x40\n      mstore\n      dup1\n      swap3\n      swap2\n      swap1\n      dup2\n      dup2\n      mstore\n      0x20\n      add\n      dup3\n      dup1\n      sload\n      tag_31\n      swap1\n      tag_30\n      jump\t// in\n    tag_31:\n      dup1\n      iszero\n      tag_32\n      jumpi\n      dup1\n      0x1f\n      lt\n      tag_33\n      jumpi\n      0x0100\n      dup1\n      dup4\n      sload\n      div\n      mul\n      dup4\n      mstore\n      swap2\n      0x20\n      add\n      swap2\n      jump(tag_32)\n    tag_33:\n      dup3\n      add\n      swap2\n      swap1\n      0x00\n      mstore\n      keccak256(0x00, 0x20)\n      swap1\n    tag_34:\n      dup2\n      sload\n      dup2\n      mstore\n      swap1\n      0x01\n      add\n      swap1\n      0x20\n      add\n      dup1\n      dup4\n      gt\n      tag_34\n      jumpi\n      dup3\n      swap1\n      sub\n      0x1f\n      and\n      dup3\n      add\n      swap2\n    tag_32:\n      pop\n      pop\n      pop\n      pop\n      pop\n      swap1\n      dup1\n      0x02\n      add\n      dup1\n      sload\n      tag_35\n      swap1\n      tag_30\n      jump\t// in\n    tag_35:\n      dup1\n      0x1f\n      add\n      0x20\n      dup1\n      swap2\n      div\n      mul\n      0x20\n      add\n      mload(0x40)\n      swap1\n      dup2\n      add\n      0x40\n      mstore\n      dup1\n      swap3\n      swap2\n      swap1\n      dup2\n      dup2\n      mstore\n      0x20\n      add\n      dup3\n      dup1\n      sload\n      tag_36\n      swap1\n      tag_30\n      jump\t// in\n    tag_36:\n      dup1\n      iszero\n      tag_37\n      jumpi\n      dup1\n      0x1f\n      lt\n      tag_38\n      jumpi\n      0x0100\n      dup1\n      dup4\n      sload\n      div\n      mul\n      dup4\n      mstore\n      swap2\n      0x20\n      add\n      swap2\n      jump(tag_37)\n    tag_38:\n      dup3\n      add\n      swap2\n      swap1\n      0x00\n      mstore\n      keccak256(0x00, 0x20)\n      swap1\n    tag_39:\n      dup2\n      sload\n      dup2\n      mstore\n      swap1\n      0x01\n      add\n      swap1\n      0x20\n      add\n      dup1\n      dup4\n      gt\n      tag_39\n      jumpi\n      dup3\n      swap1\n      sub\n      0x1f\n      and\n      dup3\n      add\n      swap2\n    tag_37:\n      pop\n      pop\n      pop\n      pop\n      pop\n      swap1\n      pop\n      dup4\n      jump\t// out\n        /* \"contracts/CreateTicket.sol\":368:409  mapping(uint => bool) public ticketStatus */\n    tag_20:\n      mstore(0x20, 0x02)\n      dup1\n      0x00\n      mstore\n      keccak256(0x00, 0x40)\n      0x00\n      swap2\n      pop\n      sload\n      swap1\n      0x0100\n      exp\n      swap1\n      div\n      0xff\n      and\n      dup2\n      jump\t// out\n        /* \"contracts/CreateTicket.sol\":858:1039  function createNewTicket(string memory _authority, string memory _link) public {\r... */\n    tag_26:\n        /* \"contracts/CreateTicket.sol\":948:958  uint RefNo */\n      0x00\n        /* \"contracts/CreateTicket.sol\":961:981  generateRefNo(_link) */\n      tag_41\n        /* \"contracts/CreateTicket.sol\":975:980  _link */\n      dup3\n        /* \"contracts/CreateTicket.sol\":961:974  generateRefNo */\n      tag_42\n        /* \"contracts/CreateTicket.sol\":961:981  generateRefNo(_link) */\n      jump\t// in\n    tag_41:\n        /* \"contracts/CreateTicket.sol\":948:981  uint RefNo = generateRefNo(_link) */\n      swap1\n      pop\n        /* \"contracts/CreateTicket.sol\":992:1031  _createTicket(RefNo, _authority, _link) */\n      tag_43\n        /* \"contracts/CreateTicket.sol\":1006:1011  RefNo */\n      dup2\n        /* \"contracts/CreateTicket.sol\":1013:1023  _authority */\n      dup5\n        /* \"contracts/CreateTicket.sol\":1025:1030  _link */\n      dup5\n        /* \"contracts/CreateTicket.sol\":992:1005  _createTicket */\n      tag_44\n        /* \"contracts/CreateTicket.sol\":992:1031  _createTicket(RefNo, _authority, _link) */\n      jump\t// in\n    tag_43:\n        /* \"contracts/CreateTicket.sol\":937:1039  {\r... */\n      pop\n        /* \"contracts/CreateTicket.sol\":858:1039  function createNewTicket(string memory _authority, string memory _link) public {\r... */\n      pop\n      pop\n      jump\t// out\n        /* \"contracts/CreateTicket.sol\":679:850  function generateRefNo(string memory _str) private view returns (uint) {\r... */\n    tag_42:\n        /* \"contracts/CreateTicket.sol\":744:748  uint */\n      0x00\n        /* \"contracts/CreateTicket.sol\":761:774  uint NewRefNo */\n      dup1\n        /* \"contracts/CreateTicket.sol\":809:813  _str */\n      dup3\n        /* \"contracts/CreateTicket.sol\":792:814  abi.encodePacked(_str) */\n      add(0x20, mload(0x40))\n      tag_46\n      swap2\n      swap1\n      tag_47\n      jump\t// in\n    tag_46:\n      mload(0x40)\n      0x20\n      dup2\n      dup4\n      sub\n      sub\n      dup2\n      mstore\n      swap1\n      0x40\n      mstore\n        /* \"contracts/CreateTicket.sol\":782:815  keccak256(abi.encodePacked(_str)) */\n      dup1\n      mload\n      swap1\n      0x20\n      add\n      keccak256\n        /* \"contracts/CreateTicket.sol\":777:816  uint(keccak256(abi.encodePacked(_str))) */\n      0x00\n      shr\n        /* \"contracts/CreateTicket.sol\":761:816  uint NewRefNo = uint(keccak256(abi.encodePacked(_str))) */\n      swap1\n      pop\n        /* \"contracts/CreateTicket.sol\":834:842  NewRefNo */\n      dup1\n        /* \"contracts/CreateTicket.sol\":827:842  return NewRefNo */\n      swap2\n      pop\n      pop\n        /* \"contracts/CreateTicket.sol\":679:850  function generateRefNo(string memory _str) private view returns (uint) {\r... */\n      swap2\n      swap1\n      pop\n      jump\t// out\n        /* \"contracts/CreateTicket.sol\":418:671  function _createTicket(uint _refNo, string memory _authority, string memory _link) private { \r... */\n    tag_44:\n        /* \"contracts/CreateTicket.sol\":521:528  tickets */\n      0x00\n        /* \"contracts/CreateTicket.sol\":534:567  Ticket(_refNo, _authority, _link) */\n      mload(0x40)\n      dup1\n      0x60\n      add\n      0x40\n      mstore\n      dup1\n        /* \"contracts/CreateTicket.sol\":541:547  _refNo */\n      dup6\n        /* \"contracts/CreateTicket.sol\":534:567  Ticket(_refNo, _authority, _link) */\n      dup2\n      mstore\n      0x20\n      add\n        /* \"contracts/CreateTicket.sol\":549:559  _authority */\n      dup5\n        /* \"contracts/CreateTicket.sol\":534:567  Ticket(_refNo, _authority, _link) */\n      dup2\n      mstore\n      0x20\n      add\n        /* \"contracts/CreateTicket.sol\":561:566  _link */\n      dup4\n        /* \"contracts/CreateTicket.sol\":534:567  Ticket(_refNo, _authority, _link) */\n      dup2\n      mstore\n      pop\n        /* \"contracts/CreateTicket.sol\":521:568  tickets.push(Ticket(_refNo, _authority, _link)) */\n      swap1\n      dup1\n      0x01\n      dup2\n      sload\n      add\n      dup1\n      dup3\n      sstore\n      dup1\n      swap2\n      pop\n      pop\n      0x01\n      swap1\n      sub\n      swap1\n      0x00\n      mstore\n      keccak256(0x00, 0x20)\n      swap1\n      0x03\n      mul\n      add\n      0x00\n      swap1\n      swap2\n      swap1\n      swap2\n      swap1\n      swap2\n      pop\n      0x00\n      dup3\n      add\n      mload\n      dup2\n      0x00\n      add\n      sstore\n      0x20\n      dup3\n      add\n      mload\n      dup2\n      0x01\n      add\n      swap1\n      dup1\n      mload\n      swap1\n      0x20\n      add\n      swap1\n      tag_50\n      swap3\n      swap2\n      swap1\n      tag_51\n      jump\t// in\n    tag_50:\n      pop\n      0x40\n      dup3\n      add\n      mload\n      dup2\n      0x02\n      add\n      swap1\n      dup1\n      mload\n      swap1\n      0x20\n      add\n      swap1\n      tag_52\n      swap3\n      swap2\n      swap1\n      tag_51\n      jump\t// in\n    tag_52:\n      pop\n      pop\n      pop\n        /* \"contracts/CreateTicket.sol\":579:586  uint Id */\n      0x00\n        /* \"contracts/CreateTicket.sol\":589:596  tickets */\n      dup1\n        /* \"contracts/CreateTicket.sol\":589:603  tickets.length */\n      dup1\n      sload\n      swap1\n      pop\n        /* \"contracts/CreateTicket.sol\":579:603  uint Id = tickets.length */\n      swap1\n      pop\n        /* \"contracts/CreateTicket.sol\":619:663  ticketCreated(Id, _refNo, _authority, _link) */\n      0xa421576df59f1a0508daa93ce319ec1008a3e4049fac768ebbc0765c18602d96\n        /* \"contracts/CreateTicket.sol\":633:635  Id */\n      dup2\n        /* \"contracts/CreateTicket.sol\":637:643  _refNo */\n      dup6\n        /* \"contracts/CreateTicket.sol\":645:655  _authority */\n      dup6\n        /* \"contracts/CreateTicket.sol\":657:662  _link */\n      dup6\n        /* \"contracts/CreateTicket.sol\":619:663  ticketCreated(Id, _refNo, _authority, _link) */\n      mload(0x40)\n      tag_53\n      swap5\n      swap4\n      swap3\n      swap2\n      swap1\n      tag_54\n      jump\t// in\n    tag_53:\n      mload(0x40)\n      dup1\n      swap2\n      sub\n      swap1\n      log1\n        /* \"contracts/CreateTicket.sol\":509:671  { \r... */\n      pop\n        /* \"contracts/CreateTicket.sol\":418:671  function _createTicket(uint _refNo, string memory _authority, string memory _link) private { \r... */\n      pop\n      pop\n      pop\n      jump\t// out\n    tag_51:\n      dup3\n      dup1\n      sload\n      tag_55\n      swap1\n      tag_30\n      jump\t// in\n    tag_55:\n      swap1\n      0x00\n      mstore\n      keccak256(0x00, 0x20)\n      swap1\n      0x1f\n      add\n      0x20\n      swap1\n      div\n      dup2\n      add\n      swap3\n      dup3\n      tag_57\n      jumpi\n      0x00\n      dup6\n      sstore\n      jump(tag_56)\n    tag_57:\n      dup3\n      0x1f\n      lt\n      tag_58\n      jumpi\n      dup1\n      mload\n      not(0xff)\n      and\n      dup4\n      dup1\n      add\n      or\n      dup6\n      sstore\n      jump(tag_56)\n    tag_58:\n      dup3\n      dup1\n      add\n      0x01\n      add\n      dup6\n      sstore\n      dup3\n      iszero\n      tag_56\n      jumpi\n      swap2\n      dup3\n      add\n    tag_59:\n      dup3\n      dup2\n      gt\n      iszero\n      tag_60\n      jumpi\n      dup3\n      mload\n      dup3\n      sstore\n      swap2\n      0x20\n      add\n      swap2\n      swap1\n      0x01\n      add\n      swap1\n      jump(tag_59)\n    tag_60:\n    tag_56:\n      pop\n      swap1\n      pop\n      tag_61\n      swap2\n      swap1\n      tag_62\n      jump\t// in\n    tag_61:\n      pop\n      swap1\n      jump\t// out\n    tag_62:\n    tag_63:\n      dup1\n      dup3\n      gt\n      iszero\n      tag_64\n      jumpi\n      0x00\n      dup2\n      0x00\n      swap1\n      sstore\n      pop\n      0x01\n      add\n      jump(tag_63)\n    tag_64:\n      pop\n      swap1\n      jump\t// out\n        /* \"#utility.yul\":7:419   */\n    tag_66:\n        /* \"#utility.yul\":85:90   */\n      0x00\n        /* \"#utility.yul\":110:176   */\n      tag_68\n        /* \"#utility.yul\":126:175   */\n      tag_69\n        /* \"#utility.yul\":168:174   */\n      dup5\n        /* \"#utility.yul\":126:175   */\n      tag_70\n      jump\t// in\n    tag_69:\n        /* \"#utility.yul\":110:176   */\n      tag_71\n      jump\t// in\n    tag_68:\n        /* \"#utility.yul\":101:176   */\n      swap1\n      pop\n        /* \"#utility.yul\":199:205   */\n      dup3\n        /* \"#utility.yul\":192:197   */\n      dup2\n        /* \"#utility.yul\":185:206   */\n      mstore\n        /* \"#utility.yul\":237:241   */\n      0x20\n        /* \"#utility.yul\":230:235   */\n      dup2\n        /* \"#utility.yul\":226:242   */\n      add\n        /* \"#utility.yul\":275:278   */\n      dup5\n        /* \"#utility.yul\":266:272   */\n      dup5\n        /* \"#utility.yul\":261:264   */\n      dup5\n        /* \"#utility.yul\":257:273   */\n      add\n        /* \"#utility.yul\":254:279   */\n      gt\n        /* \"#utility.yul\":251:363   */\n      iszero\n      tag_72\n      jumpi\n        /* \"#utility.yul\":282:361   */\n      tag_73\n      tag_74\n      jump\t// in\n    tag_73:\n        /* \"#utility.yul\":251:363   */\n    tag_72:\n        /* \"#utility.yul\":372:413   */\n      tag_75\n        /* \"#utility.yul\":406:412   */\n      dup5\n        /* \"#utility.yul\":401:404   */\n      dup3\n        /* \"#utility.yul\":396:399   */\n      dup6\n        /* \"#utility.yul\":372:413   */\n      tag_76\n      jump\t// in\n    tag_75:\n        /* \"#utility.yul\":91:419   */\n      pop\n        /* \"#utility.yul\":7:419   */\n      swap4\n      swap3\n      pop\n      pop\n      pop\n      jump\t// out\n        /* \"#utility.yul\":439:779   */\n    tag_77:\n        /* \"#utility.yul\":495:500   */\n      0x00\n        /* \"#utility.yul\":544:547   */\n      dup3\n        /* \"#utility.yul\":537:541   */\n      0x1f\n        /* \"#utility.yul\":529:535   */\n      dup4\n        /* \"#utility.yul\":525:542   */\n      add\n        /* \"#utility.yul\":521:548   */\n      slt\n        /* \"#utility.yul\":511:633   */\n      tag_79\n      jumpi\n        /* \"#utility.yul\":552:631   */\n      tag_80\n      tag_81\n      jump\t// in\n    tag_80:\n        /* \"#utility.yul\":511:633   */\n    tag_79:\n        /* \"#utility.yul\":669:675   */\n      dup2\n        /* \"#utility.yul\":656:676   */\n      calldataload\n        /* \"#utility.yul\":694:773   */\n      tag_82\n        /* \"#utility.yul\":769:772   */\n      dup5\n        /* \"#utility.yul\":761:767   */\n      dup3\n        /* \"#utility.yul\":754:758   */\n      0x20\n        /* \"#utility.yul\":746:752   */\n      dup7\n        /* \"#utility.yul\":742:759   */\n      add\n        /* \"#utility.yul\":694:773   */\n      tag_66\n      jump\t// in\n    tag_82:\n        /* \"#utility.yul\":685:773   */\n      swap2\n      pop\n        /* \"#utility.yul\":501:779   */\n      pop\n        /* \"#utility.yul\":439:779   */\n      swap3\n      swap2\n      pop\n      pop\n      jump\t// out\n        /* \"#utility.yul\":785:924   */\n    tag_83:\n        /* \"#utility.yul\":831:836   */\n      0x00\n        /* \"#utility.yul\":869:875   */\n      dup2\n        /* \"#utility.yul\":856:876   */\n      calldataload\n        /* \"#utility.yul\":847:876   */\n      swap1\n      pop\n        /* \"#utility.yul\":885:918   */\n      tag_85\n        /* \"#utility.yul\":912:917   */\n      dup2\n        /* \"#utility.yul\":885:918   */\n      tag_86\n      jump\t// in\n    tag_85:\n        /* \"#utility.yul\":785:924   */\n      swap3\n      swap2\n      pop\n      pop\n      jump\t// out\n        /* \"#utility.yul\":930:1764   */\n    tag_25:\n        /* \"#utility.yul\":1018:1024   */\n      0x00\n        /* \"#utility.yul\":1026:1032   */\n      dup1\n        /* \"#utility.yul\":1075:1077   */\n      0x40\n        /* \"#utility.yul\":1063:1072   */\n      dup4\n        /* \"#utility.yul\":1054:1061   */\n      dup6\n        /* \"#utility.yul\":1050:1073   */\n      sub\n        /* \"#utility.yul\":1046:1078   */\n      slt\n        /* \"#utility.yul\":1043:1162   */\n      iszero\n      tag_88\n      jumpi\n        /* \"#utility.yul\":1081:1160   */\n      tag_89\n      tag_90\n      jump\t// in\n    tag_89:\n        /* \"#utility.yul\":1043:1162   */\n    tag_88:\n        /* \"#utility.yul\":1229:1230   */\n      0x00\n        /* \"#utility.yul\":1218:1227   */\n      dup4\n        /* \"#utility.yul\":1214:1231   */\n      add\n        /* \"#utility.yul\":1201:1232   */\n      calldataload\n        /* \"#utility.yul\":1259:1277   */\n      0xffffffffffffffff\n        /* \"#utility.yul\":1251:1257   */\n      dup2\n        /* \"#utility.yul\":1248:1278   */\n      gt\n        /* \"#utility.yul\":1245:1362   */\n      iszero\n      tag_91\n      jumpi\n        /* \"#utility.yul\":1281:1360   */\n      tag_92\n      tag_93\n      jump\t// in\n    tag_92:\n        /* \"#utility.yul\":1245:1362   */\n    tag_91:\n        /* \"#utility.yul\":1386:1449   */\n      tag_94\n        /* \"#utility.yul\":1441:1448   */\n      dup6\n        /* \"#utility.yul\":1432:1438   */\n      dup3\n        /* \"#utility.yul\":1421:1430   */\n      dup7\n        /* \"#utility.yul\":1417:1439   */\n      add\n        /* \"#utility.yul\":1386:1449   */\n      tag_77\n      jump\t// in\n    tag_94:\n        /* \"#utility.yul\":1376:1449   */\n      swap3\n      pop\n        /* \"#utility.yul\":1172:1459   */\n      pop\n        /* \"#utility.yul\":1526:1528   */\n      0x20\n        /* \"#utility.yul\":1515:1524   */\n      dup4\n        /* \"#utility.yul\":1511:1529   */\n      add\n        /* \"#utility.yul\":1498:1530   */\n      calldataload\n        /* \"#utility.yul\":1557:1575   */\n      0xffffffffffffffff\n        /* \"#utility.yul\":1549:1555   */\n      dup2\n        /* \"#utility.yul\":1546:1576   */\n      gt\n        /* \"#utility.yul\":1543:1660   */\n      iszero\n      tag_95\n      jumpi\n        /* \"#utility.yul\":1579:1658   */\n      tag_96\n      tag_93\n      jump\t// in\n    tag_96:\n        /* \"#utility.yul\":1543:1660   */\n    tag_95:\n        /* \"#utility.yul\":1684:1747   */\n      tag_97\n        /* \"#utility.yul\":1739:1746   */\n      dup6\n        /* \"#utility.yul\":1730:1736   */\n      dup3\n        /* \"#utility.yul\":1719:1728   */\n      dup7\n        /* \"#utility.yul\":1715:1737   */\n      add\n        /* \"#utility.yul\":1684:1747   */\n      tag_77\n      jump\t// in\n    tag_97:\n        /* \"#utility.yul\":1674:1747   */\n      swap2\n      pop\n        /* \"#utility.yul\":1469:1757   */\n      pop\n        /* \"#utility.yul\":930:1764   */\n      swap3\n      pop\n      swap3\n      swap1\n      pop\n      jump\t// out\n        /* \"#utility.yul\":1770:2099   */\n    tag_9:\n        /* \"#utility.yul\":1829:1835   */\n      0x00\n        /* \"#utility.yul\":1878:1880   */\n      0x20\n        /* \"#utility.yul\":1866:1875   */\n      dup3\n        /* \"#utility.yul\":1857:1864   */\n      dup5\n        /* \"#utility.yul\":1853:1876   */\n      sub\n        /* \"#utility.yul\":1849:1881   */\n      slt\n        /* \"#utility.yul\":1846:1965   */\n      iszero\n      tag_99\n      jumpi\n        /* \"#utility.yul\":1884:1963   */\n      tag_100\n      tag_90\n      jump\t// in\n    tag_100:\n        /* \"#utility.yul\":1846:1965   */\n    tag_99:\n        /* \"#utility.yul\":2004:2005   */\n      0x00\n        /* \"#utility.yul\":2029:2082   */\n      tag_101\n        /* \"#utility.yul\":2074:2081   */\n      dup5\n        /* \"#utility.yul\":2065:2071   */\n      dup3\n        /* \"#utility.yul\":2054:2063   */\n      dup6\n        /* \"#utility.yul\":2050:2072   */\n      add\n        /* \"#utility.yul\":2029:2082   */\n      tag_83\n      jump\t// in\n    tag_101:\n        /* \"#utility.yul\":2019:2082   */\n      swap2\n      pop\n        /* \"#utility.yul\":1975:2092   */\n      pop\n        /* \"#utility.yul\":1770:2099   */\n      swap3\n      swap2\n      pop\n      pop\n      jump\t// out\n        /* \"#utility.yul\":2105:2223   */\n    tag_102:\n        /* \"#utility.yul\":2192:2216   */\n      tag_104\n        /* \"#utility.yul\":2210:2215   */\n      dup2\n        /* \"#utility.yul\":2192:2216   */\n      tag_105\n      jump\t// in\n    tag_104:\n        /* \"#utility.yul\":2187:2190   */\n      dup3\n        /* \"#utility.yul\":2180:2217   */\n      mstore\n        /* \"#utility.yul\":2105:2223   */\n      pop\n      pop\n      jump\t// out\n        /* \"#utility.yul\":2229:2338   */\n    tag_106:\n        /* \"#utility.yul\":2310:2331   */\n      tag_108\n        /* \"#utility.yul\":2325:2330   */\n      dup2\n        /* \"#utility.yul\":2310:2331   */\n      tag_109\n      jump\t// in\n    tag_108:\n        /* \"#utility.yul\":2305:2308   */\n      dup3\n        /* \"#utility.yul\":2298:2332   */\n      mstore\n        /* \"#utility.yul\":2229:2338   */\n      pop\n      pop\n      jump\t// out\n        /* \"#utility.yul\":2344:2708   */\n    tag_110:\n        /* \"#utility.yul\":2432:2435   */\n      0x00\n        /* \"#utility.yul\":2460:2499   */\n      tag_112\n        /* \"#utility.yul\":2493:2498   */\n      dup3\n        /* \"#utility.yul\":2460:2499   */\n      tag_113\n      jump\t// in\n    tag_112:\n        /* \"#utility.yul\":2515:2586   */\n      tag_114\n        /* \"#utility.yul\":2579:2585   */\n      dup2\n        /* \"#utility.yul\":2574:2577   */\n      dup6\n        /* \"#utility.yul\":2515:2586   */\n      tag_115\n      jump\t// in\n    tag_114:\n        /* \"#utility.yul\":2508:2586   */\n      swap4\n      pop\n        /* \"#utility.yul\":2595:2647   */\n      tag_116\n        /* \"#utility.yul\":2640:2646   */\n      dup2\n        /* \"#utility.yul\":2635:2638   */\n      dup6\n        /* \"#utility.yul\":2628:2632   */\n      0x20\n        /* \"#utility.yul\":2621:2626   */\n      dup7\n        /* \"#utility.yul\":2617:2633   */\n      add\n        /* \"#utility.yul\":2595:2647   */\n      tag_117\n      jump\t// in\n    tag_116:\n        /* \"#utility.yul\":2672:2701   */\n      tag_118\n        /* \"#utility.yul\":2694:2700   */\n      dup2\n        /* \"#utility.yul\":2672:2701   */\n      tag_119\n      jump\t// in\n    tag_118:\n        /* \"#utility.yul\":2667:2670   */\n      dup5\n        /* \"#utility.yul\":2663:2702   */\n      add\n        /* \"#utility.yul\":2656:2702   */\n      swap2\n      pop\n        /* \"#utility.yul\":2436:2708   */\n      pop\n        /* \"#utility.yul\":2344:2708   */\n      swap3\n      swap2\n      pop\n      pop\n      jump\t// out\n        /* \"#utility.yul\":2714:3091   */\n    tag_120:\n        /* \"#utility.yul\":2820:2823   */\n      0x00\n        /* \"#utility.yul\":2848:2887   */\n      tag_122\n        /* \"#utility.yul\":2881:2886   */\n      dup3\n        /* \"#utility.yul\":2848:2887   */\n      tag_113\n      jump\t// in\n    tag_122:\n        /* \"#utility.yul\":2903:2992   */\n      tag_123\n        /* \"#utility.yul\":2985:2991   */\n      dup2\n        /* \"#utility.yul\":2980:2983   */\n      dup6\n        /* \"#utility.yul\":2903:2992   */\n      tag_124\n      jump\t// in\n    tag_123:\n        /* \"#utility.yul\":2896:2992   */\n      swap4\n      pop\n        /* \"#utility.yul\":3001:3053   */\n      tag_125\n        /* \"#utility.yul\":3046:3052   */\n      dup2\n        /* \"#utility.yul\":3041:3044   */\n      dup6\n        /* \"#utility.yul\":3034:3038   */\n      0x20\n        /* \"#utility.yul\":3027:3032   */\n      dup7\n        /* \"#utility.yul\":3023:3039   */\n      add\n        /* \"#utility.yul\":3001:3053   */\n      tag_117\n      jump\t// in\n    tag_125:\n        /* \"#utility.yul\":3078:3084   */\n      dup1\n        /* \"#utility.yul\":3073:3076   */\n      dup5\n        /* \"#utility.yul\":3069:3085   */\n      add\n        /* \"#utility.yul\":3062:3085   */\n      swap2\n      pop\n        /* \"#utility.yul\":2824:3091   */\n      pop\n        /* \"#utility.yul\":2714:3091   */\n      swap3\n      swap2\n      pop\n      pop\n      jump\t// out\n        /* \"#utility.yul\":3097:3215   */\n    tag_126:\n        /* \"#utility.yul\":3184:3208   */\n      tag_128\n        /* \"#utility.yul\":3202:3207   */\n      dup2\n        /* \"#utility.yul\":3184:3208   */\n      tag_129\n      jump\t// in\n    tag_128:\n        /* \"#utility.yul\":3179:3182   */\n      dup3\n        /* \"#utility.yul\":3172:3209   */\n      mstore\n        /* \"#utility.yul\":3097:3215   */\n      pop\n      pop\n      jump\t// out\n        /* \"#utility.yul\":3221:3496   */\n    tag_47:\n        /* \"#utility.yul\":3353:3356   */\n      0x00\n        /* \"#utility.yul\":3375:3470   */\n      tag_131\n        /* \"#utility.yul\":3466:3469   */\n      dup3\n        /* \"#utility.yul\":3457:3463   */\n      dup5\n        /* \"#utility.yul\":3375:3470   */\n      tag_120\n      jump\t// in\n    tag_131:\n        /* \"#utility.yul\":3368:3470   */\n      swap2\n      pop\n        /* \"#utility.yul\":3487:3490   */\n      dup2\n        /* \"#utility.yul\":3480:3490   */\n      swap1\n      pop\n        /* \"#utility.yul\":3221:3496   */\n      swap3\n      swap2\n      pop\n      pop\n      jump\t// out\n        /* \"#utility.yul\":3502:3724   */\n    tag_12:\n        /* \"#utility.yul\":3595:3599   */\n      0x00\n        /* \"#utility.yul\":3633:3635   */\n      0x20\n        /* \"#utility.yul\":3622:3631   */\n      dup3\n        /* \"#utility.yul\":3618:3636   */\n      add\n        /* \"#utility.yul\":3610:3636   */\n      swap1\n      pop\n        /* \"#utility.yul\":3646:3717   */\n      tag_133\n        /* \"#utility.yul\":3714:3715   */\n      0x00\n        /* \"#utility.yul\":3703:3712   */\n      dup4\n        /* \"#utility.yul\":3699:3716   */\n      add\n        /* \"#utility.yul\":3690:3696   */\n      dup5\n        /* \"#utility.yul\":3646:3717   */\n      tag_102\n      jump\t// in\n    tag_133:\n        /* \"#utility.yul\":3502:3724   */\n      swap3\n      swap2\n      pop\n      pop\n      jump\t// out\n        /* \"#utility.yul\":3730:3940   */\n    tag_22:\n        /* \"#utility.yul\":3817:3821   */\n      0x00\n        /* \"#utility.yul\":3855:3857   */\n      0x20\n        /* \"#utility.yul\":3844:3853   */\n      dup3\n        /* \"#utility.yul\":3840:3858   */\n      add\n        /* \"#utility.yul\":3832:3858   */\n      swap1\n      pop\n        /* \"#utility.yul\":3868:3933   */\n      tag_135\n        /* \"#utility.yul\":3930:3931   */\n      0x00\n        /* \"#utility.yul\":3919:3928   */\n      dup4\n        /* \"#utility.yul\":3915:3932   */\n      add\n        /* \"#utility.yul\":3906:3912   */\n      dup5\n        /* \"#utility.yul\":3868:3933   */\n      tag_106\n      jump\t// in\n    tag_135:\n        /* \"#utility.yul\":3730:3940   */\n      swap3\n      swap2\n      pop\n      pop\n      jump\t// out\n        /* \"#utility.yul\":3946:4570   */\n    tag_17:\n        /* \"#utility.yul\":4135:4139   */\n      0x00\n        /* \"#utility.yul\":4173:4175   */\n      0x60\n        /* \"#utility.yul\":4162:4171   */\n      dup3\n        /* \"#utility.yul\":4158:4176   */\n      add\n        /* \"#utility.yul\":4150:4176   */\n      swap1\n      pop\n        /* \"#utility.yul\":4186:4257   */\n      tag_137\n        /* \"#utility.yul\":4254:4255   */\n      0x00\n        /* \"#utility.yul\":4243:4252   */\n      dup4\n        /* \"#utility.yul\":4239:4256   */\n      add\n        /* \"#utility.yul\":4230:4236   */\n      dup7\n        /* \"#utility.yul\":4186:4257   */\n      tag_126\n      jump\t// in\n    tag_137:\n        /* \"#utility.yul\":4304:4313   */\n      dup2\n        /* \"#utility.yul\":4298:4302   */\n      dup2\n        /* \"#utility.yul\":4294:4314   */\n      sub\n        /* \"#utility.yul\":4289:4291   */\n      0x20\n        /* \"#utility.yul\":4278:4287   */\n      dup4\n        /* \"#utility.yul\":4274:4292   */\n      add\n        /* \"#utility.yul\":4267:4315   */\n      mstore\n        /* \"#utility.yul\":4332:4410   */\n      tag_138\n        /* \"#utility.yul\":4405:4409   */\n      dup2\n        /* \"#utility.yul\":4396:4402   */\n      dup6\n        /* \"#utility.yul\":4332:4410   */\n      tag_110\n      jump\t// in\n    tag_138:\n        /* \"#utility.yul\":4324:4410   */\n      swap1\n      pop\n        /* \"#utility.yul\":4457:4466   */\n      dup2\n        /* \"#utility.yul\":4451:4455   */\n      dup2\n        /* \"#utility.yul\":4447:4467   */\n      sub\n        /* \"#utility.yul\":4442:4444   */\n      0x40\n        /* \"#utility.yul\":4431:4440   */\n      dup4\n        /* \"#utility.yul\":4427:4445   */\n      add\n        /* \"#utility.yul\":4420:4468   */\n      mstore\n        /* \"#utility.yul\":4485:4563   */\n      tag_139\n        /* \"#utility.yul\":4558:4562   */\n      dup2\n        /* \"#utility.yul\":4549:4555   */\n      dup5\n        /* \"#utility.yul\":4485:4563   */\n      tag_110\n      jump\t// in\n    tag_139:\n        /* \"#utility.yul\":4477:4563   */\n      swap1\n      pop\n        /* \"#utility.yul\":3946:4570   */\n      swap5\n      swap4\n      pop\n      pop\n      pop\n      pop\n      jump\t// out\n        /* \"#utility.yul\":4576:5311   */\n    tag_54:\n        /* \"#utility.yul\":4793:4797   */\n      0x00\n        /* \"#utility.yul\":4831:4834   */\n      0x80\n        /* \"#utility.yul\":4820:4829   */\n      dup3\n        /* \"#utility.yul\":4816:4835   */\n      add\n        /* \"#utility.yul\":4808:4835   */\n      swap1\n      pop\n        /* \"#utility.yul\":4845:4916   */\n      tag_141\n        /* \"#utility.yul\":4913:4914   */\n      0x00\n        /* \"#utility.yul\":4902:4911   */\n      dup4\n        /* \"#utility.yul\":4898:4915   */\n      add\n        /* \"#utility.yul\":4889:4895   */\n      dup8\n        /* \"#utility.yul\":4845:4916   */\n      tag_126\n      jump\t// in\n    tag_141:\n        /* \"#utility.yul\":4926:4998   */\n      tag_142\n        /* \"#utility.yul\":4994:4996   */\n      0x20\n        /* \"#utility.yul\":4983:4992   */\n      dup4\n        /* \"#utility.yul\":4979:4997   */\n      add\n        /* \"#utility.yul\":4970:4976   */\n      dup7\n        /* \"#utility.yul\":4926:4998   */\n      tag_126\n      jump\t// in\n    tag_142:\n        /* \"#utility.yul\":5045:5054   */\n      dup2\n        /* \"#utility.yul\":5039:5043   */\n      dup2\n        /* \"#utility.yul\":5035:5055   */\n      sub\n        /* \"#utility.yul\":5030:5032   */\n      0x40\n        /* \"#utility.yul\":5019:5028   */\n      dup4\n        /* \"#utility.yul\":5015:5033   */\n      add\n        /* \"#utility.yul\":5008:5056   */\n      mstore\n        /* \"#utility.yul\":5073:5151   */\n      tag_143\n        /* \"#utility.yul\":5146:5150   */\n      dup2\n        /* \"#utility.yul\":5137:5143   */\n      dup6\n        /* \"#utility.yul\":5073:5151   */\n      tag_110\n      jump\t// in\n    tag_143:\n        /* \"#utility.yul\":5065:5151   */\n      swap1\n      pop\n        /* \"#utility.yul\":5198:5207   */\n      dup2\n        /* \"#utility.yul\":5192:5196   */\n      dup2\n        /* \"#utility.yul\":5188:5208   */\n      sub\n        /* \"#utility.yul\":5183:5185   */\n      0x60\n        /* \"#utility.yul\":5172:5181   */\n      dup4\n        /* \"#utility.yul\":5168:5186   */\n      add\n        /* \"#utility.yul\":5161:5209   */\n      mstore\n        /* \"#utility.yul\":5226:5304   */\n      tag_144\n        /* \"#utility.yul\":5299:5303   */\n      dup2\n        /* \"#utility.yul\":5290:5296   */\n      dup5\n        /* \"#utility.yul\":5226:5304   */\n      tag_110\n      jump\t// in\n    tag_144:\n        /* \"#utility.yul\":5218:5304   */\n      swap1\n      pop\n        /* \"#utility.yul\":4576:5311   */\n      swap6\n      swap5\n      pop\n      pop\n      pop\n      pop\n      pop\n      jump\t// out\n        /* \"#utility.yul\":5317:5446   */\n    tag_71:\n        /* \"#utility.yul\":5351:5357   */\n      0x00\n        /* \"#utility.yul\":5378:5398   */\n      tag_146\n      tag_147\n      jump\t// in\n    tag_146:\n        /* \"#utility.yul\":5368:5398   */\n      swap1\n      pop\n        /* \"#utility.yul\":5407:5440   */\n      tag_148\n        /* \"#utility.yul\":5435:5439   */\n      dup3\n        /* \"#utility.yul\":5427:5433   */\n      dup3\n        /* \"#utility.yul\":5407:5440   */\n      tag_149\n      jump\t// in\n    tag_148:\n        /* \"#utility.yul\":5317:5446   */\n      swap2\n      swap1\n      pop\n      jump\t// out\n        /* \"#utility.yul\":5452:5527   */\n    tag_147:\n        /* \"#utility.yul\":5485:5491   */\n      0x00\n        /* \"#utility.yul\":5518:5520   */\n      0x40\n        /* \"#utility.yul\":5512:5521   */\n      mload\n        /* \"#utility.yul\":5502:5521   */\n      swap1\n      pop\n        /* \"#utility.yul\":5452:5527   */\n      swap1\n      jump\t// out\n        /* \"#utility.yul\":5533:5841   */\n    tag_70:\n        /* \"#utility.yul\":5595:5599   */\n      0x00\n        /* \"#utility.yul\":5685:5703   */\n      0xffffffffffffffff\n        /* \"#utility.yul\":5677:5683   */\n      dup3\n        /* \"#utility.yul\":5674:5704   */\n      gt\n        /* \"#utility.yul\":5671:5727   */\n      iszero\n      tag_152\n      jumpi\n        /* \"#utility.yul\":5707:5725   */\n      tag_153\n      tag_154\n      jump\t// in\n    tag_153:\n        /* \"#utility.yul\":5671:5727   */\n    tag_152:\n        /* \"#utility.yul\":5745:5774   */\n      tag_155\n        /* \"#utility.yul\":5767:5773   */\n      dup3\n        /* \"#utility.yul\":5745:5774   */\n      tag_119\n      jump\t// in\n    tag_155:\n        /* \"#utility.yul\":5737:5774   */\n      swap1\n      pop\n        /* \"#utility.yul\":5829:5833   */\n      0x20\n        /* \"#utility.yul\":5823:5827   */\n      dup2\n        /* \"#utility.yul\":5819:5834   */\n      add\n        /* \"#utility.yul\":5811:5834   */\n      swap1\n      pop\n        /* \"#utility.yul\":5533:5841   */\n      swap2\n      swap1\n      pop\n      jump\t// out\n        /* \"#utility.yul\":5847:5946   */\n    tag_113:\n        /* \"#utility.yul\":5899:5905   */\n      0x00\n        /* \"#utility.yul\":5933:5938   */\n      dup2\n        /* \"#utility.yul\":5927:5939   */\n      mload\n        /* \"#utility.yul\":5917:5939   */\n      swap1\n      pop\n        /* \"#utility.yul\":5847:5946   */\n      swap2\n      swap1\n      pop\n      jump\t// out\n        /* \"#utility.yul\":5952:6121   */\n    tag_115:\n        /* \"#utility.yul\":6036:6047   */\n      0x00\n        /* \"#utility.yul\":6070:6076   */\n      dup3\n        /* \"#utility.yul\":6065:6068   */\n      dup3\n        /* \"#utility.yul\":6058:6077   */\n      mstore\n        /* \"#utility.yul\":6110:6114   */\n      0x20\n        /* \"#utility.yul\":6105:6108   */\n      dup3\n        /* \"#utility.yul\":6101:6115   */\n      add\n        /* \"#utility.yul\":6086:6115   */\n      swap1\n      pop\n        /* \"#utility.yul\":5952:6121   */\n      swap3\n      swap2\n      pop\n      pop\n      jump\t// out\n        /* \"#utility.yul\":6127:6275   */\n    tag_124:\n        /* \"#utility.yul\":6229:6240   */\n      0x00\n        /* \"#utility.yul\":6266:6269   */\n      dup2\n        /* \"#utility.yul\":6251:6269   */\n      swap1\n      pop\n        /* \"#utility.yul\":6127:6275   */\n      swap3\n      swap2\n      pop\n      pop\n      jump\t// out\n        /* \"#utility.yul\":6281:6377   */\n    tag_105:\n        /* \"#utility.yul\":6318:6325   */\n      0x00\n        /* \"#utility.yul\":6347:6371   */\n      tag_160\n        /* \"#utility.yul\":6365:6370   */\n      dup3\n        /* \"#utility.yul\":6347:6371   */\n      tag_161\n      jump\t// in\n    tag_160:\n        /* \"#utility.yul\":6336:6371   */\n      swap1\n      pop\n        /* \"#utility.yul\":6281:6377   */\n      swap2\n      swap1\n      pop\n      jump\t// out\n        /* \"#utility.yul\":6383:6473   */\n    tag_109:\n        /* \"#utility.yul\":6417:6424   */\n      0x00\n        /* \"#utility.yul\":6460:6465   */\n      dup2\n        /* \"#utility.yul\":6453:6466   */\n      iszero\n        /* \"#utility.yul\":6446:6467   */\n      iszero\n        /* \"#utility.yul\":6435:6467   */\n      swap1\n      pop\n        /* \"#utility.yul\":6383:6473   */\n      swap2\n      swap1\n      pop\n      jump\t// out\n        /* \"#utility.yul\":6479:6605   */\n    tag_161:\n        /* \"#utility.yul\":6516:6523   */\n      0x00\n        /* \"#utility.yul\":6556:6598   */\n      0xffffffffffffffffffffffffffffffffffffffff\n        /* \"#utility.yul\":6549:6554   */\n      dup3\n        /* \"#utility.yul\":6545:6599   */\n      and\n        /* \"#utility.yul\":6534:6599   */\n      swap1\n      pop\n        /* \"#utility.yul\":6479:6605   */\n      swap2\n      swap1\n      pop\n      jump\t// out\n        /* \"#utility.yul\":6611:6688   */\n    tag_129:\n        /* \"#utility.yul\":6648:6655   */\n      0x00\n        /* \"#utility.yul\":6677:6682   */\n      dup2\n        /* \"#utility.yul\":6666:6682   */\n      swap1\n      pop\n        /* \"#utility.yul\":6611:6688   */\n      swap2\n      swap1\n      pop\n      jump\t// out\n        /* \"#utility.yul\":6694:6848   */\n    tag_76:\n        /* \"#utility.yul\":6778:6784   */\n      dup3\n        /* \"#utility.yul\":6773:6776   */\n      dup2\n        /* \"#utility.yul\":6768:6771   */\n      dup4\n        /* \"#utility.yul\":6755:6785   */\n      calldatacopy\n        /* \"#utility.yul\":6840:6841   */\n      0x00\n        /* \"#utility.yul\":6831:6837   */\n      dup4\n        /* \"#utility.yul\":6826:6829   */\n      dup4\n        /* \"#utility.yul\":6822:6838   */\n      add\n        /* \"#utility.yul\":6815:6842   */\n      mstore\n        /* \"#utility.yul\":6694:6848   */\n      pop\n      pop\n      pop\n      jump\t// out\n        /* \"#utility.yul\":6854:7161   */\n    tag_117:\n        /* \"#utility.yul\":6922:6923   */\n      0x00\n        /* \"#utility.yul\":6932:7045   */\n    tag_167:\n        /* \"#utility.yul\":6946:6952   */\n      dup4\n        /* \"#utility.yul\":6943:6944   */\n      dup2\n        /* \"#utility.yul\":6940:6953   */\n      lt\n        /* \"#utility.yul\":6932:7045   */\n      iszero\n      tag_169\n      jumpi\n        /* \"#utility.yul\":7031:7032   */\n      dup1\n        /* \"#utility.yul\":7026:7029   */\n      dup3\n        /* \"#utility.yul\":7022:7033   */\n      add\n        /* \"#utility.yul\":7016:7034   */\n      mload\n        /* \"#utility.yul\":7012:7013   */\n      dup2\n        /* \"#utility.yul\":7007:7010   */\n      dup5\n        /* \"#utility.yul\":7003:7014   */\n      add\n        /* \"#utility.yul\":6996:7035   */\n      mstore\n        /* \"#utility.yul\":6968:6970   */\n      0x20\n        /* \"#utility.yul\":6965:6966   */\n      dup2\n        /* \"#utility.yul\":6961:6971   */\n      add\n        /* \"#utility.yul\":6956:6971   */\n      swap1\n      pop\n        /* \"#utility.yul\":6932:7045   */\n      jump(tag_167)\n    tag_169:\n        /* \"#utility.yul\":7063:7069   */\n      dup4\n        /* \"#utility.yul\":7060:7061   */\n      dup2\n        /* \"#utility.yul\":7057:7070   */\n      gt\n        /* \"#utility.yul\":7054:7155   */\n      iszero\n      tag_170\n      jumpi\n        /* \"#utility.yul\":7143:7144   */\n      0x00\n        /* \"#utility.yul\":7134:7140   */\n      dup5\n        /* \"#utility.yul\":7129:7132   */\n      dup5\n        /* \"#utility.yul\":7125:7141   */\n      add\n        /* \"#utility.yul\":7118:7145   */\n      mstore\n        /* \"#utility.yul\":7054:7155   */\n    tag_170:\n        /* \"#utility.yul\":6903:7161   */\n      pop\n        /* \"#utility.yul\":6854:7161   */\n      pop\n      pop\n      pop\n      jump\t// out\n        /* \"#utility.yul\":7167:7487   */\n    tag_30:\n        /* \"#utility.yul\":7211:7217   */\n      0x00\n        /* \"#utility.yul\":7248:7249   */\n      0x02\n        /* \"#utility.yul\":7242:7246   */\n      dup3\n        /* \"#utility.yul\":7238:7250   */\n      div\n        /* \"#utility.yul\":7228:7250   */\n      swap1\n      pop\n        /* \"#utility.yul\":7295:7296   */\n      0x01\n        /* \"#utility.yul\":7289:7293   */\n      dup3\n        /* \"#utility.yul\":7285:7297   */\n      and\n        /* \"#utility.yul\":7316:7334   */\n      dup1\n        /* \"#utility.yul\":7306:7387   */\n      tag_172\n      jumpi\n        /* \"#utility.yul\":7372:7376   */\n      0x7f\n        /* \"#utility.yul\":7364:7370   */\n      dup3\n        /* \"#utility.yul\":7360:7377   */\n      and\n        /* \"#utility.yul\":7350:7377   */\n      swap2\n      pop\n        /* \"#utility.yul\":7306:7387   */\n    tag_172:\n        /* \"#utility.yul\":7434:7436   */\n      0x20\n        /* \"#utility.yul\":7426:7432   */\n      dup3\n        /* \"#utility.yul\":7423:7437   */\n      lt\n        /* \"#utility.yul\":7403:7421   */\n      dup2\n        /* \"#utility.yul\":7400:7438   */\n      eq\n        /* \"#utility.yul\":7397:7481   */\n      iszero\n      tag_173\n      jumpi\n        /* \"#utility.yul\":7453:7471   */\n      tag_174\n      tag_175\n      jump\t// in\n    tag_174:\n        /* \"#utility.yul\":7397:7481   */\n    tag_173:\n        /* \"#utility.yul\":7218:7487   */\n      pop\n        /* \"#utility.yul\":7167:7487   */\n      swap2\n      swap1\n      pop\n      jump\t// out\n        /* \"#utility.yul\":7493:7774   */\n    tag_149:\n        /* \"#utility.yul\":7576:7603   */\n      tag_177\n        /* \"#utility.yul\":7598:7602   */\n      dup3\n        /* \"#utility.yul\":7576:7603   */\n      tag_119\n      jump\t// in\n    tag_177:\n        /* \"#utility.yul\":7568:7574   */\n      dup2\n        /* \"#utility.yul\":7564:7604   */\n      add\n        /* \"#utility.yul\":7706:7712   */\n      dup2\n        /* \"#utility.yul\":7694:7704   */\n      dup2\n        /* \"#utility.yul\":7691:7713   */\n      lt\n        /* \"#utility.yul\":7670:7688   */\n      0xffffffffffffffff\n        /* \"#utility.yul\":7658:7668   */\n      dup3\n        /* \"#utility.yul\":7655:7689   */\n      gt\n        /* \"#utility.yul\":7652:7714   */\n      or\n        /* \"#utility.yul\":7649:7737   */\n      iszero\n      tag_178\n      jumpi\n        /* \"#utility.yul\":7717:7735   */\n      tag_179\n      tag_154\n      jump\t// in\n    tag_179:\n        /* \"#utility.yul\":7649:7737   */\n    tag_178:\n        /* \"#utility.yul\":7757:7767   */\n      dup1\n        /* \"#utility.yul\":7753:7755   */\n      0x40\n        /* \"#utility.yul\":7746:7768   */\n      mstore\n        /* \"#utility.yul\":7536:7774   */\n      pop\n        /* \"#utility.yul\":7493:7774   */\n      pop\n      pop\n      jump\t// out\n        /* \"#utility.yul\":7780:7960   */\n    tag_175:\n        /* \"#utility.yul\":7828:7905   */\n      0x4e487b7100000000000000000000000000000000000000000000000000000000\n        /* \"#utility.yul\":7825:7826   */\n      0x00\n        /* \"#utility.yul\":7818:7906   */\n      mstore\n        /* \"#utility.yul\":7925:7929   */\n      0x22\n        /* \"#utility.yul\":7922:7923   */\n      0x04\n        /* \"#utility.yul\":7915:7930   */\n      mstore\n        /* \"#utility.yul\":7949:7953   */\n      0x24\n        /* \"#utility.yul\":7946:7947   */\n      0x00\n        /* \"#utility.yul\":7939:7954   */\n      revert\n        /* \"#utility.yul\":7966:8146   */\n    tag_154:\n        /* \"#utility.yul\":8014:8091   */\n      0x4e487b7100000000000000000000000000000000000000000000000000000000\n        /* \"#utility.yul\":8011:8012   */\n      0x00\n        /* \"#utility.yul\":8004:8092   */\n      mstore\n        /* \"#utility.yul\":8111:8115   */\n      0x41\n        /* \"#utility.yul\":8108:8109   */\n      0x04\n        /* \"#utility.yul\":8101:8116   */\n      mstore\n        /* \"#utility.yul\":8135:8139   */\n      0x24\n        /* \"#utility.yul\":8132:8133   */\n      0x00\n        /* \"#utility.yul\":8125:8140   */\n      revert\n        /* \"#utility.yul\":8152:8269   */\n    tag_81:\n        /* \"#utility.yul\":8261:8262   */\n      0x00\n        /* \"#utility.yul\":8258:8259   */\n      dup1\n        /* \"#utility.yul\":8251:8263   */\n      revert\n        /* \"#utility.yul\":8275:8392   */\n    tag_74:\n        /* \"#utility.yul\":8384:8385   */\n      0x00\n        /* \"#utility.yul\":8381:8382   */\n      dup1\n        /* \"#utility.yul\":8374:8386   */\n      revert\n        /* \"#utility.yul\":8398:8515   */\n    tag_93:\n        /* \"#utility.yul\":8507:8508   */\n      0x00\n        /* \"#utility.yul\":8504:8505   */\n      dup1\n        /* \"#utility.yul\":8497:8509   */\n      revert\n        /* \"#utility.yul\":8521:8638   */\n    tag_90:\n        /* \"#utility.yul\":8630:8631   */\n      0x00\n        /* \"#utility.yul\":8627:8628   */\n      dup1\n        /* \"#utility.yul\":8620:8632   */\n      revert\n        /* \"#utility.yul\":8644:8746   */\n    tag_119:\n        /* \"#utility.yul\":8685:8691   */\n      0x00\n        /* \"#utility.yul\":8736:8738   */\n      0x1f\n        /* \"#utility.yul\":8732:8739   */\n      not\n        /* \"#utility.yul\":8727:8729   */\n      0x1f\n        /* \"#utility.yul\":8720:8725   */\n      dup4\n        /* \"#utility.yul\":8716:8730   */\n      add\n        /* \"#utility.yul\":8712:8740   */\n      and\n        /* \"#utility.yul\":8702:8740   */\n      swap1\n      pop\n        /* \"#utility.yul\":8644:8746   */\n      swap2\n      swap1\n      pop\n      jump\t// out\n        /* \"#utility.yul\":8752:8874   */\n    tag_86:\n        /* \"#utility.yul\":8825:8849   */\n      tag_188\n        /* \"#utility.yul\":8843:8848   */\n      dup2\n        /* \"#utility.yul\":8825:8849   */\n      tag_129\n      jump\t// in\n    tag_188:\n        /* \"#utility.yul\":8818:8823   */\n      dup2\n        /* \"#utility.yul\":8815:8850   */\n      eq\n        /* \"#utility.yul\":8805:8868   */\n      tag_189\n      jumpi\n        /* \"#utility.yul\":8864:8865   */\n      0x00\n        /* \"#utility.yul\":8861:8862   */\n      dup1\n        /* \"#utility.yul\":8854:8866   */\n      revert\n        /* \"#utility.yul\":8805:8868   */\n    tag_189:\n        /* \"#utility.yul\":8752:8874   */\n      pop\n      jump\t// out\n\n    auxdata: 0xa2646970667358221220615b9a99fd4a37223b6937b41a296f287bcb5d216ff537b6ce9adb7d97550a3564736f6c63430008070033\n}\n",
				"bytecode": {
					"linkReferences": {},
					"object": "608060405234801561001057600080fd5b5061094c806100206000396000f3fe608060405234801561001057600080fd5b506004361061004c5760003560e01c80632b08e8241461005157806350b44712146100815780638ce7e461146100b3578063e0a08f27146100e3575b600080fd5b61006b60048036038101906100669190610569565b6100ff565b6040516100789190610644565b60405180910390f35b61009b60048036038101906100969190610569565b610132565b6040516100aa9392919061067a565b60405180910390f35b6100cd60048036038101906100c89190610569565b61027c565b6040516100da919061065f565b60405180910390f35b6100fd60048036038101906100f891906104f1565b61029c565b005b60016020528060005260406000206000915054906101000a900473ffffffffffffffffffffffffffffffffffffffff1681565b6000818154811061014257600080fd5b906000526020600020906003020160009150905080600001549080600101805461016b90610819565b80601f016020809104026020016040519081016040528092919081815260200182805461019790610819565b80156101e45780601f106101b9576101008083540402835291602001916101e4565b820191906000526020600020905b8154815290600101906020018083116101c757829003601f168201915b5050505050908060020180546101f990610819565b80601f016020809104026020016040519081016040528092919081815260200182805461022590610819565b80156102725780601f1061024757610100808354040283529160200191610272565b820191906000526020600020905b81548152906001019060200180831161025557829003601f168201915b5050505050905083565b60026020528060005260406000206000915054906101000a900460ff1681565b60006102a7826102b9565b90506102b48184846102f1565b505050565b600080826040516020016102cd919061062d565b6040516020818303038152906040528051906020012060001c905080915050919050565b6000604051806060016040528085815260200184815260200183815250908060018154018082558091505060019003906000526020600020906003020160009091909190915060008201518160000155602082015181600101908051906020019061035d9291906103c9565b50604082015181600201908051906020019061037a9291906103c9565b5050506000808054905090507fa421576df59f1a0508daa93ce319ec1008a3e4049fac768ebbc0765c18602d96818585856040516103bb94939291906106bf565b60405180910390a150505050565b8280546103d590610819565b90600052602060002090601f0160209004810192826103f7576000855561043e565b82601f1061041057805160ff191683800117855561043e565b8280016001018555821561043e579182015b8281111561043d578251825591602001919060010190610422565b5b50905061044b919061044f565b5090565b5b80821115610468576000816000905550600101610450565b5090565b600061047f61047a84610737565b610712565b90508281526020810184848401111561049b5761049a6108df565b5b6104a68482856107d7565b509392505050565b600082601f8301126104c3576104c26108da565b5b81356104d384826020860161046c565b91505092915050565b6000813590506104eb816108ff565b92915050565b60008060408385031215610508576105076108e9565b5b600083013567ffffffffffffffff811115610526576105256108e4565b5b610532858286016104ae565b925050602083013567ffffffffffffffff811115610553576105526108e4565b5b61055f858286016104ae565b9150509250929050565b60006020828403121561057f5761057e6108e9565b5b600061058d848285016104dc565b91505092915050565b61059f8161078f565b82525050565b6105ae816107a1565b82525050565b60006105bf82610768565b6105c98185610773565b93506105d98185602086016107e6565b6105e2816108ee565b840191505092915050565b60006105f882610768565b6106028185610784565b93506106128185602086016107e6565b80840191505092915050565b610627816107cd565b82525050565b600061063982846105ed565b915081905092915050565b60006020820190506106596000830184610596565b92915050565b600060208201905061067460008301846105a5565b92915050565b600060608201905061068f600083018661061e565b81810360208301526106a181856105b4565b905081810360408301526106b581846105b4565b9050949350505050565b60006080820190506106d4600083018761061e565b6106e1602083018661061e565b81810360408301526106f381856105b4565b9050818103606083015261070781846105b4565b905095945050505050565b600061071c61072d565b9050610728828261084b565b919050565b6000604051905090565b600067ffffffffffffffff821115610752576107516108ab565b5b61075b826108ee565b9050602081019050919050565b600081519050919050565b600082825260208201905092915050565b600081905092915050565b600061079a826107ad565b9050919050565b60008115159050919050565b600073ffffffffffffffffffffffffffffffffffffffff82169050919050565b6000819050919050565b82818337600083830152505050565b60005b838110156108045780820151818401526020810190506107e9565b83811115610813576000848401525b50505050565b6000600282049050600182168061083157607f821691505b602082108114156108455761084461087c565b5b50919050565b610854826108ee565b810181811067ffffffffffffffff82111715610873576108726108ab565b5b80604052505050565b7f4e487b7100000000000000000000000000000000000000000000000000000000600052602260045260246000fd5b7f4e487b7100000000000000000000000000000000000000000000000000000000600052604160045260246000fd5b600080fd5b600080fd5b600080fd5b600080fd5b6000601f19601f8301169050919050565b610908816107cd565b811461091357600080fd5b5056fea2646970667358221220615b9a99fd4a37223b6937b41a296f287bcb5d216ff537b6ce9adb7d97550a3564736f6c63430008070033",
					"opcodes": "PUSH1 0x80 PUSH1 0x40 MSTORE CALLVALUE DUP1 ISZERO PUSH2 0x10 JUMPI PUSH1 0x0 DUP1 REVERT JUMPDEST POP PUSH2 0x94C DUP1 PUSH2 0x20 PUSH1 0x0 CODECOPY PUSH1 0x0 RETURN INVALID PUSH1 0x80 PUSH1 0x40 MSTORE CALLVALUE DUP1 ISZERO PUSH2 0x10 JUMPI PUSH1 0x0 DUP1 REVERT JUMPDEST POP PUSH1 0x4 CALLDATASIZE LT PUSH2 0x4C JUMPI PUSH1 0x0 CALLDATALOAD PUSH1 0xE0 SHR DUP1 PUSH4 0x2B08E824 EQ PUSH2 0x51 JUMPI DUP1 PUSH4 0x50B44712 EQ PUSH2 0x81 JUMPI DUP1 PUSH4 0x8CE7E461 EQ PUSH2 0xB3 JUMPI DUP1 PUSH4 0xE0A08F27 EQ PUSH2 0xE3 JUMPI JUMPDEST PUSH1 0x0 DUP1 REVERT JUMPDEST PUSH2 0x6B PUSH1 0x4 DUP1 CALLDATASIZE SUB DUP2 ADD SWAP1 PUSH2 0x66 SWAP2 SWAP1 PUSH2 0x569 JUMP JUMPDEST PUSH2 0xFF JUMP JUMPDEST PUSH1 0x40 MLOAD PUSH2 0x78 SWAP2 SWAP1 PUSH2 0x644 JUMP JUMPDEST PUSH1 0x40 MLOAD DUP1 SWAP2 SUB SWAP1 RETURN JUMPDEST PUSH2 0x9B PUSH1 0x4 DUP1 CALLDATASIZE SUB DUP2 ADD SWAP1 PUSH2 0x96 SWAP2 SWAP1 PUSH2 0x569 JUMP JUMPDEST PUSH2 0x132 JUMP JUMPDEST PUSH1 0x40 MLOAD PUSH2 0xAA SWAP4 SWAP3 SWAP2 SWAP1 PUSH2 0x67A JUMP JUMPDEST PUSH1 0x40 MLOAD DUP1 SWAP2 SUB SWAP1 RETURN JUMPDEST PUSH2 0xCD PUSH1 0x4 DUP1 CALLDATASIZE SUB DUP2 ADD SWAP1 PUSH2 0xC8 SWAP2 SWAP1 PUSH2 0x569 JUMP JUMPDEST PUSH2 0x27C JUMP JUMPDEST PUSH1 0x40 MLOAD PUSH2 0xDA SWAP2 SWAP1 PUSH2 0x65F JUMP JUMPDEST PUSH1 0x40 MLOAD DUP1 SWAP2 SUB SWAP1 RETURN JUMPDEST PUSH2 0xFD PUSH1 0x4 DUP1 CALLDATASIZE SUB DUP2 ADD SWAP1 PUSH2 0xF8 SWAP2 SWAP1 PUSH2 0x4F1 JUMP JUMPDEST PUSH2 0x29C JUMP JUMPDEST STOP JUMPDEST PUSH1 0x1 PUSH1 0x20 MSTORE DUP1 PUSH1 0x0 MSTORE PUSH1 0x40 PUSH1 0x0 KECCAK256 PUSH1 0x0 SWAP2 POP SLOAD SWAP1 PUSH2 0x100 EXP SWAP1 DIV PUSH20 0xFFFFFFFFFFFFFFFFFFFFFFFFFFFFFFFFFFFFFFFF AND DUP2 JUMP JUMPDEST PUSH1 0x0 DUP2 DUP2 SLOAD DUP2 LT PUSH2 0x142 JUMPI PUSH1 0x0 DUP1 REVERT JUMPDEST SWAP1 PUSH1 0x0 MSTORE PUSH1 0x20 PUSH1 0x0 KECCAK256 SWAP1 PUSH1 0x3 MUL ADD PUSH1 0x0 SWAP2 POP SWAP1 POP DUP1 PUSH1 0x0 ADD SLOAD SWAP1 DUP1 PUSH1 0x1 ADD DUP1 SLOAD PUSH2 0x16B SWAP1 PUSH2 0x819 JUMP JUMPDEST DUP1 PUSH1 0x1F ADD PUSH1 0x20 DUP1 SWAP2 DIV MUL PUSH1 0x20 ADD PUSH1 0x40 MLOAD SWAP1 DUP2 ADD PUSH1 0x40 MSTORE DUP1 SWAP3 SWAP2 SWAP1 DUP2 DUP2 MSTORE PUSH1 0x20 ADD DUP3 DUP1 SLOAD PUSH2 0x197 SWAP1 PUSH2 0x819 JUMP JUMPDEST DUP1 ISZERO PUSH2 0x1E4 JUMPI DUP1 PUSH1 0x1F LT PUSH2 0x1B9 JUMPI PUSH2 0x100 DUP1 DUP4 SLOAD DIV MUL DUP4 MSTORE SWAP2 PUSH1 0x20 ADD SWAP2 PUSH2 0x1E4 JUMP JUMPDEST DUP3 ADD SWAP2 SWAP1 PUSH1 0x0 MSTORE PUSH1 0x20 PUSH1 0x0 KECCAK256 SWAP1 JUMPDEST DUP2 SLOAD DUP2 MSTORE SWAP1 PUSH1 0x1 ADD SWAP1 PUSH1 0x20 ADD DUP1 DUP4 GT PUSH2 0x1C7 JUMPI DUP3 SWAP1 SUB PUSH1 0x1F AND DUP3 ADD SWAP2 JUMPDEST POP POP POP POP POP SWAP1 DUP1 PUSH1 0x2 ADD DUP1 SLOAD PUSH2 0x1F9 SWAP1 PUSH2 0x819 JUMP JUMPDEST DUP1 PUSH1 0x1F ADD PUSH1 0x20 DUP1 SWAP2 DIV MUL PUSH1 0x20 ADD PUSH1 0x40 MLOAD SWAP1 DUP2 ADD PUSH1 0x40 MSTORE DUP1 SWAP3 SWAP2 SWAP1 DUP2 DUP2 MSTORE PUSH1 0x20 ADD DUP3 DUP1 SLOAD PUSH2 0x225 SWAP1 PUSH2 0x819 JUMP JUMPDEST DUP1 ISZERO PUSH2 0x272 JUMPI DUP1 PUSH1 0x1F LT PUSH2 0x247 JUMPI PUSH2 0x100 DUP1 DUP4 SLOAD DIV MUL DUP4 MSTORE SWAP2 PUSH1 0x20 ADD SWAP2 PUSH2 0x272 JUMP JUMPDEST DUP3 ADD SWAP2 SWAP1 PUSH1 0x0 MSTORE PUSH1 0x20 PUSH1 0x0 KECCAK256 SWAP1 JUMPDEST DUP2 SLOAD DUP2 MSTORE SWAP1 PUSH1 0x1 ADD SWAP1 PUSH1 0x20 ADD DUP1 DUP4 GT PUSH2 0x255 JUMPI DUP3 SWAP1 SUB PUSH1 0x1F AND DUP3 ADD SWAP2 JUMPDEST POP POP POP POP POP SWAP1 POP DUP4 JUMP JUMPDEST PUSH1 0x2 PUSH1 0x20 MSTORE DUP1 PUSH1 0x0 MSTORE PUSH1 0x40 PUSH1 0x0 KECCAK256 PUSH1 0x0 SWAP2 POP SLOAD SWAP1 PUSH2 0x100 EXP SWAP1 DIV PUSH1 0xFF AND DUP2 JUMP JUMPDEST PUSH1 0x0 PUSH2 0x2A7 DUP3 PUSH2 0x2B9 JUMP JUMPDEST SWAP1 POP PUSH2 0x2B4 DUP2 DUP5 DUP5 PUSH2 0x2F1 JUMP JUMPDEST POP POP POP JUMP JUMPDEST PUSH1 0x0 DUP1 DUP3 PUSH1 0x40 MLOAD PUSH1 0x20 ADD PUSH2 0x2CD SWAP2 SWAP1 PUSH2 0x62D JUMP JUMPDEST PUSH1 0x40 MLOAD PUSH1 0x20 DUP2 DUP4 SUB SUB DUP2 MSTORE SWAP1 PUSH1 0x40 MSTORE DUP1 MLOAD SWAP1 PUSH1 0x20 ADD KECCAK256 PUSH1 0x0 SHR SWAP1 POP DUP1 SWAP2 POP POP SWAP2 SWAP1 POP JUMP JUMPDEST PUSH1 0x0 PUSH1 0x40 MLOAD DUP1 PUSH1 0x60 ADD PUSH1 0x40 MSTORE DUP1 DUP6 DUP2 MSTORE PUSH1 0x20 ADD DUP5 DUP2 MSTORE PUSH1 0x20 ADD DUP4 DUP2 MSTORE POP SWAP1 DUP1 PUSH1 0x1 DUP2 SLOAD ADD DUP1 DUP3 SSTORE DUP1 SWAP2 POP POP PUSH1 0x1 SWAP1 SUB SWAP1 PUSH1 0x0 MSTORE PUSH1 0x20 PUSH1 0x0 KECCAK256 SWAP1 PUSH1 0x3 MUL ADD PUSH1 0x0 SWAP1 SWAP2 SWAP1 SWAP2 SWAP1 SWAP2 POP PUSH1 0x0 DUP3 ADD MLOAD DUP2 PUSH1 0x0 ADD SSTORE PUSH1 0x20 DUP3 ADD MLOAD DUP2 PUSH1 0x1 ADD SWAP1 DUP1 MLOAD SWAP1 PUSH1 0x20 ADD SWAP1 PUSH2 0x35D SWAP3 SWAP2 SWAP1 PUSH2 0x3C9 JUMP JUMPDEST POP PUSH1 0x40 DUP3 ADD MLOAD DUP2 PUSH1 0x2 ADD SWAP1 DUP1 MLOAD SWAP1 PUSH1 0x20 ADD SWAP1 PUSH2 0x37A SWAP3 SWAP2 SWAP1 PUSH2 0x3C9 JUMP JUMPDEST POP POP POP PUSH1 0x0 DUP1 DUP1 SLOAD SWAP1 POP SWAP1 POP PUSH32 0xA421576DF59F1A0508DAA93CE319EC1008A3E4049FAC768EBBC0765C18602D96 DUP2 DUP6 DUP6 DUP6 PUSH1 0x40 MLOAD PUSH2 0x3BB SWAP5 SWAP4 SWAP3 SWAP2 SWAP1 PUSH2 0x6BF JUMP JUMPDEST PUSH1 0x40 MLOAD DUP1 SWAP2 SUB SWAP1 LOG1 POP POP POP POP JUMP JUMPDEST DUP3 DUP1 SLOAD PUSH2 0x3D5 SWAP1 PUSH2 0x819 JUMP JUMPDEST SWAP1 PUSH1 0x0 MSTORE PUSH1 0x20 PUSH1 0x0 KECCAK256 SWAP1 PUSH1 0x1F ADD PUSH1 0x20 SWAP1 DIV DUP2 ADD SWAP3 DUP3 PUSH2 0x3F7 JUMPI PUSH1 0x0 DUP6 SSTORE PUSH2 0x43E JUMP JUMPDEST DUP3 PUSH1 0x1F LT PUSH2 0x410 JUMPI DUP1 MLOAD PUSH1 0xFF NOT AND DUP4 DUP1 ADD OR DUP6 SSTORE PUSH2 0x43E JUMP JUMPDEST DUP3 DUP1 ADD PUSH1 0x1 ADD DUP6 SSTORE DUP3 ISZERO PUSH2 0x43E JUMPI SWAP2 DUP3 ADD JUMPDEST DUP3 DUP2 GT ISZERO PUSH2 0x43D JUMPI DUP3 MLOAD DUP3 SSTORE SWAP2 PUSH1 0x20 ADD SWAP2 SWAP1 PUSH1 0x1 ADD SWAP1 PUSH2 0x422 JUMP JUMPDEST JUMPDEST POP SWAP1 POP PUSH2 0x44B SWAP2 SWAP1 PUSH2 0x44F JUMP JUMPDEST POP SWAP1 JUMP JUMPDEST JUMPDEST DUP1 DUP3 GT ISZERO PUSH2 0x468 JUMPI PUSH1 0x0 DUP2 PUSH1 0x0 SWAP1 SSTORE POP PUSH1 0x1 ADD PUSH2 0x450 JUMP JUMPDEST POP SWAP1 JUMP JUMPDEST PUSH1 0x0 PUSH2 0x47F PUSH2 0x47A DUP5 PUSH2 0x737 JUMP JUMPDEST PUSH2 0x712 JUMP JUMPDEST SWAP1 POP DUP3 DUP2 MSTORE PUSH1 0x20 DUP2 ADD DUP5 DUP5 DUP5 ADD GT ISZERO PUSH2 0x49B JUMPI PUSH2 0x49A PUSH2 0x8DF JUMP JUMPDEST JUMPDEST PUSH2 0x4A6 DUP5 DUP3 DUP6 PUSH2 0x7D7 JUMP JUMPDEST POP SWAP4 SWAP3 POP POP POP JUMP JUMPDEST PUSH1 0x0 DUP3 PUSH1 0x1F DUP4 ADD SLT PUSH2 0x4C3 JUMPI PUSH2 0x4C2 PUSH2 0x8DA JUMP JUMPDEST JUMPDEST DUP2 CALLDATALOAD PUSH2 0x4D3 DUP5 DUP3 PUSH1 0x20 DUP7 ADD PUSH2 0x46C JUMP JUMPDEST SWAP2 POP POP SWAP3 SWAP2 POP POP JUMP JUMPDEST PUSH1 0x0 DUP2 CALLDATALOAD SWAP1 POP PUSH2 0x4EB DUP2 PUSH2 0x8FF JUMP JUMPDEST SWAP3 SWAP2 POP POP JUMP JUMPDEST PUSH1 0x0 DUP1 PUSH1 0x40 DUP4 DUP6 SUB SLT ISZERO PUSH2 0x508 JUMPI PUSH2 0x507 PUSH2 0x8E9 JUMP JUMPDEST JUMPDEST PUSH1 0x0 DUP4 ADD CALLDATALOAD PUSH8 0xFFFFFFFFFFFFFFFF DUP2 GT ISZERO PUSH2 0x526 JUMPI PUSH2 0x525 PUSH2 0x8E4 JUMP JUMPDEST JUMPDEST PUSH2 0x532 DUP6 DUP3 DUP7 ADD PUSH2 0x4AE JUMP JUMPDEST SWAP3 POP POP PUSH1 0x20 DUP4 ADD CALLDATALOAD PUSH8 0xFFFFFFFFFFFFFFFF DUP2 GT ISZERO PUSH2 0x553 JUMPI PUSH2 0x552 PUSH2 0x8E4 JUMP JUMPDEST JUMPDEST PUSH2 0x55F DUP6 DUP3 DUP7 ADD PUSH2 0x4AE JUMP JUMPDEST SWAP2 POP POP SWAP3 POP SWAP3 SWAP1 POP JUMP JUMPDEST PUSH1 0x0 PUSH1 0x20 DUP3 DUP5 SUB SLT ISZERO PUSH2 0x57F JUMPI PUSH2 0x57E PUSH2 0x8E9 JUMP JUMPDEST JUMPDEST PUSH1 0x0 PUSH2 0x58D DUP5 DUP3 DUP6 ADD PUSH2 0x4DC JUMP JUMPDEST SWAP2 POP POP SWAP3 SWAP2 POP POP JUMP JUMPDEST PUSH2 0x59F DUP2 PUSH2 0x78F JUMP JUMPDEST DUP3 MSTORE POP POP JUMP JUMPDEST PUSH2 0x5AE DUP2 PUSH2 0x7A1 JUMP JUMPDEST DUP3 MSTORE POP POP JUMP JUMPDEST PUSH1 0x0 PUSH2 0x5BF DUP3 PUSH2 0x768 JUMP JUMPDEST PUSH2 0x5C9 DUP2 DUP6 PUSH2 0x773 JUMP JUMPDEST SWAP4 POP PUSH2 0x5D9 DUP2 DUP6 PUSH1 0x20 DUP7 ADD PUSH2 0x7E6 JUMP JUMPDEST PUSH2 0x5E2 DUP2 PUSH2 0x8EE JUMP JUMPDEST DUP5 ADD SWAP2 POP POP SWAP3 SWAP2 POP POP JUMP JUMPDEST PUSH1 0x0 PUSH2 0x5F8 DUP3 PUSH2 0x768 JUMP JUMPDEST PUSH2 0x602 DUP2 DUP6 PUSH2 0x784 JUMP JUMPDEST SWAP4 POP PUSH2 0x612 DUP2 DUP6 PUSH1 0x20 DUP7 ADD PUSH2 0x7E6 JUMP JUMPDEST DUP1 DUP5 ADD SWAP2 POP POP SWAP3 SWAP2 POP POP JUMP JUMPDEST PUSH2 0x627 DUP2 PUSH2 0x7CD JUMP JUMPDEST DUP3 MSTORE POP POP JUMP JUMPDEST PUSH1 0x0 PUSH2 0x639 DUP3 DUP5 PUSH2 0x5ED JUMP JUMPDEST SWAP2 POP DUP2 SWAP1 POP SWAP3 SWAP2 POP POP JUMP JUMPDEST PUSH1 0x0 PUSH1 0x20 DUP3 ADD SWAP1 POP PUSH2 0x659 PUSH1 0x0 DUP4 ADD DUP5 PUSH2 0x596 JUMP JUMPDEST SWAP3 SWAP2 POP POP JUMP JUMPDEST PUSH1 0x0 PUSH1 0x20 DUP3 ADD SWAP1 POP PUSH2 0x674 PUSH1 0x0 DUP4 ADD DUP5 PUSH2 0x5A5 JUMP JUMPDEST SWAP3 SWAP2 POP POP JUMP JUMPDEST PUSH1 0x0 PUSH1 0x60 DUP3 ADD SWAP1 POP PUSH2 0x68F PUSH1 0x0 DUP4 ADD DUP7 PUSH2 0x61E JUMP JUMPDEST DUP2 DUP2 SUB PUSH1 0x20 DUP4 ADD MSTORE PUSH2 0x6A1 DUP2 DUP6 PUSH2 0x5B4 JUMP JUMPDEST SWAP1 POP DUP2 DUP2 SUB PUSH1 0x40 DUP4 ADD MSTORE PUSH2 0x6B5 DUP2 DUP5 PUSH2 0x5B4 JUMP JUMPDEST SWAP1 POP SWAP5 SWAP4 POP POP POP POP JUMP JUMPDEST PUSH1 0x0 PUSH1 0x80 DUP3 ADD SWAP1 POP PUSH2 0x6D4 PUSH1 0x0 DUP4 ADD DUP8 PUSH2 0x61E JUMP JUMPDEST PUSH2 0x6E1 PUSH1 0x20 DUP4 ADD DUP7 PUSH2 0x61E JUMP JUMPDEST DUP2 DUP2 SUB PUSH1 0x40 DUP4 ADD MSTORE PUSH2 0x6F3 DUP2 DUP6 PUSH2 0x5B4 JUMP JUMPDEST SWAP1 POP DUP2 DUP2 SUB PUSH1 0x60 DUP4 ADD MSTORE PUSH2 0x707 DUP2 DUP5 PUSH2 0x5B4 JUMP JUMPDEST SWAP1 POP SWAP6 SWAP5 POP POP POP POP POP JUMP JUMPDEST PUSH1 0x0 PUSH2 0x71C PUSH2 0x72D JUMP JUMPDEST SWAP1 POP PUSH2 0x728 DUP3 DUP3 PUSH2 0x84B JUMP JUMPDEST SWAP2 SWAP1 POP JUMP JUMPDEST PUSH1 0x0 PUSH1 0x40 MLOAD SWAP1 POP SWAP1 JUMP JUMPDEST PUSH1 0x0 PUSH8 0xFFFFFFFFFFFFFFFF DUP3 GT ISZERO PUSH2 0x752 JUMPI PUSH2 0x751 PUSH2 0x8AB JUMP JUMPDEST JUMPDEST PUSH2 0x75B DUP3 PUSH2 0x8EE JUMP JUMPDEST SWAP1 POP PUSH1 0x20 DUP2 ADD SWAP1 POP SWAP2 SWAP1 POP JUMP JUMPDEST PUSH1 0x0 DUP2 MLOAD SWAP1 POP SWAP2 SWAP1 POP JUMP JUMPDEST PUSH1 0x0 DUP3 DUP3 MSTORE PUSH1 0x20 DUP3 ADD SWAP1 POP SWAP3 SWAP2 POP POP JUMP JUMPDEST PUSH1 0x0 DUP2 SWAP1 POP SWAP3 SWAP2 POP POP JUMP JUMPDEST PUSH1 0x0 PUSH2 0x79A DUP3 PUSH2 0x7AD JUMP JUMPDEST SWAP1 POP SWAP2 SWAP1 POP JUMP JUMPDEST PUSH1 0x0 DUP2 ISZERO ISZERO SWAP1 POP SWAP2 SWAP1 POP JUMP JUMPDEST PUSH1 0x0 PUSH20 0xFFFFFFFFFFFFFFFFFFFFFFFFFFFFFFFFFFFFFFFF DUP3 AND SWAP1 POP SWAP2 SWAP1 POP JUMP JUMPDEST PUSH1 0x0 DUP2 SWAP1 POP SWAP2 SWAP1 POP JUMP JUMPDEST DUP3 DUP2 DUP4 CALLDATACOPY PUSH1 0x0 DUP4 DUP4 ADD MSTORE POP POP POP JUMP JUMPDEST PUSH1 0x0 JUMPDEST DUP4 DUP2 LT ISZERO PUSH2 0x804 JUMPI DUP1 DUP3 ADD MLOAD DUP2 DUP5 ADD MSTORE PUSH1 0x20 DUP2 ADD SWAP1 POP PUSH2 0x7E9 JUMP JUMPDEST DUP4 DUP2 GT ISZERO PUSH2 0x813 JUMPI PUSH1 0x0 DUP5 DUP5 ADD MSTORE JUMPDEST POP POP POP POP JUMP JUMPDEST PUSH1 0x0 PUSH1 0x2 DUP3 DIV SWAP1 POP PUSH1 0x1 DUP3 AND DUP1 PUSH2 0x831 JUMPI PUSH1 0x7F DUP3 AND SWAP2 POP JUMPDEST PUSH1 0x20 DUP3 LT DUP2 EQ ISZERO PUSH2 0x845 JUMPI PUSH2 0x844 PUSH2 0x87C JUMP JUMPDEST JUMPDEST POP SWAP2 SWAP1 POP JUMP JUMPDEST PUSH2 0x854 DUP3 PUSH2 0x8EE JUMP JUMPDEST DUP2 ADD DUP2 DUP2 LT PUSH8 0xFFFFFFFFFFFFFFFF DUP3 GT OR ISZERO PUSH2 0x873 JUMPI PUSH2 0x872 PUSH2 0x8AB JUMP JUMPDEST JUMPDEST DUP1 PUSH1 0x40 MSTORE POP POP POP JUMP JUMPDEST PUSH32 0x4E487B7100000000000000000000000000000000000000000000000000000000 PUSH1 0x0 MSTORE PUSH1 0x22 PUSH1 0x4 MSTORE PUSH1 0x24 PUSH1 0x0 REVERT JUMPDEST PUSH32 0x4E487B7100000000000000000000000000000000000000000000000000000000 PUSH1 0x0 MSTORE PUSH1 0x41 PUSH1 0x4 MSTORE PUSH1 0x24 PUSH1 0x0 REVERT JUMPDEST PUSH1 0x0 DUP1 REVERT JUMPDEST PUSH1 0x0 DUP1 REVERT JUMPDEST PUSH1 0x0 DUP1 REVERT JUMPDEST PUSH1 0x0 DUP1 REVERT JUMPDEST PUSH1 0x0 PUSH1 0x1F NOT PUSH1 0x1F DUP4 ADD AND SWAP1 POP SWAP2 SWAP1 POP JUMP JUMPDEST PUSH2 0x908 DUP2 PUSH2 0x7CD JUMP JUMPDEST DUP2 EQ PUSH2 0x913 JUMPI PUSH1 0x0 DUP1 REVERT JUMPDEST POP JUMP INVALID LOG2 PUSH5 0x6970667358 0x22 SLT KECCAK256 PUSH2 0x5B9A SWAP10 REVERT 0x4A CALLDATACOPY 0x22 EXTCODESIZE PUSH10 0x37B41A296F287BCB5D21 PUSH16 0xF537B6CE9ADB7D97550A3564736F6C63 NUMBER STOP ADDMOD SMOD STOP CALLER "
				},
				"gasEstimates": {
					"creation": {
						"codeDepositCost": "476000",
						"executionCost": "511",
						"totalCost": "476511"
					},
					"external": {
						"createNewTicket(string,string)": "infinite",
						"ticketStatus(uint256)": "2818",
						"ticketToOwner(uint256)": "2817",
						"tickets(uint256)": "infinite"
					},
					"internal": {
						"_createTicket(uint256,string memory,string memory)": "infinite",
						"generateRefNo(string memory)": "infinite"
					}
				},
				"methodIdentifiers": {
					"createNewTicket(string,string)": "e0a08f27",
					"ticketStatus(uint256)": "8ce7e461",
					"ticketToOwner(uint256)": "2b08e824",
					"tickets(uint256)": "50b44712"
				}
			},
			"storageLayout": {
				"storage": [
					{
						"astId": 22,
						"contract": "contracts/CreateTicket.sol:NewTicket",
						"label": "tickets",
						"offset": 0,
						"slot": "0",
						"type": "t_array(t_struct(Ticket)18_storage)dyn_storage"
					},
					{
						"astId": 26,
						"contract": "contracts/CreateTicket.sol:NewTicket",
						"label": "ticketToOwner",
						"offset": 0,
						"slot": "1",
						"type": "t_mapping(t_uint256,t_address)"
					},
					{
						"astId": 30,
						"contract": "contracts/CreateTicket.sol:NewTicket",
						"label": "ticketStatus",
						"offset": 0,
						"slot": "2",
						"type": "t_mapping(t_uint256,t_bool)"
					}
				],
				"types": {
					"t_address": {
						"encoding": "inplace",
						"label": "address",
						"numberOfBytes": "20"
					},
					"t_array(t_struct(Ticket)18_storage)dyn_storage": {
						"base": "t_struct(Ticket)18_storage",
						"encoding": "dynamic_array",
						"label": "struct NewTicket.Ticket[]",
						"numberOfBytes": "32"
					},
					"t_bool": {
						"encoding": "inplace",
						"label": "bool",
						"numberOfBytes": "1"
					},
					"t_mapping(t_uint256,t_address)": {
						"encoding": "mapping",
						"key": "t_uint256",
						"label": "mapping(uint256 => address)",
						"numberOfBytes": "32",
						"value": "t_address"
					},
					"t_mapping(t_uint256,t_bool)": {
						"encoding": "mapping",
						"key": "t_uint256",
						"label": "mapping(uint256 => bool)",
						"numberOfBytes": "32",
						"value": "t_bool"
					},
					"t_string_storage": {
						"encoding": "bytes",
						"label": "string",
						"numberOfBytes": "32"
					},
					"t_struct(Ticket)18_storage": {
						"encoding": "inplace",
						"label": "struct NewTicket.Ticket",
						"members": [
							{
								"astId": 13,
								"contract": "contracts/CreateTicket.sol:NewTicket",
								"label": "refNo",
								"offset": 0,
								"slot": "0",
								"type": "t_uint256"
							},
							{
								"astId": 15,
								"contract": "contracts/CreateTicket.sol:NewTicket",
								"label": "authority",
								"offset": 0,
								"slot": "1",
								"type": "t_string_storage"
							},
							{
								"astId": 17,
								"contract": "contracts/CreateTicket.sol:NewTicket",
								"label": "link",
								"offset": 0,
								"slot": "2",
								"type": "t_string_storage"
							}
						],
						"numberOfBytes": "96"
					},
					"t_uint256": {
						"encoding": "inplace",
						"label": "uint256",
						"numberOfBytes": "32"
					}
				}
			},
			"userdoc": {
				"kind": "user",
				"methods": {},
				"version": 1
			}
		}
	}
}