{
	"contracts/CreateTicket.sol": {
		"NewTicket": {
			"abi": [
				{
					"inputs": [
						{
							"internalType": "string",
							"name": "_authority",
							"type": "string"
						},
						{
							"internalType": "string",
							"name": "_link",
							"type": "string"
						}
					],
					"name": "createNewTicket",
					"outputs": [],
					"stateMutability": "nonpayable",
					"type": "function"
				},
				{
					"inputs": [
						{
							"internalType": "uint256",
							"name": "",
							"type": "uint256"
						}
					],
					"name": "tickets",
					"outputs": [
						{
							"internalType": "uint256",
							"name": "refNo",
							"type": "uint256"
						},
						{
							"internalType": "string",
							"name": "authority",
							"type": "string"
						},
						{
							"internalType": "string",
							"name": "link",
							"type": "string"
						}
					],
					"stateMutability": "view",
					"type": "function"
				}
			],
			"devdoc": {
				"kind": "dev",
				"methods": {},
				"version": 1
			},
			"evm": {
				"assembly": "    /* \"contracts/CreateTicket.sol\":70:718  contract NewTicket {\r... */\n  mstore(0x40, 0x80)\n  callvalue\n  dup1\n  iszero\n  tag_1\n  jumpi\n  0x00\n  dup1\n  revert\ntag_1:\n  pop\n  dataSize(sub_0)\n  dup1\n  dataOffset(sub_0)\n  0x00\n  codecopy\n  0x00\n  return\nstop\n\nsub_0: assembly {\n        /* \"contracts/CreateTicket.sol\":70:718  contract NewTicket {\r... */\n      mstore(0x40, 0x80)\n      callvalue\n      dup1\n      iszero\n      tag_1\n      jumpi\n      0x00\n      dup1\n      revert\n    tag_1:\n      pop\n      jumpi(tag_2, lt(calldatasize, 0x04))\n      shr(0xe0, calldataload(0x00))\n      dup1\n      0x50b44712\n      eq\n      tag_3\n      jumpi\n      dup1\n      0xe0a08f27\n      eq\n      tag_4\n      jumpi\n    tag_2:\n      0x00\n      dup1\n      revert\n        /* \"contracts/CreateTicket.sol\":198:221  Ticket[] public tickets */\n    tag_3:\n      tag_5\n      0x04\n      dup1\n      calldatasize\n      sub\n      dup2\n      add\n      swap1\n      tag_6\n      swap2\n      swap1\n      tag_7\n      jump\t// in\n    tag_6:\n      tag_8\n      jump\t// in\n    tag_5:\n      mload(0x40)\n      tag_9\n      swap4\n      swap3\n      swap2\n      swap1\n      tag_10\n      jump\t// in\n    tag_9:\n      mload(0x40)\n      dup1\n      swap2\n      sub\n      swap1\n      return\n        /* \"contracts/CreateTicket.sol\":574:715  function createNewTicket(string memory _authority, string memory _link) public {\r... */\n    tag_4:\n      tag_11\n      0x04\n      dup1\n      calldatasize\n      sub\n      dup2\n      add\n      swap1\n      tag_12\n      swap2\n      swap1\n      tag_13\n      jump\t// in\n    tag_12:\n      tag_14\n      jump\t// in\n    tag_11:\n      stop\n        /* \"contracts/CreateTicket.sol\":198:221  Ticket[] public tickets */\n    tag_8:\n      0x00\n      dup2\n      dup2\n      sload\n      dup2\n      lt\n      tag_15\n      jumpi\n      0x00\n      dup1\n      revert\n    tag_15:\n      swap1\n      0x00\n      mstore\n      keccak256(0x00, 0x20)\n      swap1\n      0x03\n      mul\n      add\n      0x00\n      swap2\n      pop\n      swap1\n      pop\n      dup1\n      0x00\n      add\n      sload\n      swap1\n      dup1\n      0x01\n      add\n      dup1\n      sload\n      tag_17\n      swap1\n      tag_18\n      jump\t// in\n    tag_17:\n      dup1\n      0x1f\n      add\n      0x20\n      dup1\n      swap2\n      div\n      mul\n      0x20\n      add\n      mload(0x40)\n      swap1\n      dup2\n      add\n      0x40\n      mstore\n      dup1\n      swap3\n      swap2\n      swap1\n      dup2\n      dup2\n      mstore\n      0x20\n      add\n      dup3\n      dup1\n      sload\n      tag_19\n      swap1\n      tag_18\n      jump\t// in\n    tag_19:\n      dup1\n      iszero\n      tag_20\n      jumpi\n      dup1\n      0x1f\n      lt\n      tag_21\n      jumpi\n      0x0100\n      dup1\n      dup4\n      sload\n      div\n      mul\n      dup4\n      mstore\n      swap2\n      0x20\n      add\n      swap2\n      jump(tag_20)\n    tag_21:\n      dup3\n      add\n      swap2\n      swap1\n      0x00\n      mstore\n      keccak256(0x00, 0x20)\n      swap1\n    tag_22:\n      dup2\n      sload\n      dup2\n      mstore\n      swap1\n      0x01\n      add\n      swap1\n      0x20\n      add\n      dup1\n      dup4\n      gt\n      tag_22\n      jumpi\n      dup3\n      swap1\n      sub\n      0x1f\n      and\n      dup3\n      add\n      swap2\n    tag_20:\n      pop\n      pop\n      pop\n      pop\n      pop\n      swap1\n      dup1\n      0x02\n      add\n      dup1\n      sload\n      tag_23\n      swap1\n      tag_18\n      jump\t// in\n    tag_23:\n      dup1\n      0x1f\n      add\n      0x20\n      dup1\n      swap2\n      div\n      mul\n      0x20\n      add\n      mload(0x40)\n      swap1\n      dup2\n      add\n      0x40\n      mstore\n      dup1\n      swap3\n      swap2\n      swap1\n      dup2\n      dup2\n      mstore\n      0x20\n      add\n      dup3\n      dup1\n      sload\n      tag_24\n      swap1\n      tag_18\n      jump\t// in\n    tag_24:\n      dup1\n      iszero\n      tag_25\n      jumpi\n      dup1\n      0x1f\n      lt\n      tag_26\n      jumpi\n      0x0100\n      dup1\n      dup4\n      sload\n      div\n      mul\n      dup4\n      mstore\n      swap2\n      0x20\n      add\n      swap2\n      jump(tag_25)\n    tag_26:\n      dup3\n      add\n      swap2\n      swap1\n      0x00\n      mstore\n      keccak256(0x00, 0x20)\n      swap1\n    tag_27:\n      dup2\n      sload\n      dup2\n      mstore\n      swap1\n      0x01\n      add\n      swap1\n      0x20\n      add\n      dup1\n      dup4\n      gt\n      tag_27\n      jumpi\n      dup3\n      swap1\n      sub\n      0x1f\n      and\n      dup3\n      add\n      swap2\n    tag_25:\n      pop\n      pop\n      pop\n      pop\n      pop\n      swap1\n      pop\n      dup4\n      jump\t// out\n        /* \"contracts/CreateTicket.sol\":574:715  function createNewTicket(string memory _authority, string memory _link) public {\r... */\n    tag_14:\n        /* \"contracts/CreateTicket.sol\":664:674  uint RefNo */\n      0x00\n        /* \"contracts/CreateTicket.sol\":677:697  generateRefNo(_link) */\n      tag_29\n        /* \"contracts/CreateTicket.sol\":691:696  _link */\n      dup3\n        /* \"contracts/CreateTicket.sol\":677:690  generateRefNo */\n      tag_30\n        /* \"contracts/CreateTicket.sol\":677:697  generateRefNo(_link) */\n      jump\t// in\n    tag_29:\n        /* \"contracts/CreateTicket.sol\":664:697  uint RefNo = generateRefNo(_link) */\n      swap1\n      pop\n        /* \"contracts/CreateTicket.sol\":653:715  {\r... */\n      pop\n        /* \"contracts/CreateTicket.sol\":574:715  function createNewTicket(string memory _authority, string memory _link) public {\r... */\n      pop\n      pop\n      jump\t// out\n        /* \"contracts/CreateTicket.sol\":395:566  function generateRefNo(string memory _str) private view returns (uint) {\r... */\n    tag_30:\n        /* \"contracts/CreateTicket.sol\":460:464  uint */\n      0x00\n        /* \"contracts/CreateTicket.sol\":477:490  uint NewRefNo */\n      dup1\n        /* \"contracts/CreateTicket.sol\":525:529  _str */\n      dup3\n        /* \"contracts/CreateTicket.sol\":508:530  abi.encodePacked(_str) */\n      add(0x20, mload(0x40))\n      tag_32\n      swap2\n      swap1\n      tag_33\n      jump\t// in\n    tag_32:\n      mload(0x40)\n      0x20\n      dup2\n      dup4\n      sub\n      sub\n      dup2\n      mstore\n      swap1\n      0x40\n      mstore\n        /* \"contracts/CreateTicket.sol\":498:531  keccak256(abi.encodePacked(_str)) */\n      dup1\n      mload\n      swap1\n      0x20\n      add\n      keccak256\n        /* \"contracts/CreateTicket.sol\":493:532  uint(keccak256(abi.encodePacked(_str))) */\n      0x00\n      shr\n        /* \"contracts/CreateTicket.sol\":477:532  uint NewRefNo = uint(keccak256(abi.encodePacked(_str))) */\n      swap1\n      pop\n        /* \"contracts/CreateTicket.sol\":550:558  NewRefNo */\n      dup1\n        /* \"contracts/CreateTicket.sol\":543:558  return NewRefNo */\n      swap2\n      pop\n      pop\n        /* \"contracts/CreateTicket.sol\":395:566  function generateRefNo(string memory _str) private view returns (uint) {\r... */\n      swap2\n      swap1\n      pop\n      jump\t// out\n        /* \"#utility.yul\":7:419   */\n    tag_35:\n        /* \"#utility.yul\":85:90   */\n      0x00\n        /* \"#utility.yul\":110:176   */\n      tag_37\n        /* \"#utility.yul\":126:175   */\n      tag_38\n        /* \"#utility.yul\":168:174   */\n      dup5\n        /* \"#utility.yul\":126:175   */\n      tag_39\n      jump\t// in\n    tag_38:\n        /* \"#utility.yul\":110:176   */\n      tag_40\n      jump\t// in\n    tag_37:\n        /* \"#utility.yul\":101:176   */\n      swap1\n      pop\n        /* \"#utility.yul\":199:205   */\n      dup3\n        /* \"#utility.yul\":192:197   */\n      dup2\n        /* \"#utility.yul\":185:206   */\n      mstore\n        /* \"#utility.yul\":237:241   */\n      0x20\n        /* \"#utility.yul\":230:235   */\n      dup2\n        /* \"#utility.yul\":226:242   */\n      add\n        /* \"#utility.yul\":275:278   */\n      dup5\n        /* \"#utility.yul\":266:272   */\n      dup5\n        /* \"#utility.yul\":261:264   */\n      dup5\n        /* \"#utility.yul\":257:273   */\n      add\n        /* \"#utility.yul\":254:279   */\n      gt\n        /* \"#utility.yul\":251:363   */\n      iszero\n      tag_41\n      jumpi\n        /* \"#utility.yul\":282:361   */\n      tag_42\n      tag_43\n      jump\t// in\n    tag_42:\n        /* \"#utility.yul\":251:363   */\n    tag_41:\n        /* \"#utility.yul\":372:413   */\n      tag_44\n        /* \"#utility.yul\":406:412   */\n      dup5\n        /* \"#utility.yul\":401:404   */\n      dup3\n        /* \"#utility.yul\":396:399   */\n      dup6\n        /* \"#utility.yul\":372:413   */\n      tag_45\n      jump\t// in\n    tag_44:\n        /* \"#utility.yul\":91:419   */\n      pop\n        /* \"#utility.yul\":7:419   */\n      swap4\n      swap3\n      pop\n      pop\n      pop\n      jump\t// out\n        /* \"#utility.yul\":439:779   */\n    tag_46:\n        /* \"#utility.yul\":495:500   */\n      0x00\n        /* \"#utility.yul\":544:547   */\n      dup3\n        /* \"#utility.yul\":537:541   */\n      0x1f\n        /* \"#utility.yul\":529:535   */\n      dup4\n        /* \"#utility.yul\":525:542   */\n      add\n        /* \"#utility.yul\":521:548   */\n      slt\n        /* \"#utility.yul\":511:633   */\n      tag_48\n      jumpi\n        /* \"#utility.yul\":552:631   */\n      tag_49\n      tag_50\n      jump\t// in\n    tag_49:\n        /* \"#utility.yul\":511:633   */\n    tag_48:\n        /* \"#utility.yul\":669:675   */\n      dup2\n        /* \"#utility.yul\":656:676   */\n      calldataload\n        /* \"#utility.yul\":694:773   */\n      tag_51\n        /* \"#utility.yul\":769:772   */\n      dup5\n        /* \"#utility.yul\":761:767   */\n      dup3\n        /* \"#utility.yul\":754:758   */\n      0x20\n        /* \"#utility.yul\":746:752   */\n      dup7\n        /* \"#utility.yul\":742:759   */\n      add\n        /* \"#utility.yul\":694:773   */\n      tag_35\n      jump\t// in\n    tag_51:\n        /* \"#utility.yul\":685:773   */\n      swap2\n      pop\n        /* \"#utility.yul\":501:779   */\n      pop\n        /* \"#utility.yul\":439:779   */\n      swap3\n      swap2\n      pop\n      pop\n      jump\t// out\n        /* \"#utility.yul\":785:924   */\n    tag_52:\n        /* \"#utility.yul\":831:836   */\n      0x00\n        /* \"#utility.yul\":869:875   */\n      dup2\n        /* \"#utility.yul\":856:876   */\n      calldataload\n        /* \"#utility.yul\":847:876   */\n      swap1\n      pop\n        /* \"#utility.yul\":885:918   */\n      tag_54\n        /* \"#utility.yul\":912:917   */\n      dup2\n        /* \"#utility.yul\":885:918   */\n      tag_55\n      jump\t// in\n    tag_54:\n        /* \"#utility.yul\":785:924   */\n      swap3\n      swap2\n      pop\n      pop\n      jump\t// out\n        /* \"#utility.yul\":930:1764   */\n    tag_13:\n        /* \"#utility.yul\":1018:1024   */\n      0x00\n        /* \"#utility.yul\":1026:1032   */\n      dup1\n        /* \"#utility.yul\":1075:1077   */\n      0x40\n        /* \"#utility.yul\":1063:1072   */\n      dup4\n        /* \"#utility.yul\":1054:1061   */\n      dup6\n        /* \"#utility.yul\":1050:1073   */\n      sub\n        /* \"#utility.yul\":1046:1078   */\n      slt\n        /* \"#utility.yul\":1043:1162   */\n      iszero\n      tag_57\n      jumpi\n        /* \"#utility.yul\":1081:1160   */\n      tag_58\n      tag_59\n      jump\t// in\n    tag_58:\n        /* \"#utility.yul\":1043:1162   */\n    tag_57:\n        /* \"#utility.yul\":1229:1230   */\n      0x00\n        /* \"#utility.yul\":1218:1227   */\n      dup4\n        /* \"#utility.yul\":1214:1231   */\n      add\n        /* \"#utility.yul\":1201:1232   */\n      calldataload\n        /* \"#utility.yul\":1259:1277   */\n      0xffffffffffffffff\n        /* \"#utility.yul\":1251:1257   */\n      dup2\n        /* \"#utility.yul\":1248:1278   */\n      gt\n        /* \"#utility.yul\":1245:1362   */\n      iszero\n      tag_60\n      jumpi\n        /* \"#utility.yul\":1281:1360   */\n      tag_61\n      tag_62\n      jump\t// in\n    tag_61:\n        /* \"#utility.yul\":1245:1362   */\n    tag_60:\n        /* \"#utility.yul\":1386:1449   */\n      tag_63\n        /* \"#utility.yul\":1441:1448   */\n      dup6\n        /* \"#utility.yul\":1432:1438   */\n      dup3\n        /* \"#utility.yul\":1421:1430   */\n      dup7\n        /* \"#utility.yul\":1417:1439   */\n      add\n        /* \"#utility.yul\":1386:1449   */\n      tag_46\n      jump\t// in\n    tag_63:\n        /* \"#utility.yul\":1376:1449   */\n      swap3\n      pop\n        /* \"#utility.yul\":1172:1459   */\n      pop\n        /* \"#utility.yul\":1526:1528   */\n      0x20\n        /* \"#utility.yul\":1515:1524   */\n      dup4\n        /* \"#utility.yul\":1511:1529   */\n      add\n        /* \"#utility.yul\":1498:1530   */\n      calldataload\n        /* \"#utility.yul\":1557:1575   */\n      0xffffffffffffffff\n        /* \"#utility.yul\":1549:1555   */\n      dup2\n        /* \"#utility.yul\":1546:1576   */\n      gt\n        /* \"#utility.yul\":1543:1660   */\n      iszero\n      tag_64\n      jumpi\n        /* \"#utility.yul\":1579:1658   */\n      tag_65\n      tag_62\n      jump\t// in\n    tag_65:\n        /* \"#utility.yul\":1543:1660   */\n    tag_64:\n        /* \"#utility.yul\":1684:1747   */\n      tag_66\n        /* \"#utility.yul\":1739:1746   */\n      dup6\n        /* \"#utility.yul\":1730:1736   */\n      dup3\n        /* \"#utility.yul\":1719:1728   */\n      dup7\n        /* \"#utility.yul\":1715:1737   */\n      add\n        /* \"#utility.yul\":1684:1747   */\n      tag_46\n      jump\t// in\n    tag_66:\n        /* \"#utility.yul\":1674:1747   */\n      swap2\n      pop\n        /* \"#utility.yul\":1469:1757   */\n      pop\n        /* \"#utility.yul\":930:1764   */\n      swap3\n      pop\n      swap3\n      swap1\n      pop\n      jump\t// out\n        /* \"#utility.yul\":1770:2099   */\n    tag_7:\n        /* \"#utility.yul\":1829:1835   */\n      0x00\n        /* \"#utility.yul\":1878:1880   */\n      0x20\n        /* \"#utility.yul\":1866:1875   */\n      dup3\n        /* \"#utility.yul\":1857:1864   */\n      dup5\n        /* \"#utility.yul\":1853:1876   */\n      sub\n        /* \"#utility.yul\":1849:1881   */\n      slt\n        /* \"#utility.yul\":1846:1965   */\n      iszero\n      tag_68\n      jumpi\n        /* \"#utility.yul\":1884:1963   */\n      tag_69\n      tag_59\n      jump\t// in\n    tag_69:\n        /* \"#utility.yul\":1846:1965   */\n    tag_68:\n        /* \"#utility.yul\":2004:2005   */\n      0x00\n        /* \"#utility.yul\":2029:2082   */\n      tag_70\n        /* \"#utility.yul\":2074:2081   */\n      dup5\n        /* \"#utility.yul\":2065:2071   */\n      dup3\n        /* \"#utility.yul\":2054:2063   */\n      dup6\n        /* \"#utility.yul\":2050:2072   */\n      add\n        /* \"#utility.yul\":2029:2082   */\n      tag_52\n      jump\t// in\n    tag_70:\n        /* \"#utility.yul\":2019:2082   */\n      swap2\n      pop\n        /* \"#utility.yul\":1975:2092   */\n      pop\n        /* \"#utility.yul\":1770:2099   */\n      swap3\n      swap2\n      pop\n      pop\n      jump\t// out\n        /* \"#utility.yul\":2105:2469   */\n    tag_71:\n        /* \"#utility.yul\":2193:2196   */\n      0x00\n        /* \"#utility.yul\":2221:2260   */\n      tag_73\n        /* \"#utility.yul\":2254:2259   */\n      dup3\n        /* \"#utility.yul\":2221:2260   */\n      tag_74\n      jump\t// in\n    tag_73:\n        /* \"#utility.yul\":2276:2347   */\n      tag_75\n        /* \"#utility.yul\":2340:2346   */\n      dup2\n        /* \"#utility.yul\":2335:2338   */\n      dup6\n        /* \"#utility.yul\":2276:2347   */\n      tag_76\n      jump\t// in\n    tag_75:\n        /* \"#utility.yul\":2269:2347   */\n      swap4\n      pop\n        /* \"#utility.yul\":2356:2408   */\n      tag_77\n        /* \"#utility.yul\":2401:2407   */\n      dup2\n        /* \"#utility.yul\":2396:2399   */\n      dup6\n        /* \"#utility.yul\":2389:2393   */\n      0x20\n        /* \"#utility.yul\":2382:2387   */\n      dup7\n        /* \"#utility.yul\":2378:2394   */\n      add\n        /* \"#utility.yul\":2356:2408   */\n      tag_78\n      jump\t// in\n    tag_77:\n        /* \"#utility.yul\":2433:2462   */\n      tag_79\n        /* \"#utility.yul\":2455:2461   */\n      dup2\n        /* \"#utility.yul\":2433:2462   */\n      tag_80\n      jump\t// in\n    tag_79:\n        /* \"#utility.yul\":2428:2431   */\n      dup5\n        /* \"#utility.yul\":2424:2463   */\n      add\n        /* \"#utility.yul\":2417:2463   */\n      swap2\n      pop\n        /* \"#utility.yul\":2197:2469   */\n      pop\n        /* \"#utility.yul\":2105:2469   */\n      swap3\n      swap2\n      pop\n      pop\n      jump\t// out\n        /* \"#utility.yul\":2475:2852   */\n    tag_81:\n        /* \"#utility.yul\":2581:2584   */\n      0x00\n        /* \"#utility.yul\":2609:2648   */\n      tag_83\n        /* \"#utility.yul\":2642:2647   */\n      dup3\n        /* \"#utility.yul\":2609:2648   */\n      tag_74\n      jump\t// in\n    tag_83:\n        /* \"#utility.yul\":2664:2753   */\n      tag_84\n        /* \"#utility.yul\":2746:2752   */\n      dup2\n        /* \"#utility.yul\":2741:2744   */\n      dup6\n        /* \"#utility.yul\":2664:2753   */\n      tag_85\n      jump\t// in\n    tag_84:\n        /* \"#utility.yul\":2657:2753   */\n      swap4\n      pop\n        /* \"#utility.yul\":2762:2814   */\n      tag_86\n        /* \"#utility.yul\":2807:2813   */\n      dup2\n        /* \"#utility.yul\":2802:2805   */\n      dup6\n        /* \"#utility.yul\":2795:2799   */\n      0x20\n        /* \"#utility.yul\":2788:2793   */\n      dup7\n        /* \"#utility.yul\":2784:2800   */\n      add\n        /* \"#utility.yul\":2762:2814   */\n      tag_78\n      jump\t// in\n    tag_86:\n        /* \"#utility.yul\":2839:2845   */\n      dup1\n        /* \"#utility.yul\":2834:2837   */\n      dup5\n        /* \"#utility.yul\":2830:2846   */\n      add\n        /* \"#utility.yul\":2823:2846   */\n      swap2\n      pop\n        /* \"#utility.yul\":2585:2852   */\n      pop\n        /* \"#utility.yul\":2475:2852   */\n      swap3\n      swap2\n      pop\n      pop\n      jump\t// out\n        /* \"#utility.yul\":2858:2976   */\n    tag_87:\n        /* \"#utility.yul\":2945:2969   */\n      tag_89\n        /* \"#utility.yul\":2963:2968   */\n      dup2\n        /* \"#utility.yul\":2945:2969   */\n      tag_90\n      jump\t// in\n    tag_89:\n        /* \"#utility.yul\":2940:2943   */\n      dup3\n        /* \"#utility.yul\":2933:2970   */\n      mstore\n        /* \"#utility.yul\":2858:2976   */\n      pop\n      pop\n      jump\t// out\n        /* \"#utility.yul\":2982:3257   */\n    tag_33:\n        /* \"#utility.yul\":3114:3117   */\n      0x00\n        /* \"#utility.yul\":3136:3231   */\n      tag_92\n        /* \"#utility.yul\":3227:3230   */\n      dup3\n        /* \"#utility.yul\":3218:3224   */\n      dup5\n        /* \"#utility.yul\":3136:3231   */\n      tag_81\n      jump\t// in\n    tag_92:\n        /* \"#utility.yul\":3129:3231   */\n      swap2\n      pop\n        /* \"#utility.yul\":3248:3251   */\n      dup2\n        /* \"#utility.yul\":3241:3251   */\n      swap1\n      pop\n        /* \"#utility.yul\":2982:3257   */\n      swap3\n      swap2\n      pop\n      pop\n      jump\t// out\n        /* \"#utility.yul\":3263:3887   */\n    tag_10:\n        /* \"#utility.yul\":3452:3456   */\n      0x00\n        /* \"#utility.yul\":3490:3492   */\n      0x60\n        /* \"#utility.yul\":3479:3488   */\n      dup3\n        /* \"#utility.yul\":3475:3493   */\n      add\n        /* \"#utility.yul\":3467:3493   */\n      swap1\n      pop\n        /* \"#utility.yul\":3503:3574   */\n      tag_94\n        /* \"#utility.yul\":3571:3572   */\n      0x00\n        /* \"#utility.yul\":3560:3569   */\n      dup4\n        /* \"#utility.yul\":3556:3573   */\n      add\n        /* \"#utility.yul\":3547:3553   */\n      dup7\n        /* \"#utility.yul\":3503:3574   */\n      tag_87\n      jump\t// in\n    tag_94:\n        /* \"#utility.yul\":3621:3630   */\n      dup2\n        /* \"#utility.yul\":3615:3619   */\n      dup2\n        /* \"#utility.yul\":3611:3631   */\n      sub\n        /* \"#utility.yul\":3606:3608   */\n      0x20\n        /* \"#utility.yul\":3595:3604   */\n      dup4\n        /* \"#utility.yul\":3591:3609   */\n      add\n        /* \"#utility.yul\":3584:3632   */\n      mstore\n        /* \"#utility.yul\":3649:3727   */\n      tag_95\n        /* \"#utility.yul\":3722:3726   */\n      dup2\n        /* \"#utility.yul\":3713:3719   */\n      dup6\n        /* \"#utility.yul\":3649:3727   */\n      tag_71\n      jump\t// in\n    tag_95:\n        /* \"#utility.yul\":3641:3727   */\n      swap1\n      pop\n        /* \"#utility.yul\":3774:3783   */\n      dup2\n        /* \"#utility.yul\":3768:3772   */\n      dup2\n        /* \"#utility.yul\":3764:3784   */\n      sub\n        /* \"#utility.yul\":3759:3761   */\n      0x40\n        /* \"#utility.yul\":3748:3757   */\n      dup4\n        /* \"#utility.yul\":3744:3762   */\n      add\n        /* \"#utility.yul\":3737:3785   */\n      mstore\n        /* \"#utility.yul\":3802:3880   */\n      tag_96\n        /* \"#utility.yul\":3875:3879   */\n      dup2\n        /* \"#utility.yul\":3866:3872   */\n      dup5\n        /* \"#utility.yul\":3802:3880   */\n      tag_71\n      jump\t// in\n    tag_96:\n        /* \"#utility.yul\":3794:3880   */\n      swap1\n      pop\n        /* \"#utility.yul\":3263:3887   */\n      swap5\n      swap4\n      pop\n      pop\n      pop\n      pop\n      jump\t// out\n        /* \"#utility.yul\":3893:4022   */\n    tag_40:\n        /* \"#utility.yul\":3927:3933   */\n      0x00\n        /* \"#utility.yul\":3954:3974   */\n      tag_98\n      tag_99\n      jump\t// in\n    tag_98:\n        /* \"#utility.yul\":3944:3974   */\n      swap1\n      pop\n        /* \"#utility.yul\":3983:4016   */\n      tag_100\n        /* \"#utility.yul\":4011:4015   */\n      dup3\n        /* \"#utility.yul\":4003:4009   */\n      dup3\n        /* \"#utility.yul\":3983:4016   */\n      tag_101\n      jump\t// in\n    tag_100:\n        /* \"#utility.yul\":3893:4022   */\n      swap2\n      swap1\n      pop\n      jump\t// out\n        /* \"#utility.yul\":4028:4103   */\n    tag_99:\n        /* \"#utility.yul\":4061:4067   */\n      0x00\n        /* \"#utility.yul\":4094:4096   */\n      0x40\n        /* \"#utility.yul\":4088:4097   */\n      mload\n        /* \"#utility.yul\":4078:4097   */\n      swap1\n      pop\n        /* \"#utility.yul\":4028:4103   */\n      swap1\n      jump\t// out\n        /* \"#utility.yul\":4109:4417   */\n    tag_39:\n        /* \"#utility.yul\":4171:4175   */\n      0x00\n        /* \"#utility.yul\":4261:4279   */\n      0xffffffffffffffff\n        /* \"#utility.yul\":4253:4259   */\n      dup3\n        /* \"#utility.yul\":4250:4280   */\n      gt\n        /* \"#utility.yul\":4247:4303   */\n      iszero\n      tag_104\n      jumpi\n        /* \"#utility.yul\":4283:4301   */\n      tag_105\n      tag_106\n      jump\t// in\n    tag_105:\n        /* \"#utility.yul\":4247:4303   */\n    tag_104:\n        /* \"#utility.yul\":4321:4350   */\n      tag_107\n        /* \"#utility.yul\":4343:4349   */\n      dup3\n        /* \"#utility.yul\":4321:4350   */\n      tag_80\n      jump\t// in\n    tag_107:\n        /* \"#utility.yul\":4313:4350   */\n      swap1\n      pop\n        /* \"#utility.yul\":4405:4409   */\n      0x20\n        /* \"#utility.yul\":4399:4403   */\n      dup2\n        /* \"#utility.yul\":4395:4410   */\n      add\n        /* \"#utility.yul\":4387:4410   */\n      swap1\n      pop\n        /* \"#utility.yul\":4109:4417   */\n      swap2\n      swap1\n      pop\n      jump\t// out\n        /* \"#utility.yul\":4423:4522   */\n    tag_74:\n        /* \"#utility.yul\":4475:4481   */\n      0x00\n        /* \"#utility.yul\":4509:4514   */\n      dup2\n        /* \"#utility.yul\":4503:4515   */\n      mload\n        /* \"#utility.yul\":4493:4515   */\n      swap1\n      pop\n        /* \"#utility.yul\":4423:4522   */\n      swap2\n      swap1\n      pop\n      jump\t// out\n        /* \"#utility.yul\":4528:4697   */\n    tag_76:\n        /* \"#utility.yul\":4612:4623   */\n      0x00\n        /* \"#utility.yul\":4646:4652   */\n      dup3\n        /* \"#utility.yul\":4641:4644   */\n      dup3\n        /* \"#utility.yul\":4634:4653   */\n      mstore\n        /* \"#utility.yul\":4686:4690   */\n      0x20\n        /* \"#utility.yul\":4681:4684   */\n      dup3\n        /* \"#utility.yul\":4677:4691   */\n      add\n        /* \"#utility.yul\":4662:4691   */\n      swap1\n      pop\n        /* \"#utility.yul\":4528:4697   */\n      swap3\n      swap2\n      pop\n      pop\n      jump\t// out\n        /* \"#utility.yul\":4703:4851   */\n    tag_85:\n        /* \"#utility.yul\":4805:4816   */\n      0x00\n        /* \"#utility.yul\":4842:4845   */\n      dup2\n        /* \"#utility.yul\":4827:4845   */\n      swap1\n      pop\n        /* \"#utility.yul\":4703:4851   */\n      swap3\n      swap2\n      pop\n      pop\n      jump\t// out\n        /* \"#utility.yul\":4857:4934   */\n    tag_90:\n        /* \"#utility.yul\":4894:4901   */\n      0x00\n        /* \"#utility.yul\":4923:4928   */\n      dup2\n        /* \"#utility.yul\":4912:4928   */\n      swap1\n      pop\n        /* \"#utility.yul\":4857:4934   */\n      swap2\n      swap1\n      pop\n      jump\t// out\n        /* \"#utility.yul\":4940:5094   */\n    tag_45:\n        /* \"#utility.yul\":5024:5030   */\n      dup3\n        /* \"#utility.yul\":5019:5022   */\n      dup2\n        /* \"#utility.yul\":5014:5017   */\n      dup4\n        /* \"#utility.yul\":5001:5031   */\n      calldatacopy\n        /* \"#utility.yul\":5086:5087   */\n      0x00\n        /* \"#utility.yul\":5077:5083   */\n      dup4\n        /* \"#utility.yul\":5072:5075   */\n      dup4\n        /* \"#utility.yul\":5068:5084   */\n      add\n        /* \"#utility.yul\":5061:5088   */\n      mstore\n        /* \"#utility.yul\":4940:5094   */\n      pop\n      pop\n      pop\n      jump\t// out\n        /* \"#utility.yul\":5100:5407   */\n    tag_78:\n        /* \"#utility.yul\":5168:5169   */\n      0x00\n        /* \"#utility.yul\":5178:5291   */\n    tag_114:\n        /* \"#utility.yul\":5192:5198   */\n      dup4\n        /* \"#utility.yul\":5189:5190   */\n      dup2\n        /* \"#utility.yul\":5186:5199   */\n      lt\n        /* \"#utility.yul\":5178:5291   */\n      iszero\n      tag_116\n      jumpi\n        /* \"#utility.yul\":5277:5278   */\n      dup1\n        /* \"#utility.yul\":5272:5275   */\n      dup3\n        /* \"#utility.yul\":5268:5279   */\n      add\n        /* \"#utility.yul\":5262:5280   */\n      mload\n        /* \"#utility.yul\":5258:5259   */\n      dup2\n        /* \"#utility.yul\":5253:5256   */\n      dup5\n        /* \"#utility.yul\":5249:5260   */\n      add\n        /* \"#utility.yul\":5242:5281   */\n      mstore\n        /* \"#utility.yul\":5214:5216   */\n      0x20\n        /* \"#utility.yul\":5211:5212   */\n      dup2\n        /* \"#utility.yul\":5207:5217   */\n      add\n        /* \"#utility.yul\":5202:5217   */\n      swap1\n      pop\n        /* \"#utility.yul\":5178:5291   */\n      jump(tag_114)\n    tag_116:\n        /* \"#utility.yul\":5309:5315   */\n      dup4\n        /* \"#utility.yul\":5306:5307   */\n      dup2\n        /* \"#utility.yul\":5303:5316   */\n      gt\n        /* \"#utility.yul\":5300:5401   */\n      iszero\n      tag_117\n      jumpi\n        /* \"#utility.yul\":5389:5390   */\n      0x00\n        /* \"#utility.yul\":5380:5386   */\n      dup5\n        /* \"#utility.yul\":5375:5378   */\n      dup5\n        /* \"#utility.yul\":5371:5387   */\n      add\n        /* \"#utility.yul\":5364:5391   */\n      mstore\n        /* \"#utility.yul\":5300:5401   */\n    tag_117:\n        /* \"#utility.yul\":5149:5407   */\n      pop\n        /* \"#utility.yul\":5100:5407   */\n      pop\n      pop\n      pop\n      jump\t// out\n        /* \"#utility.yul\":5413:5733   */\n    tag_18:\n        /* \"#utility.yul\":5457:5463   */\n      0x00\n        /* \"#utility.yul\":5494:5495   */\n      0x02\n        /* \"#utility.yul\":5488:5492   */\n      dup3\n        /* \"#utility.yul\":5484:5496   */\n      div\n        /* \"#utility.yul\":5474:5496   */\n      swap1\n      pop\n        /* \"#utility.yul\":5541:5542   */\n      0x01\n        /* \"#utility.yul\":5535:5539   */\n      dup3\n        /* \"#utility.yul\":5531:5543   */\n      and\n        /* \"#utility.yul\":5562:5580   */\n      dup1\n        /* \"#utility.yul\":5552:5633   */\n      tag_119\n      jumpi\n        /* \"#utility.yul\":5618:5622   */\n      0x7f\n        /* \"#utility.yul\":5610:5616   */\n      dup3\n        /* \"#utility.yul\":5606:5623   */\n      and\n        /* \"#utility.yul\":5596:5623   */\n      swap2\n      pop\n        /* \"#utility.yul\":5552:5633   */\n    tag_119:\n        /* \"#utility.yul\":5680:5682   */\n      0x20\n        /* \"#utility.yul\":5672:5678   */\n      dup3\n        /* \"#utility.yul\":5669:5683   */\n      lt\n        /* \"#utility.yul\":5649:5667   */\n      dup2\n        /* \"#utility.yul\":5646:5684   */\n      eq\n        /* \"#utility.yul\":5643:5727   */\n      iszero\n      tag_120\n      jumpi\n        /* \"#utility.yul\":5699:5717   */\n      tag_121\n      tag_122\n      jump\t// in\n    tag_121:\n        /* \"#utility.yul\":5643:5727   */\n    tag_120:\n        /* \"#utility.yul\":5464:5733   */\n      pop\n        /* \"#utility.yul\":5413:5733   */\n      swap2\n      swap1\n      pop\n      jump\t// out\n        /* \"#utility.yul\":5739:6020   */\n    tag_101:\n        /* \"#utility.yul\":5822:5849   */\n      tag_124\n        /* \"#utility.yul\":5844:5848   */\n      dup3\n        /* \"#utility.yul\":5822:5849   */\n      tag_80\n      jump\t// in\n    tag_124:\n        /* \"#utility.yul\":5814:5820   */\n      dup2\n        /* \"#utility.yul\":5810:5850   */\n      add\n        /* \"#utility.yul\":5952:5958   */\n      dup2\n        /* \"#utility.yul\":5940:5950   */\n      dup2\n        /* \"#utility.yul\":5937:5959   */\n      lt\n        /* \"#utility.yul\":5916:5934   */\n      0xffffffffffffffff\n        /* \"#utility.yul\":5904:5914   */\n      dup3\n        /* \"#utility.yul\":5901:5935   */\n      gt\n        /* \"#utility.yul\":5898:5960   */\n      or\n        /* \"#utility.yul\":5895:5983   */\n      iszero\n      tag_125\n      jumpi\n        /* \"#utility.yul\":5963:5981   */\n      tag_126\n      tag_106\n      jump\t// in\n    tag_126:\n        /* \"#utility.yul\":5895:5983   */\n    tag_125:\n        /* \"#utility.yul\":6003:6013   */\n      dup1\n        /* \"#utility.yul\":5999:6001   */\n      0x40\n        /* \"#utility.yul\":5992:6014   */\n      mstore\n        /* \"#utility.yul\":5782:6020   */\n      pop\n        /* \"#utility.yul\":5739:6020   */\n      pop\n      pop\n      jump\t// out\n        /* \"#utility.yul\":6026:6206   */\n    tag_122:\n        /* \"#utility.yul\":6074:6151   */\n      0x4e487b7100000000000000000000000000000000000000000000000000000000\n        /* \"#utility.yul\":6071:6072   */\n      0x00\n        /* \"#utility.yul\":6064:6152   */\n      mstore\n        /* \"#utility.yul\":6171:6175   */\n      0x22\n        /* \"#utility.yul\":6168:6169   */\n      0x04\n        /* \"#utility.yul\":6161:6176   */\n      mstore\n        /* \"#utility.yul\":6195:6199   */\n      0x24\n        /* \"#utility.yul\":6192:6193   */\n      0x00\n        /* \"#utility.yul\":6185:6200   */\n      revert\n        /* \"#utility.yul\":6212:6392   */\n    tag_106:\n        /* \"#utility.yul\":6260:6337   */\n      0x4e487b7100000000000000000000000000000000000000000000000000000000\n        /* \"#utility.yul\":6257:6258   */\n      0x00\n        /* \"#utility.yul\":6250:6338   */\n      mstore\n        /* \"#utility.yul\":6357:6361   */\n      0x41\n        /* \"#utility.yul\":6354:6355   */\n      0x04\n        /* \"#utility.yul\":6347:6362   */\n      mstore\n        /* \"#utility.yul\":6381:6385   */\n      0x24\n        /* \"#utility.yul\":6378:6379   */\n      0x00\n        /* \"#utility.yul\":6371:6386   */\n      revert\n        /* \"#utility.yul\":6398:6515   */\n    tag_50:\n        /* \"#utility.yul\":6507:6508   */\n      0x00\n        /* \"#utility.yul\":6504:6505   */\n      dup1\n        /* \"#utility.yul\":6497:6509   */\n      revert\n        /* \"#utility.yul\":6521:6638   */\n    tag_43:\n        /* \"#utility.yul\":6630:6631   */\n      0x00\n        /* \"#utility.yul\":6627:6628   */\n      dup1\n        /* \"#utility.yul\":6620:6632   */\n      revert\n        /* \"#utility.yul\":6644:6761   */\n    tag_62:\n        /* \"#utility.yul\":6753:6754   */\n      0x00\n        /* \"#utility.yul\":6750:6751   */\n      dup1\n        /* \"#utility.yul\":6743:6755   */\n      revert\n        /* \"#utility.yul\":6767:6884   */\n    tag_59:\n        /* \"#utility.yul\":6876:6877   */\n      0x00\n        /* \"#utility.yul\":6873:6874   */\n      dup1\n        /* \"#utility.yul\":6866:6878   */\n      revert\n        /* \"#utility.yul\":6890:6992   */\n    tag_80:\n        /* \"#utility.yul\":6931:6937   */\n      0x00\n        /* \"#utility.yul\":6982:6984   */\n      0x1f\n        /* \"#utility.yul\":6978:6985   */\n      not\n        /* \"#utility.yul\":6973:6975   */\n      0x1f\n        /* \"#utility.yul\":6966:6971   */\n      dup4\n        /* \"#utility.yul\":6962:6976   */\n      add\n        /* \"#utility.yul\":6958:6986   */\n      and\n        /* \"#utility.yul\":6948:6986   */\n      swap1\n      pop\n        /* \"#utility.yul\":6890:6992   */\n      swap2\n      swap1\n      pop\n      jump\t// out\n        /* \"#utility.yul\":6998:7120   */\n    tag_55:\n        /* \"#utility.yul\":7071:7095   */\n      tag_135\n        /* \"#utility.yul\":7089:7094   */\n      dup2\n        /* \"#utility.yul\":7071:7095   */\n      tag_90\n      jump\t// in\n    tag_135:\n        /* \"#utility.yul\":7064:7069   */\n      dup2\n        /* \"#utility.yul\":7061:7096   */\n      eq\n        /* \"#utility.yul\":7051:7114   */\n      tag_136\n      jumpi\n        /* \"#utility.yul\":7110:7111   */\n      0x00\n        /* \"#utility.yul\":7107:7108   */\n      dup1\n        /* \"#utility.yul\":7100:7112   */\n      revert\n        /* \"#utility.yul\":7051:7114   */\n    tag_136:\n        /* \"#utility.yul\":6998:7120   */\n      pop\n      jump\t// out\n\n    auxdata: 0xa2646970667358221220545bd0ac0ccb71bf710281e228fb3dbe58b810ff90f0c2ea68325e6f8efc738464736f6c63430008070033\n}\n",
				"bytecode": {
					"linkReferences": {},
					"object": "608060405234801561001057600080fd5b50610618806100206000396000f3fe608060405234801561001057600080fd5b50600436106100365760003560e01c806350b447121461003b578063e0a08f271461006d575b600080fd5b6100556004803603810190610050919061031a565b610089565b604051610064939291906103d7565b60405180910390f35b610087600480360381019061008291906102a2565b6101d3565b005b6000818154811061009957600080fd5b90600052602060002090600302016000915090508060000154908060010180546100c2906104e5565b80601f01602080910402602001604051908101604052809291908181526020018280546100ee906104e5565b801561013b5780601f106101105761010080835404028352916020019161013b565b820191906000526020600020905b81548152906001019060200180831161011e57829003601f168201915b505050505090806002018054610150906104e5565b80601f016020809104026020016040519081016040528092919081815260200182805461017c906104e5565b80156101c95780601f1061019e576101008083540402835291602001916101c9565b820191906000526020600020905b8154815290600101906020018083116101ac57829003601f168201915b5050505050905083565b60006101de826101e5565b9050505050565b600080826040516020016101f991906103c0565b6040516020818303038152906040528051906020012060001c905080915050919050565b600061023061022b84610441565b61041c565b90508281526020810184848401111561024c5761024b6105ab565b5b6102578482856104a3565b509392505050565b600082601f830112610274576102736105a6565b5b813561028484826020860161021d565b91505092915050565b60008135905061029c816105cb565b92915050565b600080604083850312156102b9576102b86105b5565b5b600083013567ffffffffffffffff8111156102d7576102d66105b0565b5b6102e38582860161025f565b925050602083013567ffffffffffffffff811115610304576103036105b0565b5b6103108582860161025f565b9150509250929050565b6000602082840312156103305761032f6105b5565b5b600061033e8482850161028d565b91505092915050565b600061035282610472565b61035c818561047d565b935061036c8185602086016104b2565b610375816105ba565b840191505092915050565b600061038b82610472565b610395818561048e565b93506103a58185602086016104b2565b80840191505092915050565b6103ba81610499565b82525050565b60006103cc8284610380565b915081905092915050565b60006060820190506103ec60008301866103b1565b81810360208301526103fe8185610347565b905081810360408301526104128184610347565b9050949350505050565b6000610426610437565b90506104328282610517565b919050565b6000604051905090565b600067ffffffffffffffff82111561045c5761045b610577565b5b610465826105ba565b9050602081019050919050565b600081519050919050565b600082825260208201905092915050565b600081905092915050565b6000819050919050565b82818337600083830152505050565b60005b838110156104d05780820151818401526020810190506104b5565b838111156104df576000848401525b50505050565b600060028204905060018216806104fd57607f821691505b6020821081141561051157610510610548565b5b50919050565b610520826105ba565b810181811067ffffffffffffffff8211171561053f5761053e610577565b5b80604052505050565b7f4e487b7100000000000000000000000000000000000000000000000000000000600052602260045260246000fd5b7f4e487b7100000000000000000000000000000000000000000000000000000000600052604160045260246000fd5b600080fd5b600080fd5b600080fd5b600080fd5b6000601f19601f8301169050919050565b6105d481610499565b81146105df57600080fd5b5056fea2646970667358221220545bd0ac0ccb71bf710281e228fb3dbe58b810ff90f0c2ea68325e6f8efc738464736f6c63430008070033",
					"opcodes": "PUSH1 0x80 PUSH1 0x40 MSTORE CALLVALUE DUP1 ISZERO PUSH2 0x10 JUMPI PUSH1 0x0 DUP1 REVERT JUMPDEST POP PUSH2 0x618 DUP1 PUSH2 0x20 PUSH1 0x0 CODECOPY PUSH1 0x0 RETURN INVALID PUSH1 0x80 PUSH1 0x40 MSTORE CALLVALUE DUP1 ISZERO PUSH2 0x10 JUMPI PUSH1 0x0 DUP1 REVERT JUMPDEST POP PUSH1 0x4 CALLDATASIZE LT PUSH2 0x36 JUMPI PUSH1 0x0 CALLDATALOAD PUSH1 0xE0 SHR DUP1 PUSH4 0x50B44712 EQ PUSH2 0x3B JUMPI DUP1 PUSH4 0xE0A08F27 EQ PUSH2 0x6D JUMPI JUMPDEST PUSH1 0x0 DUP1 REVERT JUMPDEST PUSH2 0x55 PUSH1 0x4 DUP1 CALLDATASIZE SUB DUP2 ADD SWAP1 PUSH2 0x50 SWAP2 SWAP1 PUSH2 0x31A JUMP JUMPDEST PUSH2 0x89 JUMP JUMPDEST PUSH1 0x40 MLOAD PUSH2 0x64 SWAP4 SWAP3 SWAP2 SWAP1 PUSH2 0x3D7 JUMP JUMPDEST PUSH1 0x40 MLOAD DUP1 SWAP2 SUB SWAP1 RETURN JUMPDEST PUSH2 0x87 PUSH1 0x4 DUP1 CALLDATASIZE SUB DUP2 ADD SWAP1 PUSH2 0x82 SWAP2 SWAP1 PUSH2 0x2A2 JUMP JUMPDEST PUSH2 0x1D3 JUMP JUMPDEST STOP JUMPDEST PUSH1 0x0 DUP2 DUP2 SLOAD DUP2 LT PUSH2 0x99 JUMPI PUSH1 0x0 DUP1 REVERT JUMPDEST SWAP1 PUSH1 0x0 MSTORE PUSH1 0x20 PUSH1 0x0 KECCAK256 SWAP1 PUSH1 0x3 MUL ADD PUSH1 0x0 SWAP2 POP SWAP1 POP DUP1 PUSH1 0x0 ADD SLOAD SWAP1 DUP1 PUSH1 0x1 ADD DUP1 SLOAD PUSH2 0xC2 SWAP1 PUSH2 0x4E5 JUMP JUMPDEST DUP1 PUSH1 0x1F ADD PUSH1 0x20 DUP1 SWAP2 DIV MUL PUSH1 0x20 ADD PUSH1 0x40 MLOAD SWAP1 DUP2 ADD PUSH1 0x40 MSTORE DUP1 SWAP3 SWAP2 SWAP1 DUP2 DUP2 MSTORE PUSH1 0x20 ADD DUP3 DUP1 SLOAD PUSH2 0xEE SWAP1 PUSH2 0x4E5 JUMP JUMPDEST DUP1 ISZERO PUSH2 0x13B JUMPI DUP1 PUSH1 0x1F LT PUSH2 0x110 JUMPI PUSH2 0x100 DUP1 DUP4 SLOAD DIV MUL DUP4 MSTORE SWAP2 PUSH1 0x20 ADD SWAP2 PUSH2 0x13B JUMP JUMPDEST DUP3 ADD SWAP2 SWAP1 PUSH1 0x0 MSTORE PUSH1 0x20 PUSH1 0x0 KECCAK256 SWAP1 JUMPDEST DUP2 SLOAD DUP2 MSTORE SWAP1 PUSH1 0x1 ADD SWAP1 PUSH1 0x20 ADD DUP1 DUP4 GT PUSH2 0x11E JUMPI DUP3 SWAP1 SUB PUSH1 0x1F AND DUP3 ADD SWAP2 JUMPDEST POP POP POP POP POP SWAP1 DUP1 PUSH1 0x2 ADD DUP1 SLOAD PUSH2 0x150 SWAP1 PUSH2 0x4E5 JUMP JUMPDEST DUP1 PUSH1 0x1F ADD PUSH1 0x20 DUP1 SWAP2 DIV MUL PUSH1 0x20 ADD PUSH1 0x40 MLOAD SWAP1 DUP2 ADD PUSH1 0x40 MSTORE DUP1 SWAP3 SWAP2 SWAP1 DUP2 DUP2 MSTORE PUSH1 0x20 ADD DUP3 DUP1 SLOAD PUSH2 0x17C SWAP1 PUSH2 0x4E5 JUMP JUMPDEST DUP1 ISZERO PUSH2 0x1C9 JUMPI DUP1 PUSH1 0x1F LT PUSH2 0x19E JUMPI PUSH2 0x100 DUP1 DUP4 SLOAD DIV MUL DUP4 MSTORE SWAP2 PUSH1 0x20 ADD SWAP2 PUSH2 0x1C9 JUMP JUMPDEST DUP3 ADD SWAP2 SWAP1 PUSH1 0x0 MSTORE PUSH1 0x20 PUSH1 0x0 KECCAK256 SWAP1 JUMPDEST DUP2 SLOAD DUP2 MSTORE SWAP1 PUSH1 0x1 ADD SWAP1 PUSH1 0x20 ADD DUP1 DUP4 GT PUSH2 0x1AC JUMPI DUP3 SWAP1 SUB PUSH1 0x1F AND DUP3 ADD SWAP2 JUMPDEST POP POP POP POP POP SWAP1 POP DUP4 JUMP JUMPDEST PUSH1 0x0 PUSH2 0x1DE DUP3 PUSH2 0x1E5 JUMP JUMPDEST SWAP1 POP POP POP POP JUMP JUMPDEST PUSH1 0x0 DUP1 DUP3 PUSH1 0x40 MLOAD PUSH1 0x20 ADD PUSH2 0x1F9 SWAP2 SWAP1 PUSH2 0x3C0 JUMP JUMPDEST PUSH1 0x40 MLOAD PUSH1 0x20 DUP2 DUP4 SUB SUB DUP2 MSTORE SWAP1 PUSH1 0x40 MSTORE DUP1 MLOAD SWAP1 PUSH1 0x20 ADD KECCAK256 PUSH1 0x0 SHR SWAP1 POP DUP1 SWAP2 POP POP SWAP2 SWAP1 POP JUMP JUMPDEST PUSH1 0x0 PUSH2 0x230 PUSH2 0x22B DUP5 PUSH2 0x441 JUMP JUMPDEST PUSH2 0x41C JUMP JUMPDEST SWAP1 POP DUP3 DUP2 MSTORE PUSH1 0x20 DUP2 ADD DUP5 DUP5 DUP5 ADD GT ISZERO PUSH2 0x24C JUMPI PUSH2 0x24B PUSH2 0x5AB JUMP JUMPDEST JUMPDEST PUSH2 0x257 DUP5 DUP3 DUP6 PUSH2 0x4A3 JUMP JUMPDEST POP SWAP4 SWAP3 POP POP POP JUMP JUMPDEST PUSH1 0x0 DUP3 PUSH1 0x1F DUP4 ADD SLT PUSH2 0x274 JUMPI PUSH2 0x273 PUSH2 0x5A6 JUMP JUMPDEST JUMPDEST DUP2 CALLDATALOAD PUSH2 0x284 DUP5 DUP3 PUSH1 0x20 DUP7 ADD PUSH2 0x21D JUMP JUMPDEST SWAP2 POP POP SWAP3 SWAP2 POP POP JUMP JUMPDEST PUSH1 0x0 DUP2 CALLDATALOAD SWAP1 POP PUSH2 0x29C DUP2 PUSH2 0x5CB JUMP JUMPDEST SWAP3 SWAP2 POP POP JUMP JUMPDEST PUSH1 0x0 DUP1 PUSH1 0x40 DUP4 DUP6 SUB SLT ISZERO PUSH2 0x2B9 JUMPI PUSH2 0x2B8 PUSH2 0x5B5 JUMP JUMPDEST JUMPDEST PUSH1 0x0 DUP4 ADD CALLDATALOAD PUSH8 0xFFFFFFFFFFFFFFFF DUP2 GT ISZERO PUSH2 0x2D7 JUMPI PUSH2 0x2D6 PUSH2 0x5B0 JUMP JUMPDEST JUMPDEST PUSH2 0x2E3 DUP6 DUP3 DUP7 ADD PUSH2 0x25F JUMP JUMPDEST SWAP3 POP POP PUSH1 0x20 DUP4 ADD CALLDATALOAD PUSH8 0xFFFFFFFFFFFFFFFF DUP2 GT ISZERO PUSH2 0x304 JUMPI PUSH2 0x303 PUSH2 0x5B0 JUMP JUMPDEST JUMPDEST PUSH2 0x310 DUP6 DUP3 DUP7 ADD PUSH2 0x25F JUMP JUMPDEST SWAP2 POP POP SWAP3 POP SWAP3 SWAP1 POP JUMP JUMPDEST PUSH1 0x0 PUSH1 0x20 DUP3 DUP5 SUB SLT ISZERO PUSH2 0x330 JUMPI PUSH2 0x32F PUSH2 0x5B5 JUMP JUMPDEST JUMPDEST PUSH1 0x0 PUSH2 0x33E DUP5 DUP3 DUP6 ADD PUSH2 0x28D JUMP JUMPDEST SWAP2 POP POP SWAP3 SWAP2 POP POP JUMP JUMPDEST PUSH1 0x0 PUSH2 0x352 DUP3 PUSH2 0x472 JUMP JUMPDEST PUSH2 0x35C DUP2 DUP6 PUSH2 0x47D JUMP JUMPDEST SWAP4 POP PUSH2 0x36C DUP2 DUP6 PUSH1 0x20 DUP7 ADD PUSH2 0x4B2 JUMP JUMPDEST PUSH2 0x375 DUP2 PUSH2 0x5BA JUMP JUMPDEST DUP5 ADD SWAP2 POP POP SWAP3 SWAP2 POP POP JUMP JUMPDEST PUSH1 0x0 PUSH2 0x38B DUP3 PUSH2 0x472 JUMP JUMPDEST PUSH2 0x395 DUP2 DUP6 PUSH2 0x48E JUMP JUMPDEST SWAP4 POP PUSH2 0x3A5 DUP2 DUP6 PUSH1 0x20 DUP7 ADD PUSH2 0x4B2 JUMP JUMPDEST DUP1 DUP5 ADD SWAP2 POP POP SWAP3 SWAP2 POP POP JUMP JUMPDEST PUSH2 0x3BA DUP2 PUSH2 0x499 JUMP JUMPDEST DUP3 MSTORE POP POP JUMP JUMPDEST PUSH1 0x0 PUSH2 0x3CC DUP3 DUP5 PUSH2 0x380 JUMP JUMPDEST SWAP2 POP DUP2 SWAP1 POP SWAP3 SWAP2 POP POP JUMP JUMPDEST PUSH1 0x0 PUSH1 0x60 DUP3 ADD SWAP1 POP PUSH2 0x3EC PUSH1 0x0 DUP4 ADD DUP7 PUSH2 0x3B1 JUMP JUMPDEST DUP2 DUP2 SUB PUSH1 0x20 DUP4 ADD MSTORE PUSH2 0x3FE DUP2 DUP6 PUSH2 0x347 JUMP JUMPDEST SWAP1 POP DUP2 DUP2 SUB PUSH1 0x40 DUP4 ADD MSTORE PUSH2 0x412 DUP2 DUP5 PUSH2 0x347 JUMP JUMPDEST SWAP1 POP SWAP5 SWAP4 POP POP POP POP JUMP JUMPDEST PUSH1 0x0 PUSH2 0x426 PUSH2 0x437 JUMP JUMPDEST SWAP1 POP PUSH2 0x432 DUP3 DUP3 PUSH2 0x517 JUMP JUMPDEST SWAP2 SWAP1 POP JUMP JUMPDEST PUSH1 0x0 PUSH1 0x40 MLOAD SWAP1 POP SWAP1 JUMP JUMPDEST PUSH1 0x0 PUSH8 0xFFFFFFFFFFFFFFFF DUP3 GT ISZERO PUSH2 0x45C JUMPI PUSH2 0x45B PUSH2 0x577 JUMP JUMPDEST JUMPDEST PUSH2 0x465 DUP3 PUSH2 0x5BA JUMP JUMPDEST SWAP1 POP PUSH1 0x20 DUP2 ADD SWAP1 POP SWAP2 SWAP1 POP JUMP JUMPDEST PUSH1 0x0 DUP2 MLOAD SWAP1 POP SWAP2 SWAP1 POP JUMP JUMPDEST PUSH1 0x0 DUP3 DUP3 MSTORE PUSH1 0x20 DUP3 ADD SWAP1 POP SWAP3 SWAP2 POP POP JUMP JUMPDEST PUSH1 0x0 DUP2 SWAP1 POP SWAP3 SWAP2 POP POP JUMP JUMPDEST PUSH1 0x0 DUP2 SWAP1 POP SWAP2 SWAP1 POP JUMP JUMPDEST DUP3 DUP2 DUP4 CALLDATACOPY PUSH1 0x0 DUP4 DUP4 ADD MSTORE POP POP POP JUMP JUMPDEST PUSH1 0x0 JUMPDEST DUP4 DUP2 LT ISZERO PUSH2 0x4D0 JUMPI DUP1 DUP3 ADD MLOAD DUP2 DUP5 ADD MSTORE PUSH1 0x20 DUP2 ADD SWAP1 POP PUSH2 0x4B5 JUMP JUMPDEST DUP4 DUP2 GT ISZERO PUSH2 0x4DF JUMPI PUSH1 0x0 DUP5 DUP5 ADD MSTORE JUMPDEST POP POP POP POP JUMP JUMPDEST PUSH1 0x0 PUSH1 0x2 DUP3 DIV SWAP1 POP PUSH1 0x1 DUP3 AND DUP1 PUSH2 0x4FD JUMPI PUSH1 0x7F DUP3 AND SWAP2 POP JUMPDEST PUSH1 0x20 DUP3 LT DUP2 EQ ISZERO PUSH2 0x511 JUMPI PUSH2 0x510 PUSH2 0x548 JUMP JUMPDEST JUMPDEST POP SWAP2 SWAP1 POP JUMP JUMPDEST PUSH2 0x520 DUP3 PUSH2 0x5BA JUMP JUMPDEST DUP2 ADD DUP2 DUP2 LT PUSH8 0xFFFFFFFFFFFFFFFF DUP3 GT OR ISZERO PUSH2 0x53F JUMPI PUSH2 0x53E PUSH2 0x577 JUMP JUMPDEST JUMPDEST DUP1 PUSH1 0x40 MSTORE POP POP POP JUMP JUMPDEST PUSH32 0x4E487B7100000000000000000000000000000000000000000000000000000000 PUSH1 0x0 MSTORE PUSH1 0x22 PUSH1 0x4 MSTORE PUSH1 0x24 PUSH1 0x0 REVERT JUMPDEST PUSH32 0x4E487B7100000000000000000000000000000000000000000000000000000000 PUSH1 0x0 MSTORE PUSH1 0x41 PUSH1 0x4 MSTORE PUSH1 0x24 PUSH1 0x0 REVERT JUMPDEST PUSH1 0x0 DUP1 REVERT JUMPDEST PUSH1 0x0 DUP1 REVERT JUMPDEST PUSH1 0x0 DUP1 REVERT JUMPDEST PUSH1 0x0 DUP1 REVERT JUMPDEST PUSH1 0x0 PUSH1 0x1F NOT PUSH1 0x1F DUP4 ADD AND SWAP1 POP SWAP2 SWAP1 POP JUMP JUMPDEST PUSH2 0x5D4 DUP2 PUSH2 0x499 JUMP JUMPDEST DUP2 EQ PUSH2 0x5DF JUMPI PUSH1 0x0 DUP1 REVERT JUMPDEST POP JUMP INVALID LOG2 PUSH5 0x6970667358 0x22 SLT KECCAK256 SLOAD JUMPDEST 0xD0 0xAC 0xC 0xCB PUSH18 0xBF710281E228FB3DBE58B810FF90F0C2EA68 ORIGIN 0x5E PUSH16 0x8EFC738464736F6C6343000807003300 "
				},
				"gasEstimates": {
					"creation": {
						"codeDepositCost": "312000",
						"executionCost": "349",
						"totalCost": "312349"
					},
					"external": {
						"createNewTicket(string,string)": "infinite",
						"tickets(uint256)": "infinite"
					},
					"internal": {
						"_createTicket(uint256,string memory,string memory)": "infinite",
						"generateRefNo(string memory)": "infinite"
					}
				},
				"methodIdentifiers": {
					"createNewTicket(string,string)": "e0a08f27",
					"tickets(uint256)": "50b44712"
				}
			},
			"storageLayout": {
				"storage": [
					{
						"astId": 12,
						"contract": "contracts/CreateTicket.sol:NewTicket",
						"label": "tickets",
						"offset": 0,
						"slot": "0",
						"type": "t_array(t_struct(Ticket)8_storage)dyn_storage"
					}
				],
				"types": {
					"t_array(t_struct(Ticket)8_storage)dyn_storage": {
						"base": "t_struct(Ticket)8_storage",
						"encoding": "dynamic_array",
						"label": "struct NewTicket.Ticket[]",
						"numberOfBytes": "32"
					},
					"t_string_storage": {
						"encoding": "bytes",
						"label": "string",
						"numberOfBytes": "32"
					},
					"t_struct(Ticket)8_storage": {
						"encoding": "inplace",
						"label": "struct NewTicket.Ticket",
						"members": [
							{
								"astId": 3,
								"contract": "contracts/CreateTicket.sol:NewTicket",
								"label": "refNo",
								"offset": 0,
								"slot": "0",
								"type": "t_uint256"
							},
							{
								"astId": 5,
								"contract": "contracts/CreateTicket.sol:NewTicket",
								"label": "authority",
								"offset": 0,
								"slot": "1",
								"type": "t_string_storage"
							},
							{
								"astId": 7,
								"contract": "contracts/CreateTicket.sol:NewTicket",
								"label": "link",
								"offset": 0,
								"slot": "2",
								"type": "t_string_storage"
							}
						],
						"numberOfBytes": "96"
					},
					"t_uint256": {
						"encoding": "inplace",
						"label": "uint256",
						"numberOfBytes": "32"
					}
				}
			},
			"userdoc": {
				"kind": "user",
				"methods": {},
				"version": 1
			}
		}
	}
}