{
	"contracts/CreateTicket.sol": {
		"NewTicket": {
			"abi": [
				{
					"anonymous": false,
					"inputs": [
						{
							"indexed": false,
							"internalType": "uint256",
							"name": "ticketId",
							"type": "uint256"
						},
						{
							"indexed": false,
							"internalType": "uint256",
							"name": "refNo",
							"type": "uint256"
						},
						{
							"indexed": false,
							"internalType": "address",
							"name": "authority",
							"type": "address"
						},
						{
							"indexed": false,
							"internalType": "string",
							"name": "link",
							"type": "string"
						}
					],
					"name": "ticketCreated",
					"type": "event"
				},
				{
					"inputs": [
						{
							"internalType": "address",
							"name": "_authority",
							"type": "address"
						},
						{
							"internalType": "string",
							"name": "_link",
							"type": "string"
						}
					],
					"name": "createNewTicket",
					"outputs": [],
					"stateMutability": "nonpayable",
					"type": "function"
				},
				{
					"inputs": [
						{
							"internalType": "uint256",
							"name": "",
							"type": "uint256"
						}
					],
					"name": "ticketStatus",
					"outputs": [
						{
							"internalType": "bool",
							"name": "",
							"type": "bool"
						}
					],
					"stateMutability": "view",
					"type": "function"
				},
				{
					"inputs": [
						{
							"internalType": "uint256",
							"name": "",
							"type": "uint256"
						}
					],
					"name": "ticketToOwner",
					"outputs": [
						{
							"internalType": "address",
							"name": "",
							"type": "address"
						}
					],
					"stateMutability": "view",
					"type": "function"
				},
				{
					"inputs": [
						{
							"internalType": "uint256",
							"name": "",
							"type": "uint256"
						}
					],
					"name": "tickets",
					"outputs": [
						{
							"internalType": "uint256",
							"name": "refNo",
							"type": "uint256"
						},
						{
							"internalType": "address",
							"name": "authority",
							"type": "address"
						},
						{
							"internalType": "string",
							"name": "link",
							"type": "string"
						}
					],
					"stateMutability": "view",
					"type": "function"
				}
			],
			"devdoc": {
				"kind": "dev",
				"methods": {},
				"version": 1
			},
			"evm": {
				"assembly": "    /* \"contracts/CreateTicket.sol\":70:1084  contract NewTicket {\r... */\n  mstore(0x40, 0x80)\n  callvalue\n  dup1\n  iszero\n  tag_1\n  jumpi\n  0x00\n  dup1\n  revert\ntag_1:\n  pop\n  dataSize(sub_0)\n  dup1\n  dataOffset(sub_0)\n  0x00\n  codecopy\n  0x00\n  return\nstop\n\nsub_0: assembly {\n        /* \"contracts/CreateTicket.sol\":70:1084  contract NewTicket {\r... */\n      mstore(0x40, 0x80)\n      callvalue\n      dup1\n      iszero\n      tag_1\n      jumpi\n      0x00\n      dup1\n      revert\n    tag_1:\n      pop\n      jumpi(tag_2, lt(calldatasize, 0x04))\n      shr(0xe0, calldataload(0x00))\n      dup1\n      0x2b08e824\n      eq\n      tag_3\n      jumpi\n      dup1\n      0x3c518dd3\n      eq\n      tag_4\n      jumpi\n      dup1\n      0x50b44712\n      eq\n      tag_5\n      jumpi\n      dup1\n      0x8ce7e461\n      eq\n      tag_6\n      jumpi\n    tag_2:\n      0x00\n      dup1\n      revert\n        /* \"contracts/CreateTicket.sol\":318:363  mapping(uint => address) public ticketToOwner */\n    tag_3:\n      tag_7\n      0x04\n      dup1\n      calldatasize\n      sub\n      dup2\n      add\n      swap1\n      tag_8\n      swap2\n      swap1\n      tag_9\n      jump\t// in\n    tag_8:\n      tag_10\n      jump\t// in\n    tag_7:\n      mload(0x40)\n      tag_11\n      swap2\n      swap1\n      tag_12\n      jump\t// in\n    tag_11:\n      mload(0x40)\n      dup1\n      swap2\n      sub\n      swap1\n      return\n        /* \"contracts/CreateTicket.sol\":906:1081  function createNewTicket(address _authority, string memory _link) public {\r... */\n    tag_4:\n      tag_13\n      0x04\n      dup1\n      calldatasize\n      sub\n      dup2\n      add\n      swap1\n      tag_14\n      swap2\n      swap1\n      tag_15\n      jump\t// in\n    tag_14:\n      tag_16\n      jump\t// in\n    tag_13:\n      stop\n        /* \"contracts/CreateTicket.sol\":286:309  Ticket[] public tickets */\n    tag_5:\n      tag_17\n      0x04\n      dup1\n      calldatasize\n      sub\n      dup2\n      add\n      swap1\n      tag_18\n      swap2\n      swap1\n      tag_9\n      jump\t// in\n    tag_18:\n      tag_19\n      jump\t// in\n    tag_17:\n      mload(0x40)\n      tag_20\n      swap4\n      swap3\n      swap2\n      swap1\n      tag_21\n      jump\t// in\n    tag_20:\n      mload(0x40)\n      dup1\n      swap2\n      sub\n      swap1\n      return\n        /* \"contracts/CreateTicket.sol\":370:411  mapping(uint => bool) public ticketStatus */\n    tag_6:\n      tag_22\n      0x04\n      dup1\n      calldatasize\n      sub\n      dup2\n      add\n      swap1\n      tag_23\n      swap2\n      swap1\n      tag_9\n      jump\t// in\n    tag_23:\n      tag_24\n      jump\t// in\n    tag_22:\n      mload(0x40)\n      tag_25\n      swap2\n      swap1\n      tag_26\n      jump\t// in\n    tag_25:\n      mload(0x40)\n      dup1\n      swap2\n      sub\n      swap1\n      return\n        /* \"contracts/CreateTicket.sol\":318:363  mapping(uint => address) public ticketToOwner */\n    tag_10:\n      mstore(0x20, 0x01)\n      dup1\n      0x00\n      mstore\n      keccak256(0x00, 0x40)\n      0x00\n      swap2\n      pop\n      sload\n      swap1\n      0x0100\n      exp\n      swap1\n      div\n      0xffffffffffffffffffffffffffffffffffffffff\n      and\n      dup2\n      jump\t// out\n        /* \"contracts/CreateTicket.sol\":906:1081  function createNewTicket(address _authority, string memory _link) public {\r... */\n    tag_16:\n        /* \"contracts/CreateTicket.sol\":990:1000  uint RefNo */\n      0x00\n        /* \"contracts/CreateTicket.sol\":1003:1023  generateRefNo(_link) */\n      tag_28\n        /* \"contracts/CreateTicket.sol\":1017:1022  _link */\n      dup3\n        /* \"contracts/CreateTicket.sol\":1003:1016  generateRefNo */\n      tag_29\n        /* \"contracts/CreateTicket.sol\":1003:1023  generateRefNo(_link) */\n      jump\t// in\n    tag_28:\n        /* \"contracts/CreateTicket.sol\":990:1023  uint RefNo = generateRefNo(_link) */\n      swap1\n      pop\n        /* \"contracts/CreateTicket.sol\":1034:1073  _createTicket(RefNo, _authority, _link) */\n      tag_30\n        /* \"contracts/CreateTicket.sol\":1048:1053  RefNo */\n      dup2\n        /* \"contracts/CreateTicket.sol\":1055:1065  _authority */\n      dup5\n        /* \"contracts/CreateTicket.sol\":1067:1072  _link */\n      dup5\n        /* \"contracts/CreateTicket.sol\":1034:1047  _createTicket */\n      tag_31\n        /* \"contracts/CreateTicket.sol\":1034:1073  _createTicket(RefNo, _authority, _link) */\n      jump\t// in\n    tag_30:\n        /* \"contracts/CreateTicket.sol\":979:1081  {\r... */\n      pop\n        /* \"contracts/CreateTicket.sol\":906:1081  function createNewTicket(address _authority, string memory _link) public {\r... */\n      pop\n      pop\n      jump\t// out\n        /* \"contracts/CreateTicket.sol\":286:309  Ticket[] public tickets */\n    tag_19:\n      0x00\n      dup2\n      dup2\n      sload\n      dup2\n      lt\n      tag_32\n      jumpi\n      0x00\n      dup1\n      revert\n    tag_32:\n      swap1\n      0x00\n      mstore\n      keccak256(0x00, 0x20)\n      swap1\n      0x03\n      mul\n      add\n      0x00\n      swap2\n      pop\n      swap1\n      pop\n      dup1\n      0x00\n      add\n      sload\n      swap1\n      dup1\n      0x01\n      add\n      0x00\n      swap1\n      sload\n      swap1\n      0x0100\n      exp\n      swap1\n      div\n      0xffffffffffffffffffffffffffffffffffffffff\n      and\n      swap1\n      dup1\n      0x02\n      add\n      dup1\n      sload\n      tag_34\n      swap1\n      tag_35\n      jump\t// in\n    tag_34:\n      dup1\n      0x1f\n      add\n      0x20\n      dup1\n      swap2\n      div\n      mul\n      0x20\n      add\n      mload(0x40)\n      swap1\n      dup2\n      add\n      0x40\n      mstore\n      dup1\n      swap3\n      swap2\n      swap1\n      dup2\n      dup2\n      mstore\n      0x20\n      add\n      dup3\n      dup1\n      sload\n      tag_36\n      swap1\n      tag_35\n      jump\t// in\n    tag_36:\n      dup1\n      iszero\n      tag_37\n      jumpi\n      dup1\n      0x1f\n      lt\n      tag_38\n      jumpi\n      0x0100\n      dup1\n      dup4\n      sload\n      div\n      mul\n      dup4\n      mstore\n      swap2\n      0x20\n      add\n      swap2\n      jump(tag_37)\n    tag_38:\n      dup3\n      add\n      swap2\n      swap1\n      0x00\n      mstore\n      keccak256(0x00, 0x20)\n      swap1\n    tag_39:\n      dup2\n      sload\n      dup2\n      mstore\n      swap1\n      0x01\n      add\n      swap1\n      0x20\n      add\n      dup1\n      dup4\n      gt\n      tag_39\n      jumpi\n      dup3\n      swap1\n      sub\n      0x1f\n      and\n      dup3\n      add\n      swap2\n    tag_37:\n      pop\n      pop\n      pop\n      pop\n      pop\n      swap1\n      pop\n      dup4\n      jump\t// out\n        /* \"contracts/CreateTicket.sol\":370:411  mapping(uint => bool) public ticketStatus */\n    tag_24:\n      mstore(0x20, 0x02)\n      dup1\n      0x00\n      mstore\n      keccak256(0x00, 0x40)\n      0x00\n      swap2\n      pop\n      sload\n      swap1\n      0x0100\n      exp\n      swap1\n      div\n      0xff\n      and\n      dup2\n      jump\t// out\n        /* \"contracts/CreateTicket.sol\":727:898  function generateRefNo(string memory _str) private view returns (uint) {\r... */\n    tag_29:\n        /* \"contracts/CreateTicket.sol\":792:796  uint */\n      0x00\n        /* \"contracts/CreateTicket.sol\":809:822  uint NewRefNo */\n      dup1\n        /* \"contracts/CreateTicket.sol\":857:861  _str */\n      dup3\n        /* \"contracts/CreateTicket.sol\":840:862  abi.encodePacked(_str) */\n      add(0x20, mload(0x40))\n      tag_41\n      swap2\n      swap1\n      tag_42\n      jump\t// in\n    tag_41:\n      mload(0x40)\n      0x20\n      dup2\n      dup4\n      sub\n      sub\n      dup2\n      mstore\n      swap1\n      0x40\n      mstore\n        /* \"contracts/CreateTicket.sol\":830:863  keccak256(abi.encodePacked(_str)) */\n      dup1\n      mload\n      swap1\n      0x20\n      add\n      keccak256\n        /* \"contracts/CreateTicket.sol\":825:864  uint(keccak256(abi.encodePacked(_str))) */\n      0x00\n      shr\n        /* \"contracts/CreateTicket.sol\":809:864  uint NewRefNo = uint(keccak256(abi.encodePacked(_str))) */\n      swap1\n      pop\n        /* \"contracts/CreateTicket.sol\":882:890  NewRefNo */\n      dup1\n        /* \"contracts/CreateTicket.sol\":875:890  return NewRefNo */\n      swap2\n      pop\n      pop\n        /* \"contracts/CreateTicket.sol\":727:898  function generateRefNo(string memory _str) private view returns (uint) {\r... */\n      swap2\n      swap1\n      pop\n      jump\t// out\n        /* \"contracts/CreateTicket.sol\":462:719  function _createTicket(uint _refNo, address _authority, string memory _link) private { \r... */\n    tag_31:\n        /* \"contracts/CreateTicket.sol\":559:566  tickets */\n      0x00\n        /* \"contracts/CreateTicket.sol\":572:605  Ticket(_refNo, _authority, _link) */\n      mload(0x40)\n      dup1\n      0x60\n      add\n      0x40\n      mstore\n      dup1\n        /* \"contracts/CreateTicket.sol\":579:585  _refNo */\n      dup6\n        /* \"contracts/CreateTicket.sol\":572:605  Ticket(_refNo, _authority, _link) */\n      dup2\n      mstore\n      0x20\n      add\n        /* \"contracts/CreateTicket.sol\":587:597  _authority */\n      dup5\n        /* \"contracts/CreateTicket.sol\":572:605  Ticket(_refNo, _authority, _link) */\n      0xffffffffffffffffffffffffffffffffffffffff\n      and\n      dup2\n      mstore\n      0x20\n      add\n        /* \"contracts/CreateTicket.sol\":599:604  _link */\n      dup4\n        /* \"contracts/CreateTicket.sol\":572:605  Ticket(_refNo, _authority, _link) */\n      dup2\n      mstore\n      pop\n        /* \"contracts/CreateTicket.sol\":559:606  tickets.push(Ticket(_refNo, _authority, _link)) */\n      swap1\n      dup1\n      0x01\n      dup2\n      sload\n      add\n      dup1\n      dup3\n      sstore\n      dup1\n      swap2\n      pop\n      pop\n      0x01\n      swap1\n      sub\n      swap1\n      0x00\n      mstore\n      keccak256(0x00, 0x20)\n      swap1\n      0x03\n      mul\n      add\n      0x00\n      swap1\n      swap2\n      swap1\n      swap2\n      swap1\n      swap2\n      pop\n      0x00\n      dup3\n      add\n      mload\n      dup2\n      0x00\n      add\n      sstore\n      0x20\n      dup3\n      add\n      mload\n      dup2\n      0x01\n      add\n      exp(0x0100, 0x00)\n      dup2\n      sload\n      dup2\n      0xffffffffffffffffffffffffffffffffffffffff\n      mul\n      not\n      and\n      swap1\n      dup4\n      0xffffffffffffffffffffffffffffffffffffffff\n      and\n      mul\n      or\n      swap1\n      sstore\n      pop\n      0x40\n      dup3\n      add\n      mload\n      dup2\n      0x02\n      add\n      swap1\n      dup1\n      mload\n      swap1\n      0x20\n      add\n      swap1\n      tag_45\n      swap3\n      swap2\n      swap1\n      tag_46\n      jump\t// in\n    tag_45:\n      pop\n      pop\n      pop\n        /* \"contracts/CreateTicket.sol\":617:624  uint Id */\n      0x00\n        /* \"contracts/CreateTicket.sol\":627:634  tickets */\n      dup1\n        /* \"contracts/CreateTicket.sol\":627:641  tickets.length */\n      dup1\n      sload\n      swap1\n      pop\n        /* \"contracts/CreateTicket.sol\":617:641  uint Id = tickets.length */\n      swap1\n      pop\n        /* \"contracts/CreateTicket.sol\":667:711  ticketCreated(Id, _refNo, _authority, _link) */\n      0x5c6cbfb13057ca1c92859b5ecb3c56b42131a7a5ac1a570d12f8cf875fcff98b\n        /* \"contracts/CreateTicket.sol\":681:683  Id */\n      dup2\n        /* \"contracts/CreateTicket.sol\":685:691  _refNo */\n      dup6\n        /* \"contracts/CreateTicket.sol\":693:703  _authority */\n      dup6\n        /* \"contracts/CreateTicket.sol\":705:710  _link */\n      dup6\n        /* \"contracts/CreateTicket.sol\":667:711  ticketCreated(Id, _refNo, _authority, _link) */\n      mload(0x40)\n      tag_47\n      swap5\n      swap4\n      swap3\n      swap2\n      swap1\n      tag_48\n      jump\t// in\n    tag_47:\n      mload(0x40)\n      dup1\n      swap2\n      sub\n      swap1\n      log1\n        /* \"contracts/CreateTicket.sol\":547:719  { \r... */\n      pop\n        /* \"contracts/CreateTicket.sol\":462:719  function _createTicket(uint _refNo, address _authority, string memory _link) private { \r... */\n      pop\n      pop\n      pop\n      jump\t// out\n    tag_46:\n      dup3\n      dup1\n      sload\n      tag_49\n      swap1\n      tag_35\n      jump\t// in\n    tag_49:\n      swap1\n      0x00\n      mstore\n      keccak256(0x00, 0x20)\n      swap1\n      0x1f\n      add\n      0x20\n      swap1\n      div\n      dup2\n      add\n      swap3\n      dup3\n      tag_51\n      jumpi\n      0x00\n      dup6\n      sstore\n      jump(tag_50)\n    tag_51:\n      dup3\n      0x1f\n      lt\n      tag_52\n      jumpi\n      dup1\n      mload\n      not(0xff)\n      and\n      dup4\n      dup1\n      add\n      or\n      dup6\n      sstore\n      jump(tag_50)\n    tag_52:\n      dup3\n      dup1\n      add\n      0x01\n      add\n      dup6\n      sstore\n      dup3\n      iszero\n      tag_50\n      jumpi\n      swap2\n      dup3\n      add\n    tag_53:\n      dup3\n      dup2\n      gt\n      iszero\n      tag_54\n      jumpi\n      dup3\n      mload\n      dup3\n      sstore\n      swap2\n      0x20\n      add\n      swap2\n      swap1\n      0x01\n      add\n      swap1\n      jump(tag_53)\n    tag_54:\n    tag_50:\n      pop\n      swap1\n      pop\n      tag_55\n      swap2\n      swap1\n      tag_56\n      jump\t// in\n    tag_55:\n      pop\n      swap1\n      jump\t// out\n    tag_56:\n    tag_57:\n      dup1\n      dup3\n      gt\n      iszero\n      tag_58\n      jumpi\n      0x00\n      dup2\n      0x00\n      swap1\n      sstore\n      pop\n      0x01\n      add\n      jump(tag_57)\n    tag_58:\n      pop\n      swap1\n      jump\t// out\n        /* \"#utility.yul\":7:419   */\n    tag_60:\n        /* \"#utility.yul\":85:90   */\n      0x00\n        /* \"#utility.yul\":110:176   */\n      tag_62\n        /* \"#utility.yul\":126:175   */\n      tag_63\n        /* \"#utility.yul\":168:174   */\n      dup5\n        /* \"#utility.yul\":126:175   */\n      tag_64\n      jump\t// in\n    tag_63:\n        /* \"#utility.yul\":110:176   */\n      tag_65\n      jump\t// in\n    tag_62:\n        /* \"#utility.yul\":101:176   */\n      swap1\n      pop\n        /* \"#utility.yul\":199:205   */\n      dup3\n        /* \"#utility.yul\":192:197   */\n      dup2\n        /* \"#utility.yul\":185:206   */\n      mstore\n        /* \"#utility.yul\":237:241   */\n      0x20\n        /* \"#utility.yul\":230:235   */\n      dup2\n        /* \"#utility.yul\":226:242   */\n      add\n        /* \"#utility.yul\":275:278   */\n      dup5\n        /* \"#utility.yul\":266:272   */\n      dup5\n        /* \"#utility.yul\":261:264   */\n      dup5\n        /* \"#utility.yul\":257:273   */\n      add\n        /* \"#utility.yul\":254:279   */\n      gt\n        /* \"#utility.yul\":251:363   */\n      iszero\n      tag_66\n      jumpi\n        /* \"#utility.yul\":282:361   */\n      tag_67\n      tag_68\n      jump\t// in\n    tag_67:\n        /* \"#utility.yul\":251:363   */\n    tag_66:\n        /* \"#utility.yul\":372:413   */\n      tag_69\n        /* \"#utility.yul\":406:412   */\n      dup5\n        /* \"#utility.yul\":401:404   */\n      dup3\n        /* \"#utility.yul\":396:399   */\n      dup6\n        /* \"#utility.yul\":372:413   */\n      tag_70\n      jump\t// in\n    tag_69:\n        /* \"#utility.yul\":91:419   */\n      pop\n        /* \"#utility.yul\":7:419   */\n      swap4\n      swap3\n      pop\n      pop\n      pop\n      jump\t// out\n        /* \"#utility.yul\":425:564   */\n    tag_71:\n        /* \"#utility.yul\":471:476   */\n      0x00\n        /* \"#utility.yul\":509:515   */\n      dup2\n        /* \"#utility.yul\":496:516   */\n      calldataload\n        /* \"#utility.yul\":487:516   */\n      swap1\n      pop\n        /* \"#utility.yul\":525:558   */\n      tag_73\n        /* \"#utility.yul\":552:557   */\n      dup2\n        /* \"#utility.yul\":525:558   */\n      tag_74\n      jump\t// in\n    tag_73:\n        /* \"#utility.yul\":425:564   */\n      swap3\n      swap2\n      pop\n      pop\n      jump\t// out\n        /* \"#utility.yul\":584:924   */\n    tag_75:\n        /* \"#utility.yul\":640:645   */\n      0x00\n        /* \"#utility.yul\":689:692   */\n      dup3\n        /* \"#utility.yul\":682:686   */\n      0x1f\n        /* \"#utility.yul\":674:680   */\n      dup4\n        /* \"#utility.yul\":670:687   */\n      add\n        /* \"#utility.yul\":666:693   */\n      slt\n        /* \"#utility.yul\":656:778   */\n      tag_77\n      jumpi\n        /* \"#utility.yul\":697:776   */\n      tag_78\n      tag_79\n      jump\t// in\n    tag_78:\n        /* \"#utility.yul\":656:778   */\n    tag_77:\n        /* \"#utility.yul\":814:820   */\n      dup2\n        /* \"#utility.yul\":801:821   */\n      calldataload\n        /* \"#utility.yul\":839:918   */\n      tag_80\n        /* \"#utility.yul\":914:917   */\n      dup5\n        /* \"#utility.yul\":906:912   */\n      dup3\n        /* \"#utility.yul\":899:903   */\n      0x20\n        /* \"#utility.yul\":891:897   */\n      dup7\n        /* \"#utility.yul\":887:904   */\n      add\n        /* \"#utility.yul\":839:918   */\n      tag_60\n      jump\t// in\n    tag_80:\n        /* \"#utility.yul\":830:918   */\n      swap2\n      pop\n        /* \"#utility.yul\":646:924   */\n      pop\n        /* \"#utility.yul\":584:924   */\n      swap3\n      swap2\n      pop\n      pop\n      jump\t// out\n        /* \"#utility.yul\":930:1069   */\n    tag_81:\n        /* \"#utility.yul\":976:981   */\n      0x00\n        /* \"#utility.yul\":1014:1020   */\n      dup2\n        /* \"#utility.yul\":1001:1021   */\n      calldataload\n        /* \"#utility.yul\":992:1021   */\n      swap1\n      pop\n        /* \"#utility.yul\":1030:1063   */\n      tag_83\n        /* \"#utility.yul\":1057:1062   */\n      dup2\n        /* \"#utility.yul\":1030:1063   */\n      tag_84\n      jump\t// in\n    tag_83:\n        /* \"#utility.yul\":930:1069   */\n      swap3\n      swap2\n      pop\n      pop\n      jump\t// out\n        /* \"#utility.yul\":1075:1729   */\n    tag_15:\n        /* \"#utility.yul\":1153:1159   */\n      0x00\n        /* \"#utility.yul\":1161:1167   */\n      dup1\n        /* \"#utility.yul\":1210:1212   */\n      0x40\n        /* \"#utility.yul\":1198:1207   */\n      dup4\n        /* \"#utility.yul\":1189:1196   */\n      dup6\n        /* \"#utility.yul\":1185:1208   */\n      sub\n        /* \"#utility.yul\":1181:1213   */\n      slt\n        /* \"#utility.yul\":1178:1297   */\n      iszero\n      tag_86\n      jumpi\n        /* \"#utility.yul\":1216:1295   */\n      tag_87\n      tag_88\n      jump\t// in\n    tag_87:\n        /* \"#utility.yul\":1178:1297   */\n    tag_86:\n        /* \"#utility.yul\":1336:1337   */\n      0x00\n        /* \"#utility.yul\":1361:1414   */\n      tag_89\n        /* \"#utility.yul\":1406:1413   */\n      dup6\n        /* \"#utility.yul\":1397:1403   */\n      dup3\n        /* \"#utility.yul\":1386:1395   */\n      dup7\n        /* \"#utility.yul\":1382:1404   */\n      add\n        /* \"#utility.yul\":1361:1414   */\n      tag_71\n      jump\t// in\n    tag_89:\n        /* \"#utility.yul\":1351:1414   */\n      swap3\n      pop\n        /* \"#utility.yul\":1307:1424   */\n      pop\n        /* \"#utility.yul\":1491:1493   */\n      0x20\n        /* \"#utility.yul\":1480:1489   */\n      dup4\n        /* \"#utility.yul\":1476:1494   */\n      add\n        /* \"#utility.yul\":1463:1495   */\n      calldataload\n        /* \"#utility.yul\":1522:1540   */\n      0xffffffffffffffff\n        /* \"#utility.yul\":1514:1520   */\n      dup2\n        /* \"#utility.yul\":1511:1541   */\n      gt\n        /* \"#utility.yul\":1508:1625   */\n      iszero\n      tag_90\n      jumpi\n        /* \"#utility.yul\":1544:1623   */\n      tag_91\n      tag_92\n      jump\t// in\n    tag_91:\n        /* \"#utility.yul\":1508:1625   */\n    tag_90:\n        /* \"#utility.yul\":1649:1712   */\n      tag_93\n        /* \"#utility.yul\":1704:1711   */\n      dup6\n        /* \"#utility.yul\":1695:1701   */\n      dup3\n        /* \"#utility.yul\":1684:1693   */\n      dup7\n        /* \"#utility.yul\":1680:1702   */\n      add\n        /* \"#utility.yul\":1649:1712   */\n      tag_75\n      jump\t// in\n    tag_93:\n        /* \"#utility.yul\":1639:1712   */\n      swap2\n      pop\n        /* \"#utility.yul\":1434:1722   */\n      pop\n        /* \"#utility.yul\":1075:1729   */\n      swap3\n      pop\n      swap3\n      swap1\n      pop\n      jump\t// out\n        /* \"#utility.yul\":1735:2064   */\n    tag_9:\n        /* \"#utility.yul\":1794:1800   */\n      0x00\n        /* \"#utility.yul\":1843:1845   */\n      0x20\n        /* \"#utility.yul\":1831:1840   */\n      dup3\n        /* \"#utility.yul\":1822:1829   */\n      dup5\n        /* \"#utility.yul\":1818:1841   */\n      sub\n        /* \"#utility.yul\":1814:1846   */\n      slt\n        /* \"#utility.yul\":1811:1930   */\n      iszero\n      tag_95\n      jumpi\n        /* \"#utility.yul\":1849:1928   */\n      tag_96\n      tag_88\n      jump\t// in\n    tag_96:\n        /* \"#utility.yul\":1811:1930   */\n    tag_95:\n        /* \"#utility.yul\":1969:1970   */\n      0x00\n        /* \"#utility.yul\":1994:2047   */\n      tag_97\n        /* \"#utility.yul\":2039:2046   */\n      dup5\n        /* \"#utility.yul\":2030:2036   */\n      dup3\n        /* \"#utility.yul\":2019:2028   */\n      dup6\n        /* \"#utility.yul\":2015:2037   */\n      add\n        /* \"#utility.yul\":1994:2047   */\n      tag_81\n      jump\t// in\n    tag_97:\n        /* \"#utility.yul\":1984:2047   */\n      swap2\n      pop\n        /* \"#utility.yul\":1940:2057   */\n      pop\n        /* \"#utility.yul\":1735:2064   */\n      swap3\n      swap2\n      pop\n      pop\n      jump\t// out\n        /* \"#utility.yul\":2070:2188   */\n    tag_98:\n        /* \"#utility.yul\":2157:2181   */\n      tag_100\n        /* \"#utility.yul\":2175:2180   */\n      dup2\n        /* \"#utility.yul\":2157:2181   */\n      tag_101\n      jump\t// in\n    tag_100:\n        /* \"#utility.yul\":2152:2155   */\n      dup3\n        /* \"#utility.yul\":2145:2182   */\n      mstore\n        /* \"#utility.yul\":2070:2188   */\n      pop\n      pop\n      jump\t// out\n        /* \"#utility.yul\":2194:2303   */\n    tag_102:\n        /* \"#utility.yul\":2275:2296   */\n      tag_104\n        /* \"#utility.yul\":2290:2295   */\n      dup2\n        /* \"#utility.yul\":2275:2296   */\n      tag_105\n      jump\t// in\n    tag_104:\n        /* \"#utility.yul\":2270:2273   */\n      dup3\n        /* \"#utility.yul\":2263:2297   */\n      mstore\n        /* \"#utility.yul\":2194:2303   */\n      pop\n      pop\n      jump\t// out\n        /* \"#utility.yul\":2309:2673   */\n    tag_106:\n        /* \"#utility.yul\":2397:2400   */\n      0x00\n        /* \"#utility.yul\":2425:2464   */\n      tag_108\n        /* \"#utility.yul\":2458:2463   */\n      dup3\n        /* \"#utility.yul\":2425:2464   */\n      tag_109\n      jump\t// in\n    tag_108:\n        /* \"#utility.yul\":2480:2551   */\n      tag_110\n        /* \"#utility.yul\":2544:2550   */\n      dup2\n        /* \"#utility.yul\":2539:2542   */\n      dup6\n        /* \"#utility.yul\":2480:2551   */\n      tag_111\n      jump\t// in\n    tag_110:\n        /* \"#utility.yul\":2473:2551   */\n      swap4\n      pop\n        /* \"#utility.yul\":2560:2612   */\n      tag_112\n        /* \"#utility.yul\":2605:2611   */\n      dup2\n        /* \"#utility.yul\":2600:2603   */\n      dup6\n        /* \"#utility.yul\":2593:2597   */\n      0x20\n        /* \"#utility.yul\":2586:2591   */\n      dup7\n        /* \"#utility.yul\":2582:2598   */\n      add\n        /* \"#utility.yul\":2560:2612   */\n      tag_113\n      jump\t// in\n    tag_112:\n        /* \"#utility.yul\":2637:2666   */\n      tag_114\n        /* \"#utility.yul\":2659:2665   */\n      dup2\n        /* \"#utility.yul\":2637:2666   */\n      tag_115\n      jump\t// in\n    tag_114:\n        /* \"#utility.yul\":2632:2635   */\n      dup5\n        /* \"#utility.yul\":2628:2667   */\n      add\n        /* \"#utility.yul\":2621:2667   */\n      swap2\n      pop\n        /* \"#utility.yul\":2401:2673   */\n      pop\n        /* \"#utility.yul\":2309:2673   */\n      swap3\n      swap2\n      pop\n      pop\n      jump\t// out\n        /* \"#utility.yul\":2679:3056   */\n    tag_116:\n        /* \"#utility.yul\":2785:2788   */\n      0x00\n        /* \"#utility.yul\":2813:2852   */\n      tag_118\n        /* \"#utility.yul\":2846:2851   */\n      dup3\n        /* \"#utility.yul\":2813:2852   */\n      tag_109\n      jump\t// in\n    tag_118:\n        /* \"#utility.yul\":2868:2957   */\n      tag_119\n        /* \"#utility.yul\":2950:2956   */\n      dup2\n        /* \"#utility.yul\":2945:2948   */\n      dup6\n        /* \"#utility.yul\":2868:2957   */\n      tag_120\n      jump\t// in\n    tag_119:\n        /* \"#utility.yul\":2861:2957   */\n      swap4\n      pop\n        /* \"#utility.yul\":2966:3018   */\n      tag_121\n        /* \"#utility.yul\":3011:3017   */\n      dup2\n        /* \"#utility.yul\":3006:3009   */\n      dup6\n        /* \"#utility.yul\":2999:3003   */\n      0x20\n        /* \"#utility.yul\":2992:2997   */\n      dup7\n        /* \"#utility.yul\":2988:3004   */\n      add\n        /* \"#utility.yul\":2966:3018   */\n      tag_113\n      jump\t// in\n    tag_121:\n        /* \"#utility.yul\":3043:3049   */\n      dup1\n        /* \"#utility.yul\":3038:3041   */\n      dup5\n        /* \"#utility.yul\":3034:3050   */\n      add\n        /* \"#utility.yul\":3027:3050   */\n      swap2\n      pop\n        /* \"#utility.yul\":2789:3056   */\n      pop\n        /* \"#utility.yul\":2679:3056   */\n      swap3\n      swap2\n      pop\n      pop\n      jump\t// out\n        /* \"#utility.yul\":3062:3180   */\n    tag_122:\n        /* \"#utility.yul\":3149:3173   */\n      tag_124\n        /* \"#utility.yul\":3167:3172   */\n      dup2\n        /* \"#utility.yul\":3149:3173   */\n      tag_125\n      jump\t// in\n    tag_124:\n        /* \"#utility.yul\":3144:3147   */\n      dup3\n        /* \"#utility.yul\":3137:3174   */\n      mstore\n        /* \"#utility.yul\":3062:3180   */\n      pop\n      pop\n      jump\t// out\n        /* \"#utility.yul\":3186:3461   */\n    tag_42:\n        /* \"#utility.yul\":3318:3321   */\n      0x00\n        /* \"#utility.yul\":3340:3435   */\n      tag_127\n        /* \"#utility.yul\":3431:3434   */\n      dup3\n        /* \"#utility.yul\":3422:3428   */\n      dup5\n        /* \"#utility.yul\":3340:3435   */\n      tag_116\n      jump\t// in\n    tag_127:\n        /* \"#utility.yul\":3333:3435   */\n      swap2\n      pop\n        /* \"#utility.yul\":3452:3455   */\n      dup2\n        /* \"#utility.yul\":3445:3455   */\n      swap1\n      pop\n        /* \"#utility.yul\":3186:3461   */\n      swap3\n      swap2\n      pop\n      pop\n      jump\t// out\n        /* \"#utility.yul\":3467:3689   */\n    tag_12:\n        /* \"#utility.yul\":3560:3564   */\n      0x00\n        /* \"#utility.yul\":3598:3600   */\n      0x20\n        /* \"#utility.yul\":3587:3596   */\n      dup3\n        /* \"#utility.yul\":3583:3601   */\n      add\n        /* \"#utility.yul\":3575:3601   */\n      swap1\n      pop\n        /* \"#utility.yul\":3611:3682   */\n      tag_129\n        /* \"#utility.yul\":3679:3680   */\n      0x00\n        /* \"#utility.yul\":3668:3677   */\n      dup4\n        /* \"#utility.yul\":3664:3681   */\n      add\n        /* \"#utility.yul\":3655:3661   */\n      dup5\n        /* \"#utility.yul\":3611:3682   */\n      tag_98\n      jump\t// in\n    tag_129:\n        /* \"#utility.yul\":3467:3689   */\n      swap3\n      swap2\n      pop\n      pop\n      jump\t// out\n        /* \"#utility.yul\":3695:3905   */\n    tag_26:\n        /* \"#utility.yul\":3782:3786   */\n      0x00\n        /* \"#utility.yul\":3820:3822   */\n      0x20\n        /* \"#utility.yul\":3809:3818   */\n      dup3\n        /* \"#utility.yul\":3805:3823   */\n      add\n        /* \"#utility.yul\":3797:3823   */\n      swap1\n      pop\n        /* \"#utility.yul\":3833:3898   */\n      tag_131\n        /* \"#utility.yul\":3895:3896   */\n      0x00\n        /* \"#utility.yul\":3884:3893   */\n      dup4\n        /* \"#utility.yul\":3880:3897   */\n      add\n        /* \"#utility.yul\":3871:3877   */\n      dup5\n        /* \"#utility.yul\":3833:3898   */\n      tag_102\n      jump\t// in\n    tag_131:\n        /* \"#utility.yul\":3695:3905   */\n      swap3\n      swap2\n      pop\n      pop\n      jump\t// out\n        /* \"#utility.yul\":3911:4444   */\n    tag_21:\n        /* \"#utility.yul\":4080:4084   */\n      0x00\n        /* \"#utility.yul\":4118:4120   */\n      0x60\n        /* \"#utility.yul\":4107:4116   */\n      dup3\n        /* \"#utility.yul\":4103:4121   */\n      add\n        /* \"#utility.yul\":4095:4121   */\n      swap1\n      pop\n        /* \"#utility.yul\":4131:4202   */\n      tag_133\n        /* \"#utility.yul\":4199:4200   */\n      0x00\n        /* \"#utility.yul\":4188:4197   */\n      dup4\n        /* \"#utility.yul\":4184:4201   */\n      add\n        /* \"#utility.yul\":4175:4181   */\n      dup7\n        /* \"#utility.yul\":4131:4202   */\n      tag_122\n      jump\t// in\n    tag_133:\n        /* \"#utility.yul\":4212:4284   */\n      tag_134\n        /* \"#utility.yul\":4280:4282   */\n      0x20\n        /* \"#utility.yul\":4269:4278   */\n      dup4\n        /* \"#utility.yul\":4265:4283   */\n      add\n        /* \"#utility.yul\":4256:4262   */\n      dup6\n        /* \"#utility.yul\":4212:4284   */\n      tag_98\n      jump\t// in\n    tag_134:\n        /* \"#utility.yul\":4331:4340   */\n      dup2\n        /* \"#utility.yul\":4325:4329   */\n      dup2\n        /* \"#utility.yul\":4321:4341   */\n      sub\n        /* \"#utility.yul\":4316:4318   */\n      0x40\n        /* \"#utility.yul\":4305:4314   */\n      dup4\n        /* \"#utility.yul\":4301:4319   */\n      add\n        /* \"#utility.yul\":4294:4342   */\n      mstore\n        /* \"#utility.yul\":4359:4437   */\n      tag_135\n        /* \"#utility.yul\":4432:4436   */\n      dup2\n        /* \"#utility.yul\":4423:4429   */\n      dup5\n        /* \"#utility.yul\":4359:4437   */\n      tag_106\n      jump\t// in\n    tag_135:\n        /* \"#utility.yul\":4351:4437   */\n      swap1\n      pop\n        /* \"#utility.yul\":3911:4444   */\n      swap5\n      swap4\n      pop\n      pop\n      pop\n      pop\n      jump\t// out\n        /* \"#utility.yul\":4450:5094   */\n    tag_48:\n        /* \"#utility.yul\":4647:4651   */\n      0x00\n        /* \"#utility.yul\":4685:4688   */\n      0x80\n        /* \"#utility.yul\":4674:4683   */\n      dup3\n        /* \"#utility.yul\":4670:4689   */\n      add\n        /* \"#utility.yul\":4662:4689   */\n      swap1\n      pop\n        /* \"#utility.yul\":4699:4770   */\n      tag_137\n        /* \"#utility.yul\":4767:4768   */\n      0x00\n        /* \"#utility.yul\":4756:4765   */\n      dup4\n        /* \"#utility.yul\":4752:4769   */\n      add\n        /* \"#utility.yul\":4743:4749   */\n      dup8\n        /* \"#utility.yul\":4699:4770   */\n      tag_122\n      jump\t// in\n    tag_137:\n        /* \"#utility.yul\":4780:4852   */\n      tag_138\n        /* \"#utility.yul\":4848:4850   */\n      0x20\n        /* \"#utility.yul\":4837:4846   */\n      dup4\n        /* \"#utility.yul\":4833:4851   */\n      add\n        /* \"#utility.yul\":4824:4830   */\n      dup7\n        /* \"#utility.yul\":4780:4852   */\n      tag_122\n      jump\t// in\n    tag_138:\n        /* \"#utility.yul\":4862:4934   */\n      tag_139\n        /* \"#utility.yul\":4930:4932   */\n      0x40\n        /* \"#utility.yul\":4919:4928   */\n      dup4\n        /* \"#utility.yul\":4915:4933   */\n      add\n        /* \"#utility.yul\":4906:4912   */\n      dup6\n        /* \"#utility.yul\":4862:4934   */\n      tag_98\n      jump\t// in\n    tag_139:\n        /* \"#utility.yul\":4981:4990   */\n      dup2\n        /* \"#utility.yul\":4975:4979   */\n      dup2\n        /* \"#utility.yul\":4971:4991   */\n      sub\n        /* \"#utility.yul\":4966:4968   */\n      0x60\n        /* \"#utility.yul\":4955:4964   */\n      dup4\n        /* \"#utility.yul\":4951:4969   */\n      add\n        /* \"#utility.yul\":4944:4992   */\n      mstore\n        /* \"#utility.yul\":5009:5087   */\n      tag_140\n        /* \"#utility.yul\":5082:5086   */\n      dup2\n        /* \"#utility.yul\":5073:5079   */\n      dup5\n        /* \"#utility.yul\":5009:5087   */\n      tag_106\n      jump\t// in\n    tag_140:\n        /* \"#utility.yul\":5001:5087   */\n      swap1\n      pop\n        /* \"#utility.yul\":4450:5094   */\n      swap6\n      swap5\n      pop\n      pop\n      pop\n      pop\n      pop\n      jump\t// out\n        /* \"#utility.yul\":5100:5229   */\n    tag_65:\n        /* \"#utility.yul\":5134:5140   */\n      0x00\n        /* \"#utility.yul\":5161:5181   */\n      tag_142\n      tag_143\n      jump\t// in\n    tag_142:\n        /* \"#utility.yul\":5151:5181   */\n      swap1\n      pop\n        /* \"#utility.yul\":5190:5223   */\n      tag_144\n        /* \"#utility.yul\":5218:5222   */\n      dup3\n        /* \"#utility.yul\":5210:5216   */\n      dup3\n        /* \"#utility.yul\":5190:5223   */\n      tag_145\n      jump\t// in\n    tag_144:\n        /* \"#utility.yul\":5100:5229   */\n      swap2\n      swap1\n      pop\n      jump\t// out\n        /* \"#utility.yul\":5235:5310   */\n    tag_143:\n        /* \"#utility.yul\":5268:5274   */\n      0x00\n        /* \"#utility.yul\":5301:5303   */\n      0x40\n        /* \"#utility.yul\":5295:5304   */\n      mload\n        /* \"#utility.yul\":5285:5304   */\n      swap1\n      pop\n        /* \"#utility.yul\":5235:5310   */\n      swap1\n      jump\t// out\n        /* \"#utility.yul\":5316:5624   */\n    tag_64:\n        /* \"#utility.yul\":5378:5382   */\n      0x00\n        /* \"#utility.yul\":5468:5486   */\n      0xffffffffffffffff\n        /* \"#utility.yul\":5460:5466   */\n      dup3\n        /* \"#utility.yul\":5457:5487   */\n      gt\n        /* \"#utility.yul\":5454:5510   */\n      iszero\n      tag_148\n      jumpi\n        /* \"#utility.yul\":5490:5508   */\n      tag_149\n      tag_150\n      jump\t// in\n    tag_149:\n        /* \"#utility.yul\":5454:5510   */\n    tag_148:\n        /* \"#utility.yul\":5528:5557   */\n      tag_151\n        /* \"#utility.yul\":5550:5556   */\n      dup3\n        /* \"#utility.yul\":5528:5557   */\n      tag_115\n      jump\t// in\n    tag_151:\n        /* \"#utility.yul\":5520:5557   */\n      swap1\n      pop\n        /* \"#utility.yul\":5612:5616   */\n      0x20\n        /* \"#utility.yul\":5606:5610   */\n      dup2\n        /* \"#utility.yul\":5602:5617   */\n      add\n        /* \"#utility.yul\":5594:5617   */\n      swap1\n      pop\n        /* \"#utility.yul\":5316:5624   */\n      swap2\n      swap1\n      pop\n      jump\t// out\n        /* \"#utility.yul\":5630:5729   */\n    tag_109:\n        /* \"#utility.yul\":5682:5688   */\n      0x00\n        /* \"#utility.yul\":5716:5721   */\n      dup2\n        /* \"#utility.yul\":5710:5722   */\n      mload\n        /* \"#utility.yul\":5700:5722   */\n      swap1\n      pop\n        /* \"#utility.yul\":5630:5729   */\n      swap2\n      swap1\n      pop\n      jump\t// out\n        /* \"#utility.yul\":5735:5904   */\n    tag_111:\n        /* \"#utility.yul\":5819:5830   */\n      0x00\n        /* \"#utility.yul\":5853:5859   */\n      dup3\n        /* \"#utility.yul\":5848:5851   */\n      dup3\n        /* \"#utility.yul\":5841:5860   */\n      mstore\n        /* \"#utility.yul\":5893:5897   */\n      0x20\n        /* \"#utility.yul\":5888:5891   */\n      dup3\n        /* \"#utility.yul\":5884:5898   */\n      add\n        /* \"#utility.yul\":5869:5898   */\n      swap1\n      pop\n        /* \"#utility.yul\":5735:5904   */\n      swap3\n      swap2\n      pop\n      pop\n      jump\t// out\n        /* \"#utility.yul\":5910:6058   */\n    tag_120:\n        /* \"#utility.yul\":6012:6023   */\n      0x00\n        /* \"#utility.yul\":6049:6052   */\n      dup2\n        /* \"#utility.yul\":6034:6052   */\n      swap1\n      pop\n        /* \"#utility.yul\":5910:6058   */\n      swap3\n      swap2\n      pop\n      pop\n      jump\t// out\n        /* \"#utility.yul\":6064:6160   */\n    tag_101:\n        /* \"#utility.yul\":6101:6108   */\n      0x00\n        /* \"#utility.yul\":6130:6154   */\n      tag_156\n        /* \"#utility.yul\":6148:6153   */\n      dup3\n        /* \"#utility.yul\":6130:6154   */\n      tag_157\n      jump\t// in\n    tag_156:\n        /* \"#utility.yul\":6119:6154   */\n      swap1\n      pop\n        /* \"#utility.yul\":6064:6160   */\n      swap2\n      swap1\n      pop\n      jump\t// out\n        /* \"#utility.yul\":6166:6256   */\n    tag_105:\n        /* \"#utility.yul\":6200:6207   */\n      0x00\n        /* \"#utility.yul\":6243:6248   */\n      dup2\n        /* \"#utility.yul\":6236:6249   */\n      iszero\n        /* \"#utility.yul\":6229:6250   */\n      iszero\n        /* \"#utility.yul\":6218:6250   */\n      swap1\n      pop\n        /* \"#utility.yul\":6166:6256   */\n      swap2\n      swap1\n      pop\n      jump\t// out\n        /* \"#utility.yul\":6262:6388   */\n    tag_157:\n        /* \"#utility.yul\":6299:6306   */\n      0x00\n        /* \"#utility.yul\":6339:6381   */\n      0xffffffffffffffffffffffffffffffffffffffff\n        /* \"#utility.yul\":6332:6337   */\n      dup3\n        /* \"#utility.yul\":6328:6382   */\n      and\n        /* \"#utility.yul\":6317:6382   */\n      swap1\n      pop\n        /* \"#utility.yul\":6262:6388   */\n      swap2\n      swap1\n      pop\n      jump\t// out\n        /* \"#utility.yul\":6394:6471   */\n    tag_125:\n        /* \"#utility.yul\":6431:6438   */\n      0x00\n        /* \"#utility.yul\":6460:6465   */\n      dup2\n        /* \"#utility.yul\":6449:6465   */\n      swap1\n      pop\n        /* \"#utility.yul\":6394:6471   */\n      swap2\n      swap1\n      pop\n      jump\t// out\n        /* \"#utility.yul\":6477:6631   */\n    tag_70:\n        /* \"#utility.yul\":6561:6567   */\n      dup3\n        /* \"#utility.yul\":6556:6559   */\n      dup2\n        /* \"#utility.yul\":6551:6554   */\n      dup4\n        /* \"#utility.yul\":6538:6568   */\n      calldatacopy\n        /* \"#utility.yul\":6623:6624   */\n      0x00\n        /* \"#utility.yul\":6614:6620   */\n      dup4\n        /* \"#utility.yul\":6609:6612   */\n      dup4\n        /* \"#utility.yul\":6605:6621   */\n      add\n        /* \"#utility.yul\":6598:6625   */\n      mstore\n        /* \"#utility.yul\":6477:6631   */\n      pop\n      pop\n      pop\n      jump\t// out\n        /* \"#utility.yul\":6637:6944   */\n    tag_113:\n        /* \"#utility.yul\":6705:6706   */\n      0x00\n        /* \"#utility.yul\":6715:6828   */\n    tag_163:\n        /* \"#utility.yul\":6729:6735   */\n      dup4\n        /* \"#utility.yul\":6726:6727   */\n      dup2\n        /* \"#utility.yul\":6723:6736   */\n      lt\n        /* \"#utility.yul\":6715:6828   */\n      iszero\n      tag_165\n      jumpi\n        /* \"#utility.yul\":6814:6815   */\n      dup1\n        /* \"#utility.yul\":6809:6812   */\n      dup3\n        /* \"#utility.yul\":6805:6816   */\n      add\n        /* \"#utility.yul\":6799:6817   */\n      mload\n        /* \"#utility.yul\":6795:6796   */\n      dup2\n        /* \"#utility.yul\":6790:6793   */\n      dup5\n        /* \"#utility.yul\":6786:6797   */\n      add\n        /* \"#utility.yul\":6779:6818   */\n      mstore\n        /* \"#utility.yul\":6751:6753   */\n      0x20\n        /* \"#utility.yul\":6748:6749   */\n      dup2\n        /* \"#utility.yul\":6744:6754   */\n      add\n        /* \"#utility.yul\":6739:6754   */\n      swap1\n      pop\n        /* \"#utility.yul\":6715:6828   */\n      jump(tag_163)\n    tag_165:\n        /* \"#utility.yul\":6846:6852   */\n      dup4\n        /* \"#utility.yul\":6843:6844   */\n      dup2\n        /* \"#utility.yul\":6840:6853   */\n      gt\n        /* \"#utility.yul\":6837:6938   */\n      iszero\n      tag_166\n      jumpi\n        /* \"#utility.yul\":6926:6927   */\n      0x00\n        /* \"#utility.yul\":6917:6923   */\n      dup5\n        /* \"#utility.yul\":6912:6915   */\n      dup5\n        /* \"#utility.yul\":6908:6924   */\n      add\n        /* \"#utility.yul\":6901:6928   */\n      mstore\n        /* \"#utility.yul\":6837:6938   */\n    tag_166:\n        /* \"#utility.yul\":6686:6944   */\n      pop\n        /* \"#utility.yul\":6637:6944   */\n      pop\n      pop\n      pop\n      jump\t// out\n        /* \"#utility.yul\":6950:7270   */\n    tag_35:\n        /* \"#utility.yul\":6994:7000   */\n      0x00\n        /* \"#utility.yul\":7031:7032   */\n      0x02\n        /* \"#utility.yul\":7025:7029   */\n      dup3\n        /* \"#utility.yul\":7021:7033   */\n      div\n        /* \"#utility.yul\":7011:7033   */\n      swap1\n      pop\n        /* \"#utility.yul\":7078:7079   */\n      0x01\n        /* \"#utility.yul\":7072:7076   */\n      dup3\n        /* \"#utility.yul\":7068:7080   */\n      and\n        /* \"#utility.yul\":7099:7117   */\n      dup1\n        /* \"#utility.yul\":7089:7170   */\n      tag_168\n      jumpi\n        /* \"#utility.yul\":7155:7159   */\n      0x7f\n        /* \"#utility.yul\":7147:7153   */\n      dup3\n        /* \"#utility.yul\":7143:7160   */\n      and\n        /* \"#utility.yul\":7133:7160   */\n      swap2\n      pop\n        /* \"#utility.yul\":7089:7170   */\n    tag_168:\n        /* \"#utility.yul\":7217:7219   */\n      0x20\n        /* \"#utility.yul\":7209:7215   */\n      dup3\n        /* \"#utility.yul\":7206:7220   */\n      lt\n        /* \"#utility.yul\":7186:7204   */\n      dup2\n        /* \"#utility.yul\":7183:7221   */\n      eq\n        /* \"#utility.yul\":7180:7264   */\n      iszero\n      tag_169\n      jumpi\n        /* \"#utility.yul\":7236:7254   */\n      tag_170\n      tag_171\n      jump\t// in\n    tag_170:\n        /* \"#utility.yul\":7180:7264   */\n    tag_169:\n        /* \"#utility.yul\":7001:7270   */\n      pop\n        /* \"#utility.yul\":6950:7270   */\n      swap2\n      swap1\n      pop\n      jump\t// out\n        /* \"#utility.yul\":7276:7557   */\n    tag_145:\n        /* \"#utility.yul\":7359:7386   */\n      tag_173\n        /* \"#utility.yul\":7381:7385   */\n      dup3\n        /* \"#utility.yul\":7359:7386   */\n      tag_115\n      jump\t// in\n    tag_173:\n        /* \"#utility.yul\":7351:7357   */\n      dup2\n        /* \"#utility.yul\":7347:7387   */\n      add\n        /* \"#utility.yul\":7489:7495   */\n      dup2\n        /* \"#utility.yul\":7477:7487   */\n      dup2\n        /* \"#utility.yul\":7474:7496   */\n      lt\n        /* \"#utility.yul\":7453:7471   */\n      0xffffffffffffffff\n        /* \"#utility.yul\":7441:7451   */\n      dup3\n        /* \"#utility.yul\":7438:7472   */\n      gt\n        /* \"#utility.yul\":7435:7497   */\n      or\n        /* \"#utility.yul\":7432:7520   */\n      iszero\n      tag_174\n      jumpi\n        /* \"#utility.yul\":7500:7518   */\n      tag_175\n      tag_150\n      jump\t// in\n    tag_175:\n        /* \"#utility.yul\":7432:7520   */\n    tag_174:\n        /* \"#utility.yul\":7540:7550   */\n      dup1\n        /* \"#utility.yul\":7536:7538   */\n      0x40\n        /* \"#utility.yul\":7529:7551   */\n      mstore\n        /* \"#utility.yul\":7319:7557   */\n      pop\n        /* \"#utility.yul\":7276:7557   */\n      pop\n      pop\n      jump\t// out\n        /* \"#utility.yul\":7563:7743   */\n    tag_171:\n        /* \"#utility.yul\":7611:7688   */\n      0x4e487b7100000000000000000000000000000000000000000000000000000000\n        /* \"#utility.yul\":7608:7609   */\n      0x00\n        /* \"#utility.yul\":7601:7689   */\n      mstore\n        /* \"#utility.yul\":7708:7712   */\n      0x22\n        /* \"#utility.yul\":7705:7706   */\n      0x04\n        /* \"#utility.yul\":7698:7713   */\n      mstore\n        /* \"#utility.yul\":7732:7736   */\n      0x24\n        /* \"#utility.yul\":7729:7730   */\n      0x00\n        /* \"#utility.yul\":7722:7737   */\n      revert\n        /* \"#utility.yul\":7749:7929   */\n    tag_150:\n        /* \"#utility.yul\":7797:7874   */\n      0x4e487b7100000000000000000000000000000000000000000000000000000000\n        /* \"#utility.yul\":7794:7795   */\n      0x00\n        /* \"#utility.yul\":7787:7875   */\n      mstore\n        /* \"#utility.yul\":7894:7898   */\n      0x41\n        /* \"#utility.yul\":7891:7892   */\n      0x04\n        /* \"#utility.yul\":7884:7899   */\n      mstore\n        /* \"#utility.yul\":7918:7922   */\n      0x24\n        /* \"#utility.yul\":7915:7916   */\n      0x00\n        /* \"#utility.yul\":7908:7923   */\n      revert\n        /* \"#utility.yul\":7935:8052   */\n    tag_79:\n        /* \"#utility.yul\":8044:8045   */\n      0x00\n        /* \"#utility.yul\":8041:8042   */\n      dup1\n        /* \"#utility.yul\":8034:8046   */\n      revert\n        /* \"#utility.yul\":8058:8175   */\n    tag_68:\n        /* \"#utility.yul\":8167:8168   */\n      0x00\n        /* \"#utility.yul\":8164:8165   */\n      dup1\n        /* \"#utility.yul\":8157:8169   */\n      revert\n        /* \"#utility.yul\":8181:8298   */\n    tag_92:\n        /* \"#utility.yul\":8290:8291   */\n      0x00\n        /* \"#utility.yul\":8287:8288   */\n      dup1\n        /* \"#utility.yul\":8280:8292   */\n      revert\n        /* \"#utility.yul\":8304:8421   */\n    tag_88:\n        /* \"#utility.yul\":8413:8414   */\n      0x00\n        /* \"#utility.yul\":8410:8411   */\n      dup1\n        /* \"#utility.yul\":8403:8415   */\n      revert\n        /* \"#utility.yul\":8427:8529   */\n    tag_115:\n        /* \"#utility.yul\":8468:8474   */\n      0x00\n        /* \"#utility.yul\":8519:8521   */\n      0x1f\n        /* \"#utility.yul\":8515:8522   */\n      not\n        /* \"#utility.yul\":8510:8512   */\n      0x1f\n        /* \"#utility.yul\":8503:8508   */\n      dup4\n        /* \"#utility.yul\":8499:8513   */\n      add\n        /* \"#utility.yul\":8495:8523   */\n      and\n        /* \"#utility.yul\":8485:8523   */\n      swap1\n      pop\n        /* \"#utility.yul\":8427:8529   */\n      swap2\n      swap1\n      pop\n      jump\t// out\n        /* \"#utility.yul\":8535:8657   */\n    tag_74:\n        /* \"#utility.yul\":8608:8632   */\n      tag_184\n        /* \"#utility.yul\":8626:8631   */\n      dup2\n        /* \"#utility.yul\":8608:8632   */\n      tag_101\n      jump\t// in\n    tag_184:\n        /* \"#utility.yul\":8601:8606   */\n      dup2\n        /* \"#utility.yul\":8598:8633   */\n      eq\n        /* \"#utility.yul\":8588:8651   */\n      tag_185\n      jumpi\n        /* \"#utility.yul\":8647:8648   */\n      0x00\n        /* \"#utility.yul\":8644:8645   */\n      dup1\n        /* \"#utility.yul\":8637:8649   */\n      revert\n        /* \"#utility.yul\":8588:8651   */\n    tag_185:\n        /* \"#utility.yul\":8535:8657   */\n      pop\n      jump\t// out\n        /* \"#utility.yul\":8663:8785   */\n    tag_84:\n        /* \"#utility.yul\":8736:8760   */\n      tag_187\n        /* \"#utility.yul\":8754:8759   */\n      dup2\n        /* \"#utility.yul\":8736:8760   */\n      tag_125\n      jump\t// in\n    tag_187:\n        /* \"#utility.yul\":8729:8734   */\n      dup2\n        /* \"#utility.yul\":8726:8761   */\n      eq\n        /* \"#utility.yul\":8716:8779   */\n      tag_188\n      jumpi\n        /* \"#utility.yul\":8775:8776   */\n      0x00\n        /* \"#utility.yul\":8772:8773   */\n      dup1\n        /* \"#utility.yul\":8765:8777   */\n      revert\n        /* \"#utility.yul\":8716:8779   */\n    tag_188:\n        /* \"#utility.yul\":8663:8785   */\n      pop\n      jump\t// out\n\n    auxdata: 0xa26469706673582212202ed2fa751ab5ef6f225a72fafc4f4251dcdc93fd6fe167379678c72910dde8f464736f6c63430008070033\n}\n",
				"bytecode": {
					"linkReferences": {},
					"object": "608060405234801561001057600080fd5b50610926806100206000396000f3fe608060405234801561001057600080fd5b506004361061004c5760003560e01c80632b08e824146100515780633c518dd31461008157806350b447121461009d5780638ce7e461146100cf575b600080fd5b61006b6004803603810190610066919061053a565b6100ff565b6040516100789190610615565b60405180910390f35b61009b600480360381019061009691906104de565b610132565b005b6100b760048036038101906100b2919061053a565b61014f565b6040516100c69392919061064b565b60405180910390f35b6100e960048036038101906100e4919061053a565b610231565b6040516100f69190610630565b60405180910390f35b60016020528060005260406000206000915054906101000a900473ffffffffffffffffffffffffffffffffffffffff1681565b600061013d82610251565b905061014a818484610289565b505050565b6000818154811061015f57600080fd5b90600052602060002090600302016000915090508060000154908060010160009054906101000a900473ffffffffffffffffffffffffffffffffffffffff16908060020180546101ae906107dc565b80601f01602080910402602001604051908101604052809291908181526020018280546101da906107dc565b80156102275780601f106101fc57610100808354040283529160200191610227565b820191906000526020600020905b81548152906001019060200180831161020a57829003601f168201915b5050505050905083565b60026020528060005260406000206000915054906101000a900460ff1681565b6000808260405160200161026591906105fe565b6040516020818303038152906040528051906020012060001c905080915050919050565b600060405180606001604052808581526020018473ffffffffffffffffffffffffffffffffffffffff1681526020018381525090806001815401808255809150506001900390600052602060002090600302016000909190919091506000820151816000015560208201518160010160006101000a81548173ffffffffffffffffffffffffffffffffffffffff021916908373ffffffffffffffffffffffffffffffffffffffff16021790555060408201518160020190805190602001906103529291906103a1565b5050506000808054905090507f5c6cbfb13057ca1c92859b5ecb3c56b42131a7a5ac1a570d12f8cf875fcff98b818585856040516103939493929190610689565b60405180910390a150505050565b8280546103ad906107dc565b90600052602060002090601f0160209004810192826103cf5760008555610416565b82601f106103e857805160ff1916838001178555610416565b82800160010185558215610416579182015b828111156104155782518255916020019190600101906103fa565b5b5090506104239190610427565b5090565b5b80821115610440576000816000905550600101610428565b5090565b6000610457610452846106fa565b6106d5565b905082815260208101848484011115610473576104726108a2565b5b61047e84828561079a565b509392505050565b600081359050610495816108c2565b92915050565b600082601f8301126104b0576104af61089d565b5b81356104c0848260208601610444565b91505092915050565b6000813590506104d8816108d9565b92915050565b600080604083850312156104f5576104f46108ac565b5b600061050385828601610486565b925050602083013567ffffffffffffffff811115610524576105236108a7565b5b6105308582860161049b565b9150509250929050565b6000602082840312156105505761054f6108ac565b5b600061055e848285016104c9565b91505092915050565b61057081610752565b82525050565b61057f81610764565b82525050565b60006105908261072b565b61059a8185610736565b93506105aa8185602086016107a9565b6105b3816108b1565b840191505092915050565b60006105c98261072b565b6105d38185610747565b93506105e38185602086016107a9565b80840191505092915050565b6105f881610790565b82525050565b600061060a82846105be565b915081905092915050565b600060208201905061062a6000830184610567565b92915050565b60006020820190506106456000830184610576565b92915050565b600060608201905061066060008301866105ef565b61066d6020830185610567565b818103604083015261067f8184610585565b9050949350505050565b600060808201905061069e60008301876105ef565b6106ab60208301866105ef565b6106b86040830185610567565b81810360608301526106ca8184610585565b905095945050505050565b60006106df6106f0565b90506106eb828261080e565b919050565b6000604051905090565b600067ffffffffffffffff8211156107155761071461086e565b5b61071e826108b1565b9050602081019050919050565b600081519050919050565b600082825260208201905092915050565b600081905092915050565b600061075d82610770565b9050919050565b60008115159050919050565b600073ffffffffffffffffffffffffffffffffffffffff82169050919050565b6000819050919050565b82818337600083830152505050565b60005b838110156107c75780820151818401526020810190506107ac565b838111156107d6576000848401525b50505050565b600060028204905060018216806107f457607f821691505b602082108114156108085761080761083f565b5b50919050565b610817826108b1565b810181811067ffffffffffffffff821117156108365761083561086e565b5b80604052505050565b7f4e487b7100000000000000000000000000000000000000000000000000000000600052602260045260246000fd5b7f4e487b7100000000000000000000000000000000000000000000000000000000600052604160045260246000fd5b600080fd5b600080fd5b600080fd5b600080fd5b6000601f19601f8301169050919050565b6108cb81610752565b81146108d657600080fd5b50565b6108e281610790565b81146108ed57600080fd5b5056fea26469706673582212202ed2fa751ab5ef6f225a72fafc4f4251dcdc93fd6fe167379678c72910dde8f464736f6c63430008070033",
					"opcodes": "PUSH1 0x80 PUSH1 0x40 MSTORE CALLVALUE DUP1 ISZERO PUSH2 0x10 JUMPI PUSH1 0x0 DUP1 REVERT JUMPDEST POP PUSH2 0x926 DUP1 PUSH2 0x20 PUSH1 0x0 CODECOPY PUSH1 0x0 RETURN INVALID PUSH1 0x80 PUSH1 0x40 MSTORE CALLVALUE DUP1 ISZERO PUSH2 0x10 JUMPI PUSH1 0x0 DUP1 REVERT JUMPDEST POP PUSH1 0x4 CALLDATASIZE LT PUSH2 0x4C JUMPI PUSH1 0x0 CALLDATALOAD PUSH1 0xE0 SHR DUP1 PUSH4 0x2B08E824 EQ PUSH2 0x51 JUMPI DUP1 PUSH4 0x3C518DD3 EQ PUSH2 0x81 JUMPI DUP1 PUSH4 0x50B44712 EQ PUSH2 0x9D JUMPI DUP1 PUSH4 0x8CE7E461 EQ PUSH2 0xCF JUMPI JUMPDEST PUSH1 0x0 DUP1 REVERT JUMPDEST PUSH2 0x6B PUSH1 0x4 DUP1 CALLDATASIZE SUB DUP2 ADD SWAP1 PUSH2 0x66 SWAP2 SWAP1 PUSH2 0x53A JUMP JUMPDEST PUSH2 0xFF JUMP JUMPDEST PUSH1 0x40 MLOAD PUSH2 0x78 SWAP2 SWAP1 PUSH2 0x615 JUMP JUMPDEST PUSH1 0x40 MLOAD DUP1 SWAP2 SUB SWAP1 RETURN JUMPDEST PUSH2 0x9B PUSH1 0x4 DUP1 CALLDATASIZE SUB DUP2 ADD SWAP1 PUSH2 0x96 SWAP2 SWAP1 PUSH2 0x4DE JUMP JUMPDEST PUSH2 0x132 JUMP JUMPDEST STOP JUMPDEST PUSH2 0xB7 PUSH1 0x4 DUP1 CALLDATASIZE SUB DUP2 ADD SWAP1 PUSH2 0xB2 SWAP2 SWAP1 PUSH2 0x53A JUMP JUMPDEST PUSH2 0x14F JUMP JUMPDEST PUSH1 0x40 MLOAD PUSH2 0xC6 SWAP4 SWAP3 SWAP2 SWAP1 PUSH2 0x64B JUMP JUMPDEST PUSH1 0x40 MLOAD DUP1 SWAP2 SUB SWAP1 RETURN JUMPDEST PUSH2 0xE9 PUSH1 0x4 DUP1 CALLDATASIZE SUB DUP2 ADD SWAP1 PUSH2 0xE4 SWAP2 SWAP1 PUSH2 0x53A JUMP JUMPDEST PUSH2 0x231 JUMP JUMPDEST PUSH1 0x40 MLOAD PUSH2 0xF6 SWAP2 SWAP1 PUSH2 0x630 JUMP JUMPDEST PUSH1 0x40 MLOAD DUP1 SWAP2 SUB SWAP1 RETURN JUMPDEST PUSH1 0x1 PUSH1 0x20 MSTORE DUP1 PUSH1 0x0 MSTORE PUSH1 0x40 PUSH1 0x0 KECCAK256 PUSH1 0x0 SWAP2 POP SLOAD SWAP1 PUSH2 0x100 EXP SWAP1 DIV PUSH20 0xFFFFFFFFFFFFFFFFFFFFFFFFFFFFFFFFFFFFFFFF AND DUP2 JUMP JUMPDEST PUSH1 0x0 PUSH2 0x13D DUP3 PUSH2 0x251 JUMP JUMPDEST SWAP1 POP PUSH2 0x14A DUP2 DUP5 DUP5 PUSH2 0x289 JUMP JUMPDEST POP POP POP JUMP JUMPDEST PUSH1 0x0 DUP2 DUP2 SLOAD DUP2 LT PUSH2 0x15F JUMPI PUSH1 0x0 DUP1 REVERT JUMPDEST SWAP1 PUSH1 0x0 MSTORE PUSH1 0x20 PUSH1 0x0 KECCAK256 SWAP1 PUSH1 0x3 MUL ADD PUSH1 0x0 SWAP2 POP SWAP1 POP DUP1 PUSH1 0x0 ADD SLOAD SWAP1 DUP1 PUSH1 0x1 ADD PUSH1 0x0 SWAP1 SLOAD SWAP1 PUSH2 0x100 EXP SWAP1 DIV PUSH20 0xFFFFFFFFFFFFFFFFFFFFFFFFFFFFFFFFFFFFFFFF AND SWAP1 DUP1 PUSH1 0x2 ADD DUP1 SLOAD PUSH2 0x1AE SWAP1 PUSH2 0x7DC JUMP JUMPDEST DUP1 PUSH1 0x1F ADD PUSH1 0x20 DUP1 SWAP2 DIV MUL PUSH1 0x20 ADD PUSH1 0x40 MLOAD SWAP1 DUP2 ADD PUSH1 0x40 MSTORE DUP1 SWAP3 SWAP2 SWAP1 DUP2 DUP2 MSTORE PUSH1 0x20 ADD DUP3 DUP1 SLOAD PUSH2 0x1DA SWAP1 PUSH2 0x7DC JUMP JUMPDEST DUP1 ISZERO PUSH2 0x227 JUMPI DUP1 PUSH1 0x1F LT PUSH2 0x1FC JUMPI PUSH2 0x100 DUP1 DUP4 SLOAD DIV MUL DUP4 MSTORE SWAP2 PUSH1 0x20 ADD SWAP2 PUSH2 0x227 JUMP JUMPDEST DUP3 ADD SWAP2 SWAP1 PUSH1 0x0 MSTORE PUSH1 0x20 PUSH1 0x0 KECCAK256 SWAP1 JUMPDEST DUP2 SLOAD DUP2 MSTORE SWAP1 PUSH1 0x1 ADD SWAP1 PUSH1 0x20 ADD DUP1 DUP4 GT PUSH2 0x20A JUMPI DUP3 SWAP1 SUB PUSH1 0x1F AND DUP3 ADD SWAP2 JUMPDEST POP POP POP POP POP SWAP1 POP DUP4 JUMP JUMPDEST PUSH1 0x2 PUSH1 0x20 MSTORE DUP1 PUSH1 0x0 MSTORE PUSH1 0x40 PUSH1 0x0 KECCAK256 PUSH1 0x0 SWAP2 POP SLOAD SWAP1 PUSH2 0x100 EXP SWAP1 DIV PUSH1 0xFF AND DUP2 JUMP JUMPDEST PUSH1 0x0 DUP1 DUP3 PUSH1 0x40 MLOAD PUSH1 0x20 ADD PUSH2 0x265 SWAP2 SWAP1 PUSH2 0x5FE JUMP JUMPDEST PUSH1 0x40 MLOAD PUSH1 0x20 DUP2 DUP4 SUB SUB DUP2 MSTORE SWAP1 PUSH1 0x40 MSTORE DUP1 MLOAD SWAP1 PUSH1 0x20 ADD KECCAK256 PUSH1 0x0 SHR SWAP1 POP DUP1 SWAP2 POP POP SWAP2 SWAP1 POP JUMP JUMPDEST PUSH1 0x0 PUSH1 0x40 MLOAD DUP1 PUSH1 0x60 ADD PUSH1 0x40 MSTORE DUP1 DUP6 DUP2 MSTORE PUSH1 0x20 ADD DUP5 PUSH20 0xFFFFFFFFFFFFFFFFFFFFFFFFFFFFFFFFFFFFFFFF AND DUP2 MSTORE PUSH1 0x20 ADD DUP4 DUP2 MSTORE POP SWAP1 DUP1 PUSH1 0x1 DUP2 SLOAD ADD DUP1 DUP3 SSTORE DUP1 SWAP2 POP POP PUSH1 0x1 SWAP1 SUB SWAP1 PUSH1 0x0 MSTORE PUSH1 0x20 PUSH1 0x0 KECCAK256 SWAP1 PUSH1 0x3 MUL ADD PUSH1 0x0 SWAP1 SWAP2 SWAP1 SWAP2 SWAP1 SWAP2 POP PUSH1 0x0 DUP3 ADD MLOAD DUP2 PUSH1 0x0 ADD SSTORE PUSH1 0x20 DUP3 ADD MLOAD DUP2 PUSH1 0x1 ADD PUSH1 0x0 PUSH2 0x100 EXP DUP2 SLOAD DUP2 PUSH20 0xFFFFFFFFFFFFFFFFFFFFFFFFFFFFFFFFFFFFFFFF MUL NOT AND SWAP1 DUP4 PUSH20 0xFFFFFFFFFFFFFFFFFFFFFFFFFFFFFFFFFFFFFFFF AND MUL OR SWAP1 SSTORE POP PUSH1 0x40 DUP3 ADD MLOAD DUP2 PUSH1 0x2 ADD SWAP1 DUP1 MLOAD SWAP1 PUSH1 0x20 ADD SWAP1 PUSH2 0x352 SWAP3 SWAP2 SWAP1 PUSH2 0x3A1 JUMP JUMPDEST POP POP POP PUSH1 0x0 DUP1 DUP1 SLOAD SWAP1 POP SWAP1 POP PUSH32 0x5C6CBFB13057CA1C92859B5ECB3C56B42131A7A5AC1A570D12F8CF875FCFF98B DUP2 DUP6 DUP6 DUP6 PUSH1 0x40 MLOAD PUSH2 0x393 SWAP5 SWAP4 SWAP3 SWAP2 SWAP1 PUSH2 0x689 JUMP JUMPDEST PUSH1 0x40 MLOAD DUP1 SWAP2 SUB SWAP1 LOG1 POP POP POP POP JUMP JUMPDEST DUP3 DUP1 SLOAD PUSH2 0x3AD SWAP1 PUSH2 0x7DC JUMP JUMPDEST SWAP1 PUSH1 0x0 MSTORE PUSH1 0x20 PUSH1 0x0 KECCAK256 SWAP1 PUSH1 0x1F ADD PUSH1 0x20 SWAP1 DIV DUP2 ADD SWAP3 DUP3 PUSH2 0x3CF JUMPI PUSH1 0x0 DUP6 SSTORE PUSH2 0x416 JUMP JUMPDEST DUP3 PUSH1 0x1F LT PUSH2 0x3E8 JUMPI DUP1 MLOAD PUSH1 0xFF NOT AND DUP4 DUP1 ADD OR DUP6 SSTORE PUSH2 0x416 JUMP JUMPDEST DUP3 DUP1 ADD PUSH1 0x1 ADD DUP6 SSTORE DUP3 ISZERO PUSH2 0x416 JUMPI SWAP2 DUP3 ADD JUMPDEST DUP3 DUP2 GT ISZERO PUSH2 0x415 JUMPI DUP3 MLOAD DUP3 SSTORE SWAP2 PUSH1 0x20 ADD SWAP2 SWAP1 PUSH1 0x1 ADD SWAP1 PUSH2 0x3FA JUMP JUMPDEST JUMPDEST POP SWAP1 POP PUSH2 0x423 SWAP2 SWAP1 PUSH2 0x427 JUMP JUMPDEST POP SWAP1 JUMP JUMPDEST JUMPDEST DUP1 DUP3 GT ISZERO PUSH2 0x440 JUMPI PUSH1 0x0 DUP2 PUSH1 0x0 SWAP1 SSTORE POP PUSH1 0x1 ADD PUSH2 0x428 JUMP JUMPDEST POP SWAP1 JUMP JUMPDEST PUSH1 0x0 PUSH2 0x457 PUSH2 0x452 DUP5 PUSH2 0x6FA JUMP JUMPDEST PUSH2 0x6D5 JUMP JUMPDEST SWAP1 POP DUP3 DUP2 MSTORE PUSH1 0x20 DUP2 ADD DUP5 DUP5 DUP5 ADD GT ISZERO PUSH2 0x473 JUMPI PUSH2 0x472 PUSH2 0x8A2 JUMP JUMPDEST JUMPDEST PUSH2 0x47E DUP5 DUP3 DUP6 PUSH2 0x79A JUMP JUMPDEST POP SWAP4 SWAP3 POP POP POP JUMP JUMPDEST PUSH1 0x0 DUP2 CALLDATALOAD SWAP1 POP PUSH2 0x495 DUP2 PUSH2 0x8C2 JUMP JUMPDEST SWAP3 SWAP2 POP POP JUMP JUMPDEST PUSH1 0x0 DUP3 PUSH1 0x1F DUP4 ADD SLT PUSH2 0x4B0 JUMPI PUSH2 0x4AF PUSH2 0x89D JUMP JUMPDEST JUMPDEST DUP2 CALLDATALOAD PUSH2 0x4C0 DUP5 DUP3 PUSH1 0x20 DUP7 ADD PUSH2 0x444 JUMP JUMPDEST SWAP2 POP POP SWAP3 SWAP2 POP POP JUMP JUMPDEST PUSH1 0x0 DUP2 CALLDATALOAD SWAP1 POP PUSH2 0x4D8 DUP2 PUSH2 0x8D9 JUMP JUMPDEST SWAP3 SWAP2 POP POP JUMP JUMPDEST PUSH1 0x0 DUP1 PUSH1 0x40 DUP4 DUP6 SUB SLT ISZERO PUSH2 0x4F5 JUMPI PUSH2 0x4F4 PUSH2 0x8AC JUMP JUMPDEST JUMPDEST PUSH1 0x0 PUSH2 0x503 DUP6 DUP3 DUP7 ADD PUSH2 0x486 JUMP JUMPDEST SWAP3 POP POP PUSH1 0x20 DUP4 ADD CALLDATALOAD PUSH8 0xFFFFFFFFFFFFFFFF DUP2 GT ISZERO PUSH2 0x524 JUMPI PUSH2 0x523 PUSH2 0x8A7 JUMP JUMPDEST JUMPDEST PUSH2 0x530 DUP6 DUP3 DUP7 ADD PUSH2 0x49B JUMP JUMPDEST SWAP2 POP POP SWAP3 POP SWAP3 SWAP1 POP JUMP JUMPDEST PUSH1 0x0 PUSH1 0x20 DUP3 DUP5 SUB SLT ISZERO PUSH2 0x550 JUMPI PUSH2 0x54F PUSH2 0x8AC JUMP JUMPDEST JUMPDEST PUSH1 0x0 PUSH2 0x55E DUP5 DUP3 DUP6 ADD PUSH2 0x4C9 JUMP JUMPDEST SWAP2 POP POP SWAP3 SWAP2 POP POP JUMP JUMPDEST PUSH2 0x570 DUP2 PUSH2 0x752 JUMP JUMPDEST DUP3 MSTORE POP POP JUMP JUMPDEST PUSH2 0x57F DUP2 PUSH2 0x764 JUMP JUMPDEST DUP3 MSTORE POP POP JUMP JUMPDEST PUSH1 0x0 PUSH2 0x590 DUP3 PUSH2 0x72B JUMP JUMPDEST PUSH2 0x59A DUP2 DUP6 PUSH2 0x736 JUMP JUMPDEST SWAP4 POP PUSH2 0x5AA DUP2 DUP6 PUSH1 0x20 DUP7 ADD PUSH2 0x7A9 JUMP JUMPDEST PUSH2 0x5B3 DUP2 PUSH2 0x8B1 JUMP JUMPDEST DUP5 ADD SWAP2 POP POP SWAP3 SWAP2 POP POP JUMP JUMPDEST PUSH1 0x0 PUSH2 0x5C9 DUP3 PUSH2 0x72B JUMP JUMPDEST PUSH2 0x5D3 DUP2 DUP6 PUSH2 0x747 JUMP JUMPDEST SWAP4 POP PUSH2 0x5E3 DUP2 DUP6 PUSH1 0x20 DUP7 ADD PUSH2 0x7A9 JUMP JUMPDEST DUP1 DUP5 ADD SWAP2 POP POP SWAP3 SWAP2 POP POP JUMP JUMPDEST PUSH2 0x5F8 DUP2 PUSH2 0x790 JUMP JUMPDEST DUP3 MSTORE POP POP JUMP JUMPDEST PUSH1 0x0 PUSH2 0x60A DUP3 DUP5 PUSH2 0x5BE JUMP JUMPDEST SWAP2 POP DUP2 SWAP1 POP SWAP3 SWAP2 POP POP JUMP JUMPDEST PUSH1 0x0 PUSH1 0x20 DUP3 ADD SWAP1 POP PUSH2 0x62A PUSH1 0x0 DUP4 ADD DUP5 PUSH2 0x567 JUMP JUMPDEST SWAP3 SWAP2 POP POP JUMP JUMPDEST PUSH1 0x0 PUSH1 0x20 DUP3 ADD SWAP1 POP PUSH2 0x645 PUSH1 0x0 DUP4 ADD DUP5 PUSH2 0x576 JUMP JUMPDEST SWAP3 SWAP2 POP POP JUMP JUMPDEST PUSH1 0x0 PUSH1 0x60 DUP3 ADD SWAP1 POP PUSH2 0x660 PUSH1 0x0 DUP4 ADD DUP7 PUSH2 0x5EF JUMP JUMPDEST PUSH2 0x66D PUSH1 0x20 DUP4 ADD DUP6 PUSH2 0x567 JUMP JUMPDEST DUP2 DUP2 SUB PUSH1 0x40 DUP4 ADD MSTORE PUSH2 0x67F DUP2 DUP5 PUSH2 0x585 JUMP JUMPDEST SWAP1 POP SWAP5 SWAP4 POP POP POP POP JUMP JUMPDEST PUSH1 0x0 PUSH1 0x80 DUP3 ADD SWAP1 POP PUSH2 0x69E PUSH1 0x0 DUP4 ADD DUP8 PUSH2 0x5EF JUMP JUMPDEST PUSH2 0x6AB PUSH1 0x20 DUP4 ADD DUP7 PUSH2 0x5EF JUMP JUMPDEST PUSH2 0x6B8 PUSH1 0x40 DUP4 ADD DUP6 PUSH2 0x567 JUMP JUMPDEST DUP2 DUP2 SUB PUSH1 0x60 DUP4 ADD MSTORE PUSH2 0x6CA DUP2 DUP5 PUSH2 0x585 JUMP JUMPDEST SWAP1 POP SWAP6 SWAP5 POP POP POP POP POP JUMP JUMPDEST PUSH1 0x0 PUSH2 0x6DF PUSH2 0x6F0 JUMP JUMPDEST SWAP1 POP PUSH2 0x6EB DUP3 DUP3 PUSH2 0x80E JUMP JUMPDEST SWAP2 SWAP1 POP JUMP JUMPDEST PUSH1 0x0 PUSH1 0x40 MLOAD SWAP1 POP SWAP1 JUMP JUMPDEST PUSH1 0x0 PUSH8 0xFFFFFFFFFFFFFFFF DUP3 GT ISZERO PUSH2 0x715 JUMPI PUSH2 0x714 PUSH2 0x86E JUMP JUMPDEST JUMPDEST PUSH2 0x71E DUP3 PUSH2 0x8B1 JUMP JUMPDEST SWAP1 POP PUSH1 0x20 DUP2 ADD SWAP1 POP SWAP2 SWAP1 POP JUMP JUMPDEST PUSH1 0x0 DUP2 MLOAD SWAP1 POP SWAP2 SWAP1 POP JUMP JUMPDEST PUSH1 0x0 DUP3 DUP3 MSTORE PUSH1 0x20 DUP3 ADD SWAP1 POP SWAP3 SWAP2 POP POP JUMP JUMPDEST PUSH1 0x0 DUP2 SWAP1 POP SWAP3 SWAP2 POP POP JUMP JUMPDEST PUSH1 0x0 PUSH2 0x75D DUP3 PUSH2 0x770 JUMP JUMPDEST SWAP1 POP SWAP2 SWAP1 POP JUMP JUMPDEST PUSH1 0x0 DUP2 ISZERO ISZERO SWAP1 POP SWAP2 SWAP1 POP JUMP JUMPDEST PUSH1 0x0 PUSH20 0xFFFFFFFFFFFFFFFFFFFFFFFFFFFFFFFFFFFFFFFF DUP3 AND SWAP1 POP SWAP2 SWAP1 POP JUMP JUMPDEST PUSH1 0x0 DUP2 SWAP1 POP SWAP2 SWAP1 POP JUMP JUMPDEST DUP3 DUP2 DUP4 CALLDATACOPY PUSH1 0x0 DUP4 DUP4 ADD MSTORE POP POP POP JUMP JUMPDEST PUSH1 0x0 JUMPDEST DUP4 DUP2 LT ISZERO PUSH2 0x7C7 JUMPI DUP1 DUP3 ADD MLOAD DUP2 DUP5 ADD MSTORE PUSH1 0x20 DUP2 ADD SWAP1 POP PUSH2 0x7AC JUMP JUMPDEST DUP4 DUP2 GT ISZERO PUSH2 0x7D6 JUMPI PUSH1 0x0 DUP5 DUP5 ADD MSTORE JUMPDEST POP POP POP POP JUMP JUMPDEST PUSH1 0x0 PUSH1 0x2 DUP3 DIV SWAP1 POP PUSH1 0x1 DUP3 AND DUP1 PUSH2 0x7F4 JUMPI PUSH1 0x7F DUP3 AND SWAP2 POP JUMPDEST PUSH1 0x20 DUP3 LT DUP2 EQ ISZERO PUSH2 0x808 JUMPI PUSH2 0x807 PUSH2 0x83F JUMP JUMPDEST JUMPDEST POP SWAP2 SWAP1 POP JUMP JUMPDEST PUSH2 0x817 DUP3 PUSH2 0x8B1 JUMP JUMPDEST DUP2 ADD DUP2 DUP2 LT PUSH8 0xFFFFFFFFFFFFFFFF DUP3 GT OR ISZERO PUSH2 0x836 JUMPI PUSH2 0x835 PUSH2 0x86E JUMP JUMPDEST JUMPDEST DUP1 PUSH1 0x40 MSTORE POP POP POP JUMP JUMPDEST PUSH32 0x4E487B7100000000000000000000000000000000000000000000000000000000 PUSH1 0x0 MSTORE PUSH1 0x22 PUSH1 0x4 MSTORE PUSH1 0x24 PUSH1 0x0 REVERT JUMPDEST PUSH32 0x4E487B7100000000000000000000000000000000000000000000000000000000 PUSH1 0x0 MSTORE PUSH1 0x41 PUSH1 0x4 MSTORE PUSH1 0x24 PUSH1 0x0 REVERT JUMPDEST PUSH1 0x0 DUP1 REVERT JUMPDEST PUSH1 0x0 DUP1 REVERT JUMPDEST PUSH1 0x0 DUP1 REVERT JUMPDEST PUSH1 0x0 DUP1 REVERT JUMPDEST PUSH1 0x0 PUSH1 0x1F NOT PUSH1 0x1F DUP4 ADD AND SWAP1 POP SWAP2 SWAP1 POP JUMP JUMPDEST PUSH2 0x8CB DUP2 PUSH2 0x752 JUMP JUMPDEST DUP2 EQ PUSH2 0x8D6 JUMPI PUSH1 0x0 DUP1 REVERT JUMPDEST POP JUMP JUMPDEST PUSH2 0x8E2 DUP2 PUSH2 0x790 JUMP JUMPDEST DUP2 EQ PUSH2 0x8ED JUMPI PUSH1 0x0 DUP1 REVERT JUMPDEST POP JUMP INVALID LOG2 PUSH5 0x6970667358 0x22 SLT KECCAK256 0x2E 0xD2 STATICCALL PUSH22 0x1AB5EF6F225A72FAFC4F4251DCDC93FD6FE167379678 0xC7 0x29 LT 0xDD 0xE8 DELEGATECALL PUSH5 0x736F6C6343 STOP ADDMOD SMOD STOP CALLER "
				},
				"gasEstimates": {
					"creation": {
						"codeDepositCost": "468400",
						"executionCost": "505",
						"totalCost": "468905"
					},
					"external": {
						"createNewTicket(address,string)": "infinite",
						"ticketStatus(uint256)": "2840",
						"ticketToOwner(uint256)": "2817",
						"tickets(uint256)": "infinite"
					},
					"internal": {
						"_createTicket(uint256,address,string memory)": "infinite",
						"generateRefNo(string memory)": "infinite"
					}
				},
				"methodIdentifiers": {
					"createNewTicket(address,string)": "3c518dd3",
					"ticketStatus(uint256)": "8ce7e461",
					"ticketToOwner(uint256)": "2b08e824",
					"tickets(uint256)": "50b44712"
				}
			},
			"storageLayout": {
				"storage": [
					{
						"astId": 22,
						"contract": "contracts/CreateTicket.sol:NewTicket",
						"label": "tickets",
						"offset": 0,
						"slot": "0",
						"type": "t_array(t_struct(Ticket)18_storage)dyn_storage"
					},
					{
						"astId": 26,
						"contract": "contracts/CreateTicket.sol:NewTicket",
						"label": "ticketToOwner",
						"offset": 0,
						"slot": "1",
						"type": "t_mapping(t_uint256,t_address)"
					},
					{
						"astId": 30,
						"contract": "contracts/CreateTicket.sol:NewTicket",
						"label": "ticketStatus",
						"offset": 0,
						"slot": "2",
						"type": "t_mapping(t_uint256,t_bool)"
					}
				],
				"types": {
					"t_address": {
						"encoding": "inplace",
						"label": "address",
						"numberOfBytes": "20"
					},
					"t_array(t_struct(Ticket)18_storage)dyn_storage": {
						"base": "t_struct(Ticket)18_storage",
						"encoding": "dynamic_array",
						"label": "struct NewTicket.Ticket[]",
						"numberOfBytes": "32"
					},
					"t_bool": {
						"encoding": "inplace",
						"label": "bool",
						"numberOfBytes": "1"
					},
					"t_mapping(t_uint256,t_address)": {
						"encoding": "mapping",
						"key": "t_uint256",
						"label": "mapping(uint256 => address)",
						"numberOfBytes": "32",
						"value": "t_address"
					},
					"t_mapping(t_uint256,t_bool)": {
						"encoding": "mapping",
						"key": "t_uint256",
						"label": "mapping(uint256 => bool)",
						"numberOfBytes": "32",
						"value": "t_bool"
					},
					"t_string_storage": {
						"encoding": "bytes",
						"label": "string",
						"numberOfBytes": "32"
					},
					"t_struct(Ticket)18_storage": {
						"encoding": "inplace",
						"label": "struct NewTicket.Ticket",
						"members": [
							{
								"astId": 13,
								"contract": "contracts/CreateTicket.sol:NewTicket",
								"label": "refNo",
								"offset": 0,
								"slot": "0",
								"type": "t_uint256"
							},
							{
								"astId": 15,
								"contract": "contracts/CreateTicket.sol:NewTicket",
								"label": "authority",
								"offset": 0,
								"slot": "1",
								"type": "t_address"
							},
							{
								"astId": 17,
								"contract": "contracts/CreateTicket.sol:NewTicket",
								"label": "link",
								"offset": 0,
								"slot": "2",
								"type": "t_string_storage"
							}
						],
						"numberOfBytes": "96"
					},
					"t_uint256": {
						"encoding": "inplace",
						"label": "uint256",
						"numberOfBytes": "32"
					}
				}
			},
			"userdoc": {
				"kind": "user",
				"methods": {},
				"version": 1
			}
		}
	}
}