{
	"contracts/CreateTicket.sol": {
		"NewTicket": {
			"abi": [
				{
					"inputs": [
						{
							"internalType": "uint256",
							"name": "",
							"type": "uint256"
						}
					],
					"name": "tickets",
					"outputs": [
						{
							"internalType": "uint256",
							"name": "refNo",
							"type": "uint256"
						},
						{
							"internalType": "string",
							"name": "authority",
							"type": "string"
						},
						{
							"internalType": "string",
							"name": "link",
							"type": "string"
						}
					],
					"stateMutability": "view",
					"type": "function"
				}
			],
			"devdoc": {
				"kind": "dev",
				"methods": {},
				"version": 1
			},
			"evm": {
				"assembly": "    /* \"contracts/CreateTicket.sol\":70:540  contract NewTicket {\r... */\n  mstore(0x40, 0x80)\n  callvalue\n  dup1\n  iszero\n  tag_1\n  jumpi\n  0x00\n  dup1\n  revert\ntag_1:\n  pop\n  dataSize(sub_0)\n  dup1\n  dataOffset(sub_0)\n  0x00\n  codecopy\n  0x00\n  return\nstop\n\nsub_0: assembly {\n        /* \"contracts/CreateTicket.sol\":70:540  contract NewTicket {\r... */\n      mstore(0x40, 0x80)\n      callvalue\n      dup1\n      iszero\n      tag_1\n      jumpi\n      0x00\n      dup1\n      revert\n    tag_1:\n      pop\n      jumpi(tag_2, lt(calldatasize, 0x04))\n      shr(0xe0, calldataload(0x00))\n      dup1\n      0x50b44712\n      eq\n      tag_3\n      jumpi\n    tag_2:\n      0x00\n      dup1\n      revert\n        /* \"contracts/CreateTicket.sol\":198:221  Ticket[] public tickets */\n    tag_3:\n      tag_4\n      0x04\n      dup1\n      calldatasize\n      sub\n      dup2\n      add\n      swap1\n      tag_5\n      swap2\n      swap1\n      tag_6\n      jump\t// in\n    tag_5:\n      tag_7\n      jump\t// in\n    tag_4:\n      mload(0x40)\n      tag_8\n      swap4\n      swap3\n      swap2\n      swap1\n      tag_9\n      jump\t// in\n    tag_8:\n      mload(0x40)\n      dup1\n      swap2\n      sub\n      swap1\n      return\n    tag_7:\n      0x00\n      dup2\n      dup2\n      sload\n      dup2\n      lt\n      tag_10\n      jumpi\n      0x00\n      dup1\n      revert\n    tag_10:\n      swap1\n      0x00\n      mstore\n      keccak256(0x00, 0x20)\n      swap1\n      0x03\n      mul\n      add\n      0x00\n      swap2\n      pop\n      swap1\n      pop\n      dup1\n      0x00\n      add\n      sload\n      swap1\n      dup1\n      0x01\n      add\n      dup1\n      sload\n      tag_12\n      swap1\n      tag_13\n      jump\t// in\n    tag_12:\n      dup1\n      0x1f\n      add\n      0x20\n      dup1\n      swap2\n      div\n      mul\n      0x20\n      add\n      mload(0x40)\n      swap1\n      dup2\n      add\n      0x40\n      mstore\n      dup1\n      swap3\n      swap2\n      swap1\n      dup2\n      dup2\n      mstore\n      0x20\n      add\n      dup3\n      dup1\n      sload\n      tag_14\n      swap1\n      tag_13\n      jump\t// in\n    tag_14:\n      dup1\n      iszero\n      tag_15\n      jumpi\n      dup1\n      0x1f\n      lt\n      tag_16\n      jumpi\n      0x0100\n      dup1\n      dup4\n      sload\n      div\n      mul\n      dup4\n      mstore\n      swap2\n      0x20\n      add\n      swap2\n      jump(tag_15)\n    tag_16:\n      dup3\n      add\n      swap2\n      swap1\n      0x00\n      mstore\n      keccak256(0x00, 0x20)\n      swap1\n    tag_17:\n      dup2\n      sload\n      dup2\n      mstore\n      swap1\n      0x01\n      add\n      swap1\n      0x20\n      add\n      dup1\n      dup4\n      gt\n      tag_17\n      jumpi\n      dup3\n      swap1\n      sub\n      0x1f\n      and\n      dup3\n      add\n      swap2\n    tag_15:\n      pop\n      pop\n      pop\n      pop\n      pop\n      swap1\n      dup1\n      0x02\n      add\n      dup1\n      sload\n      tag_18\n      swap1\n      tag_13\n      jump\t// in\n    tag_18:\n      dup1\n      0x1f\n      add\n      0x20\n      dup1\n      swap2\n      div\n      mul\n      0x20\n      add\n      mload(0x40)\n      swap1\n      dup2\n      add\n      0x40\n      mstore\n      dup1\n      swap3\n      swap2\n      swap1\n      dup2\n      dup2\n      mstore\n      0x20\n      add\n      dup3\n      dup1\n      sload\n      tag_19\n      swap1\n      tag_13\n      jump\t// in\n    tag_19:\n      dup1\n      iszero\n      tag_20\n      jumpi\n      dup1\n      0x1f\n      lt\n      tag_21\n      jumpi\n      0x0100\n      dup1\n      dup4\n      sload\n      div\n      mul\n      dup4\n      mstore\n      swap2\n      0x20\n      add\n      swap2\n      jump(tag_20)\n    tag_21:\n      dup3\n      add\n      swap2\n      swap1\n      0x00\n      mstore\n      keccak256(0x00, 0x20)\n      swap1\n    tag_22:\n      dup2\n      sload\n      dup2\n      mstore\n      swap1\n      0x01\n      add\n      swap1\n      0x20\n      add\n      dup1\n      dup4\n      gt\n      tag_22\n      jumpi\n      dup3\n      swap1\n      sub\n      0x1f\n      and\n      dup3\n      add\n      swap2\n    tag_20:\n      pop\n      pop\n      pop\n      pop\n      pop\n      swap1\n      pop\n      dup4\n      jump\t// out\n        /* \"#utility.yul\":7:146   */\n    tag_24:\n        /* \"#utility.yul\":53:58   */\n      0x00\n        /* \"#utility.yul\":91:97   */\n      dup2\n        /* \"#utility.yul\":78:98   */\n      calldataload\n        /* \"#utility.yul\":69:98   */\n      swap1\n      pop\n        /* \"#utility.yul\":107:140   */\n      tag_26\n        /* \"#utility.yul\":134:139   */\n      dup2\n        /* \"#utility.yul\":107:140   */\n      tag_27\n      jump\t// in\n    tag_26:\n        /* \"#utility.yul\":7:146   */\n      swap3\n      swap2\n      pop\n      pop\n      jump\t// out\n        /* \"#utility.yul\":152:481   */\n    tag_6:\n        /* \"#utility.yul\":211:217   */\n      0x00\n        /* \"#utility.yul\":260:262   */\n      0x20\n        /* \"#utility.yul\":248:257   */\n      dup3\n        /* \"#utility.yul\":239:246   */\n      dup5\n        /* \"#utility.yul\":235:258   */\n      sub\n        /* \"#utility.yul\":231:263   */\n      slt\n        /* \"#utility.yul\":228:347   */\n      iszero\n      tag_29\n      jumpi\n        /* \"#utility.yul\":266:345   */\n      tag_30\n      tag_31\n      jump\t// in\n    tag_30:\n        /* \"#utility.yul\":228:347   */\n    tag_29:\n        /* \"#utility.yul\":386:387   */\n      0x00\n        /* \"#utility.yul\":411:464   */\n      tag_32\n        /* \"#utility.yul\":456:463   */\n      dup5\n        /* \"#utility.yul\":447:453   */\n      dup3\n        /* \"#utility.yul\":436:445   */\n      dup6\n        /* \"#utility.yul\":432:454   */\n      add\n        /* \"#utility.yul\":411:464   */\n      tag_24\n      jump\t// in\n    tag_32:\n        /* \"#utility.yul\":401:464   */\n      swap2\n      pop\n        /* \"#utility.yul\":357:474   */\n      pop\n        /* \"#utility.yul\":152:481   */\n      swap3\n      swap2\n      pop\n      pop\n      jump\t// out\n        /* \"#utility.yul\":487:851   */\n    tag_33:\n        /* \"#utility.yul\":575:578   */\n      0x00\n        /* \"#utility.yul\":603:642   */\n      tag_35\n        /* \"#utility.yul\":636:641   */\n      dup3\n        /* \"#utility.yul\":603:642   */\n      tag_36\n      jump\t// in\n    tag_35:\n        /* \"#utility.yul\":658:729   */\n      tag_37\n        /* \"#utility.yul\":722:728   */\n      dup2\n        /* \"#utility.yul\":717:720   */\n      dup6\n        /* \"#utility.yul\":658:729   */\n      tag_38\n      jump\t// in\n    tag_37:\n        /* \"#utility.yul\":651:729   */\n      swap4\n      pop\n        /* \"#utility.yul\":738:790   */\n      tag_39\n        /* \"#utility.yul\":783:789   */\n      dup2\n        /* \"#utility.yul\":778:781   */\n      dup6\n        /* \"#utility.yul\":771:775   */\n      0x20\n        /* \"#utility.yul\":764:769   */\n      dup7\n        /* \"#utility.yul\":760:776   */\n      add\n        /* \"#utility.yul\":738:790   */\n      tag_40\n      jump\t// in\n    tag_39:\n        /* \"#utility.yul\":815:844   */\n      tag_41\n        /* \"#utility.yul\":837:843   */\n      dup2\n        /* \"#utility.yul\":815:844   */\n      tag_42\n      jump\t// in\n    tag_41:\n        /* \"#utility.yul\":810:813   */\n      dup5\n        /* \"#utility.yul\":806:845   */\n      add\n        /* \"#utility.yul\":799:845   */\n      swap2\n      pop\n        /* \"#utility.yul\":579:851   */\n      pop\n        /* \"#utility.yul\":487:851   */\n      swap3\n      swap2\n      pop\n      pop\n      jump\t// out\n        /* \"#utility.yul\":857:975   */\n    tag_43:\n        /* \"#utility.yul\":944:968   */\n      tag_45\n        /* \"#utility.yul\":962:967   */\n      dup2\n        /* \"#utility.yul\":944:968   */\n      tag_46\n      jump\t// in\n    tag_45:\n        /* \"#utility.yul\":939:942   */\n      dup3\n        /* \"#utility.yul\":932:969   */\n      mstore\n        /* \"#utility.yul\":857:975   */\n      pop\n      pop\n      jump\t// out\n        /* \"#utility.yul\":981:1605   */\n    tag_9:\n        /* \"#utility.yul\":1170:1174   */\n      0x00\n        /* \"#utility.yul\":1208:1210   */\n      0x60\n        /* \"#utility.yul\":1197:1206   */\n      dup3\n        /* \"#utility.yul\":1193:1211   */\n      add\n        /* \"#utility.yul\":1185:1211   */\n      swap1\n      pop\n        /* \"#utility.yul\":1221:1292   */\n      tag_48\n        /* \"#utility.yul\":1289:1290   */\n      0x00\n        /* \"#utility.yul\":1278:1287   */\n      dup4\n        /* \"#utility.yul\":1274:1291   */\n      add\n        /* \"#utility.yul\":1265:1271   */\n      dup7\n        /* \"#utility.yul\":1221:1292   */\n      tag_43\n      jump\t// in\n    tag_48:\n        /* \"#utility.yul\":1339:1348   */\n      dup2\n        /* \"#utility.yul\":1333:1337   */\n      dup2\n        /* \"#utility.yul\":1329:1349   */\n      sub\n        /* \"#utility.yul\":1324:1326   */\n      0x20\n        /* \"#utility.yul\":1313:1322   */\n      dup4\n        /* \"#utility.yul\":1309:1327   */\n      add\n        /* \"#utility.yul\":1302:1350   */\n      mstore\n        /* \"#utility.yul\":1367:1445   */\n      tag_49\n        /* \"#utility.yul\":1440:1444   */\n      dup2\n        /* \"#utility.yul\":1431:1437   */\n      dup6\n        /* \"#utility.yul\":1367:1445   */\n      tag_33\n      jump\t// in\n    tag_49:\n        /* \"#utility.yul\":1359:1445   */\n      swap1\n      pop\n        /* \"#utility.yul\":1492:1501   */\n      dup2\n        /* \"#utility.yul\":1486:1490   */\n      dup2\n        /* \"#utility.yul\":1482:1502   */\n      sub\n        /* \"#utility.yul\":1477:1479   */\n      0x40\n        /* \"#utility.yul\":1466:1475   */\n      dup4\n        /* \"#utility.yul\":1462:1480   */\n      add\n        /* \"#utility.yul\":1455:1503   */\n      mstore\n        /* \"#utility.yul\":1520:1598   */\n      tag_50\n        /* \"#utility.yul\":1593:1597   */\n      dup2\n        /* \"#utility.yul\":1584:1590   */\n      dup5\n        /* \"#utility.yul\":1520:1598   */\n      tag_33\n      jump\t// in\n    tag_50:\n        /* \"#utility.yul\":1512:1598   */\n      swap1\n      pop\n        /* \"#utility.yul\":981:1605   */\n      swap5\n      swap4\n      pop\n      pop\n      pop\n      pop\n      jump\t// out\n        /* \"#utility.yul\":1692:1791   */\n    tag_36:\n        /* \"#utility.yul\":1744:1750   */\n      0x00\n        /* \"#utility.yul\":1778:1783   */\n      dup2\n        /* \"#utility.yul\":1772:1784   */\n      mload\n        /* \"#utility.yul\":1762:1784   */\n      swap1\n      pop\n        /* \"#utility.yul\":1692:1791   */\n      swap2\n      swap1\n      pop\n      jump\t// out\n        /* \"#utility.yul\":1797:1966   */\n    tag_38:\n        /* \"#utility.yul\":1881:1892   */\n      0x00\n        /* \"#utility.yul\":1915:1921   */\n      dup3\n        /* \"#utility.yul\":1910:1913   */\n      dup3\n        /* \"#utility.yul\":1903:1922   */\n      mstore\n        /* \"#utility.yul\":1955:1959   */\n      0x20\n        /* \"#utility.yul\":1950:1953   */\n      dup3\n        /* \"#utility.yul\":1946:1960   */\n      add\n        /* \"#utility.yul\":1931:1960   */\n      swap1\n      pop\n        /* \"#utility.yul\":1797:1966   */\n      swap3\n      swap2\n      pop\n      pop\n      jump\t// out\n        /* \"#utility.yul\":1972:2049   */\n    tag_46:\n        /* \"#utility.yul\":2009:2016   */\n      0x00\n        /* \"#utility.yul\":2038:2043   */\n      dup2\n        /* \"#utility.yul\":2027:2043   */\n      swap1\n      pop\n        /* \"#utility.yul\":1972:2049   */\n      swap2\n      swap1\n      pop\n      jump\t// out\n        /* \"#utility.yul\":2055:2362   */\n    tag_40:\n        /* \"#utility.yul\":2123:2124   */\n      0x00\n        /* \"#utility.yul\":2133:2246   */\n    tag_57:\n        /* \"#utility.yul\":2147:2153   */\n      dup4\n        /* \"#utility.yul\":2144:2145   */\n      dup2\n        /* \"#utility.yul\":2141:2154   */\n      lt\n        /* \"#utility.yul\":2133:2246   */\n      iszero\n      tag_59\n      jumpi\n        /* \"#utility.yul\":2232:2233   */\n      dup1\n        /* \"#utility.yul\":2227:2230   */\n      dup3\n        /* \"#utility.yul\":2223:2234   */\n      add\n        /* \"#utility.yul\":2217:2235   */\n      mload\n        /* \"#utility.yul\":2213:2214   */\n      dup2\n        /* \"#utility.yul\":2208:2211   */\n      dup5\n        /* \"#utility.yul\":2204:2215   */\n      add\n        /* \"#utility.yul\":2197:2236   */\n      mstore\n        /* \"#utility.yul\":2169:2171   */\n      0x20\n        /* \"#utility.yul\":2166:2167   */\n      dup2\n        /* \"#utility.yul\":2162:2172   */\n      add\n        /* \"#utility.yul\":2157:2172   */\n      swap1\n      pop\n        /* \"#utility.yul\":2133:2246   */\n      jump(tag_57)\n    tag_59:\n        /* \"#utility.yul\":2264:2270   */\n      dup4\n        /* \"#utility.yul\":2261:2262   */\n      dup2\n        /* \"#utility.yul\":2258:2271   */\n      gt\n        /* \"#utility.yul\":2255:2356   */\n      iszero\n      tag_60\n      jumpi\n        /* \"#utility.yul\":2344:2345   */\n      0x00\n        /* \"#utility.yul\":2335:2341   */\n      dup5\n        /* \"#utility.yul\":2330:2333   */\n      dup5\n        /* \"#utility.yul\":2326:2342   */\n      add\n        /* \"#utility.yul\":2319:2346   */\n      mstore\n        /* \"#utility.yul\":2255:2356   */\n    tag_60:\n        /* \"#utility.yul\":2104:2362   */\n      pop\n        /* \"#utility.yul\":2055:2362   */\n      pop\n      pop\n      pop\n      jump\t// out\n        /* \"#utility.yul\":2368:2688   */\n    tag_13:\n        /* \"#utility.yul\":2412:2418   */\n      0x00\n        /* \"#utility.yul\":2449:2450   */\n      0x02\n        /* \"#utility.yul\":2443:2447   */\n      dup3\n        /* \"#utility.yul\":2439:2451   */\n      div\n        /* \"#utility.yul\":2429:2451   */\n      swap1\n      pop\n        /* \"#utility.yul\":2496:2497   */\n      0x01\n        /* \"#utility.yul\":2490:2494   */\n      dup3\n        /* \"#utility.yul\":2486:2498   */\n      and\n        /* \"#utility.yul\":2517:2535   */\n      dup1\n        /* \"#utility.yul\":2507:2588   */\n      tag_62\n      jumpi\n        /* \"#utility.yul\":2573:2577   */\n      0x7f\n        /* \"#utility.yul\":2565:2571   */\n      dup3\n        /* \"#utility.yul\":2561:2578   */\n      and\n        /* \"#utility.yul\":2551:2578   */\n      swap2\n      pop\n        /* \"#utility.yul\":2507:2588   */\n    tag_62:\n        /* \"#utility.yul\":2635:2637   */\n      0x20\n        /* \"#utility.yul\":2627:2633   */\n      dup3\n        /* \"#utility.yul\":2624:2638   */\n      lt\n        /* \"#utility.yul\":2604:2622   */\n      dup2\n        /* \"#utility.yul\":2601:2639   */\n      eq\n        /* \"#utility.yul\":2598:2682   */\n      iszero\n      tag_63\n      jumpi\n        /* \"#utility.yul\":2654:2672   */\n      tag_64\n      tag_65\n      jump\t// in\n    tag_64:\n        /* \"#utility.yul\":2598:2682   */\n    tag_63:\n        /* \"#utility.yul\":2419:2688   */\n      pop\n        /* \"#utility.yul\":2368:2688   */\n      swap2\n      swap1\n      pop\n      jump\t// out\n        /* \"#utility.yul\":2694:2874   */\n    tag_65:\n        /* \"#utility.yul\":2742:2819   */\n      0x4e487b7100000000000000000000000000000000000000000000000000000000\n        /* \"#utility.yul\":2739:2740   */\n      0x00\n        /* \"#utility.yul\":2732:2820   */\n      mstore\n        /* \"#utility.yul\":2839:2843   */\n      0x22\n        /* \"#utility.yul\":2836:2837   */\n      0x04\n        /* \"#utility.yul\":2829:2844   */\n      mstore\n        /* \"#utility.yul\":2863:2867   */\n      0x24\n        /* \"#utility.yul\":2860:2861   */\n      0x00\n        /* \"#utility.yul\":2853:2868   */\n      revert\n        /* \"#utility.yul\":3003:3120   */\n    tag_31:\n        /* \"#utility.yul\":3112:3113   */\n      0x00\n        /* \"#utility.yul\":3109:3110   */\n      dup1\n        /* \"#utility.yul\":3102:3114   */\n      revert\n        /* \"#utility.yul\":3126:3228   */\n    tag_42:\n        /* \"#utility.yul\":3167:3173   */\n      0x00\n        /* \"#utility.yul\":3218:3220   */\n      0x1f\n        /* \"#utility.yul\":3214:3221   */\n      not\n        /* \"#utility.yul\":3209:3211   */\n      0x1f\n        /* \"#utility.yul\":3202:3207   */\n      dup4\n        /* \"#utility.yul\":3198:3212   */\n      add\n        /* \"#utility.yul\":3194:3222   */\n      and\n        /* \"#utility.yul\":3184:3222   */\n      swap1\n      pop\n        /* \"#utility.yul\":3126:3228   */\n      swap2\n      swap1\n      pop\n      jump\t// out\n        /* \"#utility.yul\":3234:3356   */\n    tag_27:\n        /* \"#utility.yul\":3307:3331   */\n      tag_72\n        /* \"#utility.yul\":3325:3330   */\n      dup2\n        /* \"#utility.yul\":3307:3331   */\n      tag_46\n      jump\t// in\n    tag_72:\n        /* \"#utility.yul\":3300:3305   */\n      dup2\n        /* \"#utility.yul\":3297:3332   */\n      eq\n        /* \"#utility.yul\":3287:3350   */\n      tag_73\n      jumpi\n        /* \"#utility.yul\":3346:3347   */\n      0x00\n        /* \"#utility.yul\":3343:3344   */\n      dup1\n        /* \"#utility.yul\":3336:3348   */\n      revert\n        /* \"#utility.yul\":3287:3350   */\n    tag_73:\n        /* \"#utility.yul\":3234:3356   */\n      pop\n      jump\t// out\n\n    auxdata: 0xa26469706673582212203b17ed8cfe0914159687b034ed7dda029f424704463c236d20d74559e3acdbd564736f6c63430008070033\n}\n",
				"bytecode": {
					"linkReferences": {},
					"object": "608060405234801561001057600080fd5b50610398806100206000396000f3fe608060405234801561001057600080fd5b506004361061002b5760003560e01c806350b4471214610030575b600080fd5b61004a600480360381019061004591906101c1565b610062565b60405161005993929190610236565b60405180910390f35b6000818154811061007257600080fd5b906000526020600020906003020160009150905080600001549080600101805461009b906102d4565b80601f01602080910402602001604051908101604052809291908181526020018280546100c7906102d4565b80156101145780601f106100e957610100808354040283529160200191610114565b820191906000526020600020905b8154815290600101906020018083116100f757829003601f168201915b505050505090806002018054610129906102d4565b80601f0160208091040260200160405190810160405280929190818152602001828054610155906102d4565b80156101a25780601f10610177576101008083540402835291602001916101a2565b820191906000526020600020905b81548152906001019060200180831161018557829003601f168201915b5050505050905083565b6000813590506101bb8161034b565b92915050565b6000602082840312156101d7576101d6610335565b5b60006101e5848285016101ac565b91505092915050565b60006101f98261027b565b6102038185610286565b93506102138185602086016102a1565b61021c8161033a565b840191505092915050565b61023081610297565b82525050565b600060608201905061024b6000830186610227565b818103602083015261025d81856101ee565b9050818103604083015261027181846101ee565b9050949350505050565b600081519050919050565b600082825260208201905092915050565b6000819050919050565b60005b838110156102bf5780820151818401526020810190506102a4565b838111156102ce576000848401525b50505050565b600060028204905060018216806102ec57607f821691505b60208210811415610300576102ff610306565b5b50919050565b7f4e487b7100000000000000000000000000000000000000000000000000000000600052602260045260246000fd5b600080fd5b6000601f19601f8301169050919050565b61035481610297565b811461035f57600080fd5b5056fea26469706673582212203b17ed8cfe0914159687b034ed7dda029f424704463c236d20d74559e3acdbd564736f6c63430008070033",
					"opcodes": "PUSH1 0x80 PUSH1 0x40 MSTORE CALLVALUE DUP1 ISZERO PUSH2 0x10 JUMPI PUSH1 0x0 DUP1 REVERT JUMPDEST POP PUSH2 0x398 DUP1 PUSH2 0x20 PUSH1 0x0 CODECOPY PUSH1 0x0 RETURN INVALID PUSH1 0x80 PUSH1 0x40 MSTORE CALLVALUE DUP1 ISZERO PUSH2 0x10 JUMPI PUSH1 0x0 DUP1 REVERT JUMPDEST POP PUSH1 0x4 CALLDATASIZE LT PUSH2 0x2B JUMPI PUSH1 0x0 CALLDATALOAD PUSH1 0xE0 SHR DUP1 PUSH4 0x50B44712 EQ PUSH2 0x30 JUMPI JUMPDEST PUSH1 0x0 DUP1 REVERT JUMPDEST PUSH2 0x4A PUSH1 0x4 DUP1 CALLDATASIZE SUB DUP2 ADD SWAP1 PUSH2 0x45 SWAP2 SWAP1 PUSH2 0x1C1 JUMP JUMPDEST PUSH2 0x62 JUMP JUMPDEST PUSH1 0x40 MLOAD PUSH2 0x59 SWAP4 SWAP3 SWAP2 SWAP1 PUSH2 0x236 JUMP JUMPDEST PUSH1 0x40 MLOAD DUP1 SWAP2 SUB SWAP1 RETURN JUMPDEST PUSH1 0x0 DUP2 DUP2 SLOAD DUP2 LT PUSH2 0x72 JUMPI PUSH1 0x0 DUP1 REVERT JUMPDEST SWAP1 PUSH1 0x0 MSTORE PUSH1 0x20 PUSH1 0x0 KECCAK256 SWAP1 PUSH1 0x3 MUL ADD PUSH1 0x0 SWAP2 POP SWAP1 POP DUP1 PUSH1 0x0 ADD SLOAD SWAP1 DUP1 PUSH1 0x1 ADD DUP1 SLOAD PUSH2 0x9B SWAP1 PUSH2 0x2D4 JUMP JUMPDEST DUP1 PUSH1 0x1F ADD PUSH1 0x20 DUP1 SWAP2 DIV MUL PUSH1 0x20 ADD PUSH1 0x40 MLOAD SWAP1 DUP2 ADD PUSH1 0x40 MSTORE DUP1 SWAP3 SWAP2 SWAP1 DUP2 DUP2 MSTORE PUSH1 0x20 ADD DUP3 DUP1 SLOAD PUSH2 0xC7 SWAP1 PUSH2 0x2D4 JUMP JUMPDEST DUP1 ISZERO PUSH2 0x114 JUMPI DUP1 PUSH1 0x1F LT PUSH2 0xE9 JUMPI PUSH2 0x100 DUP1 DUP4 SLOAD DIV MUL DUP4 MSTORE SWAP2 PUSH1 0x20 ADD SWAP2 PUSH2 0x114 JUMP JUMPDEST DUP3 ADD SWAP2 SWAP1 PUSH1 0x0 MSTORE PUSH1 0x20 PUSH1 0x0 KECCAK256 SWAP1 JUMPDEST DUP2 SLOAD DUP2 MSTORE SWAP1 PUSH1 0x1 ADD SWAP1 PUSH1 0x20 ADD DUP1 DUP4 GT PUSH2 0xF7 JUMPI DUP3 SWAP1 SUB PUSH1 0x1F AND DUP3 ADD SWAP2 JUMPDEST POP POP POP POP POP SWAP1 DUP1 PUSH1 0x2 ADD DUP1 SLOAD PUSH2 0x129 SWAP1 PUSH2 0x2D4 JUMP JUMPDEST DUP1 PUSH1 0x1F ADD PUSH1 0x20 DUP1 SWAP2 DIV MUL PUSH1 0x20 ADD PUSH1 0x40 MLOAD SWAP1 DUP2 ADD PUSH1 0x40 MSTORE DUP1 SWAP3 SWAP2 SWAP1 DUP2 DUP2 MSTORE PUSH1 0x20 ADD DUP3 DUP1 SLOAD PUSH2 0x155 SWAP1 PUSH2 0x2D4 JUMP JUMPDEST DUP1 ISZERO PUSH2 0x1A2 JUMPI DUP1 PUSH1 0x1F LT PUSH2 0x177 JUMPI PUSH2 0x100 DUP1 DUP4 SLOAD DIV MUL DUP4 MSTORE SWAP2 PUSH1 0x20 ADD SWAP2 PUSH2 0x1A2 JUMP JUMPDEST DUP3 ADD SWAP2 SWAP1 PUSH1 0x0 MSTORE PUSH1 0x20 PUSH1 0x0 KECCAK256 SWAP1 JUMPDEST DUP2 SLOAD DUP2 MSTORE SWAP1 PUSH1 0x1 ADD SWAP1 PUSH1 0x20 ADD DUP1 DUP4 GT PUSH2 0x185 JUMPI DUP3 SWAP1 SUB PUSH1 0x1F AND DUP3 ADD SWAP2 JUMPDEST POP POP POP POP POP SWAP1 POP DUP4 JUMP JUMPDEST PUSH1 0x0 DUP2 CALLDATALOAD SWAP1 POP PUSH2 0x1BB DUP2 PUSH2 0x34B JUMP JUMPDEST SWAP3 SWAP2 POP POP JUMP JUMPDEST PUSH1 0x0 PUSH1 0x20 DUP3 DUP5 SUB SLT ISZERO PUSH2 0x1D7 JUMPI PUSH2 0x1D6 PUSH2 0x335 JUMP JUMPDEST JUMPDEST PUSH1 0x0 PUSH2 0x1E5 DUP5 DUP3 DUP6 ADD PUSH2 0x1AC JUMP JUMPDEST SWAP2 POP POP SWAP3 SWAP2 POP POP JUMP JUMPDEST PUSH1 0x0 PUSH2 0x1F9 DUP3 PUSH2 0x27B JUMP JUMPDEST PUSH2 0x203 DUP2 DUP6 PUSH2 0x286 JUMP JUMPDEST SWAP4 POP PUSH2 0x213 DUP2 DUP6 PUSH1 0x20 DUP7 ADD PUSH2 0x2A1 JUMP JUMPDEST PUSH2 0x21C DUP2 PUSH2 0x33A JUMP JUMPDEST DUP5 ADD SWAP2 POP POP SWAP3 SWAP2 POP POP JUMP JUMPDEST PUSH2 0x230 DUP2 PUSH2 0x297 JUMP JUMPDEST DUP3 MSTORE POP POP JUMP JUMPDEST PUSH1 0x0 PUSH1 0x60 DUP3 ADD SWAP1 POP PUSH2 0x24B PUSH1 0x0 DUP4 ADD DUP7 PUSH2 0x227 JUMP JUMPDEST DUP2 DUP2 SUB PUSH1 0x20 DUP4 ADD MSTORE PUSH2 0x25D DUP2 DUP6 PUSH2 0x1EE JUMP JUMPDEST SWAP1 POP DUP2 DUP2 SUB PUSH1 0x40 DUP4 ADD MSTORE PUSH2 0x271 DUP2 DUP5 PUSH2 0x1EE JUMP JUMPDEST SWAP1 POP SWAP5 SWAP4 POP POP POP POP JUMP JUMPDEST PUSH1 0x0 DUP2 MLOAD SWAP1 POP SWAP2 SWAP1 POP JUMP JUMPDEST PUSH1 0x0 DUP3 DUP3 MSTORE PUSH1 0x20 DUP3 ADD SWAP1 POP SWAP3 SWAP2 POP POP JUMP JUMPDEST PUSH1 0x0 DUP2 SWAP1 POP SWAP2 SWAP1 POP JUMP JUMPDEST PUSH1 0x0 JUMPDEST DUP4 DUP2 LT ISZERO PUSH2 0x2BF JUMPI DUP1 DUP3 ADD MLOAD DUP2 DUP5 ADD MSTORE PUSH1 0x20 DUP2 ADD SWAP1 POP PUSH2 0x2A4 JUMP JUMPDEST DUP4 DUP2 GT ISZERO PUSH2 0x2CE JUMPI PUSH1 0x0 DUP5 DUP5 ADD MSTORE JUMPDEST POP POP POP POP JUMP JUMPDEST PUSH1 0x0 PUSH1 0x2 DUP3 DIV SWAP1 POP PUSH1 0x1 DUP3 AND DUP1 PUSH2 0x2EC JUMPI PUSH1 0x7F DUP3 AND SWAP2 POP JUMPDEST PUSH1 0x20 DUP3 LT DUP2 EQ ISZERO PUSH2 0x300 JUMPI PUSH2 0x2FF PUSH2 0x306 JUMP JUMPDEST JUMPDEST POP SWAP2 SWAP1 POP JUMP JUMPDEST PUSH32 0x4E487B7100000000000000000000000000000000000000000000000000000000 PUSH1 0x0 MSTORE PUSH1 0x22 PUSH1 0x4 MSTORE PUSH1 0x24 PUSH1 0x0 REVERT JUMPDEST PUSH1 0x0 DUP1 REVERT JUMPDEST PUSH1 0x0 PUSH1 0x1F NOT PUSH1 0x1F DUP4 ADD AND SWAP1 POP SWAP2 SWAP1 POP JUMP JUMPDEST PUSH2 0x354 DUP2 PUSH2 0x297 JUMP JUMPDEST DUP2 EQ PUSH2 0x35F JUMPI PUSH1 0x0 DUP1 REVERT JUMPDEST POP JUMP INVALID LOG2 PUSH5 0x6970667358 0x22 SLT KECCAK256 EXTCODESIZE OR 0xED DUP13 INVALID MULMOD EQ ISZERO SWAP7 DUP8 0xB0 CALLVALUE 0xED PUSH30 0xDA029F424704463C236D20D74559E3ACDBD564736F6C6343000807003300 "
				},
				"gasEstimates": {
					"creation": {
						"codeDepositCost": "184000",
						"executionCost": "226",
						"totalCost": "184226"
					},
					"external": {
						"tickets(uint256)": "infinite"
					},
					"internal": {
						"_createTicket(uint256,string memory,string memory)": "infinite",
						"generateRefNo(string memory)": "infinite"
					}
				},
				"methodIdentifiers": {
					"tickets(uint256)": "50b44712"
				}
			},
			"storageLayout": {
				"storage": [
					{
						"astId": 12,
						"contract": "contracts/CreateTicket.sol:NewTicket",
						"label": "tickets",
						"offset": 0,
						"slot": "0",
						"type": "t_array(t_struct(Ticket)8_storage)dyn_storage"
					}
				],
				"types": {
					"t_array(t_struct(Ticket)8_storage)dyn_storage": {
						"base": "t_struct(Ticket)8_storage",
						"encoding": "dynamic_array",
						"label": "struct NewTicket.Ticket[]",
						"numberOfBytes": "32"
					},
					"t_string_storage": {
						"encoding": "bytes",
						"label": "string",
						"numberOfBytes": "32"
					},
					"t_struct(Ticket)8_storage": {
						"encoding": "inplace",
						"label": "struct NewTicket.Ticket",
						"members": [
							{
								"astId": 3,
								"contract": "contracts/CreateTicket.sol:NewTicket",
								"label": "refNo",
								"offset": 0,
								"slot": "0",
								"type": "t_uint256"
							},
							{
								"astId": 5,
								"contract": "contracts/CreateTicket.sol:NewTicket",
								"label": "authority",
								"offset": 0,
								"slot": "1",
								"type": "t_string_storage"
							},
							{
								"astId": 7,
								"contract": "contracts/CreateTicket.sol:NewTicket",
								"label": "link",
								"offset": 0,
								"slot": "2",
								"type": "t_string_storage"
							}
						],
						"numberOfBytes": "96"
					},
					"t_uint256": {
						"encoding": "inplace",
						"label": "uint256",
						"numberOfBytes": "32"
					}
				}
			},
			"userdoc": {
				"kind": "user",
				"methods": {},
				"version": 1
			}
		}
	}
}