{
	"contracts/CreateTicket.sol": {
		"NewTicket": {
			"abi": [
				{
					"inputs": [
						{
							"internalType": "string",
							"name": "_authority",
							"type": "string"
						},
						{
							"internalType": "string",
							"name": "_link",
							"type": "string"
						}
					],
					"name": "createNewTicket",
					"outputs": [],
					"stateMutability": "nonpayable",
					"type": "function"
				},
				{
					"inputs": [
						{
							"internalType": "uint256",
							"name": "",
							"type": "uint256"
						}
					],
					"name": "tickets",
					"outputs": [
						{
							"internalType": "uint256",
							"name": "refNo",
							"type": "uint256"
						},
						{
							"internalType": "string",
							"name": "authority",
							"type": "string"
						},
						{
							"internalType": "string",
							"name": "link",
							"type": "string"
						}
					],
					"stateMutability": "view",
					"type": "function"
				}
			],
			"devdoc": {
				"kind": "dev",
				"methods": {},
				"version": 1
			},
			"evm": {
				"assembly": "    /* \"contracts/CreateTicket.sol\":70:668  contract NewTicket {\r... */\n  mstore(0x40, 0x80)\n  callvalue\n  dup1\n  iszero\n  tag_1\n  jumpi\n  0x00\n  dup1\n  revert\ntag_1:\n  pop\n  dataSize(sub_0)\n  dup1\n  dataOffset(sub_0)\n  0x00\n  codecopy\n  0x00\n  return\nstop\n\nsub_0: assembly {\n        /* \"contracts/CreateTicket.sol\":70:668  contract NewTicket {\r... */\n      mstore(0x40, 0x80)\n      callvalue\n      dup1\n      iszero\n      tag_1\n      jumpi\n      0x00\n      dup1\n      revert\n    tag_1:\n      pop\n      jumpi(tag_2, lt(calldatasize, 0x04))\n      shr(0xe0, calldataload(0x00))\n      dup1\n      0x50b44712\n      eq\n      tag_3\n      jumpi\n      dup1\n      0xe0a08f27\n      eq\n      tag_4\n      jumpi\n    tag_2:\n      0x00\n      dup1\n      revert\n        /* \"contracts/CreateTicket.sol\":198:221  Ticket[] public tickets */\n    tag_3:\n      tag_5\n      0x04\n      dup1\n      calldatasize\n      sub\n      dup2\n      add\n      swap1\n      tag_6\n      swap2\n      swap1\n      tag_7\n      jump\t// in\n    tag_6:\n      tag_8\n      jump\t// in\n    tag_5:\n      mload(0x40)\n      tag_9\n      swap4\n      swap3\n      swap2\n      swap1\n      tag_10\n      jump\t// in\n    tag_9:\n      mload(0x40)\n      dup1\n      swap2\n      sub\n      swap1\n      return\n        /* \"contracts/CreateTicket.sol\":568:665  function createNewTicket(string memory _authority, string memory _link) public {\r... */\n    tag_4:\n      tag_11\n      0x04\n      dup1\n      calldatasize\n      sub\n      dup2\n      add\n      swap1\n      tag_12\n      swap2\n      swap1\n      tag_13\n      jump\t// in\n    tag_12:\n      tag_14\n      jump\t// in\n    tag_11:\n      stop\n        /* \"contracts/CreateTicket.sol\":198:221  Ticket[] public tickets */\n    tag_8:\n      0x00\n      dup2\n      dup2\n      sload\n      dup2\n      lt\n      tag_15\n      jumpi\n      0x00\n      dup1\n      revert\n    tag_15:\n      swap1\n      0x00\n      mstore\n      keccak256(0x00, 0x20)\n      swap1\n      0x03\n      mul\n      add\n      0x00\n      swap2\n      pop\n      swap1\n      pop\n      dup1\n      0x00\n      add\n      sload\n      swap1\n      dup1\n      0x01\n      add\n      dup1\n      sload\n      tag_17\n      swap1\n      tag_18\n      jump\t// in\n    tag_17:\n      dup1\n      0x1f\n      add\n      0x20\n      dup1\n      swap2\n      div\n      mul\n      0x20\n      add\n      mload(0x40)\n      swap1\n      dup2\n      add\n      0x40\n      mstore\n      dup1\n      swap3\n      swap2\n      swap1\n      dup2\n      dup2\n      mstore\n      0x20\n      add\n      dup3\n      dup1\n      sload\n      tag_19\n      swap1\n      tag_18\n      jump\t// in\n    tag_19:\n      dup1\n      iszero\n      tag_20\n      jumpi\n      dup1\n      0x1f\n      lt\n      tag_21\n      jumpi\n      0x0100\n      dup1\n      dup4\n      sload\n      div\n      mul\n      dup4\n      mstore\n      swap2\n      0x20\n      add\n      swap2\n      jump(tag_20)\n    tag_21:\n      dup3\n      add\n      swap2\n      swap1\n      0x00\n      mstore\n      keccak256(0x00, 0x20)\n      swap1\n    tag_22:\n      dup2\n      sload\n      dup2\n      mstore\n      swap1\n      0x01\n      add\n      swap1\n      0x20\n      add\n      dup1\n      dup4\n      gt\n      tag_22\n      jumpi\n      dup3\n      swap1\n      sub\n      0x1f\n      and\n      dup3\n      add\n      swap2\n    tag_20:\n      pop\n      pop\n      pop\n      pop\n      pop\n      swap1\n      dup1\n      0x02\n      add\n      dup1\n      sload\n      tag_23\n      swap1\n      tag_18\n      jump\t// in\n    tag_23:\n      dup1\n      0x1f\n      add\n      0x20\n      dup1\n      swap2\n      div\n      mul\n      0x20\n      add\n      mload(0x40)\n      swap1\n      dup2\n      add\n      0x40\n      mstore\n      dup1\n      swap3\n      swap2\n      swap1\n      dup2\n      dup2\n      mstore\n      0x20\n      add\n      dup3\n      dup1\n      sload\n      tag_24\n      swap1\n      tag_18\n      jump\t// in\n    tag_24:\n      dup1\n      iszero\n      tag_25\n      jumpi\n      dup1\n      0x1f\n      lt\n      tag_26\n      jumpi\n      0x0100\n      dup1\n      dup4\n      sload\n      div\n      mul\n      dup4\n      mstore\n      swap2\n      0x20\n      add\n      swap2\n      jump(tag_25)\n    tag_26:\n      dup3\n      add\n      swap2\n      swap1\n      0x00\n      mstore\n      keccak256(0x00, 0x20)\n      swap1\n    tag_27:\n      dup2\n      sload\n      dup2\n      mstore\n      swap1\n      0x01\n      add\n      swap1\n      0x20\n      add\n      dup1\n      dup4\n      gt\n      tag_27\n      jumpi\n      dup3\n      swap1\n      sub\n      0x1f\n      and\n      dup3\n      add\n      swap2\n    tag_25:\n      pop\n      pop\n      pop\n      pop\n      pop\n      swap1\n      pop\n      dup4\n      jump\t// out\n        /* \"contracts/CreateTicket.sol\":568:665  function createNewTicket(string memory _authority, string memory _link) public {\r... */\n    tag_14:\n      pop\n      pop\n      jump\t// out\n        /* \"#utility.yul\":7:419   */\n    tag_30:\n        /* \"#utility.yul\":85:90   */\n      0x00\n        /* \"#utility.yul\":110:176   */\n      tag_32\n        /* \"#utility.yul\":126:175   */\n      tag_33\n        /* \"#utility.yul\":168:174   */\n      dup5\n        /* \"#utility.yul\":126:175   */\n      tag_34\n      jump\t// in\n    tag_33:\n        /* \"#utility.yul\":110:176   */\n      tag_35\n      jump\t// in\n    tag_32:\n        /* \"#utility.yul\":101:176   */\n      swap1\n      pop\n        /* \"#utility.yul\":199:205   */\n      dup3\n        /* \"#utility.yul\":192:197   */\n      dup2\n        /* \"#utility.yul\":185:206   */\n      mstore\n        /* \"#utility.yul\":237:241   */\n      0x20\n        /* \"#utility.yul\":230:235   */\n      dup2\n        /* \"#utility.yul\":226:242   */\n      add\n        /* \"#utility.yul\":275:278   */\n      dup5\n        /* \"#utility.yul\":266:272   */\n      dup5\n        /* \"#utility.yul\":261:264   */\n      dup5\n        /* \"#utility.yul\":257:273   */\n      add\n        /* \"#utility.yul\":254:279   */\n      gt\n        /* \"#utility.yul\":251:363   */\n      iszero\n      tag_36\n      jumpi\n        /* \"#utility.yul\":282:361   */\n      tag_37\n      tag_38\n      jump\t// in\n    tag_37:\n        /* \"#utility.yul\":251:363   */\n    tag_36:\n        /* \"#utility.yul\":372:413   */\n      tag_39\n        /* \"#utility.yul\":406:412   */\n      dup5\n        /* \"#utility.yul\":401:404   */\n      dup3\n        /* \"#utility.yul\":396:399   */\n      dup6\n        /* \"#utility.yul\":372:413   */\n      tag_40\n      jump\t// in\n    tag_39:\n        /* \"#utility.yul\":91:419   */\n      pop\n        /* \"#utility.yul\":7:419   */\n      swap4\n      swap3\n      pop\n      pop\n      pop\n      jump\t// out\n        /* \"#utility.yul\":439:779   */\n    tag_41:\n        /* \"#utility.yul\":495:500   */\n      0x00\n        /* \"#utility.yul\":544:547   */\n      dup3\n        /* \"#utility.yul\":537:541   */\n      0x1f\n        /* \"#utility.yul\":529:535   */\n      dup4\n        /* \"#utility.yul\":525:542   */\n      add\n        /* \"#utility.yul\":521:548   */\n      slt\n        /* \"#utility.yul\":511:633   */\n      tag_43\n      jumpi\n        /* \"#utility.yul\":552:631   */\n      tag_44\n      tag_45\n      jump\t// in\n    tag_44:\n        /* \"#utility.yul\":511:633   */\n    tag_43:\n        /* \"#utility.yul\":669:675   */\n      dup2\n        /* \"#utility.yul\":656:676   */\n      calldataload\n        /* \"#utility.yul\":694:773   */\n      tag_46\n        /* \"#utility.yul\":769:772   */\n      dup5\n        /* \"#utility.yul\":761:767   */\n      dup3\n        /* \"#utility.yul\":754:758   */\n      0x20\n        /* \"#utility.yul\":746:752   */\n      dup7\n        /* \"#utility.yul\":742:759   */\n      add\n        /* \"#utility.yul\":694:773   */\n      tag_30\n      jump\t// in\n    tag_46:\n        /* \"#utility.yul\":685:773   */\n      swap2\n      pop\n        /* \"#utility.yul\":501:779   */\n      pop\n        /* \"#utility.yul\":439:779   */\n      swap3\n      swap2\n      pop\n      pop\n      jump\t// out\n        /* \"#utility.yul\":785:924   */\n    tag_47:\n        /* \"#utility.yul\":831:836   */\n      0x00\n        /* \"#utility.yul\":869:875   */\n      dup2\n        /* \"#utility.yul\":856:876   */\n      calldataload\n        /* \"#utility.yul\":847:876   */\n      swap1\n      pop\n        /* \"#utility.yul\":885:918   */\n      tag_49\n        /* \"#utility.yul\":912:917   */\n      dup2\n        /* \"#utility.yul\":885:918   */\n      tag_50\n      jump\t// in\n    tag_49:\n        /* \"#utility.yul\":785:924   */\n      swap3\n      swap2\n      pop\n      pop\n      jump\t// out\n        /* \"#utility.yul\":930:1764   */\n    tag_13:\n        /* \"#utility.yul\":1018:1024   */\n      0x00\n        /* \"#utility.yul\":1026:1032   */\n      dup1\n        /* \"#utility.yul\":1075:1077   */\n      0x40\n        /* \"#utility.yul\":1063:1072   */\n      dup4\n        /* \"#utility.yul\":1054:1061   */\n      dup6\n        /* \"#utility.yul\":1050:1073   */\n      sub\n        /* \"#utility.yul\":1046:1078   */\n      slt\n        /* \"#utility.yul\":1043:1162   */\n      iszero\n      tag_52\n      jumpi\n        /* \"#utility.yul\":1081:1160   */\n      tag_53\n      tag_54\n      jump\t// in\n    tag_53:\n        /* \"#utility.yul\":1043:1162   */\n    tag_52:\n        /* \"#utility.yul\":1229:1230   */\n      0x00\n        /* \"#utility.yul\":1218:1227   */\n      dup4\n        /* \"#utility.yul\":1214:1231   */\n      add\n        /* \"#utility.yul\":1201:1232   */\n      calldataload\n        /* \"#utility.yul\":1259:1277   */\n      0xffffffffffffffff\n        /* \"#utility.yul\":1251:1257   */\n      dup2\n        /* \"#utility.yul\":1248:1278   */\n      gt\n        /* \"#utility.yul\":1245:1362   */\n      iszero\n      tag_55\n      jumpi\n        /* \"#utility.yul\":1281:1360   */\n      tag_56\n      tag_57\n      jump\t// in\n    tag_56:\n        /* \"#utility.yul\":1245:1362   */\n    tag_55:\n        /* \"#utility.yul\":1386:1449   */\n      tag_58\n        /* \"#utility.yul\":1441:1448   */\n      dup6\n        /* \"#utility.yul\":1432:1438   */\n      dup3\n        /* \"#utility.yul\":1421:1430   */\n      dup7\n        /* \"#utility.yul\":1417:1439   */\n      add\n        /* \"#utility.yul\":1386:1449   */\n      tag_41\n      jump\t// in\n    tag_58:\n        /* \"#utility.yul\":1376:1449   */\n      swap3\n      pop\n        /* \"#utility.yul\":1172:1459   */\n      pop\n        /* \"#utility.yul\":1526:1528   */\n      0x20\n        /* \"#utility.yul\":1515:1524   */\n      dup4\n        /* \"#utility.yul\":1511:1529   */\n      add\n        /* \"#utility.yul\":1498:1530   */\n      calldataload\n        /* \"#utility.yul\":1557:1575   */\n      0xffffffffffffffff\n        /* \"#utility.yul\":1549:1555   */\n      dup2\n        /* \"#utility.yul\":1546:1576   */\n      gt\n        /* \"#utility.yul\":1543:1660   */\n      iszero\n      tag_59\n      jumpi\n        /* \"#utility.yul\":1579:1658   */\n      tag_60\n      tag_57\n      jump\t// in\n    tag_60:\n        /* \"#utility.yul\":1543:1660   */\n    tag_59:\n        /* \"#utility.yul\":1684:1747   */\n      tag_61\n        /* \"#utility.yul\":1739:1746   */\n      dup6\n        /* \"#utility.yul\":1730:1736   */\n      dup3\n        /* \"#utility.yul\":1719:1728   */\n      dup7\n        /* \"#utility.yul\":1715:1737   */\n      add\n        /* \"#utility.yul\":1684:1747   */\n      tag_41\n      jump\t// in\n    tag_61:\n        /* \"#utility.yul\":1674:1747   */\n      swap2\n      pop\n        /* \"#utility.yul\":1469:1757   */\n      pop\n        /* \"#utility.yul\":930:1764   */\n      swap3\n      pop\n      swap3\n      swap1\n      pop\n      jump\t// out\n        /* \"#utility.yul\":1770:2099   */\n    tag_7:\n        /* \"#utility.yul\":1829:1835   */\n      0x00\n        /* \"#utility.yul\":1878:1880   */\n      0x20\n        /* \"#utility.yul\":1866:1875   */\n      dup3\n        /* \"#utility.yul\":1857:1864   */\n      dup5\n        /* \"#utility.yul\":1853:1876   */\n      sub\n        /* \"#utility.yul\":1849:1881   */\n      slt\n        /* \"#utility.yul\":1846:1965   */\n      iszero\n      tag_63\n      jumpi\n        /* \"#utility.yul\":1884:1963   */\n      tag_64\n      tag_54\n      jump\t// in\n    tag_64:\n        /* \"#utility.yul\":1846:1965   */\n    tag_63:\n        /* \"#utility.yul\":2004:2005   */\n      0x00\n        /* \"#utility.yul\":2029:2082   */\n      tag_65\n        /* \"#utility.yul\":2074:2081   */\n      dup5\n        /* \"#utility.yul\":2065:2071   */\n      dup3\n        /* \"#utility.yul\":2054:2063   */\n      dup6\n        /* \"#utility.yul\":2050:2072   */\n      add\n        /* \"#utility.yul\":2029:2082   */\n      tag_47\n      jump\t// in\n    tag_65:\n        /* \"#utility.yul\":2019:2082   */\n      swap2\n      pop\n        /* \"#utility.yul\":1975:2092   */\n      pop\n        /* \"#utility.yul\":1770:2099   */\n      swap3\n      swap2\n      pop\n      pop\n      jump\t// out\n        /* \"#utility.yul\":2105:2469   */\n    tag_66:\n        /* \"#utility.yul\":2193:2196   */\n      0x00\n        /* \"#utility.yul\":2221:2260   */\n      tag_68\n        /* \"#utility.yul\":2254:2259   */\n      dup3\n        /* \"#utility.yul\":2221:2260   */\n      tag_69\n      jump\t// in\n    tag_68:\n        /* \"#utility.yul\":2276:2347   */\n      tag_70\n        /* \"#utility.yul\":2340:2346   */\n      dup2\n        /* \"#utility.yul\":2335:2338   */\n      dup6\n        /* \"#utility.yul\":2276:2347   */\n      tag_71\n      jump\t// in\n    tag_70:\n        /* \"#utility.yul\":2269:2347   */\n      swap4\n      pop\n        /* \"#utility.yul\":2356:2408   */\n      tag_72\n        /* \"#utility.yul\":2401:2407   */\n      dup2\n        /* \"#utility.yul\":2396:2399   */\n      dup6\n        /* \"#utility.yul\":2389:2393   */\n      0x20\n        /* \"#utility.yul\":2382:2387   */\n      dup7\n        /* \"#utility.yul\":2378:2394   */\n      add\n        /* \"#utility.yul\":2356:2408   */\n      tag_73\n      jump\t// in\n    tag_72:\n        /* \"#utility.yul\":2433:2462   */\n      tag_74\n        /* \"#utility.yul\":2455:2461   */\n      dup2\n        /* \"#utility.yul\":2433:2462   */\n      tag_75\n      jump\t// in\n    tag_74:\n        /* \"#utility.yul\":2428:2431   */\n      dup5\n        /* \"#utility.yul\":2424:2463   */\n      add\n        /* \"#utility.yul\":2417:2463   */\n      swap2\n      pop\n        /* \"#utility.yul\":2197:2469   */\n      pop\n        /* \"#utility.yul\":2105:2469   */\n      swap3\n      swap2\n      pop\n      pop\n      jump\t// out\n        /* \"#utility.yul\":2475:2593   */\n    tag_76:\n        /* \"#utility.yul\":2562:2586   */\n      tag_78\n        /* \"#utility.yul\":2580:2585   */\n      dup2\n        /* \"#utility.yul\":2562:2586   */\n      tag_79\n      jump\t// in\n    tag_78:\n        /* \"#utility.yul\":2557:2560   */\n      dup3\n        /* \"#utility.yul\":2550:2587   */\n      mstore\n        /* \"#utility.yul\":2475:2593   */\n      pop\n      pop\n      jump\t// out\n        /* \"#utility.yul\":2599:3223   */\n    tag_10:\n        /* \"#utility.yul\":2788:2792   */\n      0x00\n        /* \"#utility.yul\":2826:2828   */\n      0x60\n        /* \"#utility.yul\":2815:2824   */\n      dup3\n        /* \"#utility.yul\":2811:2829   */\n      add\n        /* \"#utility.yul\":2803:2829   */\n      swap1\n      pop\n        /* \"#utility.yul\":2839:2910   */\n      tag_81\n        /* \"#utility.yul\":2907:2908   */\n      0x00\n        /* \"#utility.yul\":2896:2905   */\n      dup4\n        /* \"#utility.yul\":2892:2909   */\n      add\n        /* \"#utility.yul\":2883:2889   */\n      dup7\n        /* \"#utility.yul\":2839:2910   */\n      tag_76\n      jump\t// in\n    tag_81:\n        /* \"#utility.yul\":2957:2966   */\n      dup2\n        /* \"#utility.yul\":2951:2955   */\n      dup2\n        /* \"#utility.yul\":2947:2967   */\n      sub\n        /* \"#utility.yul\":2942:2944   */\n      0x20\n        /* \"#utility.yul\":2931:2940   */\n      dup4\n        /* \"#utility.yul\":2927:2945   */\n      add\n        /* \"#utility.yul\":2920:2968   */\n      mstore\n        /* \"#utility.yul\":2985:3063   */\n      tag_82\n        /* \"#utility.yul\":3058:3062   */\n      dup2\n        /* \"#utility.yul\":3049:3055   */\n      dup6\n        /* \"#utility.yul\":2985:3063   */\n      tag_66\n      jump\t// in\n    tag_82:\n        /* \"#utility.yul\":2977:3063   */\n      swap1\n      pop\n        /* \"#utility.yul\":3110:3119   */\n      dup2\n        /* \"#utility.yul\":3104:3108   */\n      dup2\n        /* \"#utility.yul\":3100:3120   */\n      sub\n        /* \"#utility.yul\":3095:3097   */\n      0x40\n        /* \"#utility.yul\":3084:3093   */\n      dup4\n        /* \"#utility.yul\":3080:3098   */\n      add\n        /* \"#utility.yul\":3073:3121   */\n      mstore\n        /* \"#utility.yul\":3138:3216   */\n      tag_83\n        /* \"#utility.yul\":3211:3215   */\n      dup2\n        /* \"#utility.yul\":3202:3208   */\n      dup5\n        /* \"#utility.yul\":3138:3216   */\n      tag_66\n      jump\t// in\n    tag_83:\n        /* \"#utility.yul\":3130:3216   */\n      swap1\n      pop\n        /* \"#utility.yul\":2599:3223   */\n      swap5\n      swap4\n      pop\n      pop\n      pop\n      pop\n      jump\t// out\n        /* \"#utility.yul\":3229:3358   */\n    tag_35:\n        /* \"#utility.yul\":3263:3269   */\n      0x00\n        /* \"#utility.yul\":3290:3310   */\n      tag_85\n      tag_86\n      jump\t// in\n    tag_85:\n        /* \"#utility.yul\":3280:3310   */\n      swap1\n      pop\n        /* \"#utility.yul\":3319:3352   */\n      tag_87\n        /* \"#utility.yul\":3347:3351   */\n      dup3\n        /* \"#utility.yul\":3339:3345   */\n      dup3\n        /* \"#utility.yul\":3319:3352   */\n      tag_88\n      jump\t// in\n    tag_87:\n        /* \"#utility.yul\":3229:3358   */\n      swap2\n      swap1\n      pop\n      jump\t// out\n        /* \"#utility.yul\":3364:3439   */\n    tag_86:\n        /* \"#utility.yul\":3397:3403   */\n      0x00\n        /* \"#utility.yul\":3430:3432   */\n      0x40\n        /* \"#utility.yul\":3424:3433   */\n      mload\n        /* \"#utility.yul\":3414:3433   */\n      swap1\n      pop\n        /* \"#utility.yul\":3364:3439   */\n      swap1\n      jump\t// out\n        /* \"#utility.yul\":3445:3753   */\n    tag_34:\n        /* \"#utility.yul\":3507:3511   */\n      0x00\n        /* \"#utility.yul\":3597:3615   */\n      0xffffffffffffffff\n        /* \"#utility.yul\":3589:3595   */\n      dup3\n        /* \"#utility.yul\":3586:3616   */\n      gt\n        /* \"#utility.yul\":3583:3639   */\n      iszero\n      tag_91\n      jumpi\n        /* \"#utility.yul\":3619:3637   */\n      tag_92\n      tag_93\n      jump\t// in\n    tag_92:\n        /* \"#utility.yul\":3583:3639   */\n    tag_91:\n        /* \"#utility.yul\":3657:3686   */\n      tag_94\n        /* \"#utility.yul\":3679:3685   */\n      dup3\n        /* \"#utility.yul\":3657:3686   */\n      tag_75\n      jump\t// in\n    tag_94:\n        /* \"#utility.yul\":3649:3686   */\n      swap1\n      pop\n        /* \"#utility.yul\":3741:3745   */\n      0x20\n        /* \"#utility.yul\":3735:3739   */\n      dup2\n        /* \"#utility.yul\":3731:3746   */\n      add\n        /* \"#utility.yul\":3723:3746   */\n      swap1\n      pop\n        /* \"#utility.yul\":3445:3753   */\n      swap2\n      swap1\n      pop\n      jump\t// out\n        /* \"#utility.yul\":3759:3858   */\n    tag_69:\n        /* \"#utility.yul\":3811:3817   */\n      0x00\n        /* \"#utility.yul\":3845:3850   */\n      dup2\n        /* \"#utility.yul\":3839:3851   */\n      mload\n        /* \"#utility.yul\":3829:3851   */\n      swap1\n      pop\n        /* \"#utility.yul\":3759:3858   */\n      swap2\n      swap1\n      pop\n      jump\t// out\n        /* \"#utility.yul\":3864:4033   */\n    tag_71:\n        /* \"#utility.yul\":3948:3959   */\n      0x00\n        /* \"#utility.yul\":3982:3988   */\n      dup3\n        /* \"#utility.yul\":3977:3980   */\n      dup3\n        /* \"#utility.yul\":3970:3989   */\n      mstore\n        /* \"#utility.yul\":4022:4026   */\n      0x20\n        /* \"#utility.yul\":4017:4020   */\n      dup3\n        /* \"#utility.yul\":4013:4027   */\n      add\n        /* \"#utility.yul\":3998:4027   */\n      swap1\n      pop\n        /* \"#utility.yul\":3864:4033   */\n      swap3\n      swap2\n      pop\n      pop\n      jump\t// out\n        /* \"#utility.yul\":4039:4116   */\n    tag_79:\n        /* \"#utility.yul\":4076:4083   */\n      0x00\n        /* \"#utility.yul\":4105:4110   */\n      dup2\n        /* \"#utility.yul\":4094:4110   */\n      swap1\n      pop\n        /* \"#utility.yul\":4039:4116   */\n      swap2\n      swap1\n      pop\n      jump\t// out\n        /* \"#utility.yul\":4122:4276   */\n    tag_40:\n        /* \"#utility.yul\":4206:4212   */\n      dup3\n        /* \"#utility.yul\":4201:4204   */\n      dup2\n        /* \"#utility.yul\":4196:4199   */\n      dup4\n        /* \"#utility.yul\":4183:4213   */\n      calldatacopy\n        /* \"#utility.yul\":4268:4269   */\n      0x00\n        /* \"#utility.yul\":4259:4265   */\n      dup4\n        /* \"#utility.yul\":4254:4257   */\n      dup4\n        /* \"#utility.yul\":4250:4266   */\n      add\n        /* \"#utility.yul\":4243:4270   */\n      mstore\n        /* \"#utility.yul\":4122:4276   */\n      pop\n      pop\n      pop\n      jump\t// out\n        /* \"#utility.yul\":4282:4589   */\n    tag_73:\n        /* \"#utility.yul\":4350:4351   */\n      0x00\n        /* \"#utility.yul\":4360:4473   */\n    tag_100:\n        /* \"#utility.yul\":4374:4380   */\n      dup4\n        /* \"#utility.yul\":4371:4372   */\n      dup2\n        /* \"#utility.yul\":4368:4381   */\n      lt\n        /* \"#utility.yul\":4360:4473   */\n      iszero\n      tag_102\n      jumpi\n        /* \"#utility.yul\":4459:4460   */\n      dup1\n        /* \"#utility.yul\":4454:4457   */\n      dup3\n        /* \"#utility.yul\":4450:4461   */\n      add\n        /* \"#utility.yul\":4444:4462   */\n      mload\n        /* \"#utility.yul\":4440:4441   */\n      dup2\n        /* \"#utility.yul\":4435:4438   */\n      dup5\n        /* \"#utility.yul\":4431:4442   */\n      add\n        /* \"#utility.yul\":4424:4463   */\n      mstore\n        /* \"#utility.yul\":4396:4398   */\n      0x20\n        /* \"#utility.yul\":4393:4394   */\n      dup2\n        /* \"#utility.yul\":4389:4399   */\n      add\n        /* \"#utility.yul\":4384:4399   */\n      swap1\n      pop\n        /* \"#utility.yul\":4360:4473   */\n      jump(tag_100)\n    tag_102:\n        /* \"#utility.yul\":4491:4497   */\n      dup4\n        /* \"#utility.yul\":4488:4489   */\n      dup2\n        /* \"#utility.yul\":4485:4498   */\n      gt\n        /* \"#utility.yul\":4482:4583   */\n      iszero\n      tag_103\n      jumpi\n        /* \"#utility.yul\":4571:4572   */\n      0x00\n        /* \"#utility.yul\":4562:4568   */\n      dup5\n        /* \"#utility.yul\":4557:4560   */\n      dup5\n        /* \"#utility.yul\":4553:4569   */\n      add\n        /* \"#utility.yul\":4546:4573   */\n      mstore\n        /* \"#utility.yul\":4482:4583   */\n    tag_103:\n        /* \"#utility.yul\":4331:4589   */\n      pop\n        /* \"#utility.yul\":4282:4589   */\n      pop\n      pop\n      pop\n      jump\t// out\n        /* \"#utility.yul\":4595:4915   */\n    tag_18:\n        /* \"#utility.yul\":4639:4645   */\n      0x00\n        /* \"#utility.yul\":4676:4677   */\n      0x02\n        /* \"#utility.yul\":4670:4674   */\n      dup3\n        /* \"#utility.yul\":4666:4678   */\n      div\n        /* \"#utility.yul\":4656:4678   */\n      swap1\n      pop\n        /* \"#utility.yul\":4723:4724   */\n      0x01\n        /* \"#utility.yul\":4717:4721   */\n      dup3\n        /* \"#utility.yul\":4713:4725   */\n      and\n        /* \"#utility.yul\":4744:4762   */\n      dup1\n        /* \"#utility.yul\":4734:4815   */\n      tag_105\n      jumpi\n        /* \"#utility.yul\":4800:4804   */\n      0x7f\n        /* \"#utility.yul\":4792:4798   */\n      dup3\n        /* \"#utility.yul\":4788:4805   */\n      and\n        /* \"#utility.yul\":4778:4805   */\n      swap2\n      pop\n        /* \"#utility.yul\":4734:4815   */\n    tag_105:\n        /* \"#utility.yul\":4862:4864   */\n      0x20\n        /* \"#utility.yul\":4854:4860   */\n      dup3\n        /* \"#utility.yul\":4851:4865   */\n      lt\n        /* \"#utility.yul\":4831:4849   */\n      dup2\n        /* \"#utility.yul\":4828:4866   */\n      eq\n        /* \"#utility.yul\":4825:4909   */\n      iszero\n      tag_106\n      jumpi\n        /* \"#utility.yul\":4881:4899   */\n      tag_107\n      tag_108\n      jump\t// in\n    tag_107:\n        /* \"#utility.yul\":4825:4909   */\n    tag_106:\n        /* \"#utility.yul\":4646:4915   */\n      pop\n        /* \"#utility.yul\":4595:4915   */\n      swap2\n      swap1\n      pop\n      jump\t// out\n        /* \"#utility.yul\":4921:5202   */\n    tag_88:\n        /* \"#utility.yul\":5004:5031   */\n      tag_110\n        /* \"#utility.yul\":5026:5030   */\n      dup3\n        /* \"#utility.yul\":5004:5031   */\n      tag_75\n      jump\t// in\n    tag_110:\n        /* \"#utility.yul\":4996:5002   */\n      dup2\n        /* \"#utility.yul\":4992:5032   */\n      add\n        /* \"#utility.yul\":5134:5140   */\n      dup2\n        /* \"#utility.yul\":5122:5132   */\n      dup2\n        /* \"#utility.yul\":5119:5141   */\n      lt\n        /* \"#utility.yul\":5098:5116   */\n      0xffffffffffffffff\n        /* \"#utility.yul\":5086:5096   */\n      dup3\n        /* \"#utility.yul\":5083:5117   */\n      gt\n        /* \"#utility.yul\":5080:5142   */\n      or\n        /* \"#utility.yul\":5077:5165   */\n      iszero\n      tag_111\n      jumpi\n        /* \"#utility.yul\":5145:5163   */\n      tag_112\n      tag_93\n      jump\t// in\n    tag_112:\n        /* \"#utility.yul\":5077:5165   */\n    tag_111:\n        /* \"#utility.yul\":5185:5195   */\n      dup1\n        /* \"#utility.yul\":5181:5183   */\n      0x40\n        /* \"#utility.yul\":5174:5196   */\n      mstore\n        /* \"#utility.yul\":4964:5202   */\n      pop\n        /* \"#utility.yul\":4921:5202   */\n      pop\n      pop\n      jump\t// out\n        /* \"#utility.yul\":5208:5388   */\n    tag_108:\n        /* \"#utility.yul\":5256:5333   */\n      0x4e487b7100000000000000000000000000000000000000000000000000000000\n        /* \"#utility.yul\":5253:5254   */\n      0x00\n        /* \"#utility.yul\":5246:5334   */\n      mstore\n        /* \"#utility.yul\":5353:5357   */\n      0x22\n        /* \"#utility.yul\":5350:5351   */\n      0x04\n        /* \"#utility.yul\":5343:5358   */\n      mstore\n        /* \"#utility.yul\":5377:5381   */\n      0x24\n        /* \"#utility.yul\":5374:5375   */\n      0x00\n        /* \"#utility.yul\":5367:5382   */\n      revert\n        /* \"#utility.yul\":5394:5574   */\n    tag_93:\n        /* \"#utility.yul\":5442:5519   */\n      0x4e487b7100000000000000000000000000000000000000000000000000000000\n        /* \"#utility.yul\":5439:5440   */\n      0x00\n        /* \"#utility.yul\":5432:5520   */\n      mstore\n        /* \"#utility.yul\":5539:5543   */\n      0x41\n        /* \"#utility.yul\":5536:5537   */\n      0x04\n        /* \"#utility.yul\":5529:5544   */\n      mstore\n        /* \"#utility.yul\":5563:5567   */\n      0x24\n        /* \"#utility.yul\":5560:5561   */\n      0x00\n        /* \"#utility.yul\":5553:5568   */\n      revert\n        /* \"#utility.yul\":5580:5697   */\n    tag_45:\n        /* \"#utility.yul\":5689:5690   */\n      0x00\n        /* \"#utility.yul\":5686:5687   */\n      dup1\n        /* \"#utility.yul\":5679:5691   */\n      revert\n        /* \"#utility.yul\":5703:5820   */\n    tag_38:\n        /* \"#utility.yul\":5812:5813   */\n      0x00\n        /* \"#utility.yul\":5809:5810   */\n      dup1\n        /* \"#utility.yul\":5802:5814   */\n      revert\n        /* \"#utility.yul\":5826:5943   */\n    tag_57:\n        /* \"#utility.yul\":5935:5936   */\n      0x00\n        /* \"#utility.yul\":5932:5933   */\n      dup1\n        /* \"#utility.yul\":5925:5937   */\n      revert\n        /* \"#utility.yul\":5949:6066   */\n    tag_54:\n        /* \"#utility.yul\":6058:6059   */\n      0x00\n        /* \"#utility.yul\":6055:6056   */\n      dup1\n        /* \"#utility.yul\":6048:6060   */\n      revert\n        /* \"#utility.yul\":6072:6174   */\n    tag_75:\n        /* \"#utility.yul\":6113:6119   */\n      0x00\n        /* \"#utility.yul\":6164:6166   */\n      0x1f\n        /* \"#utility.yul\":6160:6167   */\n      not\n        /* \"#utility.yul\":6155:6157   */\n      0x1f\n        /* \"#utility.yul\":6148:6153   */\n      dup4\n        /* \"#utility.yul\":6144:6158   */\n      add\n        /* \"#utility.yul\":6140:6168   */\n      and\n        /* \"#utility.yul\":6130:6168   */\n      swap1\n      pop\n        /* \"#utility.yul\":6072:6174   */\n      swap2\n      swap1\n      pop\n      jump\t// out\n        /* \"#utility.yul\":6180:6302   */\n    tag_50:\n        /* \"#utility.yul\":6253:6277   */\n      tag_121\n        /* \"#utility.yul\":6271:6276   */\n      dup2\n        /* \"#utility.yul\":6253:6277   */\n      tag_79\n      jump\t// in\n    tag_121:\n        /* \"#utility.yul\":6246:6251   */\n      dup2\n        /* \"#utility.yul\":6243:6278   */\n      eq\n        /* \"#utility.yul\":6233:6296   */\n      tag_122\n      jumpi\n        /* \"#utility.yul\":6292:6293   */\n      0x00\n        /* \"#utility.yul\":6289:6290   */\n      dup1\n        /* \"#utility.yul\":6282:6294   */\n      revert\n        /* \"#utility.yul\":6233:6296   */\n    tag_122:\n        /* \"#utility.yul\":6180:6302   */\n      pop\n      jump\t// out\n\n    auxdata: 0xa2646970667358221220f334ee225275ef4d9ef7574de03dca3b423c98eb5c1a313c947bb92bb079872b64736f6c63430008070033\n}\n",
				"bytecode": {
					"linkReferences": {},
					"object": "608060405234801561001057600080fd5b5061057f806100206000396000f3fe608060405234801561001057600080fd5b50600436106100365760003560e01c806350b447121461003b578063e0a08f271461006d575b600080fd5b610055600480360381019061005091906102d4565b610089565b60405161006493929190610349565b60405180910390f35b6100876004803603810190610082919061025c565b6101d3565b005b6000818154811061009957600080fd5b90600052602060002090600302016000915090508060000154908060010180546100c29061044c565b80601f01602080910402602001604051908101604052809291908181526020018280546100ee9061044c565b801561013b5780601f106101105761010080835404028352916020019161013b565b820191906000526020600020905b81548152906001019060200180831161011e57829003601f168201915b5050505050908060020180546101509061044c565b80601f016020809104026020016040519081016040528092919081815260200182805461017c9061044c565b80156101c95780601f1061019e576101008083540402835291602001916101c9565b820191906000526020600020905b8154815290600101906020018083116101ac57829003601f168201915b5050505050905083565b5050565b60006101ea6101e5846103b3565b61038e565b90508281526020810184848401111561020657610205610512565b5b61021184828561040a565b509392505050565b600082601f83011261022e5761022d61050d565b5b813561023e8482602086016101d7565b91505092915050565b60008135905061025681610532565b92915050565b600080604083850312156102735761027261051c565b5b600083013567ffffffffffffffff81111561029157610290610517565b5b61029d85828601610219565b925050602083013567ffffffffffffffff8111156102be576102bd610517565b5b6102ca85828601610219565b9150509250929050565b6000602082840312156102ea576102e961051c565b5b60006102f884828501610247565b91505092915050565b600061030c826103e4565b61031681856103ef565b9350610326818560208601610419565b61032f81610521565b840191505092915050565b61034381610400565b82525050565b600060608201905061035e600083018661033a565b81810360208301526103708185610301565b905081810360408301526103848184610301565b9050949350505050565b60006103986103a9565b90506103a4828261047e565b919050565b6000604051905090565b600067ffffffffffffffff8211156103ce576103cd6104de565b5b6103d782610521565b9050602081019050919050565b600081519050919050565b600082825260208201905092915050565b6000819050919050565b82818337600083830152505050565b60005b8381101561043757808201518184015260208101905061041c565b83811115610446576000848401525b50505050565b6000600282049050600182168061046457607f821691505b60208210811415610478576104776104af565b5b50919050565b61048782610521565b810181811067ffffffffffffffff821117156104a6576104a56104de565b5b80604052505050565b7f4e487b7100000000000000000000000000000000000000000000000000000000600052602260045260246000fd5b7f4e487b7100000000000000000000000000000000000000000000000000000000600052604160045260246000fd5b600080fd5b600080fd5b600080fd5b600080fd5b6000601f19601f8301169050919050565b61053b81610400565b811461054657600080fd5b5056fea2646970667358221220f334ee225275ef4d9ef7574de03dca3b423c98eb5c1a313c947bb92bb079872b64736f6c63430008070033",
					"opcodes": "PUSH1 0x80 PUSH1 0x40 MSTORE CALLVALUE DUP1 ISZERO PUSH2 0x10 JUMPI PUSH1 0x0 DUP1 REVERT JUMPDEST POP PUSH2 0x57F DUP1 PUSH2 0x20 PUSH1 0x0 CODECOPY PUSH1 0x0 RETURN INVALID PUSH1 0x80 PUSH1 0x40 MSTORE CALLVALUE DUP1 ISZERO PUSH2 0x10 JUMPI PUSH1 0x0 DUP1 REVERT JUMPDEST POP PUSH1 0x4 CALLDATASIZE LT PUSH2 0x36 JUMPI PUSH1 0x0 CALLDATALOAD PUSH1 0xE0 SHR DUP1 PUSH4 0x50B44712 EQ PUSH2 0x3B JUMPI DUP1 PUSH4 0xE0A08F27 EQ PUSH2 0x6D JUMPI JUMPDEST PUSH1 0x0 DUP1 REVERT JUMPDEST PUSH2 0x55 PUSH1 0x4 DUP1 CALLDATASIZE SUB DUP2 ADD SWAP1 PUSH2 0x50 SWAP2 SWAP1 PUSH2 0x2D4 JUMP JUMPDEST PUSH2 0x89 JUMP JUMPDEST PUSH1 0x40 MLOAD PUSH2 0x64 SWAP4 SWAP3 SWAP2 SWAP1 PUSH2 0x349 JUMP JUMPDEST PUSH1 0x40 MLOAD DUP1 SWAP2 SUB SWAP1 RETURN JUMPDEST PUSH2 0x87 PUSH1 0x4 DUP1 CALLDATASIZE SUB DUP2 ADD SWAP1 PUSH2 0x82 SWAP2 SWAP1 PUSH2 0x25C JUMP JUMPDEST PUSH2 0x1D3 JUMP JUMPDEST STOP JUMPDEST PUSH1 0x0 DUP2 DUP2 SLOAD DUP2 LT PUSH2 0x99 JUMPI PUSH1 0x0 DUP1 REVERT JUMPDEST SWAP1 PUSH1 0x0 MSTORE PUSH1 0x20 PUSH1 0x0 KECCAK256 SWAP1 PUSH1 0x3 MUL ADD PUSH1 0x0 SWAP2 POP SWAP1 POP DUP1 PUSH1 0x0 ADD SLOAD SWAP1 DUP1 PUSH1 0x1 ADD DUP1 SLOAD PUSH2 0xC2 SWAP1 PUSH2 0x44C JUMP JUMPDEST DUP1 PUSH1 0x1F ADD PUSH1 0x20 DUP1 SWAP2 DIV MUL PUSH1 0x20 ADD PUSH1 0x40 MLOAD SWAP1 DUP2 ADD PUSH1 0x40 MSTORE DUP1 SWAP3 SWAP2 SWAP1 DUP2 DUP2 MSTORE PUSH1 0x20 ADD DUP3 DUP1 SLOAD PUSH2 0xEE SWAP1 PUSH2 0x44C JUMP JUMPDEST DUP1 ISZERO PUSH2 0x13B JUMPI DUP1 PUSH1 0x1F LT PUSH2 0x110 JUMPI PUSH2 0x100 DUP1 DUP4 SLOAD DIV MUL DUP4 MSTORE SWAP2 PUSH1 0x20 ADD SWAP2 PUSH2 0x13B JUMP JUMPDEST DUP3 ADD SWAP2 SWAP1 PUSH1 0x0 MSTORE PUSH1 0x20 PUSH1 0x0 KECCAK256 SWAP1 JUMPDEST DUP2 SLOAD DUP2 MSTORE SWAP1 PUSH1 0x1 ADD SWAP1 PUSH1 0x20 ADD DUP1 DUP4 GT PUSH2 0x11E JUMPI DUP3 SWAP1 SUB PUSH1 0x1F AND DUP3 ADD SWAP2 JUMPDEST POP POP POP POP POP SWAP1 DUP1 PUSH1 0x2 ADD DUP1 SLOAD PUSH2 0x150 SWAP1 PUSH2 0x44C JUMP JUMPDEST DUP1 PUSH1 0x1F ADD PUSH1 0x20 DUP1 SWAP2 DIV MUL PUSH1 0x20 ADD PUSH1 0x40 MLOAD SWAP1 DUP2 ADD PUSH1 0x40 MSTORE DUP1 SWAP3 SWAP2 SWAP1 DUP2 DUP2 MSTORE PUSH1 0x20 ADD DUP3 DUP1 SLOAD PUSH2 0x17C SWAP1 PUSH2 0x44C JUMP JUMPDEST DUP1 ISZERO PUSH2 0x1C9 JUMPI DUP1 PUSH1 0x1F LT PUSH2 0x19E JUMPI PUSH2 0x100 DUP1 DUP4 SLOAD DIV MUL DUP4 MSTORE SWAP2 PUSH1 0x20 ADD SWAP2 PUSH2 0x1C9 JUMP JUMPDEST DUP3 ADD SWAP2 SWAP1 PUSH1 0x0 MSTORE PUSH1 0x20 PUSH1 0x0 KECCAK256 SWAP1 JUMPDEST DUP2 SLOAD DUP2 MSTORE SWAP1 PUSH1 0x1 ADD SWAP1 PUSH1 0x20 ADD DUP1 DUP4 GT PUSH2 0x1AC JUMPI DUP3 SWAP1 SUB PUSH1 0x1F AND DUP3 ADD SWAP2 JUMPDEST POP POP POP POP POP SWAP1 POP DUP4 JUMP JUMPDEST POP POP JUMP JUMPDEST PUSH1 0x0 PUSH2 0x1EA PUSH2 0x1E5 DUP5 PUSH2 0x3B3 JUMP JUMPDEST PUSH2 0x38E JUMP JUMPDEST SWAP1 POP DUP3 DUP2 MSTORE PUSH1 0x20 DUP2 ADD DUP5 DUP5 DUP5 ADD GT ISZERO PUSH2 0x206 JUMPI PUSH2 0x205 PUSH2 0x512 JUMP JUMPDEST JUMPDEST PUSH2 0x211 DUP5 DUP3 DUP6 PUSH2 0x40A JUMP JUMPDEST POP SWAP4 SWAP3 POP POP POP JUMP JUMPDEST PUSH1 0x0 DUP3 PUSH1 0x1F DUP4 ADD SLT PUSH2 0x22E JUMPI PUSH2 0x22D PUSH2 0x50D JUMP JUMPDEST JUMPDEST DUP2 CALLDATALOAD PUSH2 0x23E DUP5 DUP3 PUSH1 0x20 DUP7 ADD PUSH2 0x1D7 JUMP JUMPDEST SWAP2 POP POP SWAP3 SWAP2 POP POP JUMP JUMPDEST PUSH1 0x0 DUP2 CALLDATALOAD SWAP1 POP PUSH2 0x256 DUP2 PUSH2 0x532 JUMP JUMPDEST SWAP3 SWAP2 POP POP JUMP JUMPDEST PUSH1 0x0 DUP1 PUSH1 0x40 DUP4 DUP6 SUB SLT ISZERO PUSH2 0x273 JUMPI PUSH2 0x272 PUSH2 0x51C JUMP JUMPDEST JUMPDEST PUSH1 0x0 DUP4 ADD CALLDATALOAD PUSH8 0xFFFFFFFFFFFFFFFF DUP2 GT ISZERO PUSH2 0x291 JUMPI PUSH2 0x290 PUSH2 0x517 JUMP JUMPDEST JUMPDEST PUSH2 0x29D DUP6 DUP3 DUP7 ADD PUSH2 0x219 JUMP JUMPDEST SWAP3 POP POP PUSH1 0x20 DUP4 ADD CALLDATALOAD PUSH8 0xFFFFFFFFFFFFFFFF DUP2 GT ISZERO PUSH2 0x2BE JUMPI PUSH2 0x2BD PUSH2 0x517 JUMP JUMPDEST JUMPDEST PUSH2 0x2CA DUP6 DUP3 DUP7 ADD PUSH2 0x219 JUMP JUMPDEST SWAP2 POP POP SWAP3 POP SWAP3 SWAP1 POP JUMP JUMPDEST PUSH1 0x0 PUSH1 0x20 DUP3 DUP5 SUB SLT ISZERO PUSH2 0x2EA JUMPI PUSH2 0x2E9 PUSH2 0x51C JUMP JUMPDEST JUMPDEST PUSH1 0x0 PUSH2 0x2F8 DUP5 DUP3 DUP6 ADD PUSH2 0x247 JUMP JUMPDEST SWAP2 POP POP SWAP3 SWAP2 POP POP JUMP JUMPDEST PUSH1 0x0 PUSH2 0x30C DUP3 PUSH2 0x3E4 JUMP JUMPDEST PUSH2 0x316 DUP2 DUP6 PUSH2 0x3EF JUMP JUMPDEST SWAP4 POP PUSH2 0x326 DUP2 DUP6 PUSH1 0x20 DUP7 ADD PUSH2 0x419 JUMP JUMPDEST PUSH2 0x32F DUP2 PUSH2 0x521 JUMP JUMPDEST DUP5 ADD SWAP2 POP POP SWAP3 SWAP2 POP POP JUMP JUMPDEST PUSH2 0x343 DUP2 PUSH2 0x400 JUMP JUMPDEST DUP3 MSTORE POP POP JUMP JUMPDEST PUSH1 0x0 PUSH1 0x60 DUP3 ADD SWAP1 POP PUSH2 0x35E PUSH1 0x0 DUP4 ADD DUP7 PUSH2 0x33A JUMP JUMPDEST DUP2 DUP2 SUB PUSH1 0x20 DUP4 ADD MSTORE PUSH2 0x370 DUP2 DUP6 PUSH2 0x301 JUMP JUMPDEST SWAP1 POP DUP2 DUP2 SUB PUSH1 0x40 DUP4 ADD MSTORE PUSH2 0x384 DUP2 DUP5 PUSH2 0x301 JUMP JUMPDEST SWAP1 POP SWAP5 SWAP4 POP POP POP POP JUMP JUMPDEST PUSH1 0x0 PUSH2 0x398 PUSH2 0x3A9 JUMP JUMPDEST SWAP1 POP PUSH2 0x3A4 DUP3 DUP3 PUSH2 0x47E JUMP JUMPDEST SWAP2 SWAP1 POP JUMP JUMPDEST PUSH1 0x0 PUSH1 0x40 MLOAD SWAP1 POP SWAP1 JUMP JUMPDEST PUSH1 0x0 PUSH8 0xFFFFFFFFFFFFFFFF DUP3 GT ISZERO PUSH2 0x3CE JUMPI PUSH2 0x3CD PUSH2 0x4DE JUMP JUMPDEST JUMPDEST PUSH2 0x3D7 DUP3 PUSH2 0x521 JUMP JUMPDEST SWAP1 POP PUSH1 0x20 DUP2 ADD SWAP1 POP SWAP2 SWAP1 POP JUMP JUMPDEST PUSH1 0x0 DUP2 MLOAD SWAP1 POP SWAP2 SWAP1 POP JUMP JUMPDEST PUSH1 0x0 DUP3 DUP3 MSTORE PUSH1 0x20 DUP3 ADD SWAP1 POP SWAP3 SWAP2 POP POP JUMP JUMPDEST PUSH1 0x0 DUP2 SWAP1 POP SWAP2 SWAP1 POP JUMP JUMPDEST DUP3 DUP2 DUP4 CALLDATACOPY PUSH1 0x0 DUP4 DUP4 ADD MSTORE POP POP POP JUMP JUMPDEST PUSH1 0x0 JUMPDEST DUP4 DUP2 LT ISZERO PUSH2 0x437 JUMPI DUP1 DUP3 ADD MLOAD DUP2 DUP5 ADD MSTORE PUSH1 0x20 DUP2 ADD SWAP1 POP PUSH2 0x41C JUMP JUMPDEST DUP4 DUP2 GT ISZERO PUSH2 0x446 JUMPI PUSH1 0x0 DUP5 DUP5 ADD MSTORE JUMPDEST POP POP POP POP JUMP JUMPDEST PUSH1 0x0 PUSH1 0x2 DUP3 DIV SWAP1 POP PUSH1 0x1 DUP3 AND DUP1 PUSH2 0x464 JUMPI PUSH1 0x7F DUP3 AND SWAP2 POP JUMPDEST PUSH1 0x20 DUP3 LT DUP2 EQ ISZERO PUSH2 0x478 JUMPI PUSH2 0x477 PUSH2 0x4AF JUMP JUMPDEST JUMPDEST POP SWAP2 SWAP1 POP JUMP JUMPDEST PUSH2 0x487 DUP3 PUSH2 0x521 JUMP JUMPDEST DUP2 ADD DUP2 DUP2 LT PUSH8 0xFFFFFFFFFFFFFFFF DUP3 GT OR ISZERO PUSH2 0x4A6 JUMPI PUSH2 0x4A5 PUSH2 0x4DE JUMP JUMPDEST JUMPDEST DUP1 PUSH1 0x40 MSTORE POP POP POP JUMP JUMPDEST PUSH32 0x4E487B7100000000000000000000000000000000000000000000000000000000 PUSH1 0x0 MSTORE PUSH1 0x22 PUSH1 0x4 MSTORE PUSH1 0x24 PUSH1 0x0 REVERT JUMPDEST PUSH32 0x4E487B7100000000000000000000000000000000000000000000000000000000 PUSH1 0x0 MSTORE PUSH1 0x41 PUSH1 0x4 MSTORE PUSH1 0x24 PUSH1 0x0 REVERT JUMPDEST PUSH1 0x0 DUP1 REVERT JUMPDEST PUSH1 0x0 DUP1 REVERT JUMPDEST PUSH1 0x0 DUP1 REVERT JUMPDEST PUSH1 0x0 DUP1 REVERT JUMPDEST PUSH1 0x0 PUSH1 0x1F NOT PUSH1 0x1F DUP4 ADD AND SWAP1 POP SWAP2 SWAP1 POP JUMP JUMPDEST PUSH2 0x53B DUP2 PUSH2 0x400 JUMP JUMPDEST DUP2 EQ PUSH2 0x546 JUMPI PUSH1 0x0 DUP1 REVERT JUMPDEST POP JUMP INVALID LOG2 PUSH5 0x6970667358 0x22 SLT KECCAK256 RETURN CALLVALUE 0xEE 0x22 MSTORE PUSH22 0xEF4D9EF7574DE03DCA3B423C98EB5C1A313C947BB92B 0xB0 PUSH26 0x872B64736F6C6343000807003300000000000000000000000000 "
				},
				"gasEstimates": {
					"creation": {
						"codeDepositCost": "281400",
						"executionCost": "318",
						"totalCost": "281718"
					},
					"external": {
						"createNewTicket(string,string)": "infinite",
						"tickets(uint256)": "infinite"
					},
					"internal": {
						"_createTicket(uint256,string memory,string memory)": "infinite",
						"generateRefNo(string memory)": "infinite"
					}
				},
				"methodIdentifiers": {
					"createNewTicket(string,string)": "e0a08f27",
					"tickets(uint256)": "50b44712"
				}
			},
			"storageLayout": {
				"storage": [
					{
						"astId": 12,
						"contract": "contracts/CreateTicket.sol:NewTicket",
						"label": "tickets",
						"offset": 0,
						"slot": "0",
						"type": "t_array(t_struct(Ticket)8_storage)dyn_storage"
					}
				],
				"types": {
					"t_array(t_struct(Ticket)8_storage)dyn_storage": {
						"base": "t_struct(Ticket)8_storage",
						"encoding": "dynamic_array",
						"label": "struct NewTicket.Ticket[]",
						"numberOfBytes": "32"
					},
					"t_string_storage": {
						"encoding": "bytes",
						"label": "string",
						"numberOfBytes": "32"
					},
					"t_struct(Ticket)8_storage": {
						"encoding": "inplace",
						"label": "struct NewTicket.Ticket",
						"members": [
							{
								"astId": 3,
								"contract": "contracts/CreateTicket.sol:NewTicket",
								"label": "refNo",
								"offset": 0,
								"slot": "0",
								"type": "t_uint256"
							},
							{
								"astId": 5,
								"contract": "contracts/CreateTicket.sol:NewTicket",
								"label": "authority",
								"offset": 0,
								"slot": "1",
								"type": "t_string_storage"
							},
							{
								"astId": 7,
								"contract": "contracts/CreateTicket.sol:NewTicket",
								"label": "link",
								"offset": 0,
								"slot": "2",
								"type": "t_string_storage"
							}
						],
						"numberOfBytes": "96"
					},
					"t_uint256": {
						"encoding": "inplace",
						"label": "uint256",
						"numberOfBytes": "32"
					}
				}
			},
			"userdoc": {
				"kind": "user",
				"methods": {},
				"version": 1
			}
		}
	}
}