{
	"data": {
		"bytecode": {
			"linkReferences": {},
			"object": "608060405234801561001057600080fd5b50610ae0806100206000396000f3fe608060405234801561001057600080fd5b50600436106100575760003560e01c80632b08e8241461005c5780633c518dd31461008c57806350b44712146100a85780638ce7e461146100da578063a89133361461010a575b600080fd5b61007660048036038101906100719190610661565b61013a565b604051610083919061073c565b60405180910390f35b6100a660048036038101906100a19190610605565b61016d565b005b6100c260048036038101906100bd9190610661565b61018a565b6040516100d19392919061078d565b60405180910390f35b6100f460048036038101906100ef9190610661565b61026c565b6040516101019190610757565b60405180910390f35b610124600480360381019061011f91906105d8565b61028c565b6040516101319190610772565b60405180910390f35b60016020528060005260406000206000915054906101000a900473ffffffffffffffffffffffffffffffffffffffff1681565b6000610178826102a4565b90506101858184846102dc565b505050565b6000818154811061019a57600080fd5b90600052602060002090600302016000915090508060000154908060010160009054906101000a900473ffffffffffffffffffffffffffffffffffffffff16908060020180546101e99061091e565b80601f01602080910402602001604051908101604052809291908181526020018280546102159061091e565b80156102625780601f1061023757610100808354040283529160200191610262565b820191906000526020600020905b81548152906001019060200180831161024557829003601f168201915b5050505050905083565b60036020528060005260406000206000915054906101000a900460ff1681565b60026020528060005260406000206000915090505481565b600080826040516020016102b89190610725565b6040516020818303038152906040528051906020012060001c905080915050919050565b600060405180606001604052808581526020018473ffffffffffffffffffffffffffffffffffffffff1681526020018381525090806001815401808255809150506001900390600052602060002090600302016000909190919091506000820151816000015560208201518160010160006101000a81548173ffffffffffffffffffffffffffffffffffffffff021916908373ffffffffffffffffffffffffffffffffffffffff16021790555060408201518160020190805190602001906103a592919061049b565b505050600080805490509050336001600086815260200190815260200160002060006101000a81548173ffffffffffffffffffffffffffffffffffffffff021916908373ffffffffffffffffffffffffffffffffffffffff160217905550600260008473ffffffffffffffffffffffffffffffffffffffff1673ffffffffffffffffffffffffffffffffffffffff168152602001908152602001600020600081548092919061045390610981565b91905055507f5c6cbfb13057ca1c92859b5ecb3c56b42131a7a5ac1a570d12f8cf875fcff98b8185858560405161048d94939291906107cb565b60405180910390a150505050565b8280546104a79061091e565b90600052602060002090601f0160209004810192826104c95760008555610510565b82601f106104e257805160ff1916838001178555610510565b82800160010185558215610510579182015b8281111561050f5782518255916020019190600101906104f4565b5b50905061051d9190610521565b5090565b5b8082111561053a576000816000905550600101610522565b5090565b600061055161054c8461083c565b610817565b90508281526020810184848401111561056d5761056c610a5c565b5b6105788482856108dc565b509392505050565b60008135905061058f81610a7c565b92915050565b600082601f8301126105aa576105a9610a57565b5b81356105ba84826020860161053e565b91505092915050565b6000813590506105d281610a93565b92915050565b6000602082840312156105ee576105ed610a66565b5b60006105fc84828501610580565b91505092915050565b6000806040838503121561061c5761061b610a66565b5b600061062a85828601610580565b925050602083013567ffffffffffffffff81111561064b5761064a610a61565b5b61065785828601610595565b9150509250929050565b60006020828403121561067757610676610a66565b5b6000610685848285016105c3565b91505092915050565b61069781610894565b82525050565b6106a6816108a6565b82525050565b60006106b78261086d565b6106c18185610878565b93506106d18185602086016108eb565b6106da81610a6b565b840191505092915050565b60006106f08261086d565b6106fa8185610889565b935061070a8185602086016108eb565b80840191505092915050565b61071f816108d2565b82525050565b600061073182846106e5565b915081905092915050565b6000602082019050610751600083018461068e565b92915050565b600060208201905061076c600083018461069d565b92915050565b60006020820190506107876000830184610716565b92915050565b60006060820190506107a26000830186610716565b6107af602083018561068e565b81810360408301526107c181846106ac565b9050949350505050565b60006080820190506107e06000830187610716565b6107ed6020830186610716565b6107fa604083018561068e565b818103606083015261080c81846106ac565b905095945050505050565b6000610821610832565b905061082d8282610950565b919050565b6000604051905090565b600067ffffffffffffffff82111561085757610856610a28565b5b61086082610a6b565b9050602081019050919050565b600081519050919050565b600082825260208201905092915050565b600081905092915050565b600061089f826108b2565b9050919050565b60008115159050919050565b600073ffffffffffffffffffffffffffffffffffffffff82169050919050565b6000819050919050565b82818337600083830152505050565b60005b838110156109095780820151818401526020810190506108ee565b83811115610918576000848401525b50505050565b6000600282049050600182168061093657607f821691505b6020821081141561094a576109496109f9565b5b50919050565b61095982610a6b565b810181811067ffffffffffffffff8211171561097857610977610a28565b5b80604052505050565b600061098c826108d2565b91507fffffffffffffffffffffffffffffffffffffffffffffffffffffffffffffffff8214156109bf576109be6109ca565b5b600182019050919050565b7f4e487b7100000000000000000000000000000000000000000000000000000000600052601160045260246000fd5b7f4e487b7100000000000000000000000000000000000000000000000000000000600052602260045260246000fd5b7f4e487b7100000000000000000000000000000000000000000000000000000000600052604160045260246000fd5b600080fd5b600080fd5b600080fd5b600080fd5b6000601f19601f8301169050919050565b610a8581610894565b8114610a9057600080fd5b50565b610a9c816108d2565b8114610aa757600080fd5b5056fea264697066735822122031c9c82a304d1ed7d21d69bfc33eeaff0e91d0208e826227c737dc0d1aab618364736f6c63430008070033",
			"opcodes": "PUSH1 0x80 PUSH1 0x40 MSTORE CALLVALUE DUP1 ISZERO PUSH2 0x10 JUMPI PUSH1 0x0 DUP1 REVERT JUMPDEST POP PUSH2 0xAE0 DUP1 PUSH2 0x20 PUSH1 0x0 CODECOPY PUSH1 0x0 RETURN INVALID PUSH1 0x80 PUSH1 0x40 MSTORE CALLVALUE DUP1 ISZERO PUSH2 0x10 JUMPI PUSH1 0x0 DUP1 REVERT JUMPDEST POP PUSH1 0x4 CALLDATASIZE LT PUSH2 0x57 JUMPI PUSH1 0x0 CALLDATALOAD PUSH1 0xE0 SHR DUP1 PUSH4 0x2B08E824 EQ PUSH2 0x5C JUMPI DUP1 PUSH4 0x3C518DD3 EQ PUSH2 0x8C JUMPI DUP1 PUSH4 0x50B44712 EQ PUSH2 0xA8 JUMPI DUP1 PUSH4 0x8CE7E461 EQ PUSH2 0xDA JUMPI DUP1 PUSH4 0xA8913336 EQ PUSH2 0x10A JUMPI JUMPDEST PUSH1 0x0 DUP1 REVERT JUMPDEST PUSH2 0x76 PUSH1 0x4 DUP1 CALLDATASIZE SUB DUP2 ADD SWAP1 PUSH2 0x71 SWAP2 SWAP1 PUSH2 0x661 JUMP JUMPDEST PUSH2 0x13A JUMP JUMPDEST PUSH1 0x40 MLOAD PUSH2 0x83 SWAP2 SWAP1 PUSH2 0x73C JUMP JUMPDEST PUSH1 0x40 MLOAD DUP1 SWAP2 SUB SWAP1 RETURN JUMPDEST PUSH2 0xA6 PUSH1 0x4 DUP1 CALLDATASIZE SUB DUP2 ADD SWAP1 PUSH2 0xA1 SWAP2 SWAP1 PUSH2 0x605 JUMP JUMPDEST PUSH2 0x16D JUMP JUMPDEST STOP JUMPDEST PUSH2 0xC2 PUSH1 0x4 DUP1 CALLDATASIZE SUB DUP2 ADD SWAP1 PUSH2 0xBD SWAP2 SWAP1 PUSH2 0x661 JUMP JUMPDEST PUSH2 0x18A JUMP JUMPDEST PUSH1 0x40 MLOAD PUSH2 0xD1 SWAP4 SWAP3 SWAP2 SWAP1 PUSH2 0x78D JUMP JUMPDEST PUSH1 0x40 MLOAD DUP1 SWAP2 SUB SWAP1 RETURN JUMPDEST PUSH2 0xF4 PUSH1 0x4 DUP1 CALLDATASIZE SUB DUP2 ADD SWAP1 PUSH2 0xEF SWAP2 SWAP1 PUSH2 0x661 JUMP JUMPDEST PUSH2 0x26C JUMP JUMPDEST PUSH1 0x40 MLOAD PUSH2 0x101 SWAP2 SWAP1 PUSH2 0x757 JUMP JUMPDEST PUSH1 0x40 MLOAD DUP1 SWAP2 SUB SWAP1 RETURN JUMPDEST PUSH2 0x124 PUSH1 0x4 DUP1 CALLDATASIZE SUB DUP2 ADD SWAP1 PUSH2 0x11F SWAP2 SWAP1 PUSH2 0x5D8 JUMP JUMPDEST PUSH2 0x28C JUMP JUMPDEST PUSH1 0x40 MLOAD PUSH2 0x131 SWAP2 SWAP1 PUSH2 0x772 JUMP JUMPDEST PUSH1 0x40 MLOAD DUP1 SWAP2 SUB SWAP1 RETURN JUMPDEST PUSH1 0x1 PUSH1 0x20 MSTORE DUP1 PUSH1 0x0 MSTORE PUSH1 0x40 PUSH1 0x0 KECCAK256 PUSH1 0x0 SWAP2 POP SLOAD SWAP1 PUSH2 0x100 EXP SWAP1 DIV PUSH20 0xFFFFFFFFFFFFFFFFFFFFFFFFFFFFFFFFFFFFFFFF AND DUP2 JUMP JUMPDEST PUSH1 0x0 PUSH2 0x178 DUP3 PUSH2 0x2A4 JUMP JUMPDEST SWAP1 POP PUSH2 0x185 DUP2 DUP5 DUP5 PUSH2 0x2DC JUMP JUMPDEST POP POP POP JUMP JUMPDEST PUSH1 0x0 DUP2 DUP2 SLOAD DUP2 LT PUSH2 0x19A JUMPI PUSH1 0x0 DUP1 REVERT JUMPDEST SWAP1 PUSH1 0x0 MSTORE PUSH1 0x20 PUSH1 0x0 KECCAK256 SWAP1 PUSH1 0x3 MUL ADD PUSH1 0x0 SWAP2 POP SWAP1 POP DUP1 PUSH1 0x0 ADD SLOAD SWAP1 DUP1 PUSH1 0x1 ADD PUSH1 0x0 SWAP1 SLOAD SWAP1 PUSH2 0x100 EXP SWAP1 DIV PUSH20 0xFFFFFFFFFFFFFFFFFFFFFFFFFFFFFFFFFFFFFFFF AND SWAP1 DUP1 PUSH1 0x2 ADD DUP1 SLOAD PUSH2 0x1E9 SWAP1 PUSH2 0x91E JUMP JUMPDEST DUP1 PUSH1 0x1F ADD PUSH1 0x20 DUP1 SWAP2 DIV MUL PUSH1 0x20 ADD PUSH1 0x40 MLOAD SWAP1 DUP2 ADD PUSH1 0x40 MSTORE DUP1 SWAP3 SWAP2 SWAP1 DUP2 DUP2 MSTORE PUSH1 0x20 ADD DUP3 DUP1 SLOAD PUSH2 0x215 SWAP1 PUSH2 0x91E JUMP JUMPDEST DUP1 ISZERO PUSH2 0x262 JUMPI DUP1 PUSH1 0x1F LT PUSH2 0x237 JUMPI PUSH2 0x100 DUP1 DUP4 SLOAD DIV MUL DUP4 MSTORE SWAP2 PUSH1 0x20 ADD SWAP2 PUSH2 0x262 JUMP JUMPDEST DUP3 ADD SWAP2 SWAP1 PUSH1 0x0 MSTORE PUSH1 0x20 PUSH1 0x0 KECCAK256 SWAP1 JUMPDEST DUP2 SLOAD DUP2 MSTORE SWAP1 PUSH1 0x1 ADD SWAP1 PUSH1 0x20 ADD DUP1 DUP4 GT PUSH2 0x245 JUMPI DUP3 SWAP1 SUB PUSH1 0x1F AND DUP3 ADD SWAP2 JUMPDEST POP POP POP POP POP SWAP1 POP DUP4 JUMP JUMPDEST PUSH1 0x3 PUSH1 0x20 MSTORE DUP1 PUSH1 0x0 MSTORE PUSH1 0x40 PUSH1 0x0 KECCAK256 PUSH1 0x0 SWAP2 POP SLOAD SWAP1 PUSH2 0x100 EXP SWAP1 DIV PUSH1 0xFF AND DUP2 JUMP JUMPDEST PUSH1 0x2 PUSH1 0x20 MSTORE DUP1 PUSH1 0x0 MSTORE PUSH1 0x40 PUSH1 0x0 KECCAK256 PUSH1 0x0 SWAP2 POP SWAP1 POP SLOAD DUP2 JUMP JUMPDEST PUSH1 0x0 DUP1 DUP3 PUSH1 0x40 MLOAD PUSH1 0x20 ADD PUSH2 0x2B8 SWAP2 SWAP1 PUSH2 0x725 JUMP JUMPDEST PUSH1 0x40 MLOAD PUSH1 0x20 DUP2 DUP4 SUB SUB DUP2 MSTORE SWAP1 PUSH1 0x40 MSTORE DUP1 MLOAD SWAP1 PUSH1 0x20 ADD KECCAK256 PUSH1 0x0 SHR SWAP1 POP DUP1 SWAP2 POP POP SWAP2 SWAP1 POP JUMP JUMPDEST PUSH1 0x0 PUSH1 0x40 MLOAD DUP1 PUSH1 0x60 ADD PUSH1 0x40 MSTORE DUP1 DUP6 DUP2 MSTORE PUSH1 0x20 ADD DUP5 PUSH20 0xFFFFFFFFFFFFFFFFFFFFFFFFFFFFFFFFFFFFFFFF AND DUP2 MSTORE PUSH1 0x20 ADD DUP4 DUP2 MSTORE POP SWAP1 DUP1 PUSH1 0x1 DUP2 SLOAD ADD DUP1 DUP3 SSTORE DUP1 SWAP2 POP POP PUSH1 0x1 SWAP1 SUB SWAP1 PUSH1 0x0 MSTORE PUSH1 0x20 PUSH1 0x0 KECCAK256 SWAP1 PUSH1 0x3 MUL ADD PUSH1 0x0 SWAP1 SWAP2 SWAP1 SWAP2 SWAP1 SWAP2 POP PUSH1 0x0 DUP3 ADD MLOAD DUP2 PUSH1 0x0 ADD SSTORE PUSH1 0x20 DUP3 ADD MLOAD DUP2 PUSH1 0x1 ADD PUSH1 0x0 PUSH2 0x100 EXP DUP2 SLOAD DUP2 PUSH20 0xFFFFFFFFFFFFFFFFFFFFFFFFFFFFFFFFFFFFFFFF MUL NOT AND SWAP1 DUP4 PUSH20 0xFFFFFFFFFFFFFFFFFFFFFFFFFFFFFFFFFFFFFFFF AND MUL OR SWAP1 SSTORE POP PUSH1 0x40 DUP3 ADD MLOAD DUP2 PUSH1 0x2 ADD SWAP1 DUP1 MLOAD SWAP1 PUSH1 0x20 ADD SWAP1 PUSH2 0x3A5 SWAP3 SWAP2 SWAP1 PUSH2 0x49B JUMP JUMPDEST POP POP POP PUSH1 0x0 DUP1 DUP1 SLOAD SWAP1 POP SWAP1 POP CALLER PUSH1 0x1 PUSH1 0x0 DUP7 DUP2 MSTORE PUSH1 0x20 ADD SWAP1 DUP2 MSTORE PUSH1 0x20 ADD PUSH1 0x0 KECCAK256 PUSH1 0x0 PUSH2 0x100 EXP DUP2 SLOAD DUP2 PUSH20 0xFFFFFFFFFFFFFFFFFFFFFFFFFFFFFFFFFFFFFFFF MUL NOT AND SWAP1 DUP4 PUSH20 0xFFFFFFFFFFFFFFFFFFFFFFFFFFFFFFFFFFFFFFFF AND MUL OR SWAP1 SSTORE POP PUSH1 0x2 PUSH1 0x0 DUP5 PUSH20 0xFFFFFFFFFFFFFFFFFFFFFFFFFFFFFFFFFFFFFFFF AND PUSH20 0xFFFFFFFFFFFFFFFFFFFFFFFFFFFFFFFFFFFFFFFF AND DUP2 MSTORE PUSH1 0x20 ADD SWAP1 DUP2 MSTORE PUSH1 0x20 ADD PUSH1 0x0 KECCAK256 PUSH1 0x0 DUP2 SLOAD DUP1 SWAP3 SWAP2 SWAP1 PUSH2 0x453 SWAP1 PUSH2 0x981 JUMP JUMPDEST SWAP2 SWAP1 POP SSTORE POP PUSH32 0x5C6CBFB13057CA1C92859B5ECB3C56B42131A7A5AC1A570D12F8CF875FCFF98B DUP2 DUP6 DUP6 DUP6 PUSH1 0x40 MLOAD PUSH2 0x48D SWAP5 SWAP4 SWAP3 SWAP2 SWAP1 PUSH2 0x7CB JUMP JUMPDEST PUSH1 0x40 MLOAD DUP1 SWAP2 SUB SWAP1 LOG1 POP POP POP POP JUMP JUMPDEST DUP3 DUP1 SLOAD PUSH2 0x4A7 SWAP1 PUSH2 0x91E JUMP JUMPDEST SWAP1 PUSH1 0x0 MSTORE PUSH1 0x20 PUSH1 0x0 KECCAK256 SWAP1 PUSH1 0x1F ADD PUSH1 0x20 SWAP1 DIV DUP2 ADD SWAP3 DUP3 PUSH2 0x4C9 JUMPI PUSH1 0x0 DUP6 SSTORE PUSH2 0x510 JUMP JUMPDEST DUP3 PUSH1 0x1F LT PUSH2 0x4E2 JUMPI DUP1 MLOAD PUSH1 0xFF NOT AND DUP4 DUP1 ADD OR DUP6 SSTORE PUSH2 0x510 JUMP JUMPDEST DUP3 DUP1 ADD PUSH1 0x1 ADD DUP6 SSTORE DUP3 ISZERO PUSH2 0x510 JUMPI SWAP2 DUP3 ADD JUMPDEST DUP3 DUP2 GT ISZERO PUSH2 0x50F JUMPI DUP3 MLOAD DUP3 SSTORE SWAP2 PUSH1 0x20 ADD SWAP2 SWAP1 PUSH1 0x1 ADD SWAP1 PUSH2 0x4F4 JUMP JUMPDEST JUMPDEST POP SWAP1 POP PUSH2 0x51D SWAP2 SWAP1 PUSH2 0x521 JUMP JUMPDEST POP SWAP1 JUMP JUMPDEST JUMPDEST DUP1 DUP3 GT ISZERO PUSH2 0x53A JUMPI PUSH1 0x0 DUP2 PUSH1 0x0 SWAP1 SSTORE POP PUSH1 0x1 ADD PUSH2 0x522 JUMP JUMPDEST POP SWAP1 JUMP JUMPDEST PUSH1 0x0 PUSH2 0x551 PUSH2 0x54C DUP5 PUSH2 0x83C JUMP JUMPDEST PUSH2 0x817 JUMP JUMPDEST SWAP1 POP DUP3 DUP2 MSTORE PUSH1 0x20 DUP2 ADD DUP5 DUP5 DUP5 ADD GT ISZERO PUSH2 0x56D JUMPI PUSH2 0x56C PUSH2 0xA5C JUMP JUMPDEST JUMPDEST PUSH2 0x578 DUP5 DUP3 DUP6 PUSH2 0x8DC JUMP JUMPDEST POP SWAP4 SWAP3 POP POP POP JUMP JUMPDEST PUSH1 0x0 DUP2 CALLDATALOAD SWAP1 POP PUSH2 0x58F DUP2 PUSH2 0xA7C JUMP JUMPDEST SWAP3 SWAP2 POP POP JUMP JUMPDEST PUSH1 0x0 DUP3 PUSH1 0x1F DUP4 ADD SLT PUSH2 0x5AA JUMPI PUSH2 0x5A9 PUSH2 0xA57 JUMP JUMPDEST JUMPDEST DUP2 CALLDATALOAD PUSH2 0x5BA DUP5 DUP3 PUSH1 0x20 DUP7 ADD PUSH2 0x53E JUMP JUMPDEST SWAP2 POP POP SWAP3 SWAP2 POP POP JUMP JUMPDEST PUSH1 0x0 DUP2 CALLDATALOAD SWAP1 POP PUSH2 0x5D2 DUP2 PUSH2 0xA93 JUMP JUMPDEST SWAP3 SWAP2 POP POP JUMP JUMPDEST PUSH1 0x0 PUSH1 0x20 DUP3 DUP5 SUB SLT ISZERO PUSH2 0x5EE JUMPI PUSH2 0x5ED PUSH2 0xA66 JUMP JUMPDEST JUMPDEST PUSH1 0x0 PUSH2 0x5FC DUP5 DUP3 DUP6 ADD PUSH2 0x580 JUMP JUMPDEST SWAP2 POP POP SWAP3 SWAP2 POP POP JUMP JUMPDEST PUSH1 0x0 DUP1 PUSH1 0x40 DUP4 DUP6 SUB SLT ISZERO PUSH2 0x61C JUMPI PUSH2 0x61B PUSH2 0xA66 JUMP JUMPDEST JUMPDEST PUSH1 0x0 PUSH2 0x62A DUP6 DUP3 DUP7 ADD PUSH2 0x580 JUMP JUMPDEST SWAP3 POP POP PUSH1 0x20 DUP4 ADD CALLDATALOAD PUSH8 0xFFFFFFFFFFFFFFFF DUP2 GT ISZERO PUSH2 0x64B JUMPI PUSH2 0x64A PUSH2 0xA61 JUMP JUMPDEST JUMPDEST PUSH2 0x657 DUP6 DUP3 DUP7 ADD PUSH2 0x595 JUMP JUMPDEST SWAP2 POP POP SWAP3 POP SWAP3 SWAP1 POP JUMP JUMPDEST PUSH1 0x0 PUSH1 0x20 DUP3 DUP5 SUB SLT ISZERO PUSH2 0x677 JUMPI PUSH2 0x676 PUSH2 0xA66 JUMP JUMPDEST JUMPDEST PUSH1 0x0 PUSH2 0x685 DUP5 DUP3 DUP6 ADD PUSH2 0x5C3 JUMP JUMPDEST SWAP2 POP POP SWAP3 SWAP2 POP POP JUMP JUMPDEST PUSH2 0x697 DUP2 PUSH2 0x894 JUMP JUMPDEST DUP3 MSTORE POP POP JUMP JUMPDEST PUSH2 0x6A6 DUP2 PUSH2 0x8A6 JUMP JUMPDEST DUP3 MSTORE POP POP JUMP JUMPDEST PUSH1 0x0 PUSH2 0x6B7 DUP3 PUSH2 0x86D JUMP JUMPDEST PUSH2 0x6C1 DUP2 DUP6 PUSH2 0x878 JUMP JUMPDEST SWAP4 POP PUSH2 0x6D1 DUP2 DUP6 PUSH1 0x20 DUP7 ADD PUSH2 0x8EB JUMP JUMPDEST PUSH2 0x6DA DUP2 PUSH2 0xA6B JUMP JUMPDEST DUP5 ADD SWAP2 POP POP SWAP3 SWAP2 POP POP JUMP JUMPDEST PUSH1 0x0 PUSH2 0x6F0 DUP3 PUSH2 0x86D JUMP JUMPDEST PUSH2 0x6FA DUP2 DUP6 PUSH2 0x889 JUMP JUMPDEST SWAP4 POP PUSH2 0x70A DUP2 DUP6 PUSH1 0x20 DUP7 ADD PUSH2 0x8EB JUMP JUMPDEST DUP1 DUP5 ADD SWAP2 POP POP SWAP3 SWAP2 POP POP JUMP JUMPDEST PUSH2 0x71F DUP2 PUSH2 0x8D2 JUMP JUMPDEST DUP3 MSTORE POP POP JUMP JUMPDEST PUSH1 0x0 PUSH2 0x731 DUP3 DUP5 PUSH2 0x6E5 JUMP JUMPDEST SWAP2 POP DUP2 SWAP1 POP SWAP3 SWAP2 POP POP JUMP JUMPDEST PUSH1 0x0 PUSH1 0x20 DUP3 ADD SWAP1 POP PUSH2 0x751 PUSH1 0x0 DUP4 ADD DUP5 PUSH2 0x68E JUMP JUMPDEST SWAP3 SWAP2 POP POP JUMP JUMPDEST PUSH1 0x0 PUSH1 0x20 DUP3 ADD SWAP1 POP PUSH2 0x76C PUSH1 0x0 DUP4 ADD DUP5 PUSH2 0x69D JUMP JUMPDEST SWAP3 SWAP2 POP POP JUMP JUMPDEST PUSH1 0x0 PUSH1 0x20 DUP3 ADD SWAP1 POP PUSH2 0x787 PUSH1 0x0 DUP4 ADD DUP5 PUSH2 0x716 JUMP JUMPDEST SWAP3 SWAP2 POP POP JUMP JUMPDEST PUSH1 0x0 PUSH1 0x60 DUP3 ADD SWAP1 POP PUSH2 0x7A2 PUSH1 0x0 DUP4 ADD DUP7 PUSH2 0x716 JUMP JUMPDEST PUSH2 0x7AF PUSH1 0x20 DUP4 ADD DUP6 PUSH2 0x68E JUMP JUMPDEST DUP2 DUP2 SUB PUSH1 0x40 DUP4 ADD MSTORE PUSH2 0x7C1 DUP2 DUP5 PUSH2 0x6AC JUMP JUMPDEST SWAP1 POP SWAP5 SWAP4 POP POP POP POP JUMP JUMPDEST PUSH1 0x0 PUSH1 0x80 DUP3 ADD SWAP1 POP PUSH2 0x7E0 PUSH1 0x0 DUP4 ADD DUP8 PUSH2 0x716 JUMP JUMPDEST PUSH2 0x7ED PUSH1 0x20 DUP4 ADD DUP7 PUSH2 0x716 JUMP JUMPDEST PUSH2 0x7FA PUSH1 0x40 DUP4 ADD DUP6 PUSH2 0x68E JUMP JUMPDEST DUP2 DUP2 SUB PUSH1 0x60 DUP4 ADD MSTORE PUSH2 0x80C DUP2 DUP5 PUSH2 0x6AC JUMP JUMPDEST SWAP1 POP SWAP6 SWAP5 POP POP POP POP POP JUMP JUMPDEST PUSH1 0x0 PUSH2 0x821 PUSH2 0x832 JUMP JUMPDEST SWAP1 POP PUSH2 0x82D DUP3 DUP3 PUSH2 0x950 JUMP JUMPDEST SWAP2 SWAP1 POP JUMP JUMPDEST PUSH1 0x0 PUSH1 0x40 MLOAD SWAP1 POP SWAP1 JUMP JUMPDEST PUSH1 0x0 PUSH8 0xFFFFFFFFFFFFFFFF DUP3 GT ISZERO PUSH2 0x857 JUMPI PUSH2 0x856 PUSH2 0xA28 JUMP JUMPDEST JUMPDEST PUSH2 0x860 DUP3 PUSH2 0xA6B JUMP JUMPDEST SWAP1 POP PUSH1 0x20 DUP2 ADD SWAP1 POP SWAP2 SWAP1 POP JUMP JUMPDEST PUSH1 0x0 DUP2 MLOAD SWAP1 POP SWAP2 SWAP1 POP JUMP JUMPDEST PUSH1 0x0 DUP3 DUP3 MSTORE PUSH1 0x20 DUP3 ADD SWAP1 POP SWAP3 SWAP2 POP POP JUMP JUMPDEST PUSH1 0x0 DUP2 SWAP1 POP SWAP3 SWAP2 POP POP JUMP JUMPDEST PUSH1 0x0 PUSH2 0x89F DUP3 PUSH2 0x8B2 JUMP JUMPDEST SWAP1 POP SWAP2 SWAP1 POP JUMP JUMPDEST PUSH1 0x0 DUP2 ISZERO ISZERO SWAP1 POP SWAP2 SWAP1 POP JUMP JUMPDEST PUSH1 0x0 PUSH20 0xFFFFFFFFFFFFFFFFFFFFFFFFFFFFFFFFFFFFFFFF DUP3 AND SWAP1 POP SWAP2 SWAP1 POP JUMP JUMPDEST PUSH1 0x0 DUP2 SWAP1 POP SWAP2 SWAP1 POP JUMP JUMPDEST DUP3 DUP2 DUP4 CALLDATACOPY PUSH1 0x0 DUP4 DUP4 ADD MSTORE POP POP POP JUMP JUMPDEST PUSH1 0x0 JUMPDEST DUP4 DUP2 LT ISZERO PUSH2 0x909 JUMPI DUP1 DUP3 ADD MLOAD DUP2 DUP5 ADD MSTORE PUSH1 0x20 DUP2 ADD SWAP1 POP PUSH2 0x8EE JUMP JUMPDEST DUP4 DUP2 GT ISZERO PUSH2 0x918 JUMPI PUSH1 0x0 DUP5 DUP5 ADD MSTORE JUMPDEST POP POP POP POP JUMP JUMPDEST PUSH1 0x0 PUSH1 0x2 DUP3 DIV SWAP1 POP PUSH1 0x1 DUP3 AND DUP1 PUSH2 0x936 JUMPI PUSH1 0x7F DUP3 AND SWAP2 POP JUMPDEST PUSH1 0x20 DUP3 LT DUP2 EQ ISZERO PUSH2 0x94A JUMPI PUSH2 0x949 PUSH2 0x9F9 JUMP JUMPDEST JUMPDEST POP SWAP2 SWAP1 POP JUMP JUMPDEST PUSH2 0x959 DUP3 PUSH2 0xA6B JUMP JUMPDEST DUP2 ADD DUP2 DUP2 LT PUSH8 0xFFFFFFFFFFFFFFFF DUP3 GT OR ISZERO PUSH2 0x978 JUMPI PUSH2 0x977 PUSH2 0xA28 JUMP JUMPDEST JUMPDEST DUP1 PUSH1 0x40 MSTORE POP POP POP JUMP JUMPDEST PUSH1 0x0 PUSH2 0x98C DUP3 PUSH2 0x8D2 JUMP JUMPDEST SWAP2 POP PUSH32 0xFFFFFFFFFFFFFFFFFFFFFFFFFFFFFFFFFFFFFFFFFFFFFFFFFFFFFFFFFFFFFFFF DUP3 EQ ISZERO PUSH2 0x9BF JUMPI PUSH2 0x9BE PUSH2 0x9CA JUMP JUMPDEST JUMPDEST PUSH1 0x1 DUP3 ADD SWAP1 POP SWAP2 SWAP1 POP JUMP JUMPDEST PUSH32 0x4E487B7100000000000000000000000000000000000000000000000000000000 PUSH1 0x0 MSTORE PUSH1 0x11 PUSH1 0x4 MSTORE PUSH1 0x24 PUSH1 0x0 REVERT JUMPDEST PUSH32 0x4E487B7100000000000000000000000000000000000000000000000000000000 PUSH1 0x0 MSTORE PUSH1 0x22 PUSH1 0x4 MSTORE PUSH1 0x24 PUSH1 0x0 REVERT JUMPDEST PUSH32 0x4E487B7100000000000000000000000000000000000000000000000000000000 PUSH1 0x0 MSTORE PUSH1 0x41 PUSH1 0x4 MSTORE PUSH1 0x24 PUSH1 0x0 REVERT JUMPDEST PUSH1 0x0 DUP1 REVERT JUMPDEST PUSH1 0x0 DUP1 REVERT JUMPDEST PUSH1 0x0 DUP1 REVERT JUMPDEST PUSH1 0x0 DUP1 REVERT JUMPDEST PUSH1 0x0 PUSH1 0x1F NOT PUSH1 0x1F DUP4 ADD AND SWAP1 POP SWAP2 SWAP1 POP JUMP JUMPDEST PUSH2 0xA85 DUP2 PUSH2 0x894 JUMP JUMPDEST DUP2 EQ PUSH2 0xA90 JUMPI PUSH1 0x0 DUP1 REVERT JUMPDEST POP JUMP JUMPDEST PUSH2 0xA9C DUP2 PUSH2 0x8D2 JUMP JUMPDEST DUP2 EQ PUSH2 0xAA7 JUMPI PUSH1 0x0 DUP1 REVERT JUMPDEST POP JUMP INVALID LOG2 PUSH5 0x6970667358 0x22 SLT KECCAK256 BALANCE 0xC9 0xC8 0x2A ADDRESS 0x4D 0x1E 0xD7 0xD2 SAR PUSH10 0xBFC33EEAFF0E91D0208E DUP3 PUSH3 0x27C737 0xDC 0xD BYTE 0xAB PUSH2 0x8364 PUSH20 0x6F6C634300080700330000000000000000000000 "
		},
		"gasEstimates": {
			"creation": {
				"codeDepositCost": "556800",
				"executionCost": "587",
				"totalCost": "557387"
			},
			"external": {
				"createNewTicket(address,string)": "infinite",
				"ticketStatus(uint256)": "2840",
				"ticketToOwner(uint256)": "2817",
				"ticketUnderAuthority(address)": "2880",
				"tickets(uint256)": "infinite"
			},
			"internal": {
				"_createTicket(uint256,address,string memory)": "infinite",
				"generateRefNo(string memory)": "infinite"
			}
		},
		"methodIdentifiers": {
			"createNewTicket(address,string)": "3c518dd3",
			"ticketStatus(uint256)": "8ce7e461",
			"ticketToOwner(uint256)": "2b08e824",
			"ticketUnderAuthority(address)": "a8913336",
			"tickets(uint256)": "50b44712"
		}
	},
	"abi": [
		{
			"anonymous": false,
			"inputs": [
				{
					"indexed": false,
					"internalType": "uint256",
					"name": "ticketId",
					"type": "uint256"
				},
				{
					"indexed": false,
					"internalType": "uint256",
					"name": "refNo",
					"type": "uint256"
				},
				{
					"indexed": false,
					"internalType": "address",
					"name": "authority",
					"type": "address"
				},
				{
					"indexed": false,
					"internalType": "string",
					"name": "link",
					"type": "string"
				}
			],
			"name": "ticketCreated",
			"type": "event"
		},
		{
			"inputs": [
				{
					"internalType": "address",
					"name": "_authority",
					"type": "address"
				},
				{
					"internalType": "string",
					"name": "_link",
					"type": "string"
				}
			],
			"name": "createNewTicket",
			"outputs": [],
			"stateMutability": "nonpayable",
			"type": "function"
		},
		{
			"inputs": [
				{
					"internalType": "uint256",
					"name": "",
					"type": "uint256"
				}
			],
			"name": "ticketStatus",
			"outputs": [
				{
					"internalType": "bool",
					"name": "",
					"type": "bool"
				}
			],
			"stateMutability": "view",
			"type": "function"
		},
		{
			"inputs": [
				{
					"internalType": "uint256",
					"name": "",
					"type": "uint256"
				}
			],
			"name": "ticketToOwner",
			"outputs": [
				{
					"internalType": "address",
					"name": "",
					"type": "address"
				}
			],
			"stateMutability": "view",
			"type": "function"
		},
		{
			"inputs": [
				{
					"internalType": "address",
					"name": "",
					"type": "address"
				}
			],
			"name": "ticketUnderAuthority",
			"outputs": [
				{
					"internalType": "uint256",
					"name": "",
					"type": "uint256"
				}
			],
			"stateMutability": "view",
			"type": "function"
		},
		{
			"inputs": [
				{
					"internalType": "uint256",
					"name": "",
					"type": "uint256"
				}
			],
			"name": "tickets",
			"outputs": [
				{
					"internalType": "uint256",
					"name": "refNo",
					"type": "uint256"
				},
				{
					"internalType": "address",
					"name": "authority",
					"type": "address"
				},
				{
					"internalType": "string",
					"name": "link",
					"type": "string"
				}
			],
			"stateMutability": "view",
			"type": "function"
		}
	]
}